:100000000C947C1A0C94A41A0C94A41A0C94A41AA0
:100010000C94A41A0C94A41A0C94A41A0C94A41A68
:100020000C94A41A0C94A41A0C94A41A0C94A41A58
:100030000C94A41A0C94A41A0C94A41A0C94A41A48
:100040000C94A41A0C94A41A0C94A41A0C94A41A38
:100050000C94A41A0C94A41A0C94A41A0C94F02BCB
:100060000C94A41A0C94A41A0C94A41A0C94A41A18
:100070000C94A41A0C94A41A0C94A41A0C94A41A08
:100080000C9425250C94A41A0C94A41A0C94A41A6C
:100090000C94A41A0C94A41A0C94A41A0C94A41AE8
:1000A0000C94A41A0C94A41A0C94A41AEF311931CC
:1000B000F5319E311F312C31363145311331A431A8
:1000C0004E3156315E317E31843166319731913116
:1000D0008B31000001000001000001000001FF035E
:1000E00004FF0304FE0506FE0506FF0708FF0708D8
:1000F000070D06070D060B0E040B0E040D10010E66
:100100001001121203131203151405151405161607
:10011000071718070A000900000200000200000289
:10012000000002000302000602000902000C0200A7
:100130000F0200120200140200000900000000007B
:100140000000000000000001030301030301050596
:100150000105050107070107070100090002040660
:1001600008090A0A0B0B0C0C0C0D0D0D0D0D0D0DD5
:100170000D0D0D0D0D0D0D0D0D0C0C0C0B0B0A09BD
:1001800008060402000B794A01180D794A001C0F79
:10019000794A000C117849000C137849000C157845
:1001A00049000C177849000C197849000C1B774856
:1001B000000C1D7748000C1F7748000C2177480081
:1001C0000C237748000C257647000C277647000C57
:1001D000297647000C2B7647000C2D7647000C2F14
:1001E0007546000C317546000C337546000C3575AC
:1001F00046000C377546000C397445000C3B7445BD
:10020000000C3D7445000C3F7445001C41744500D2
:100210001C437343001C457343001C477343000C8D
:10022000497343000C4B7343000C4D7242000C4F5A
:100230007242000C517242000C537242000C557213
:1002400042000C577141000C597141000C5B714127
:10025000000D5D714100055D6F3F0C035D6D3D0C50
:10026000035D6B3B0D035D69390D035D67370C035F
:100270005D65350C035D63330D035D61310D035D19
:100280005F2F0C035D5D2D0C035D5B2B0D035D5932
:100290002900465B5929004E595828004C575828C8
:1002A000004C555828004C535828004C51582800F1
:1002B0004C4F5727004C4D5727005C4B5727005C8D
:1002C000495727005C475727005C455626005C438A
:1002D0005626005C415626005C3F5626005C3D5683
:1002E00026005C3B5525005C395525005C375525BB
:1002F000005C355525005C335525005C31542400E5
:100300005C2F5424005C2D5424004C2B5424004CAE
:10031000295424004C275323004C255323004C23FD
:100320005323004C215323004C1F5323004C1D52D8
:1003300022004C1B5222004C195222004C17522210
:10034000004C155222004C135121004C1151210038
:100350004C0F5121004C0D5121004D0B51210049F2
:100360000B4F1F0C030B4D1D0C030B4B1B0D030BF5
:1003700049190D030B47170C030B45150C030B43D1
:10038000130D030B41110D030B3F0F0C030B3D0D20
:100390000C030B3B0B0D030B39090D030B37070C3B
:1003A000030B35050C030B33030D030B31010D0358
:1003B0000B2F000C030B2D000C030B2B000D030B5C
:1003C00029000D030B27000C030B2400002A0D2429
:1003D00000000E0F2400000C112400000C13240058
:1003E000000C152400000C172400000C1924000038
:1003F0000C1B2400000C1D2400000C1F2400000C0A
:10040000212400000C232400000C252400000C27CC
:100410002400000C292400000C2B2400000C2D24A7
:1004200000000C2F2400000C312400000C332400A9
:10043000000C352400000C372400000C3924000087
:100440000C3B2400000C3D2400000C3F2400000C59
:10045000412400000C432400000C452400000C47FC
:100460002400000C492400008C4B2400008C4D21FA
:10047000000B044F1F000B0C511E000B0C531D00F2
:100480000B0C551D000F00551D000F00551D000FD2
:1004900000551D000F00551D000F00551D000F00D9
:1004A000551D000F005F15000F005F15000F005B6A
:1004B000150013005B150013005F170014005F1791
:1004C0000014006419001400641900140064190079
:1004D0001400581D011400581D021400581D031467
:1004E00000542A041400542A051400542A06140047
:1004F00058320714005832081400583209140059B1
:100500003409000059340901005B340903005D34EB
:100510000905005F340907006134090900633409E3
:1005200003006534090500673409070069340909C7
:10053000006B340903006D340905006F34090700AE
:100540007134090900733409030075340905007713
:100550003409070079340909007B340903007D342C
:100560000905007F340907008134090700551E0082
:100570000B00571F010B005B21030B005D23050BD4
:10058000005F26080B0061290B0B00632C0E0B008B
:100590006530120B006733151000693315110069BF
:1005A00033151200693315120069331512006933CF
:1005B00015120069331512006933151200693315DD
:1005C000120069331512004D24000B004F24000B5C
:1005D000005124000B005325000B005525000B0093
:1005E0005725010B005B26030B005D26050B005F02
:1005F00027080B0061280B0B0063290E0B00652BED
:10060000120B00672E1510006933151100693315A0
:10061000120069331512006933151200693315127F
:100620000069331512006933151200693315120081
:100630006933151200C734090100633409010063EE
:1006400034090000633409000061330902005F319E
:100650000904005D2E0906005B2C090800592A09CF
:1006600002005728090400552609060053240908EA
:100670000051220902004F210904004D2209060001
:100680004B240908004924090200472409040045B5
:1006900024090600432409080041240902003F24DC
:1006A0000904003D240906003B24090800392409F7
:1006B0000200372409040035240906003324090800
:1006C0000031240902002F240904002D240906000A
:1006D0002B240908002924090200272409040025E5
:1006E00024090600232409080021240902001F24EC
:1006F0000904001D240906001B220908001920090D
:100700000200171E080400151C070600131A06082D
:10071000001118050A000F16040A000F14030A003E
:100720000F13020A000F11010A000D0F000A000B3F
:100730000E000200090E000400070E000600050E60
:10074000000800030E000200030E000C00030E0060
:100750000C00030E000D00030E000D00030E000C34
:1007600000030E000C00030E000D00030E000D0030
:10077000030E000C00030E000C00030E000D00031E
:100780000E000D00030E000C00030E000200010E0F
:10079000000400FF0E000600FD0E000800FB0E0026
:1007A0000200F90E000400F70E000600F50E000826
:1007B000007924000004451204451404451604453C
:1007C0001804451A04451C04451E0445200445220E
:1007D00004452404452604452804452A04452C04E0
:1007E000452E044530044532044534044334014168
:1007F00034013F34013D3501393501373501353597
:10080000013336013136012F36012D36012B369951
:100810002C13042C15042C17042C19042C1B042C49
:100820001D042C1F042C21042C23042C25042C270C
:10083000042C29042C2B042C2D042C2F042C3104E3
:100840002C33042C35012C3701293701273701259A
:1008500037012337011F38011D38011B38011938B2
:1008600001173801153999131304131504131704CC
:10087000131904131B04131D04131F041321041361
:100880002304132504132704132904132B04132D05
:1008900004132F04133104133304133504133704E2
:1008A0001339011139010F39010D39010B3A0109D1
:1008B0003A01073A01053A01033A01013B01FF3DC4
:1008C00001FF3F01FF4101FF4301FF4501FF4701D8
:1008D000FF4901FF4B01FF4D01FF4F01FF5101FF98
:1008E00053010153020353020553020753020954F3
:1008F000020B54020D54020F5402115402135502FC
:100900001555021755021955021B55021D56021F97
:10091000560221560223560225560227570229570E
:10092000022B57022D57022F57023158023358021B
:100930003558023758023958023B59023D59023F97
:100940005902415902435902455A02475A02495A2B
:10095000024B5A024D5A024F5B02515B02535B023B
:10096000555B02575B02595C025B5C025D5C025F97
:100970005C02615C02635D02645E02655F02656148
:1009800002656302656502656702656902656B025F
:10099000656D02656F0265710265730263730161C3
:1009A00073015F73015D74015B74015974015774C5
:1009B000015574015375015175014F75014D750154
:1009C0004B75014976014776014576014376014131
:1009D00076013F77013D77013B7701397701377722
:1009E000013578013378013178012F78012D7801B4
:1009F0002B790129790127790125790123790121B1
:100A00007A011F7A011D7A011B7A01197A01177B7D
:100A100001157B01137B01117B010F7B010D7C0113
:100A20000B7C01097C01077C01057C01037D010130
:100A30007E0101800101820101840101860101889A
:100A400001018A01018C010000047F4A027D4A02F3
:100A50007B4A02794A02774A02754A02734A027156
:100A60004A026F4A026D49026B49026949026749AD
:100A7000026549006349006149005F49005D490022
:100A80005B490059490057480055480253480251F4
:100A900048024F48024D48024B4802494802474825
:100AA000024548014347014147013F47013D470196
:100AB0003B47013947013747013547023347023188
:100AC00047022F46022D46022B46022946022746A0
:100AD000022546002346002146001F46001D460011
:100AE0001B45001945001745001545021345021125
:100AF00045020F45020D45020B4502094502074418
:100B000002054401034401014401FF4401FD440185
:100B1000FB4401F94401F74401F54401F34302F1B8
:100B20004302EF4302ED4302EB430200000288015F
:100B30001400AF00140000802C00320021003200AD
:100B400037003200008010033200930232000B02A3
:100B50003200700332005D01320026013200EE01E6
:100B600032000080DC003200B80132007003320035
:100B70000080E402F20100009000E4022200000084
:100B80004800E402220000004800E402B100000036
:100B90006C00E402690000002400E402460000004A
:100BA00048003F03690000002400A403690000001E
:100BB0002400DC030A040000FB00DC0369000000E1
:100BC00024005504460000004800DD0446000000F3
:100BD000480075055D020000240075052200000034
:100BE000480075052200000048007505220000003D
:100BF000B3005504B1000000240075054600000054
:100C00004800C8057500000018007D066900000056
:100C10002400C80569060080AF0014008801140094
:100C2000008010033200930232000B023200700386
:100C300032005D01320026013200EE013200C400B4
:100C40003200A500320083003200DC003200570081
:100C50003200490032007B0032007B00320000008D
:100C600014007B003200000014007B003200008082
:100C7000D5F08D14A1C881CFD9F1AF2000FCFEFFC3
:100C8000FFFFFFFFFFFFFFFFFFFFFFFFFFFFFFFF74
:100C9000FFFFFFFFFEFEFC070F1F1F1F1F1F1F1F71
:100CA0001F1F1F1F1F1F1F1F1F1F1F1F1F1F1F1F54
:100CB0000F1A0D00FC02FAFAAAAA02F2FA2AF202AC
:100CC000B2BAEA6A021AFAE21A02FC000000070845
:100CD0000A0A0A0A080A0A090A080A0A0A0908087E
:100CE0000A0A080807000000FC02FAFA22FA02F2D7
:100CF000FA2AF202FAFA2AD202FAFA8AF202FC007C
:100D0000000007080A0A090A080A0A090A080A0A62
:100D1000090A080A0A0A0A08070000FCFCFCFCFC95
:100D2000FCFCFCFCFCFCFCFCFCFCFCFCFFFFFFFFF7
:100D3000FFFFFFFFFFFFFFFFFFFEFCF801010101C6
:100D40000101010101010101010101010101010193
:100D50000103070F0F0F0F0F0F0F070301210C00E7
:100D6000007828100078285000785800104820009B
:100D7000104820000078FC8ED6DAD68EFC78000071
:100D80000000000000000000000000000000000063
:100D90000000000000000102050505050502010034
:100DA000000408022905023E09093E3F25251A1EB6
:100DB0002121123F21211E3F2525213F0505011E2E
:100DC00021293A3F04043F213F21001021211F3FE8
:100DD000040A313F2020203F02023F3F02043F1E11
:100DE00021211E3F0909061E21112E3F0909362225
:100DF000252519013F01011F20201F0F10201F3F33
:100E000010103F3B04043B03043807312D23211EFF
:100E100029251E223F2000322929261221251A0CBD
:100E20000A3F08172525191E252518013905031A1B
:100E300025251A0629291EFCFEFFFFFFFFFFFFFFE5
:100E4000FFFFFFFFFFFFFFFFFFFFFFFFFFFFFFFFB2
:100E5000FFFFFFFFFFFFFFFFFFFFFFFFFFFFFFFFA2
:100E6000FFFFFFFFFFFFFFFFFFFFFFFFFFFFFFFF92
:100E7000FFFFFFFFFFFFFFFFFFFFFFFFFFFFFFFF82
:100E8000FFFFFFFFFFFFFFFFFFFFFFFEFEFCFFFF77
:100E9000FFFFFFFFFFFFFFFFFFFFFFFFFFFFFFFF62
:100EA000FFFFFFFFFFFFFFFFFFFFFFFFFFFFFFFF52
:100EB000FFFFFFFFFFFFFFFFFFFFFFFFFFFFFFFF42
:100EC000FFFFFFFFFFFFFFFFFFFFFFFFFFFFFFFF32
:100ED000FFFFFFFFFFFFFFFFFFFFFFFFFFFFFFFF22
:100EE000FFFFFFFFFF0103070707070707070707C4
:100EF0000707070707070707070707070707070782
:100F00000707070707070707070707070707070771
:100F10000707070707070707070707070707070761
:100F20000707070707070707070707070707070751
:100F3000070707070707070707070703571300FCFB
:100F40000202F2F2F282F2F2F202F2F2F202C2E2F1
:100F5000F2121252624202F2F2F282F2F2F2020251
:100F6000E2F29292122202C2E2F2321212722202D1
:100F7000C2E2F2125212F2E2C202F2F2F21212F2E1
:100F8000F2E202F2F2F292921202E2F29292122251
:100F90000202FC000000FF00005F5F5F005F5F5F18
:100FA000005F5F5F00172F5F50515F2F5F005F5F33
:100FB0005F005F5F5F002C5C5151535F2E00172F65
:100FC0005F585050582E00172F5F5050505F2F170A
:100FD000005F5F5F01015F5E58005F5F5F505250CE
:100FE0000C5C5151535F2E0000FF00000001020213
:100FF00002020202020202020202020202020202D1
:1010000002020202020202020202020202020202C0
:1010100002020202020202020202020202020202B0
:1010200002020202020202020202020202020202A0
:101030000202020202020202020202020202020290
:10104000010000FFFFFFFFFFFFFFFFFFFFFFFFFFAC
:10105000FFFFFFFFFFFFFFFFFFFFFFFFFFFFFFFFA0
:10106000FFFFFFFFFFFFFFFFFFFFFFFFFFFFFFFF90
:10107000FFFFFFFFFFFFFFFFFFFFFFFFFFFFFFFF80
:10108000FFFFFFFFFFFFFFFFFFFFFFFFFFFFFFFF70
:10109000FFFFFFFFFFFFFFFFFFFFFFFFFFFFFFFF60
:1010A000FFFFFFFFFFFFFFFFFFFFFFFFFFFFFFFF50
:1010B000FFFFFFFFFFFFFFFFFFFFFFFFFFFFFFFF40
:1010C000FFFFFFFFFFFFFFFFFFFFFFFFFFFFFFFF30
:1010D000FFFFFFFFFFFFFFFFFFFFFFFFFFFFFFFF20
:1010E000FFFFFFFFFFFFFFFFFFFFFFFFFFFFFFFF10
:1010F000FFFFFFFFFFFFFFFFFFFFFFFFFFFFFFFF00
:10110000FFFFFFFFFFFFFFFFFFFFFFFFFFFFFFFFEF
:10111000FFFFFFFFFFFFFFFFFFFFFFFFFFFFFFFFDF
:10112000FFFFFFFFFFFFFFFFFFFFFFFFFFFFFFFFCF
:10113000FFFFFFFFFFFFFFFFFFFFFFFFFFFFFFFFBF
:10114000FFFFFFFFFFFFFFFFFFFFFFFFFFFFFFFFAF
:10115000FFFFFFFFFFFFFFFFFFFFFFFFFFFFFFFF9F
:10116000FFFFFF030303030303030303030303035B
:10117000030303030303030303030303030303033F
:10118000030303030303030303030303030303032F
:10119000030303030303030303030303030303031F
:1011A0000303030303030303030303482200FC06B2
:1011B000020202020202020202020202020202020F
:1011C00002020202020202020202020202020202FF
:1011D00002020202020202020202020202020202EF
:1011E00002020202020202020202020202020202DF
:1011F000020206FC0000FF000000000000000000EA
:1012000000000000000000000000000000000000DE
:1012100000000000000000000000000000000000CE
:1012200000000000000000000000000000000000BE
:101230000000000000000000000000FF0000FF00B0
:10124000000000000000000000000000000000009E
:10125000000000000000000000000000000000008E
:10126000000000000000000000000000000000007E
:10127000000000000000000000000000000000006E
:10128000000000FF0000FF800000000000000000E0
:10129000000000000000000000000000000000004E
:1012A000000000000000000000000000000000003E
:1012B000000000000000000000000000000000002E
:1012C0000000000000000000000080FF000000019E
:1012D00001010101010101010101010101010101FE
:1012E00001010101010101010101010101010101EE
:1012F00001010101010101010101010101010101DE
:1013000001010101010101010101010101010101CD
:1013100001010100000B08878F9DB7E7C7A5D7AF74
:10132000978D387CFEFFFFFFFE7C38000000010136
:1013300001000000090900385482D68254380000A8
:10134000000000000000000000384CC292866438A3
:10135000000000000000000000000038648692C217
:101360004C380000000000000000000003F70403F8
:10137000F80403F90403FA0403FB0403FC0403FD6B
:101380000403FE0403FF0403000403010205010239
:101390000701020901020B01020D02020F020211F4
:1013A00002021302021502021703021903021B03B1
:1013B000021D03021F03022104022304022504026A
:1013C0002704022904022B05022D05022F050231F4
:1013D00005023305023506023706023906023B06CE
:1013E000023D06023F07024107024307024507028A
:1013F0004707024908024B08024D08024F080251F4
:1014000008025309025509025709025909025B09EA
:10141000025D0A025F0A02610A02630A02650A02A9
:10142000670B02690B026B0B026D0B026F0B0271F3
:101430000C02730D04730F047311047313047315FA
:1014400004731704731904731B04731D04731F04BE
:101450007321047323047123016F23016D23016B36
:1014600024016924016724016524016324016125A5
:10147000015F25015D25015B2501592501572601E5
:101480005526015326015126014F26014D27014BB8
:101490002701492701472701452701432801412802
:1014A000013F28013D28013B280139290137290145
:1014B0003529013329013129012F2A012D2A012B38
:1014C0002A01292A01272A01252B01232B01212B5F
:1014D000011F2B011D2B011B2C01192C01172C01A5
:1014E000152C01132C01112D010F2D010D2D010BB8
:1014F0002D01092D01072E01052F010531010533AD
:1015000001053504053704053904053B04053D0490
:10151000053F040541040000000000000000000336
:1015200006090C0F1214F8FCFEFFFFFFFFFFFFFF80
:10153000FFFFFFFFFFFFFFFFFFFFFFFFFFFFFFFFBB
:10154000FFFFFFFFFFFFFFFFFFFFFFFFFFFFFFFFAB
:10155000FFFFFFFFFEFCF8FFFFFFFFFFFFFFFFFFA6
:10156000FFFFFFFFFFFFFFFFFFFFFFFFFFFFFFFF8B
:10157000FFFFFFFFFFFFFFFFFFFFFFFFFFFFFFFF7B
:10158000FFFFFFFFFFFFFFFF00010307070707073C
:1015900007070707070707070707070707070707DB
:1015A00007070707070707070707070707070707CB
:1015B000070707070707030100311300F8040202B9
:1015C000F2F2F21212F2F2E20202E2F2F2C20202CB
:1015D00002F2F2F2020202F20202E2F2929212220B
:1015E00002F2F2F2929212020204F80000FF0000EE
:1015F000005F5F5F010505050258071414075F5E71
:1016000050002F5F5F5050502F002C545151535FAA
:101610002E005F5F5F505250000000FF000000018D
:10162000020202020202020202020202020202029A
:10163000020202020202020202020202020202028A
:101640000202020202020202020202010000F8FC8F
:10165000FEFFFFFFFFFFFFFFFFFFFFFFFFFFFFFF9B
:10166000FFFFFFFFFFFFFFFFFFFFFFFFFFFFFFFF8A
:10167000FFFFFFFFFFFFFFFFFFFFFFFFFFFFFFFF7A
:10168000FFFFFFFFFFFFFFFFFFFFFFFFFFFFFFFF6A
:10169000FFFFFFFFFFFFFEFCF8FFFFFFFFFFFFFF65
:1016A000FFFFFFFFFFFFFFFFFFFFFFFFFFFFFFFF4A
:1016B000FFFFFFFFFFFFFFFFFFFFFFFFFFFFFFFF3A
:1016C000FFFFFFFFFFFFFFFFFFFFFFFFFFFFFFFF2A
:1016D000FFFFFFFFFFFFFFFFFFFFFFFFFFFFFFFF1A
:1016E000FFFFFFFF000103070707070707070707BB
:1016F000070707070707070707070707070707077A
:101700000707070707070707070707070707070769
:101710000707070707070707070707070707070759
:101720000707070707070707070707070301004B16
:101730001300F804C2E2F21212526242020202E202
:10174000F2F2C2020202F2F2F202C2F2F2F2020279
:10175000F2F2F29292120202C2E2F2125212F2E299
:10176000C232F2F2820282721202F2F2F292921209
:1017700002F2F2F21212F2F2E204F80000FF001795
:101780002F5F50515F2F5F0058071414075F5E50A2
:10179000005F015F5E015F5F5F00005F5F5F50524F
:1017A000500000172F5F5050505F2F1700035F5FEE
:1017B00058070000005F5F5F505250005F5F5F019D
:1017C000015F5E5800FF00000001020202020202F7
:1017D00002020202020202020202020202020202E9
:1017E00002020202020202020202020202020202D9
:1017F00002020202020202020202020202020202C9
:1018000002020202020202020202020202020201B9
:101810000000040406090F060A0F0F08090D0F0A3D
:10182000090B0F0F03020F0F070D0D0D0F0A0E0E00
:10183000010D0F030E0B0B0F07050F0FFCFEFFFF33
:10184000FFFFFFFFFFFFFFFFFFFFFFFFFFFFFFFFA8
:10185000FFFFFFFEFC000103030303030303030375
:101860000303030303030303030303030100190A30
:1018700000FC020202020202020202020202020250
:1018800002020202020202FC000000010101010149
:101890000101010101010101010101010101010138
:1018A0000000090D000404FCFEFE000000000A0A0E
:1018B0000B0B0B0A0A00001C82C2E27E3E1C0000D9
:1018C0000B0B0B0B0B0B0B000080863232FEFECC99
:1018D0000000050A0A0A0B0B0500F8FCFEFFFFFFDB
:1018E000FFFFFFFFFFFFFFFFFFFFFFFFFFFFFFFF08
:1018F000FFFFFFFFFFFFFFFFFFFFFFFFFFFFFFFFF8
:10190000FFFFFFFFFFFFFFFFFFFFFFFFFFFFFFFFE7
:10191000FFFFFFFFFFFFFFFFFFFFFFFFFFFFFFFED8
:10192000FCF8FFFFFFFFFFFFFFFFFFFFFFFFFFFFD1
:10193000FFFFFFFFFFFFFFFFFFFFFFFFFFFFFFFFB7
:10194000FFFFFFFFFFFFFFFFFFFFFFFFFFFFFFFFA7
:10195000FFFFFFFFFFFFFFFFFFFFFFFFFFFFFFFF97
:10196000FFFFFFFFFFFFFFFFFFFF00010307070768
:1019700007070707070707070707070707070707F7
:1019800007070707070707070707070707070707E7
:1019900007070707070707070707070707070707D7
:1019A00007070707070707070707070707070703CB
:1019B0000100481300F804020202020202020202BD
:1019C0000202F2F2F202020202F2F2F20232F2F247
:1019D000820282721202F2F2F292921202E2F29207
:1019E0009212220202020202020202020202020217
:1019F00002020202020202020204F80000FF0000DA
:101A0000000000000000000000005F5F5F505050C9
:101A1000005F5F5F0000035F5F58070000005F5FCB
:101A20005F5050500C545151535F2E000000000085
:101A300000000000000000000000000000000000A6
:101A40000000FF0000000102020202020202020284
:101A50000202020202020202020202020202020266
:101A60000202020202020202020202020202020256
:101A70000202020202020202020202020202020246
:101A800002020202020202020201000040E8FCFC23
:101A9000FCFCFCDCBBFFFDFFFBB870F0F0F0F0706D
:101AA000200000000000000000010101010101030D
:101AB0000303030303010000002070F0F0F0F07056
:101AC000BBFFFDFFFBB8DCFCFCFCFCFCE8400000BD
:101AD00001030303030303010101010101000000ED
:101AE0000000000090F8F8F8F8F8F8F8FBFFFFFFA6
:101AF000FBF8F8F8F8F8F8F8F89000010101010196
:101B000001010101010101010101010101010100C6
:101B1000160A004048586858488890B3D5B39010CA
:101B20002060A060202000000000000000000000F5
:101B3000000000000001010101010100000000009F
:101B4000202060A060201093B5D3B09088485868DA
:101B5000584840000000000101010101010000009F
:101B600000000000000000000000009090B0D0B025
:101B7000909090B3D5B3909090B0D0B090909000EA
:101B80000000000000000000000000000000000055
:101B90000000000000001414000000C03804C279E6
:101BA0006551516579C20438C000000038C4021381
:101BB000E4E9A2D735E5E535D7A2E9E41302C43854
:101BC000000C050A08090D0A010101010A0D0908A6
:101BD0000A050C0000000000C03844DAE5F9C533FE
:101BE0008A7488708000000000000043249B070670
:101BF0009733793810100080010608F000060D0FA9
:101C000007000809060D0F070008060908000E0165
:101C1000000000807088748A33C5F9E5DA4438C062
:101C200000000000F008060180001010387933979A
:101C300006079B2443000000010E00080906080067
:101C4000070F0D06090800070F0D0600C030080831
:101C50007CF4C21D2B416B412B9EC47C080830C014
:101C60000738C012C4E8E2F7F56565F5F7E2E8C4A5
:101C700012C03807000C050A08090D0B010101010B
:101C80000B0D09080A050C00000000C0380402D939
:101C9000A511B115A1C20438C000000078848203E8
:101CA000CFCFECF1E26466E4F2E9CCC7038284783A
:101CB000000C050A08090D0B010101010B0D0908B3
:101CC0000A050C00000000C03804C2796551516556
:101CD00079C20438C000000070888403C4D98238F7
:101CE0005482D682543881C403848870000C050A5B
:101CF00008090D0B020000020A0D09080A050C0074
:101D0000000000C03804C2796551516579C20438B9
:101D1000C000000038C40213E4E922974525652578
:101D2000478229E41302C438000C050A0809080395
:101D300005080D08050308080A050C00000000004E
:101D4000C020109010C8A42272CAAA4A02E408F067
:101D500000186488473079FEFC7132254A2C0987C7
:101D6000710804030000000000020504080A0501D0
:101D70000101010000000000E8182090C8C8C42438
:101D8000844830A02020404040800000C38142BDF4
:101D9000DB5ABD66007EC37E81FF665A4224817E87
:101DA000070804090B0B0B0C090A0C0504040202BA
:101DB000020100000ADFFFFFFFFF6F0406070707AD
:101DC00006006FFFFFFFFFDF0A0006070707060494
:101DD000FFFFFFFFFFFFE600020707070600E6FF21
:101DE000FFFFFFFFFF000607070702001FFFFFFFBF
:101DF000FFFF660002070707060066FFFFFFFFFF01
:101E00001F000607070702001FFFFFFFFFFF260452
:101E100006070707060026FFFFFFFFFF1F00060754
:101E2000070706041FFFFFFFFFFF660006070707FF
:101E3000020066FFFFFFFFFF1F0002070707060003
:101E4000FFFFFFFFFFFFE604060707070702E6FFA5
:101E5000FFFFFFFFFF02070707070604E2FFFFFF80
:101E6000FFFF3A000607070702003AFFFFFFFFFFE8
:101E7000E20002070707060056FEFEFFFFFFDE0036
:101E800000050F1F0F1DDEFFFFFFFEFE561D0F1F7B
:101E90000F0500000A0D00004094BCB6FAD68C4035
:101EA0000000000000050905080000FE4094BCB6D3
:101EB000FAD68C40100700000005090508000E0D39
:101EC000000018ACF46C78A80000000000000008C6
:101ED000060B0701010000000000000000000000E8
:101EE00080C0C0A070E04000000000000A0A0703A4
:101EF0000503050001000000008000800080808054
:101F0000008040C080000000040200030709070FA2
:101F1000050E0300070B000ADEFB9D6B06000402A2
:101F200004060000066B9DFBDE0A000000060402AA
:101F300004004A1EDBFDEB26400000020406000000
:101F40004026EBFDDB1E4A000006040200000A1ECC
:101F5000DBFDEB6600000002000600000066EBFD02
:101F6000DB1E0A000006000200000A1EDBFDAB2695
:101F700000000402000600000026ABFDDB1E0A0084
:101F80000006000204000A1EDBFDEB6600000006EE
:101F9000000200000066EBFDDB1E0A0000020006E6
:101FA00000004A1EDBFDEB26400004020002020096
:101FB0004026EBFDDB1E4A00020200020400402224
:101FC000EBFBEB2210000006000200001022EBFBEE
:101FD000EB22400000020006000054BCB6FAD60C0A
:101FE00000000005090508000CD6FAB6BC5400082C
:101FF000050905000000387CFEFFFFFFFE7C38006D
:102000000000010101000000090900385482D68255
:1020100054380000000000000000000000384CC2EE
:1020200092866438000000000000000000000038C4
:10203000648692C24C3800000000000000000000DE
:10204000FFFFFFFFFFFFFFFFFFFFFFFFFFFFFFFFA0
:10205000FFFFFFFFFFFFFFFFFFFFFFFFFFFFFFFF90
:10206000FFFFFFFFFFFFFFFFFFFFFFFFFFFFFFFF80
:10207000FFFFFFFFFFFFFFFFFFFFFFFFFFFFFFFF70
:10208000FFFFFFFFFFFFFFFFFFFFFFFFFFFFFFFF60
:10209000FFFFFFFFFFFFFFFFFFFFFFFFFFFFFFFF50
:1020A000FFFFFFFFFFFFFFFFFFFFFFFFFFFFFFFF40
:1020B000FFFFFFFFFFFFFFFFFFFFFFFFFFFFFFFF30
:1020C000FFFFFFFFFFFFFFFF4410000000000000C4
:1020D000BC7EC7EBEDEBC77EBC00003C2C00381487
:1020E000380008241000043804000000000000BC80
:1020F0007EC1D5D5D5CB7EBC00003C103C00381449
:1021000038003C1428003C241800000000000000A7
:1021100000000000000102020202020100000000B3
:1021200000000000000000000000000000000000AF
:102130000000000001020202020201000000000093
:10214000000000000000000000000000000000008F
:102150000000387CFEFFFFFFFE7C3800000001011C
:1021600001000000090900385482D682543800006A
:10217000000000000000000000384CC29286643865
:10218000000000000000000000000038648692C2D9
:102190004C38000000000000000000000D08252D54
:1021A00039312931252D3931293121622BFC02FDAC
:1021B000FDFDFDFDFDFDFDFDFD02FDFDFDFDFDFD4A
:1021C000FDFDFDFD027C90E8F4FAFDFDFDFDFDFD49
:1021D000FDFDFDFDFAF4E890FC02FDFDFDFDFDFDB9
:1021E000FDFDFDF3CC02FDFDFDFDFDFDFDFDFDFD55
:1021F000FD02DCE8F4FAFDFDFDFDFDFDFDFDFDFD4C
:10220000FAF4E8D020C00000000000000000000048
:1022100001FE00FFBF7F7F3FBFBFBC7E7F7FBF7FD0
:10222000B7CB35C20202FF00FFBF7FBF7FBFFF01F8
:10223000FE0001FF7FBF7FBF7FFF00FFFE00FFBFEB
:102240007FBF7FBFFF7FFFBF7CB07FBF7FBF7FBFF0
:10225000FF00FE00FFBF7FBF7FBFFF00FE0EECABA5
:102260006BAB6BAB6BEB0CF30000000000000000ED
:1022700000F008F7B0DFAAD08003354E7D6F15FA65
:10228000AFD5AAD7AED9B6F40FF08F7AD5AAD5AA12
:10229000DFB8D7B4D8AFD5AAD5EA7D8FF00FF7B0A5
:1022A000DFAAD5AAD5AADFB0F1079D7AD5AAD5AA0B
:1022B000D5AAFF00FF40BF6AD5AAD5AADFB0D7B420
:1022C000D3BED56A350A959F809F808000000000AC
:1022D0000000003B78EABA3A3A2ABA78B86B3A7901
:1022E000EAB83A3A2ABA7ABA6A3A78EBB8393A2866
:1022F000BA7ABA6A3A7AEABA3A3A28BA79B86B3804
:102300007AEABA3A3A2ABA7ABA6A3A78EBBA383AF0
:102310002ABA7ABA6A387BE8B8393A28BA7ABA6AF5
:102320003A3A0A00E01C8261BCB2A8A8B2BC618241
:102330001CE000000004040405070605060504046B
:10234000040404050706050605040404040405073F
:10235000060506050404040404050706050605042D
:102360000404040405070605060504040404040522
:10237000070605060504040404040507060506050A
:102380000400001C62810972F4D16B9AF2F29A6B1C
:10239000D1F4720981621C000000000000000000FE
:1023A000000000000000000000000000000000002D
:1023B000000000000000000000000000000000001D
:1023C000000000000000000000000000000000000D
:1023D00000000000000000000000000000000000FD
:1023E00000000000000006020504040605000000CD
:1023F000000506040405020600010204081020403E
:1024000080FFFFFFFFFFFFFFFFFFFFFFFFFFFFFF5B
:10241000FFFF000000000000000000F0F8F0F0F006
:10242000F0F0F8F0140203030003030300030303B6
:102430000003030300030303000307070007070764
:102440000007070700070707000707070007FFFF48
:10245000FFFCFCFCFCFCFFFFFFFFFFFFFFFFFFFF9B
:10246000FFFFFFFF0707070101010101070707073A
:1024700005000A1E1B1D0B061108007C5444007841
:10248000147800485424000C700C00007C107C0070
:10249000781478007C1468007C443800091000002F
:1024A00000000000000000F008D0D010101008F06C
:1024B0000C1400421000004410004008010020D01D
:1024C00089A8A8A8A988B08CD3200002050B0F0A00
:1024D0000A0A0A05020000882000000842000044A1
:1024E000100220D088A8A8A9A888B08CD320000208
:1024F000050B0F0A0A0A0A050200008200104400B8
:1025000000104200080020D088A9A8A8A889B08C93
:10251000D3200002050B0F0A0A0A0A050200004236
:1025200010000044100000084100408091285060D5
:10253000115860B18040000103070F0F0F0F070310
:102540000100008820000008420000441002408082
:1025500090285061105860B08140000103070F0FB0
:102560000F0F070301000041080000104400001095
:102570004200408091285061105860B180400001B5
:1025800003070F0F0F0F070301000000000000807A
:10259000408000000000008040582E2F2F96954A62
:1025A000800003040A0A0D0D0D0E0E0B0503091021
:1025B000000048B0CCB0420000F008DFDB151B1F64
:1025C00008F0000080E862C0D00000F008DFD41BF3
:1025D000141F08F0000080E872C0D00000F008DF8F
:1025E000D41B141F08F0000002B058A4F00000F043
:1025F00008DFDF151E1F08F0091B0000805C7B5CF4
:102600000000000609102020201008000000000033
:1026100000000000000000000000000000000000BA
:10262000805C7B5C00000006C910202020100800A0
:1026300000FF000000000000000401000000000096
:1026400000000000805C7B5C00000006C910A02038
:102650002010080000FF00FF00000000000401043B
:102660000100000000000000805C7B5C00000006B0
:10267000C910A020A010080000FF00FF00FF00000C
:10268000000401040104010000000000805C7B5C88
:1026900000000006C910A020A010C80000FF00FF25
:1026A00000FF00FF000401040104010401002538BB
:1026B000000000000000000000000000000000001A
:1026C0000000804018B4BC180008D0B020408080C2
:1026D00000000000000000000000000000000000FA
:1026E0006090904A0408010000000003070C397351
:1026F000E898141415D3D6140C180000000000003C
:1027000000000000000000000000000000000000C9
:1027100000000000000103071C38F3CD940A0A00F2
:1027200000000000000000000000000000000000A9
:102730000000000000000000000000000000000099
:1027400001030F1E00000000000000000000000058
:102750000000000000000000000000000000000079
:102760000000000000000000000000000000000069
:102770000000000000000000000000000000000059
:102780000000000000000000000000000000000049
:102790000000000000000000000000000000000039
:1027A0000000000000000000000000000000000029
:1027B0000000000000000000000000000000000019
:1027C000000000000000009834BC180008D0B020C1
:1027D00040808000000000000000000000000000B9
:1027E000000000000000008084681026010003073C
:1027F0000C3973E898141415D3D6140C1800000083
:1028000000000000000000000000000304040200BB
:1028100000000000000000000103071C38F3CD9405
:102820000A0A000000000000000000000000000094
:102830000000000000000000000000000000000098
:1028400000000001030F1E00000000000000000057
:102850000000000000000000000000000000000078
:102860000000000000000000000000000000000068
:102870000000000000000000000000000000000058
:102880000000000000000000000000000000000048
:102890000000000000000000000000000000000038
:1028A0000000000000000000000000000000000028
:1028B0000000000000000000000000000000000018
:1028C0000000000000000000000018B4BC18000860
:1028D000D0B0204080800000000000000000000018
:1028E00000000000000000000000000000000040A8
:1028F000DE43070C3973E898141415D3D6140C185A
:1029000000000000000000000000000000000000C7
:10291000000000000C1310080000000103071C3821
:10292000F3CD940A0A00000000000000000000003F
:102930000000000000000000000000000000000097
:1029400000000000000001030F1E00000000000056
:102950000000000000000000000000000000000077
:102960000000000000000000000000000000000067
:102970000000000000000000000000000000000057
:102980000000000000000000000000000000000047
:102990000000000000000000000000000000000037
:1029A0000000000000000000000000000000000027
:1029B0000000000000000000000000000000000017
:1029C0000000000000000000000000000000000007
:1029D00000000000000000000000000000000000F7
:1029E000000000008040200C1A1ECCC0828A36E411
:1029F0008444A84818D09010202020404040808077
:102A0000800000304848250204000000000000005B
:102A10000101030307070F0C1C1838337E78F4CA32
:102A2000C582810E7CE00101000000000000000072
:102A30000000000000000000000000000000000096
:102A400000000000000101030307070F0C00000055
:102A50000000000000000000000000000000000076
:102A60000000000000000000000000000000000066
:102A70000000000000000000000000000000000056
:102A80000000000000000000000000000000000046
:102A90000000000000000000000000000000000036
:102AA0000000000000000000000000000000000026
:102AB0000000000000000000000000000000000016
:102AC0000000000000000000000000000000000006
:102AD00000000000000000000000000000000000F6
:102AE00000000000000000000000CC1A1ECCC082D4
:102AF0008A36E48444A84818D09010202020404012
:102B00004080808000000000008040423408132094
:102B10000000000101030307070F0C1C1838337E67
:102B200078F4CAC582810E7CE00101000000010238
:102B30000201000000000000000000000000000092
:102B400000000000000000000101030307070F0C54
:102B50000000000000000000000000000000000075
:102B60000000000000000000000000000000000065
:102B70000000000000000000000000000000000055
:102B80000000000000000000000000000000000045
:102B90000000000000000000000000000000000035
:102BA0000000000000000000000000000000000025
:102BB0000000000000000000000000000000000015
:102BC0000000000000000000000000000000000005
:102BD00000000000000000000000000000000000F5
:102BE000000000000000000000000000000CDA1EE1
:102BF000CCC0828A36E48444A84818D090102020A3
:102C00002040404080808000000000000000000064
:102C10000000887B08000101030307070F0C1C1844
:102C200038337E78F4CAC582810E7CE00101000051
:102C3000000000000000000102020100000000008E
:102C40000000000000000000000000010103030775
:102C5000070F0C0000000000000000000000000052
:102C60000000000000000000000000000000000064
:102C70000000000000000000000000000000000054
:102C80000000000000000000000000000000000044
:102C90000000000000000000000000000000000034
:102CA0000000000000000000000000000000000024
:102CB0000000000000000000000000000000000014
:102CC0000000000000000000000000000000000004
:102CD00000000000000000000000000000000000F4
:102CE00000000000000000000000000000000000E4
:102CF0000C1ADE0CC0828A36E48444A84818D090AE
:102D00001020202040404080808000000000000013
:102D10000000000000000020139869058107070FDC
:102D20000C1C1838337E78F4CAC582810E7CE00111
:102D3000010000000000000000000000000001028F
:102D4000020100000000000000000000000001017E
:102D5000030307070F0C0000000000000000000044
:102D60000000000000000000000000000000000063
:102D70000000000000000000000000000000000053
:102D80000000000000000000000000000000000043
:102D90000000000000000000000000000000000033
:102DA0000000000000000000000000000000000023
:102DB0000000000000000000000000000000000013
:102DC0000000000000000000000000000000000003
:102DD00000000000000000000000000000000000F3
:102DE00000000000000000000000000000000000E3
:102DF0000000000C1A1E4CC0028A36A40444A848E5
:102E000018D090102020204040408080800000009A
:102E1000000000000000000000000000080402059F
:102E20006893876C0C1838337E78F4CAC582810E9B
:102E30007CE0010100000000000000000000000034
:102E40000000000000000000000000000000000082
:102E5000000101030307070F0C0000000000000041
:102E60000000000000000000000000000000000062
:102E70000000000000000000000000000000000052
:102E80000000000000000000000000000000000042
:102E90000000000000000000000000000000000032
:102EA0000000000000000000000000000000000022
:102EB0000000000000000000000000000000000012
:102EC0000000000000000000000000000000000002
:102ED00000000000000000000000000000000000F2
:102EE00000000000000000000000000000000000E2
:102EF00000000000000000000000000000000000D2
:102F000000000000000000000000000000000000C1
:102F10000000000000008040C08020A0A0202020F1
:102F2000A020D0D09010101010109050906868C859
:102F30008808080808080800000000017B03010851
:102F40000C0D0F0E0D0E1D1818191B1E1C1A1D1A24
:102F500019181010303133363C38343A0000000074
:102F6000314F412000000000000000000000000080
:102F70000000000000000000000000000000000051
:102F80000000000000000000000000000000000041
:102F90000000000000000000000000000000000031
:102FA0000000000000000000000000000000000021
:102FB0000000000000000000000000000000000011
:102FC0000000000000000000000000000000000001
:102FD00000000000000000000000000000000000F1
:102FE00000000000000000000000000000000000E1
:102FF00000000000000000000000000000000000D1
:1030000000000000000000000000000000000000C0
:1030100000000000000000000000000000000000B0
:1030200000000000000000000000000000000000A0
:10303000008080C0C06060303018000000000000D8
:103040000000000000008080C0C060603030B81810
:103050008C6CE6C68383E119E4168C8C9858740056
:10306000000000000000000018B43C1901202226D6
:103070001C1816090E0904040403030301010100CE
:1030800000000000000000000000000000887B0835
:103090000000000000000000000000000000000030
:1030A0000000000000000000000000000000000020
:1030B000000001020201000000000000000000000A
:1030C00000000000000000000000000000001402EA
:1030D00001000000010000000100000001000000EC
:1030E00001000000140302000000020000000200C2
:1030F000000002000000020000000B0BF83878E826
:10310000D0A000A0100C0C0704040405070707005A
:103110000000F83878E0C8A44383000000070404E6
:1031200004050707070000000B1300FE4848484845
:10313000484848FE0000FF92929292929292FF00BD
:103140000003000000000000000300191001010747
:103150000505070303030303030303030303030337
:10316000070505070404000000000000000000003F
:10317000000000000000000000000000000000044B
:103180000407050507030303030303030303030302
:10319000030307050507010100000000000000000F
:1031A000000000000000000000000000000000001F
:1031B00000010107050507030303030303030303DA
:1031C00003030303070505070101000000000000D9
:1031D00000000000000000000000000000000000EF
:1031E00000000001010F0B0A0E060606040C0C0C71
:1031F0000818181818705050704040000000000067
:1032000000000000000000000000000000000000BE
:10321000000000000000404070505070181818184E
:10322000080C0C0C040606060E0A0B0F0101000028
:10323000000000000000000000000000000000008E
:103240000000000000000001070B0A0E06040C0C31
:1032500008181810303020E06040C0000000000066
:10326000000000000000000000000000000000005E
:103270000001010101010000000000000000C04049
:1032800060E0203030101818080C0C04060E0A0BF1
:103290000701000000010101010100000000000021
:1032A000000000000000000000000019362C18305B
:1032B00060C080000000000000000000000000006E
:1032C00000000000000000000000000103066CD8B0
:1032D000B06080000000000000000000000000005E
:1032E000000000000000000000000000000080C09E
:1032F0006030182C361900000000000000000000AB
:103300008060B0D86C060301000000000000000DD2
:1033100008252D39312931252D39312931210C0844
:10332000627A7A62627A7A62627A7A620B08878F4C
:103330009DB7E7C7A5D7AF978D00190100050F0C02
:1033400018042418053C18060943001342001D41C7
:1033500000274000313F003B3E00453D00092F0360
:10336000152F01212F012D2F01392F01452F011775
:103370004B01234B015750015F50016349016F49D5
:10338000017B49016D500E573F01633F016F3F01C3
:103390007B3F01FB6C01166C01226C012E6C01322B
:1033A0006C014F6C01005C000A5D00145E001E5F42
:1033B000002860003261003C6200466300506400F7
:1033C0005A65007170027D70020A85001484001E27
:1033D00083002882003281003C8000467F00507EBE
:1033E000005A7D00647C00094A035B6A03FC2F01DC
:1033F0000024070044891444882845883C468850A6
:1034000047886448887849885B0A0A55000B007A27
:103410000C007A4D7985527285516B855000000001
:1034200021080F0F08080006090B06000E03030E03
:10343000000F090F06000F0F000F02030F000E0F01
:10344000090D000E10BEBDBEBDBEBDBEBDBEBDBE23
:10345000BDBE0000040004000400040004000400D9
:10346000004E080F0D0702000F050F0A000F0D098F
:1034700000020B0D00020B0D00000000000F0D07F5
:1034800002000F0F0808000E03030E00030E0E03C8
:1034900000000006090B06000F02030F00000000E9
:1034A000010F0F010E03030E000F0D0702000F0D99
:1034B000090E10A7C7A7C7A7C7A7C7A7C7A7C7A7AA
:1034C000000707070707070707070707070700247D
:1034D000080E1F1F1F0E000000000000000000006B
:1034E000001F0E04000000000000000000040E1F7A
:1034F00000040E1F0000053211241FBECFEFDAE0DA
:10350000DEBFCDBF11E0A0E0B1E0EEEEFEE602C00E
:1035100005900D92A036B107D9F726E0A0E6B1E0FC
:1035200001C01D92AE37B207E1F71AE1CCE7DAE14C
:1035300004C02197FE010E943D36CB37D107C9F761
:103540000E94D4320C9475370C9400002F923F9255
:103550004F925F926F927F928F929F92AF92BF92A3
:10356000CF92DF92EF92FF920F931F93CF93DF934F
:10357000CDB7DEB7A3970FB6F894DEBF0FBECDBFB1
:103580008C012B01DB0119962C9019971A96BC918E
:10359000B8A3FC0182818111B4C03801F8E56F0E37
:1035A000711CD30119968C918111ABC098012558DB
:1035B0003F4FD9018C91882329F0F20187819085B2
:1035C00080FF63C4F301F481F98FD20117968C91C7
:1035D00080FF7BC1F8017196FD8FEC8FD801549666
:1035E0008C91863209F4A4C68F3309F077C182E04A
:1035F000D80153969C9191117EC191E0F8012289E6
:10360000211179C17801FCE1EF0EF11C580122E58E
:10361000A20EB11C48013FE1830E911CF40140E071
:103620009F0123503109A216B30609F066C1F801C3
:10363000E158FF4F2081421708F464C1D201179668
:103640008D919C91189766E070E00E941536892B49
:1036500009F4A4C1F2018389813009F4A9C2D2011D
:1036600053968C918130C9F4680195E5C90ED11C3F
:103670007801A2E5EA0EF11CF6019081D7018C9148
:10368000890FF50190E0E615F70509F013C38823CB
:1036900009F41CC3813009F416C3D20117968D9129
:1036A0009C91189783709927892B09F41BC3F80103
:1036B000838D882309F44EC38489863208F430C38D
:1036C000873208F037C3F801B096CF010497A816E7
:1036D000B90609F0BDC3D20117968D919C91189738
:1036E00066E070E00E941536892B09F4B8C3F20138
:1036F000878190856CE070E00E941536892B09F473
:10370000B9C3D20152968C915297811107C081E0C2
:1037100054968C93F801E558FF4F10827801BCE76E
:10372000EB0EF11CF7012081243638F4223008F02A
:103730004AC0213009F44BC06DC0243619F0215025
:10374000208368C081E0F801EF57FF4F8083F201CA
:103750008289882399F160E070E0C801885A9F4F00
:103760000E946723C8018E5A9F4FF8017C96A801DA
:10377000405E5F4FE817F90779F020812B3A40F05F
:1037800010829A0121503109D9011C92DA011C9250
:1037900036964A5F5F4FEECFF801EC58FF4F8081BD
:1037A000811104C0C8010E94763008C0F801118A56
:1037B000128A138A8DE0848B138E158AD7018C911F
:1037C00081508C9327C02150F701208323C0D20160
:1037D00052968C91882359F0C801885A9F4F29A38B
:1037E0000E948223F801E558FF4F29A12083F701A9
:1037F0001082F801EF57FF4F1082709781E08283AB
:10380000D801AE58BF4F8C91823010F48F5F01C049
:1038100080E081836801FDE7CF0ED11CD6018C9139
:10382000882311F081508C93F801E558FF4F808177
:10383000D20154962C91811125C0211123C088A159
:1038400080952822822D8C7009F4DCC581E080836C
:1038500036961082F7011082C801885A9F4F0E9445
:103860008223F801E659FF4F138210820480F5810C
:10387000E02D82E0828384E1808323FEC3C5D601EC
:103880008C93C0C5F201828580959185892322237E
:10389000A1F083FFB7C583E884BD8FEF87BD81EFBB
:1038A000809380001092880010928A000E946D24FC
:1038B00085E0D20156968C93A5C582FFA3C5F80179
:1038C000928181E0892782839DC57801B4E6EB0E61
:1038D000F11CF701858181117DCECCC48D3009F4B6
:1038E00086C5863209F426C58F3309F423C58D3089
:1038F00009F420C58FEF90E085CE208121114F5F24
:1039000036968ECE992309F499CE6701E256F109D5
:10391000D701AA15BB0559F113962C9113972223B1
:1039200019F12C912E3418F43081381390E034ECD6
:10393000320F3B3030F43081381303C0811101C0A5
:1039400090E031EE320F3B3030F43081381303C059
:10395000813009F490E021502B3030F4208128137D
:1039600003C0823009F490E016963696D2CF9923A0
:1039700009F464CEF801B096CA14DB0409F45ECEF3
:10398000DF0111978C91811104C08081882309F493
:10399000D3C446E0C40ED11C3696EECF6801FEE1DA
:1039A000CF0ED11C980125583F4F3F8F2E8FA80175
:1039B000485A5F4F5B8F4A8FEA14FB0409F44ACEE2
:1039C000D4018C91882309F4E9C0EE8DFF8D8081AC
:1039D000882309F44AC0AA8DBB8D12962C9122230C
:1039E00009F443C0D7018C91B3E08B9FC00111242F
:1039F000FC01EA54F84F6491FC01E954F84F9491AA
:103A0000AA8DBB8DED91FC91B5E0BE9FA001BF9F3B
:103A1000500D1124FA01EB57FE4F3491EA8DFB8DC6
:103A20003683FA01EA57FE4F8491AA8DBB8D149616
:103A30004C91E22FF0E0E45AFE4F5491062E000C18
:103A4000770B232F30E06217730779F4841B851BF3
:103A5000282F880F330BB98D9B1BF901E91BF10946
:103A600097FDF39539970CF47DC4C3010E94F422AD
:103A70002F83388749875A876B877C87698DC70171
:103A80000E943A2429833A834B835C836D837E832F
:103A9000AE8DBF8D8C918823D1F1698DC7010E94B5
:103AA0003A242B8B3C8B4D8B5E8B6F8B788FC301B5
:103AB0000E94F422A72F2D873E874F87588B698B52
:103AC0007A8BED85FE852F8538893BA32AA32B8928
:103AD0003C898D899E893F88B88DAF01460F511D65
:103AE00024173507A4F4230D311DE217F3077CF4E6
:103AF0002AA13BA12A0F311D8217930744F48B0F93
:103B0000911DAAA1BBA1A817B9070CF472C4F701B3
:103B1000908123E0929FF0011124E854F84F8491A2
:103B20009F5F869586958695890F43E0849F9001D7
:103B30001124F901EA54F84F9491F901E954F84F2E
:103B40002491992319F0D7018C9306C02111FBCF42
:103B5000F7011082D4011C92D701EC91B3E0EB9FE6
:103B6000F0011124E854F84FE491E770D70115965D
:103B7000EC93E13051F0E23089F4F601808182303B
:103B800010F48F5F09C080E007C0F60180818823B0
:103B900011F0815001C082E0D6018C93B6E0EB0EAB
:103BA000F11CE6E08E0E911CF6E0CF0ED11C04CF86
:103BB000F201878190856AE070E00E941536892BBA
:103BC00009F04DCD45016801F3E5CF0ED11C9801F8
:103BD00025583F4F3B8F2A8F8614970409F43FCD19
:103BE000D4018C91882309F45EC0F60180818F5F37
:103BF0008083F3E08F9FC0011124FC01E65BF54F49
:103C00002491FC01E55BF54F8491211105C08111E0
:103C100003C01C92F6011082AA8DBB8D8C91882363
:103C200009F441C0F6018081F3E08F9FC0011124A7
:103C3000FC01E65BF54FE490FC01E55BF54F349049
:103C40000E2C000CFF08C3010E94F42229833A8342
:103C50004B835C836D837E8329813A818B819C8138
:103C6000F7013196A901460F511DE417F507DCF461
:103C700045E1E40EF11C2E153F05ACF4598D351AC3
:103C8000E32DF0E09F012C5F3F4FAC01470F511D2A
:103C90002417350744F438968E179F0724F4B20191
:103CA000C8010E94933073E0870E911C83E0C80E18
:103CB000D11C92CF2081222321F02181921708F478
:103CC000922F3396E0CC933308F4E7CC62E370E0B4
:103CD00080E090E00E94A72B672B682B692B09F4EA
:103CE00053C3DBCCF801E659FF4F8081882309F4E8
:103CF000DECC813091F4108213820480F581E02DB6
:103D000082E0828384E18083809160018111CFCC45
:103D10008EE29BE00E948525CACC81508083C7CC6F
:103D20008E3098F48D3009F0CECC88E0868B8EE012
:103D3000848BC9CC8F3348F08F3309F0C4CC84E036
:103D4000F801868B8EE3848BBECC8C8D9D8D0E947A
:103D50000624B9CC8389882339F08150838B811163
:103D600030C088E2828B2DC0F8018289882349F116
:103D70008150828B811125C08489863221F08F3356
:103D800021F482E003C081E001C080E0D8015796B1
:103D9000ED91FC9158979BE39F839EE1988719864C
:103DA000DE01A80FB11D17969C919083818381E05D
:103DB000838380916001811104C088E39BE00E94AD
:103DC0008525F8018189882311F081503FC08489BD
:103DD000863271F020F48D3049F0E8F474CC8F33E2
:103DE000D0F08F3309F06FCC84E013C088E011C0AD
:103DF00062E070E080E090E00E94A72B672B682BC8
:103E0000692B11F088E001C084E0D80156968C93AC
:103E100002C0F801868B8C8D9D8D0E940624D801EE
:103E200054968C91863229F08F3319F08D3009F039
:103E30004ACC62E870E080E090E00E94A72BDC01B1
:103E4000CB018A5B9F4FAF4FBF4FF801818B3BCCBB
:103E50008081882311F081508083369636CCF8011A
:103E6000E059FF4F8081833010F48F5F01C080E004
:103E700080833DCCF801EF58FF4F8081823010F4F1
:103E80008F5F01C080E080833CCCF301428141110F
:103E90000BC0D3011A964C911A9741110FC01B9673
:103EA0005C9151110BC015C0483220F44F5FF301F3
:103EB000428388CBD30112961C9284CBF3015385A5
:103EC000552309F486C083709927892B09F476C09D
:103ED00079CBD30113968C91B22DB074FB2E86FF53
:103EE0000BC025FE02C082FD59C0FF20B9F1F301CD
:103EF000838183FD30C032C0FF2011F123FE0AC050
:103F000087FF08C081E0F3018287C3010E944B2331
:103F1000F12C17C083FF14C0D3018D919C91119790
:103F20008439910509F03EC081E01B968C936AEDBF
:103F300070E0C3010E94672382E29CE00E94852515
:103F4000F22CF5FE0CC0F301838182FF36C2C3015F
:103F50000E942F2332C2C3010E942F23F22CF4FEB1
:103F600005C0D30113968C9181FD20C0F7FE04C0DB
:103F7000F301838180FD1EC0F801E358FF4F80816B
:103F8000811120CBF3FE1ECBD30113968C9184FFBD
:103F900019CB81E0D30112968C9314CBC3010E94FC
:103FA0004B23A3CFC3010E944B23CACFC3010E945E
:103FB0002F23DCCFC3010E944B23DECFF30180818E
:103FC00091818E3E9105C9F5B201C8010E949330DE
:103FD000F9CA442309F4F6CA83709927892B09F09A
:103FE000F1CAD20153968C91813059F164E0D3012A
:103FF0008D919C917801B4E6EB0EF11CF7014181A3
:10400000FC01E05AF109B797F0F08B3A910509F4F9
:10401000D1C008F063C0833A910509F4B5C008F037
:104020004EC08839910509F48CC08F39910509F487
:104030009DC08739910509F476C0C3010E944B23C6
:10404000C1CA63E0D4CFF801EC58FF4F5081511141
:10405000DCCFD801AB58BF4F5C91E1E0E50FEC93AA
:1040600011967C911197713089F048F07230C1F44B
:1040700073E0E79FF0011124EC52FF4F0DC073E095
:10408000E79FF0011124E35CFE4F06C073E0E79F59
:10409000F0011124E75EFE4FE491E93009F45C93EE
:1040A0001296A217B307C1F6D80155965C915597A1
:1040B0005F3008F0AACF5F5F55965C93A6CF853A34
:1040C000910509F472C008F490C0883A910509F08E
:1040D000B4CFC3010E944B2385E083C0893D910585
:1040E00009F472CF88F4873B910509F46AC0873CD4
:1040F000910509F481C08E3A910509F09ECFC30164
:104100000E944B2389E06DC08333B1E09B0709F423
:1041100089C08A33E1E09E0709F46EC0873291407E
:1041200009F485C08ACF443008F487CF641708F4B7
:1041300084CF81E0D70115968C93C3010E944B2355
:104140007CCF433010F0641740F468EC70E0C3019A
:104150000E94672382E29CE041C0C3010E944B237E
:1041600084E0F701818381E085832CCAC3010E942A
:104170004B23D70111961C9281E0F801838F84E6CE
:10418000818B128A138A1ECAC3010E944B2381E0CD
:10419000D70111968C93F801EC58FF4F808188234A
:1041A00009F410CA815080830DCAC3010E944B23B9
:1041B00082E004C0C3010E944B2388E0F7018183A1
:1041C00001CAF801EC58FF4F8081811136CF60EFB2
:1041D00070E0C3010E94672382E79BE00E9485256F
:1041E000F1C9D70111968C93EDC9F20180899189AB
:1041F0004496918B808B21CF88ECF801E458FF4FD7
:1042000080837297138210820480F581E02D82E012
:10421000828384E18083F801EF57FF4F1082D90138
:104220001C92D0C9F801EF58FF4F128206CFF2015D
:1042300080899189C296918B808BC3010E944B2308
:10424000F801E158FF4F8081893010F48F5F80833F
:10425000F801E058FF4F6081603508F0B3C96F5F27
:10426000608370E088EE93E00E942936D2011B96AD
:104270006C93A8C9F70192819230A9F5F7012081CA
:104280008181222371F0215020838350853008F0F2
:10429000A1C98481823009F49DC9C7010E941424F8
:1042A00099C98830D9F018F4833088F493C98930DB
:1042B00009F090C994838AE0808312828BC9F70148
:1042C0008181883099F140F1893009F083C988E013
:1042D000D70111968C93119784E116C089E0F701FC
:1042E000818384E107C0933039F4F701808188230A
:1042F00069F0815080836EC9913009F06BC9D70194
:104300008C918823E1F281508C9364C9C7010E948B
:1043100014248AE0D701F8CF833008F45BC982E027
:1043200084838AE0808383E0828354C985E0D7CF89
:1043300081E05EC98FEF5CC963E270E080E090E0ED
:104340000E94A72BDC01CB010596A11DB11DF60132
:104350008483F801D08EC78A128A838B62E3680F48
:10436000618B6CC9F6018291833008F07ECBBFEF80
:10437000B083F201808991890196918B808B84E6CC
:104380009BE00E94852571CBD7018C91882339F061
:10439000F6018081882311F08FEF01C081E090E069
:1043A000FC01EE0FFF1F8E0F9F1F800F911FFC015E
:1043B000EE5AFF4F81E0808370C9F301838185FF4E
:1043C000CECDF801E659FF4F83818111C8CD81E040
:1043D00083839CE89083F801EC59FF4F1582828318
:1043E00084E1808388E19CE00E948525B8CD80E04F
:1043F000FFC8B201C8010E94933086E49BE00E948E
:10440000852585CBA3960FB6F894DEBF0FBECDBF32
:10441000DF91CF911F910F91FF90EF90DF90CF90A0
:10442000BF90AF909F908F907F906F905F904F90D4
:104430003F902F90089580916702E0916502F0917E
:104440006602882349F0CF0102969093660280931A
:104450006502859194910895CF010296909366022A
:10446000809365028081918108950895089508954B
:10447000089508950895089508952F923F924F92B8
:104480005F926F927F928F929F92AF92BF92CF92E4
:10449000DF92EF92FF920F931F93CF93DF9300D0A1
:1044A00000D000D0CDB7DEB78C017B018EE0FB01E0
:1044B0008387F801108E118E84E6828FFB01838939
:1044C000F801838FFB01408851884114510409F49D
:1044D00050C0882329F029ED822E9924939404C09A
:1044E00097EC892E992493945401312CC5010E9494
:1044F00070354816590650F03401FCE06F0E711CFF
:1045000082E0282ECE0101966C0108C0339496E01B
:10451000A90EB11CE3E03E12E9CF2BC03214B0F477
:104520002A94B401F6E02F9E600D711D112446E01F
:1045300050E0C6010E94583546E050E0B301C60184
:104540000E94763586E0681A7108E8CF86E0F601A9
:1045500011928A95E9F78FE38B838C838D835A823E
:10456000498246E050E0B501C6010E947635832DB0
:1045700001C08FEFF801878BF7011286118642E1A7
:1045800050E067EC71E0C8014C960E94583542E15A
:1045900050E069ED71E0C8018E960E94583526966C
:1045A0000FB6F894DEBF0FBECDBFDF91CF911F9144
:1045B0000F91FF90EF90DF90CF90BF90AF909F90C2
:1045C0008F907F906F905F904F903F902F900895C5
:1045D0000C94D8360C94D8360C94D8360C94D83623
:1045E0000C94D8360C94D836CF93DF9300D000D0FB
:1045F00000D0CDB7DEB7DC018D919C91119725E0FD
:10460000289FA001299F500D1124FA01EB57FE4F5E
:104610002491FA01EA57FE4F44911296EC911297B9
:10462000F0E0E45AFE4FE49114968C91481B4E1B27
:1046300030E03A832983042E000C550B5C834B83B6
:104640003A815C8167E07BE080E090E026960FB6DF
:10465000F894DEBF0FBECDBFDF91CF910895DC018E
:104660008D919C911197019711969C938E9345E0A3
:10467000489F9001499F300D1124F901E757FE4FE3
:10468000E4911396EC931397F901E957FE4FE491E7
:104690001496EC930895DC018D919C9111970196ED
:1046A00011969C938E9345E0489F9001499F300D51
:1046B0001124F901E757FE4FE4911396EC931397F9
:1046C000F901E957FE4FE4911496EC930895DC014B
:1046D00011967C936E9385E0869F9001879F300DA5
:1046E0001124F901E757FE4FE4911396EC931397C9
:1046F000F901E957FE4FE4911496EC931497129642
:104700001C920895CF93DF93EC0160E070E00E946B
:1047100067231A8219861A861B868881998125E06B
:10472000289FF001299FF00D1124EB57FE4FE491D3
:10473000EE838FEF8D8388E08887DF91CF91089596
:10474000FC018181813099F050F08230C9F4E08120
:1047500083E0E89FF0011124EC52FF4F0FC0E0818D
:1047600083E0E89FF0011124E35CFE4F07C0E08185
:1047700083E0E89FF0011124E75EFE4F84910895E5
:1047800080E00895FC018181813099F050F0823001
:10479000C9F4E08183E0E89FF0011124ED52FF4F5E
:1047A0000FC0E08183E0E89FF0011124E45CFE4F3C
:1047B00007C0E08183E0E89FF0011124E85EFE4F2E
:1047C0008491089580E00895FC018181813099F001
:1047D00050F08230C9F4E08183E0E89FF0011124B9
:1047E000EE52FF4F0FC0E08183E0E89FF0011124FB
:1047F000E55CFE4F07C0E08183E0E89FF0011124F3
:10480000E95EFE4F8491089580E00895FC01858162
:10481000843019F0883021F008958381815002C0DE
:1048200083818F5F83830895FC018381843019F035
:10483000883061F017C08481882321F0853090F49E
:1048400081500DC081E0848388E00BC08481843076
:1048500028F0843039F493E0948303C08F5F84831D
:1048600001C0838381818350853018F484818D5FFA
:1048700081830895CF93DF9300D000D000D0CDB7CF
:10488000DEB7FC018081F3E08F9FC0011124FC01A1
:10489000EA54F84F2491FC01E954F84F4491022E58
:1048A000000C330B2F5F3F4F3A832983461B042EA6
:1048B000000C550B4F5F5F4F5C834B833A815C81EB
:1048C00067E077E080E090E026960FB6F894DEBFD0
:1048D0000FBECDBFDF91CF910895E1E7F0E0808179
:1048E0008D7F8083109291004698479810926001C6
:1048F0000895CF92DF92EF92FF920F931F93CF9381
:10490000DF930E941B22811520E8920751F4DF916A
:10491000CF911F910F91FF90EF90DF90CF900C946B
:104920006D2421E020936001813020E8920751F44A
:104930008091630290916402909366028093650275
:104940000E941B2297FD05C020916202222309F4D8
:1049500040C02091610221113CC021E020936802F7
:10496000EC01DF77209769F481E080936902469833
:104970003FE9C32E3FE0D32EE12CF12CCAEFD0E06B
:1049800014C08E0120E030E060E472E48FE090E03B
:10499000A90198010E94A63569017A0181E0C81A2F
:1049A000D108E108F10810926902E0916E02F091DD
:1049B0006F020995811103C081E0809369028091A3
:1049C0006802882309F43FC08091690281113BC0CD
:1049D00003C010926802C4CF469935C0479A0E941E
:1049E0001B22009771F09C01DE010E94FA35DC0168
:1049F000CB0129E0B595A795979587952A95D1F78D
:104A000003C08FEF9FEFDC01109290002AE020930B
:104A10009100D0929900C092980080936A0290937E
:104A20006B02A0936C02B0936D0280917100826062
:104A300080937100DF91CF911F910F91FF90EF90C4
:104A4000DF90CF9008954798CACF1F920F920FB66C
:104A50000F9211242F933F934F935F936F937F9304
:104A60008F939F93AF93BF93EF93FF9380916A02CD
:104A700090916B02A0916C02B0916D02892B8A2BF0
:104A80008B2B81F18091690281110BC098B180E478
:104A9000892788B980916802882319F088B18058E5
:104AA00088B980916A0290916B02A0916C02B091DA
:104AB0006D02181619061A061B06B4F480916A02D4
:104AC00090916B02A0916C02B0916D020197A109C7
:104AD000B10980936A0290936B02A0936C02B09329
:104AE0006D0202C00E947924FF91EF91BF91AF91B6
:104AF0009F918F917F916F915F914F913F912F91F6
:104B00000F900FBE0F901F9018959C01E1E7F0E009
:104B100090819D7F908381E080936702309366024D
:104B20002093650230936402209363020C947924ED
:104B3000EF920F931F93CF93DF93E90183E0489F98
:104B4000A0011124FA01E459FC4E1491FA01E35931
:104B5000FC4E3491FA01E259FC4E4491FB018781ED
:104B6000908565E070E00E941536892B99F44130FC
:104B700049F0423079F49881923010F49F5F08C078
:104B800090E006C09881992311F0915001C092E005
:104B9000988302C0443011F0088101C000E0632F07
:104BA000330F770BE12C22E233E144E353E1812F11
:104BB00090E00E94852EDF91CF911F910F91EF9091
:104BC00008952F923F924F925F926F927F928F92B1
:104BD0009F92AF92BF92CF92DF92EF92FF920F938C
:104BE0001F93CF93DF9300D000D000D0CDB7DEB7B6
:104BF0005C014B016C0188E5C80ED11CD6011496EE
:104C0000FC90FB010780F085E02DFE83ED8340E002
:104C1000C5010E94AE301501F2E52F0E311C3501A1
:104C20008CE1680E711C25019FE1490E511C621434
:104C3000730451F1D2018C918823F9F0F301608162
:104C4000F3E06F9FB0011124FB01EA54F84F849107
:104C5000FB01E954F84F64916F19062E000C770B95
:104C6000E12CF2013197008126EF3FE148E050E26C
:104C7000082E000C990B0E94852E86E0680E711C90
:104C800096E0490E511CD3CFF501E558FF4F8081C6
:104C9000811109C08D819E8168E270E00E94153605
:104CA000459708F48BC0D6018D919C9125E0289FF3
:104CB000B001299F700D1124FB01E857FE4F24918C
:104CC000F601928191112DC0211135C03681858167
:104CD000381305C021E080858430D9F539C08317A9
:104CE0007CF487818F5F878328E02087803109F4F7
:104CF0001782F601278126952695220F2D5F1BC06E
:104D000038173CF587818F5F878324E020878031C7
:104D100009F41782F601278126952695220F2E5F2A
:104D20000AC026818581281313C08085843009F448
:104D300054C12BE00EC0233118F4203150F00EC0C6
:104D4000253190F42351A0E0B0E044E95EE110C0C9
:104D500020E0A4EBBDE144E15FE10AC02051A0E006
:104D6000B0E04EEB5EE104C0A0E0B0E040E050E017
:104D7000F60186818583FB01EB57FE4F8491F60196
:104D80008683FB01EA57FE4F6491E92FF0E0E45A75
:104D9000FE4F3491F6019481691B631B062E000CB3
:104DA000770B082E000C990B109719F40E94652EB2
:104DB00005C0E22E022F9D010E94852ED50154963A
:104DC0003C9154975B969C915B9755968C91992357
:104DD00031F0E82FF0E0EA5EFA4EE49101C0E0E045
:104DE000EF19ED5F8D3030F08F3008F18F3011F416
:104DF00018E022C0363249F020F43D3031F080F422
:104E00001BC03F3368F03F33B9F4D50152968C9103
:104E1000882379F06AE00E94093616E0181B0CC05E
:104E2000D50156968C91883031F412E005C017E018
:104E300003C010E001C011E06E2FEE0F770B212FA1
:104E400046E95BE1832F90E00E94652EF40183899F
:104E5000813059F040E4B401C5010E94AE30D40164
:104E600054968C91882361F14AC031016C147D0401
:104E700089F3F30180818823F9F00181F3E00F9F2A
:104E800080011124F801E65BF54F8491F801E55BA0
:104E9000F54F6491F801E45BF54F04916F19062E0C
:104EA000000C770BE02E2CE83AE140E15BE1082EA4
:104EB000000C990B0E94852E83E0680E711CD6CFE2
:104EC000F501EF57FF4F8081882329F1E12C00E0A5
:104ED0002AED38E142EB59E164E170E08BE190E0CA
:104EE0000E94852ED40152962C91215042EA58E11D
:104EF00067E170E08FE490E00E94652E1CC0E12C19
:104F000000E02EE436E14FE257E164E170E089E130
:104F100090E00E94852EF5018281882361F0E12CCA
:104F200000E026E235E149EB55E164E170E087E21B
:104F300090E00E94852EE12C00E02CE338E14EE663
:104F400058E160E070E086E690E00E94852E1982CC
:104F50001A821B821C82D40150968C9150975196D4
:104F60009C91FE0131960AE010E024E02E0FB8017A
:104F70000E9415368193CB012E13F9CF6E01B5E057
:104F8000CB0ED11C09E610E0F60122916F0142E13F
:104F900058E163E070E0C8010E94652E0B5F1F4F6F
:104FA0000D37110589F726960FB6F894DEBF0FBEB0
:104FB000CDBFDF91CF911F910F91FF90EF90DF90C8
:104FC000CF90BF90AF909F908F907F906F905F90A9
:104FD0004F903F902F900C94852B2AE0BACE7F9271
:104FE0008F929F92AF92BF92CF92DF92EF92FF92F9
:104FF0000F931F93CF93DF93EC01615F7F4F7C0191
:105000003AE6E30EF11CD70112967C936E9311974A
:105010007A8F698F8C599F4F15969C938E93149716
:105020000C970E948223FE01EF58FF4F81E082839C
:105030003F9683E480838E0101581F4F85E0F8017D
:10504000808333978DE78083D70113961C92139743
:105050001C921496ED91FC91159782E0828384E175
:105060008083FE01EF57FF4F10827E01BBE7EB0EFE
:10507000F11CF7011082CE010E947630CE018E5ACB
:105080009F4FFE017C96AE01405E5F4F9E2E8F2E9D
:10509000E817F90761F010829A0121503109D9010E
:1050A0001C92DA011C9236964A5F5F4FF1CFB12C09
:1050B00086E0782EAA24A394D8018C91B816F8F42F
:1050C000CB2CD12C63E770E080E090E00E94A72B0E
:1050D0006A5BF8012081E92DF82D90E0921701F12B
:1050E000B91651F08081681710F4861B03C0362F63
:1050F000381B832F8F3030F39F5F3696EFCFF70149
:1051000010821A82DF91CF911F910F91FF90EF9043
:10511000DF90CF90BF90AF909F908F907F90089539
:105120007C9CF0017D9CF00D1124EC0FFD1F648F21
:10513000A78EB394C1CF2F923F924F925F926F92FE
:105140007F928F929F92AF92BF92CF92DF92EF9217
:10515000FF920F931F93CF93DF93CDB7DEB72997BD
:105160000FB6F894DEBF0FBECDBF5C018B01FC0112
:10517000838D6501811104C0FCE1CF0ED11C03C0F9
:105180002EE2C20ED11CF80127803084FAE08F2E67
:10519000912CA3E0EA2EF12C20E045E153E1B4018B
:1051A000C7010E94652EFAE0EF0EF11C2FEF821A64
:1051B000920A31E7E316F10479F776E3872E912C12
:1051C000EFE0EE2EF12C20E045E153E1B401C70100
:1051D0000E94652E8AE0E80EF11C91E0891A910880
:1051E000EDE7EE16F10479F795012C5E3F4FF501DE
:1051F0004189B801C5010E94982595012B5E3F4F5A
:10520000F5014289B801C5010E94982595012A5EE1
:105210003F4FF5014389B801C5010E949825F80167
:105220008781908565E070E00E941536892BC9F46E
:10523000F50181898D3810F48F5F01C080E0F501A0
:10524000818B82898D3810F48F5F01C080E0F50179
:10525000828B83898D3810F48F5F01C080E0F50167
:10526000838BE12C00E023E430E14BEA51E162E181
:1052700070E08DE190E00E94852E27E33EE04CE354
:105280005FE063E070E086E190E00E94852E860199
:1052900096012E5E3F4F38872F8368E1E62EF12C72
:1052A000CE0101962C0136E0380F398754E2652E85
:1052B000712C812C912CF801E80DF91D22812F33DE
:1052C00011F0205401C020E041EA5DE0B701C301C4
:1052D0000E94752E8FEF881A980A96E0690E711C4D
:1052E000E3E08E16910439F79E01295F3F4F3901A3
:1052F00041E4842E912CF20126E011922A95E9F7DF
:10530000F80180819181F2016AE070E00E94153617
:105310008193CB0139853E13F7CFF30122913F01F1
:10532000255E41EA5DE0B701C4010E94752EF5E0FB
:105330008F0E911C2FE582169104E9F639E0E30EF9
:10534000F11C0A5F1F4F8F8198850817190709F014
:10535000ADCFF50127892F3F09F46CC0C10168E288
:1053600070E00E941536459708F464C08601F6E0A7
:105370002F9F000D111D11240E5F1F4F39E0239F39
:1053800070011124370187E1680E711CF501C08C92
:10539000F6E0CF9E60011124460123E2820E911CAB
:1053A00039E2C30ED11C8FE1E80EF11C8C149D0470
:1053B00001F1230177FE11C0412C512C0EC048167B
:1053C00059069CF490E88916910424F4B201C401B2
:1053D0000E94952BEFEF4E1A5E0AC701F1E4EF161B
:1053E000F1046CF380E490E0EACF2FEF821A920A86
:1053F000DDCFF501808DF801E80FF11D20812F33FD
:1054000011F0205401C020E0F5016789F9E06F9F99
:10541000B0011124685E7F4F36E0839FC0011124E4
:105420003BEFC32EE12C00E010E041EA5DE0849602
:105430000E943A2CF50187898F3F79F4828D811182
:105440000CC0E12C00E02BE13DE04DE55DE065E3C3
:1054500070E080E390E00E94852EE12CF501038D41
:105460002DE73CE041EB5CE06BE170E082E090E036
:105470000E94852E29960FB6F894DEBF0FBECDBFD1
:10548000DF91CF911F910F91FF90EF90DF90CF9020
:10549000BF90AF909F908F907F906F905F904F9054
:1054A0003F902F900C94852BCF92DF92EF92FF923A
:1054B0001F93CF93DF93EC017B01DB011A968C9154
:1054C0001A9719961C919B8DFE01911102C07C9632
:1054D00001C0BE962F892F3F09F481C0D7011796CE
:1054E0008D919C9118976CE070E00E9415367C01BC
:1054F000892B09F091C0B6E02B9FE00DF11D11241E
:10550000329617FF19C0888DDF01A80FB11D8C914D
:105510008F5F8C93888DDF01A80FB11D8C918B3527
:1055200014F081E48C93888DDF01A80FB11D8C915C
:10553000803411F481E48C9314FF10C0888DDF0156
:10554000A80FB11D8C9181508C93888DDF01A80F1D
:10555000B11D8C91813414F48AE58C9315FF05C03C
:10556000888D882311F08150888F16FF05C0888DA3
:10557000823010F48F5F888F13FF4EC080818F338D
:1055800009F44AC081818F3309F446C082818F3388
:1055900009F442C06F01F60161916F012F898B8D73
:1055A000882319F089ED91E002C087EC91E0F6E0E4
:1055B0002F9F800D911D112497012E5F3F4F820F69
:1055C000931F0E9486353FEFE31AF30A43E0E41687
:1055D000F10409F78FEF8F8B84E68A8F1DC08095C9
:1055E00081238C7099F08A8D811110C083E884BD6D
:1055F00027BD81EF809380001092880010928A006E
:105600000E946D2482E0D70156968C9315FD1B8E67
:1056100016FF02C081E08B8F1076898D1036E1F580
:105620008F5F898F853108F445C08D3310F18D333C
:1056300009F040C0198E83E884BD8FEF87BD81EFEC
:10564000809380001092880010928A000E94A92FF7
:1056500042E150E067EC71E0CE014C960E94583573
:1056600042E150E069ED71E0CE018E960E9458351E
:1056700021C020E430E0F901E81BF109CF01880FD7
:1056800093E894BD9FEF97BD91EF909380001092A7
:10569000880080938A000EC0882361F083E884BD6F
:1056A0008FEF87BD81EF8093800010928800109269
:1056B0008A00198E8A8D882311F081508A8FDF919C
:1056C000CF911F91FF90EF90DF90CF900895809140
:1056D000700208950895FC01DB0183E052968C93DB
:1056E000529751961C921E92509754961C9287E6A0
:1056F0009BE290936F0280936E0284E0838B148A06
:10570000158A128A08950E947037E5E7F2E081E079
:10571000A0E0B8E000800EBC8111012C1197A0FD23
:10572000FDCF0192B9F70DB40895E9EFF3E290E1EE
:10573000969FD001A0781124A80F6770E60FF11D85
:105740009491AB58BD4F8C91982B9C930895CF9317
:10575000DF9300D000D0CDB7DEB7611571058105AC
:10576000910579F09B01AC0169833A834B835C839B
:105770000E944A3529813A814B815C810E94A6357D
:1057800003C060E070E0CB010F900F900F900F907E
:10579000DF91CF9108953FB7F8948091760690916C
:1057A0007706A0917806B091790626B5A89B05C02A
:1057B0002F3F19F00196A11DB11D3FBFBA2FA92F90
:1057C000982F8827820F911DA11DB11DBC01CD010D
:1057D00042E0660F771F881F991F4A95D1F70895F9
:1057E0001F920F920FB60F9211242F933F938F9316
:1057F0009F93AF93BF938091710290917202A09199
:105800007302B09174023091750623E0230F2D3797
:1058100020F40196A11DB11D05C026E8230F0296B4
:10582000A11DB11D209375068093710290937202A1
:10583000A0937302B09374028091760690917706DC
:10584000A0917806B09179060196A11DB11D8093B3
:10585000760690937706A0937806B0937906BF9169
:10586000AF919F918F913F912F910F900FBE0F900D
:105870001F9018956F927F928F929F92AF92BF92D6
:10588000CF92DF92EF92FF920F931F93CF93DF930C
:1058900000D000D0CDB7DEB73A014115510509F46B
:1058A00001C2FA01F49031965491F2E06F0E711C2E
:1058B000AF2CB12C211102C0EE2069F1A52FA695C5
:1058C000A695A695B0E0E1E0F0E0352F377011F431
:1058D000E0E0F0E0AE0FBF1FAA9EF001AB9EF00D1E
:1058E000BA9EF00D1124A3E08A2EC81003C0EE0F5B
:1058F000FF1F0AC00115110539F0EE9ED001EF9E81
:10590000B00D11240A0F1B1F2E9FD0012F9FB00D29
:1059100011246A0E7B1E2FEFC21208C0011511055B
:1059200019F0CC24C39402C032E0C32EDC01AA0DCE
:10593000BB1D1A161B060CF0B5C1803891050CF082
:10594000B1C19B01250F311D121613060CF0AAC11F
:10595000603471050CF0A6C16114710409F4A2C190
:10596000362F3770932EFB0177FD379623E0F595A0
:10597000E7952A95E1F72E2F77FF04C0992011F0C3
:105980002FEF2E0F97FF05C0EE27FF27E81BF90B1F
:1059900002C0E0E0F0E0A038B1051CF030E8381BB0
:1059A00001C03F2D3E1B622F022E000C770B2F3FB4
:1059B0001CF4462F409501C040E0B1E0A52FA77030
:1059C00009F4B0E0569556955695DB2ED50E6D0D23
:1059D000711D693071051CF058E0D52ED21AD41A09
:1059E000240FDC0150E82503A00DB11D1124AE0FDA
:1059F000BF1F4F9DE00DF11D1124A3014E0F5F1F2E
:105A000081E090E07C01092C02C0EE0CFF1C0A949E
:105A1000E2F783E0C81609F404C18C15A8F091E000
:105A2000C91609F4B5C0E2E0CE123CC18FEF8E9DDD
:105A3000B0018F9D700D1124609570957C836B83F0
:105A40007C806D2C620E2BC0FAEFCF1631F09BEFED
:105A5000892EC81027C1D20E87C0D20E51C0FA01BC
:105A6000E00FF11FE491EE9D6001EF9DD00C112439
:105A7000DA82C98227FD07C0FC01D080ED2DE62324
:105A8000CE2AFC01C082911013C00F5F1F4F0196F8
:105A9000031728F32F5F4A0D5B1DA058BF4F261533
:105AA00009F400C1CD018B589D4F00E010E0F0CF0C
:105AB00027305CF7FC01E058FF4FC080C7208A8088
:105AC000C828C082E2CFFA01E60FF71FE491EE9DED
:105AD0008001EF9D100D11241A83098327FD04C056
