:100000000C94F31A0C941B1B0C941B1B0C941B1BC1
:100010000C941B1B0C941B1B0C941B1B0C941B1B88
:100020000C941B1B0C941B1B0C941B1B0C941B1B78
:100030000C941B1B0C941B1B0C941B1B0C941B1B68
:100040000C941B1B0C941B1B0C941B1B0C941B1B58
:100050000C941B1B0C941B1B0C941B1B0C94532DFE
:100060000C941B1B0C941B1B0C941B1B0C941B1B38
:100070000C941B1B0C941B1B0C941B1B0C941B1B28
:100080000C94F7230C941B1B0C941B1B0C941B1B34
:100090000C941B1B0C941B1B0C941B1B0C941B1B08
:1000A0000C941B1B0C941B1B0C941B1B272C6C2BE4
:1000B0002D2C962B722B7F2B882BA02BA82BB72BAC
:1000C000C12BC92BD12BE32BED2BD92B002CFB2BD8
:1000D000F62B000001000001000001000001FF03F9
:1000E00004FF0304FE0506FE0506FF0708FF0708D8
:1000F000070D06070D060B0E040B0E040D10010E66
:100100001001121203131203151405151405161607
:10011000071718070A000900000200000200000289
:10012000000002000302000602000902000C0200A7
:100130000F0200120200140200000900000000007B
:100140000000000000000001030301030301050596
:1001500001050501070701070701000945120445CC
:100160001404451604451804451A04451C04451E8C
:10017000044520044522044524044526044528045A
:10018000452A04452C04452E0445300445320445D7
:1001900034044334014134013F34013D35013935E4
:1001A000013735013535013336013136012F36013E
:1001B0002D36012B36A92C13042C15042C17042CD6
:1001C00019042C1B042C1D042C1F042C21042C238B
:1001D000042C25042C27042C29042C2B042C2D045E
:1001E0002C2F042C31042C33042C35012C370129FD
:1001F00037012737012537012337011F38011D3803
:10020000011B38011938011738011539A9131304D6
:10021000131504131704131904131B04131D0413DB
:100220001F04132104132304132504132704132983
:1002300004132B04132D04132F041331041333045C
:100240001335041337041339011139010F39010D26
:1002500039010B3A01093A01073A01053A01033A1B
:1002600001013B01FF3D01FF3F01FF4101FF430150
:10027000FF4501FF4701FF4901FF4B01FF4D01FF12
:100280004F01FF5101FF5301015302035302055374
:10029000020753020954020B54020D54020F540278
:1002A0001154021355021555021755021955021B18
:1002B00055021D56021F560221560223560225568C
:1002C000022757022957022B57022D57022F570298
:1002D0003158023358023558023758023958023B18
:1002E00059023D59023F5902415902435902455AA8
:1002F00002475A02495A024B5A024D5A024F5B02B8
:10030000515B02535B02555B02575B02595C025B17
:100310005C025D5C025F5C02615C02635D02645EC4
:1003200002655F02656102656302656502656702D9
:10033000656902656B02656D02656F026571026534
:1003400073026373016173015F73015D74015B7418
:1003500001597401577401557401537501517501A8
:100360004F75014D75014B75014976014776014581
:1003700076014376014176013F77013D77013B7776
:100380000139770137770135780133780131780108
:100390002F78012D78012B79012979012779012501
:1003A0007901237901217A011F7A011D7A011B7AD3
:1003B00001197A01177B01157B01137B01117B0168
:1003C0000F7B010D7C010B7C01097C01077C010581
:1003D0007C01037D01017E01018001018201018414
:1003E00001018601018801018A01018C01000004DC
:1003F0007F4A047D4A047B4A04794A04774A04759B
:100400004A04734A04714A046F4A046D49046B49F3
:100410000469490467490465490163490161490167
:100420005F49015D49015B4901594901574801553F
:1004300048045348045148044F48044D48044B486D
:1004400004494804474804454802434702414702DB
:100450003F47023D47023B470239470237470235D3
:1004600047043347043147042F46042D46042B46E6
:100470000429460427460425460123460121460156
:100480001F46011D46011B45011945011745011570
:1004900045041345041145040F45040D45040B455F
:1004A00004094504074404054402034402014402CC
:1004B000FF4402FD4402FB4402F94402F74402F502
:1004C0004402F34304F14304EF4304ED4304EB43DC
:1004D00004000004D5F08D14A1C881CFD9F1AF205C
:1004E00000FCFEFFFFFFFFFFFFFFFFFFFFFFFFFF1F
:1004F000FFFFFFFFFFFFFFFFFEFEFC070F1F1F1F99
:100500001F1F1F1F1F1F1F1F1F1F1F1F1F1F1F1FFB
:100510001F1F1F1F0F1A0D00FC02FAFAAAAA02F2EF
:10052000FA2AF202B2BAEA6A021AFAE21A02FC00E3
:10053000000007080A0A0A0A080A0A090A080A0A39
:100540000A0908080A0A080807000000FC02FAFA6B
:1005500022FA02F2FA2AF202FAFA2AD202FAFA8A03
:10056000F202FC00000007080A0A090A080A0A0940
:100570000A080A0A090A080A0A0A0A08070000FC07
:10058000FCFCFCFCFCFCFCFCFCFCFCFCFCFCFCFCAB
:10059000FFFFFFFFFFFFFFFFFFFFFFFFFFFEFCF876
:1005A000010101010101010101010101010101013B
:1005B000010101010103070F0F0F0F0F0F0F0703B9
:1005C00001210C000078281000782850007858008D
:1005D00010482000104820000078FC8ED6DAD68E15
:1005E000FC78000000000000000000000000000097
:1005F00000000000000000000000010205050505E4
:1006000005020100000408022905023E09093E3FD7
:1006100025251A1E2121123F21211E3F2525213F7C
:100620000505011E21293A3F04043F213F21001006
:1006300021211F3F040A313F2020203F02023F3F7B
:1006400002043F1E21211E3F0909061E21112E3FD3
:1006500009093622252519013F01011F20201F0FFE
:1006600010201F3F10103F3B04043B0304380731A8
:100670002D23211E29251E223F2000322929261242
:1006800021251A0C0A3F08172525191E25251801B2
:100690003905031A25251A0629291EFCFEFFFFFF2E
:1006A000FFFFFFFFFFFFFFFFFFFFFFFFFFFFFFFF5A
:1006B000FFFFFFFFFFFFFFFFFFFFFFFFFFFFFFFF4A
:1006C000FFFFFFFFFFFFFFFFFFFFFFFFFFFFFFFF3A
:1006D000FFFFFFFFFFFFFFFFFFFFFFFFFFFFFFFF2A
:1006E000FFFFFFFFFFFFFFFFFFFFFFFFFFFFFFFE1B
:1006F000FEFCFFFFFFFFFFFFFFFFFFFFFFFFFFFF0E
:10070000FFFFFFFFFFFFFFFFFFFFFFFFFFFFFFFFF9
:10071000FFFFFFFFFFFFFFFFFFFFFFFFFFFFFFFFE9
:10072000FFFFFFFFFFFFFFFFFFFFFFFFFFFFFFFFD9
:10073000FFFFFFFFFFFFFFFFFFFFFFFFFFFFFFFFC9
:10074000FFFFFFFFFFFFFFFFFF010307070707078B
:100750000707070707070707070707070707070729
:100760000707070707070707070707070707070719
:100770000707070707070707070707070707070709
:1007800007070707070707070707070707070707F9
:1007900007070707070707070707070707070703ED
:1007A000571300FC0202F2F2F282F2F2F202F2F2CB
:1007B000F202C2E2F2121252624202F2F2F282F249
:1007C000F2F20202E2F29292122202C2E2F2321239
:1007D00012722202C2E2F2125212F2E2C202F2F2E9
:1007E000F21212F2F2E202F2F2F292921202E2F249
:1007F000929212220202FC000000FF00005F5F5F85
:10080000005F5F5F005F5F5F00172F5F50515F2FDA
:100810005F005F5F5F005F5F5F002C5C5151535F63
:100820002E00172F5F585050582E00172F5F505032
:10083000505F2F17005F5F5F01015F5E58005F5FD1
:100840005F5052500C5C5151535F2E0000FF00006E
:10085000000102020202020202020202020202027B
:100860000202020202020202020202020202020268
:100870000202020202020202020202020202020258
:100880000202020202020202020202020202020248
:100890000202020202020202020202020202020238
:1008A00002020202010000FFFFFFFFFFFFFFFFFF48
:1008B000FFFFFFFFFFFFFFFFFFFFFFFFFFFFFFFF48
:1008C000FFFFFFFFFFFFFFFFFFFFFFFFFFFFFFFF38
:1008D000FFFFFFFFFFFFFFFFFFFFFFFFFFFFFFFF28
:1008E000FFFFFFFFFFFFFFFFFFFFFFFFFFFFFFFF18
:1008F000FFFFFFFFFFFFFFFFFFFFFFFFFFFFFFFF08
:10090000FFFFFFFFFFFFFFFFFFFFFFFFFFFFFFFFF7
:10091000FFFFFFFFFFFFFFFFFFFFFFFFFFFFFFFFE7
:10092000FFFFFFFFFFFFFFFFFFFFFFFFFFFFFFFFD7
:10093000FFFFFFFFFFFFFFFFFFFFFFFFFFFFFFFFC7
:10094000FFFFFFFFFFFFFFFFFFFFFFFFFFFFFFFFB7
:10095000FFFFFFFFFFFFFFFFFFFFFFFFFFFFFFFFA7
:10096000FFFFFFFFFFFFFFFFFFFFFFFFFFFFFFFF97
:10097000FFFFFFFFFFFFFFFFFFFFFFFFFFFFFFFF87
:10098000FFFFFFFFFFFFFFFFFFFFFFFFFFFFFFFF77
:10099000FFFFFFFFFFFFFFFFFFFFFFFFFFFFFFFF67
:1009A000FFFFFFFFFFFFFFFFFFFFFFFFFFFFFFFF57
:1009B000FFFFFFFFFFFFFFFFFFFFFFFFFFFFFFFF47
:1009C000FFFFFFFFFFFFFF03030303030303030313
:1009D00003030303030303030303030303030303E7
:1009E00003030303030303030303030303030303D7
:1009F00003030303030303030303030303030303C7
:100A00000303030303030303030303030303034871
:100A10002200FC060202020202020202020202029A
:100A200002020202020202020202020202020202A6
:100A30000202020202020202020202020202020296
:100A40000202020202020202020202020202020286
:100A500002020202020206FC0000FF000000000089
:100A60000000000000000000000000000000000086
:100A70000000000000000000000000000000000076
:100A80000000000000000000000000000000000066
:100A9000000000000000000000000000000000FF57
:100AA0000000FF0000000000000000000000000047
:100AB0000000000000000000000000000000000036
:100AC0000000000000000000000000000000000026
:100AD0000000000000000000000000000000000016
:100AE00000000000000000FF0000FF800000000088
:100AF00000000000000000000000000000000000F6
:100B000000000000000000000000000000000000E5
:100B100000000000000000000000000000000000D5
:100B2000000000000000000000000000000080FF46
:100B300000000001010101010101010101010101A8
:100B40000101010101010101010101010101010195
:100B50000101010101010101010101010101010185
:100B60000101010101010101010101010101010175
:100B70000101010101010100000B08878F9DB7E70A
:100B8000C7A5D7AF978D000000000000000000034C
:100B900006090C0F1214F8FCFEFFFFFFFFFFFFFF1A
:100BA000FFFFFFFFFFFFFFFFFFFFFFFFFFFFFFFF55
:100BB000FFFFFFFFFFFFFFFFFFFFFFFFFFFFFFFF45
:100BC000FFFFFFFFFEFCF8FFFFFFFFFFFFFFFFFF40
:100BD000FFFFFFFFFFFFFFFFFFFFFFFFFFFFFFFF25
:100BE000FFFFFFFFFFFFFFFFFFFFFFFFFFFFFFFF15
:100BF000FFFFFFFFFFFFFFFF0001030707070707D6
:100C00000707070707070707070707070707070774
:100C10000707070707070707070707070707070764
:100C2000070707070707030100311300F804020252
:100C3000F2F2F21212F2F2E20202E2F2F2C2020264
:100C400002F2F2F2020202F20202E2F292921222A4
:100C500002F2F2F2929212020204F80000FF000087
:100C6000005F5F5F010505050258071414075F5E0A
:100C700050002F5F5F5050502F002C545151535F44
:100C80002E005F5F5F505250000000FF0000000127
:100C90000202020202020202020202020202020234
:100CA0000202020202020202020202020202020224
:100CB0000202020202020202020202010000F8FC29
:100CC000FEFFFFFFFFFFFFFFFFFFFFFFFFFFFFFF35
:100CD000FFFFFFFFFFFFFFFFFFFFFFFFFFFFFFFF24
:100CE000FFFFFFFFFFFFFFFFFFFFFFFFFFFFFFFF14
:100CF000FFFFFFFFFFFFFFFFFFFFFFFFFFFFFFFF04
:100D0000FFFFFFFFFFFFFEFCF8FFFFFFFFFFFFFFFE
:100D1000FFFFFFFFFFFFFFFFFFFFFFFFFFFFFFFFE3
:100D2000FFFFFFFFFFFFFFFFFFFFFFFFFFFFFFFFD3
:100D3000FFFFFFFFFFFFFFFFFFFFFFFFFFFFFFFFC3
:100D4000FFFFFFFFFFFFFFFFFFFFFFFFFFFFFFFFB3
:100D5000FFFFFFFF00010307070707070707070754
:100D60000707070707070707070707070707070713
:100D70000707070707070707070707070707070703
:100D800007070707070707070707070707070707F3
:100D90000707070707070707070707070301004BB0
:100DA0001300F804C2E2F21212526242020202E29C
:100DB000F2F2C2020202F2F2F202C2F2F2F2020213
:100DC000F2F2F29292120202C2E2F2125212F2E233
:100DD000C232F2F2820282721202F2F2F2929212A3
:100DE00002F2F2F21212F2F2E204F80000FF00172F
:100DF0002F5F50515F2F5F0058071414075F5E503C
:100E0000005F015F5E015F5F5F00005F5F5F5052E8
:100E1000500000172F5F5050505F2F1700035F5F87
:100E200058070000005F5F5F505250005F5F5F0136
:100E3000015F5E5800FF0000000102020202020290
:100E40000202020202020202020202020202020282
:100E50000202020202020202020202020202020272
:100E60000202020202020202020202020202020262
:100E70000202020202020202020202020202020153
:100E80000000040406090F060A0F0F08090D0F0AD7
:100E9000090B0F0F03020F0F070D0D0D0F0A0E0E9A
:100EA000010D0F030E0B0B0F07050F0FFCFEFFFFCD
:100EB000FFFFFFFFFFFFFFFFFFFFFFFFFFFFFFFF42
:100EC000FFFFFFFEFC00010303030303030303030F
:100ED0000303030303030303030303030100190ACA
:100EE00000FC0202020202020202020202020202EA
:100EF00002020202020202FC0000000101010101E3
:100F000001010101010101010101010101010101D1
:100F10000000090D000404FCFEFE000000000A0AA7
:100F20000B0B0B0A0A00001C82C2E27E3E1C000072
:100F30000B0B0B0B0B0B0B000080863232FEFECC32
:100F40000000050A0A0A0B0B0500F8FCFEFFFFFF74
:100F5000FFFFFFFFFFFFFFFFFFFFFFFFFFFFFFFFA1
:100F6000FFFFFFFFFFFFFFFFFFFFFFFFFFFFFFFF91
:100F7000FFFFFFFFFFFFFFFFFFFFFFFFFFFFFFFF81
:100F8000FFFFFFFFFFFFFFFFFFFFFFFFFFFFFFFE72
:100F9000FCF8FFFFFFFFFFFFFFFFFFFFFFFFFFFF6B
:100FA000FFFFFFFFFFFFFFFFFFFFFFFFFFFFFFFF51
:100FB000FFFFFFFFFFFFFFFFFFFFFFFFFFFFFFFF41
:100FC000FFFFFFFFFFFFFFFFFFFFFFFFFFFFFFFF31
:100FD000FFFFFFFFFFFFFFFFFFFF00010307070702
:100FE0000707070707070707070707070707070791
:100FF0000707070707070707070707070707070781
:101000000707070707070707070707070707070770
:101010000707070707070707070707070707070364
:101020000100481300F80402020202020202020256
:101030000202F2F2F202020202F2F2F20232F2F2E0
:10104000820282721202F2F2F292921202E2F292A0
:1010500092122202020202020202020202020202B0
:1010600002020202020202020204F80000FF000073
:10107000000000000000000000005F5F5F50505063
:10108000005F5F5F0000035F5F58070000005F5F65
:101090005F5050500C545151535F2E00000000001F
:1010A0000000000000000000000000000000000040
:1010B0000000FF000000010202020202020202021E
:1010C0000202020202020202020202020202020200
:1010D00002020202020202020202020202020202F0
:1010E00002020202020202020202020202020202E0
:1010F00002020202020202020201000040E8FCFCBD
:10110000FCFCFCDCBBFFFDFFFBB870F0F0F0F07006
:1011100020000000000000000001010101010103A6
:101120000303030303010000002070F0F0F0F070EF
:10113000BBFFFDFFFBB8DCFCFCFCFCFCE840000056
:101140000103030303030301010101010100000086
:101150000000000090F8F8F8F8F8F8F8FBFFFFFF3F
:10116000FBF8F8F8F8F8F8F8F8900001010101012F
:101170000101010101010101010101010101010060
:10118000160A004048586858488890B3D5B3901064
:101190002060A0602020000000000000000000008F
:1011A0000000000000010101010101000000000039
:1011B000202060A060201093B5D3B0908848586874
:1011C0005848400000000001010101010100000039
:1011D00000000000000000000000009090B0D0B0BF
:1011E000909090B3D5B3909090B0D0B09090900084
:1011F00000000000000000000000000000000000EF
:101200000000000000001414000000C03804C2797F
:101210006551516579C20438C000000038C402131A
:10122000E4E9A2D735E5E535D7A2E9E41302C438ED
:10123000000C050A08090D0A010101010A0D09083F
:101240000A050C0000000000C03844DAE5F9C53397
:101250008A7488708000000000000043249B070609
:101260009733793810100080010608F000060D0F42
:1012700007000809060D0F070008060908000E01FF
:10128000000000807088748A33C5F9E5DA4438C0FC
:1012900000000000F0080601800010103879339734
:1012A00006079B2443000000010E00080906080001
:1012B000070F0D06090800070F0D0600C0300808CB
:1012C0007CF4C21D2B416B412B9EC47C080830C0AE
:1012D0000738C012C4E8E2F7F56565F5F7E2E8C43F
:1012E00012C03807000C050A08090D0B01010101A5
:1012F0000B0D09080A050C00000000C0380402D9D3
:10130000A511B115A1C20438C00000007884820381
:10131000CFCFECF1E26466E4F2E9CCC703828478D3
:10132000000C050A08090D0B010101010B0D09084C
:101330000A050C00000000C03804C27965515165EF
:1013400079C20438C000000070888403C4D9823890
:101350005482D682543881C403848870000C050AF4
:1013600008090D0B020000020A0D09080A050C000D
:10137000000000C03804C2796551516579C2043853
:10138000C000000038C40213E4E922974525652512
:10139000478229E41302C438000C050A080908032F
:1013A00005080D08050308080A050C0000000000E8
:1013B000C020109010C8A42272CAAA4A02E408F001
:1013C00000186488473079FEFC7132254A2C098761
:1013D000710804030000000000020504080A05016A
:1013E0000101010000000000E8182090C8C8C424D2
:1013F000844830A02020404040800000C38142BD8E
:10140000DB5ABD66007EC37E81FF665A4224817E20
:10141000070804090B0B0B0C090A0C050404020253
:10142000020100000A0D00004094BCB6FAD68C40C0
:101430000000000000050905080000FE4094BCB64D
:10144000FAD68C40100700000005090508000E0DB3
:10145000000018ACF46C78A8000000000000000840
:10146000060B070101000000000000000000000062
:1014700080C0C0A070E04000000000000A0A07031E
:1014800005030500010000000080008000808080CE
:10149000008040C080000000040200030709070F1D
:1014A000050E03000ADFFFFFFFFF6F0406070707B3
:1014B00006006FFFFFFFFFDF0A00060707070604AD
:1014C000FFFFFFFFFFFFE600020707070600E6FF3A
:1014D000FFFFFFFFFF000607070702001FFFFFFFD8
:1014E000FFFF660002070707060066FFFFFFFFFF1A
:1014F0001F000607070702001FFFFFFFFFFF26046C
:1015000006070707060026FFFFFFFFFF1F0006076D
:10151000070706041FFFFFFFFFFF66000607070718
:10152000020066FFFFFFFFFF1F000207070706001C
:10153000FFFFFFFFFFFFE604060707070702E6FFBE
:10154000FFFFFFFFFF02070707070604E2FFFFFF99
:10155000FFFF3A000607070702003AFFFFFFFFFF01
:10156000E20002070707060056FEFEFFFFFFDE004F
:1015700000050F1F0F1DDEFFFFFFFEFE561D0F1F94
:101580000F050000070B000ADEFB9D6B060004023E
:1015900004060000066B9DFBDE0A00000006040244
:1015A00004004A1EDBFDEB2640000002040600009A
:1015B0004026EBFDDB1E4A000006040200000A1E66
:1015C000DBFDEB6600000002000600000066EBFD9C
:1015D000DB1E0A000006000200000A1EDBFDAB262F
:1015E00000000402000600000026ABFDDB1E0A001E
:1015F0000006000204000A1EDBFDEB660000000688
:10160000000200000066EBFDDB1E0A00000200067F
:1016100000004A1EDBFDEB2640000402000202002F
:101620004026EBFDDB1E4A000202000204004022BD
:10163000EBFBEB2210000006000200001022EBFB87
:10164000EB22400000020006000054BCB6FAD60CA3
:1016500000000005090508000CD6FAB6BC540008C5
:10166000050905000000387CFEFFFFFFFE7C380006
:101670000000010101000000090900385482D682EF
:1016800054380000000000000000000000384CC288
:10169000928664380000000000000000000000385E
:1016A000648692C24C380000000000000000000078
:1016B0000002040608090A0A0B0B0C0C0C0D0D0D98
:1016C0000D0D0D0D0D0D0D0D0D0D0D0D0D0C0C0C4D
:1016D0000B0B0A0908060402000B794A01180D7960
:1016E0004A001C0F794A000C117849000C13784904
:1016F000000C157849000C177849000C197849003E
:101700000C1B7748000C1D7748000C1F7748000C15
:10171000217748000C237748000C257647000C27DA
:101720007647000C297647000C2B7647000C2D7667
:1017300047000C2F7546000C317546000C3375467A
:10174000000C357546000C377546000C39744500A1
:101750000C3B7445000C3D7445000C3F7445001C67
:10176000417445001C437343001C457343001C47F0
:101770007343000C497343000C4B7343000C4D72D0
:1017800042000C4F7242000C517242000C537242E4
:10179000000C557242000C577141000C5971410008
:1017A0000C5B7141000D5D714100055D6F3F0C03E5
:1017B0005D6D3D0C035D6B3B0D035D69390D035D94
:1017C00067370C035D65350C035D63330D035D61A5
:1017D000310D035D5F2F0C035D5D2D0C035D5B2BF5
:1017E0000D035D592900465B5929004E59582800C0
:1017F0004C575828004C555828004C535828004C3A
:10180000515828004C4F5727004C4D5727005C4B30
:101810005727005C495727005C475727005C45560F
:1018200026005C435626005C415626005C3F562647
:10183000005C3D5626005C3B5525005C3955250073
:101840005C375525005C355525005C335525005C1B
:10185000315424005C2F5424005C2D5424004C2B64
:101860005424004C295424004C275323004C255366
:1018700023004C235323004C215323004C1F53239C
:10188000004C1D5222004C1B5222004C19522200C7
:101890004C175222004C155222004C135121004C7F
:1018A000115121004C0F5121004C0D5121004D0BC5
:1018B000512100490B4F1F0C030B4D1D0C030B4B0B
:1018C0001B0D030B49190D030B47170C030B451593
:1018D0000C030B43130D030B41110D030B3F0F0CB6
:1018E000030B3D0D0C030B3B0B0D030B39090D03D3
:1018F0000B37070C030B35050C030B33030D030BE0
:1019000031010D030B2F000C030B2D000C030B2BCF
:10191000000D030B29000D030B27000C030B240003
:10192000002A0D2400000E0F2400000C11240000DA
:101930000C132400000C152400000C172400000CCC
:10194000192400000C1B2400000C1D2400000C1F97
:101950002400000C212400000C232400000C25246A
:1019600000000C272400000C292400000C2B24006C
:10197000000C2D2400000C2F2400000C312400004A
:101980000C332400000C352400000C372400000C1C
:10199000392400000C3B2400000C3D2400000C3FC7
:1019A0002400000C412400000C432400000C4524BA
:1019B00000000C472400000C492400008C4B24003C
:1019C000008C4D21000B044F1F000B0C511E000B0F
:1019D0000C531D000B0C551D000F00551D000F0072
:1019E000551D000F00551D000F00551D000F00551F
:1019F0001D000F00551D000F005F15000F005F1543
:101A0000000F005B150013005B150013005F17004B
:101A100014005F1700140064190014006419001406
:101A2000006419001400581D011400581D02140010
:101A3000581D031400542A041400542A0514005499
:101A40002A0614005832071400583208140058327D
:101A5000091400593409000059340901005B3409A4
:101A600003005D340905005F34090700613409098A
:101A70000063340903006534090500673409070071
:101A800069340909006B340903006D340905006FDE
:101A900034090700713409090073340903007534EF
:101AA000090500773409070079340909007B3409F6
:101AB00003007D340905007F3409070081340907DC
:101AC00000551E000B00571F010B005B21030B008C
:101AD0005D23050B005F26080B0061290B0B0063DB
:101AE0002C0E0B006530120B0067331510006933A4
:101AF0001511006933151200693315120069331589
:101B0000120069331512006933151200693315127A
:101B100000693315120069331512004D24000B00C3
:101B20004F24000B005124000B005325000B0055DF
:101B300025000B005725010B005B26030B005D26DB
:101B4000050B005F27080B0061280B0B0063290EB3
:101B50000B00652B120B00672E1510006933151151
:101B6000006933151200693315120069331512002C
:101B700069331512006933151200693315120069B3
:101B8000331512006933151200C73409010063349C
:101B9000090100633409000063340900006133095E
:101BA00002005F310904005D2E0906005B2C090864
:101BB00000592A0902005728090400552609060081
:101BC000532409080051220902004F210904004D45
:101BD000220906004B240908004924090200472471
:101BE000090400452409060043240908004124098A
:101BF00002003F240904003D240906003B24090893
:101C0000003924090200372409040035240906009C
:101C1000332409080031240902002F240904002D6F
:101C2000240906002B24090800292409020027247E
:101C30000904002524090600232409080021240999
:101C400002001F240904001D240906001B220908A4
:101C5000001920090200171E080400151C070600C1
:101C6000131A0608001118050A000F16040A000FBF
:101C700014030A000F13020A000F11010A000D0FCE
:101C8000000A000B0E000200090E000400070E00FF
:101C90000600050E000800030E000200030E000CF3
:101CA00000030E000C00030E000D00030E000D00DB
:101CB000030E000C00030E000C00030E000D0003C9
:101CC0000E000D00030E000C00030E000C00030EAE
:101CD000000D00030E000D00030E000C00030E00AB
:101CE0000200010E000400FF0E000600FD0E0008B9
:101CF00000FB0E000200F90E000400F70E000600C3
:101D0000F50E00080079240000040705000A1E1BD8
:101D10001D0B060C140010800000208000004008FD
:101D200000000288404082088040880200010206CC
:101D3000040C0C0C0C0406020100400000004010D2
:101D4000000020801000048140408802804082080A
:101D500000010206040C0C0C0C04060201001080A9
:101D6000000000400000002000000490404091046A
:101D70008040910400010206040C0C0C0C040602C5
:101D8000010910000048B0CCB0420000F008DFDBD1
:101D9000151B1F08F0000080E862C0D00000F008AA
:101DA000DFD41B141F08F0000080E872C0D00000D0
:101DB000F008DFD41B141F08F0000002B058A4F094
:101DC0000000F008DFDF151E1F08F0091B0000806F
:101DD0005C7B5C0000000609102020201008000039
:101DE00000000000000000000000000000000000F3
:101DF000000000805C7B5C00000006C910202020F1
:101E000010080000FF0000000000000004010000B6
:101E100000000000000000805C7B5C00000006C940
:101E200010A0202010080000FF00FF0000000000AC
:101E30000401040100000000000000805C7B5C00E5
:101E4000000006C910A020A010080000FF00FF003D
:101E5000FF000000040104010401000000000080F4
:101E60005C7B5C00000006C910A020A010C8000028
:101E7000FF00FF00FF00FF00040104010401040152
:101E800000283800000000000000000000000000F2
:101E90000000000000000000804018B4BC180008DA
:101EA000D0B0204080800000000000000000000052
:101EB0000000000000000000006090904A0408014B
:101EC0000000000003070C3973E898141415D3D6EA
:101ED000140C1800000000000000000000000000CA
:101EE00000000000000000000000000000000000F2
:101EF000000103071C38F3CD940A0A00000000001B
:101F000000000000000000000000000000000000D1
:101F100000000000000000000000000000000001C0
:101F2000030F1E0000000000000000000000000081
:101F300000000000000000000000000000000000A1
:101F40000000000000000000000000000000000091
:101F50000000000000000000000000000000000081
:101F60000000000000000000000000000000000071
:101F70000000000000000000000000000000000061
:101F80000000000000000000000000000000000051
:101F90000000000000000000000000000000000041
:101FA0000000000000000000000000000000000031
:101FB00000009834BC180008D0B020408080000099
:101FC0000000000000000000000000000000000011
:101FD00000000000008084681026010003070C390F
:101FE00073E898141415D3D6140C180000000000E0
:101FF00000000000000000000000000003040402D4
:102000000000000000000000000103071C38F3CDB1
:10201000940A0A0000000000000000000000000018
:1020200000000000000000000000000000000000B0
:102030000000000000000001030F1E00000000006F
:102040000000000000000000000000000000000090
:102050000000000000000000000000000000000080
:102060000000000000000000000000000000000070
:102070000000000000000000000000000000000060
:102080000000000000000000000000000000000050
:102090000000000000000000000000000000000040
:1020A0000000000000000000000000000000000030
:1020B0000000000000000000000000000000000020
:1020C0000000000000000000000018B4BC18000868
:1020D000D0B0204080800000000000000000000020
:1020E00000000000000000000000000000000000F0
:1020F000000040DE43070C3973E898141415D3D65A
:10210000140C180000000000000000000000000097
:10211000000000000000000000000C131008000088
:10212000000103071C38F3CD940A0A0000000000E8
:10213000000000000000000000000000000000009F
:10214000000000000000000000000000000000018E
:10215000030F1E000000000000000000000000004F
:10216000000000000000000000000000000000006F
:10217000000000000000000000000000000000005F
:10218000000000000000000000000000000000004F
:10219000000000000000000000000000000000003F
:1021A000000000000000000000000000000000002F
:1021B000000000000000000000000000000000001F
:1021C000000000000000000000000000000000000F
:1021D00000000000000000000000000000000000FF
:1021E00000000000000000000000000000000000EF
:1021F0000000000000000000000000008040200CF3
:102200001A1ECCC0828A36E48444A84818D09010A4
:1022100020202040404080808000000000003048A6
:10222000482502040000000000000001010303072C
:10223000070F0C1C1838337E78F4CAC582810E7CD7
:10224000E0010100000000000000000000000000AC
:10225000000000000000000000000000000000007E
:102260000000000101030307070F0C00000000003D
:10227000000000000000000000000000000000005E
:10228000000000000000000000000000000000004E
:10229000000000000000000000000000000000003E
:1022A000000000000000000000000000000000002E
:1022B000000000000000000000000000000000001E
:1022C000000000000000000000000000000000000E
:1022D00000000000000000000000000000000000FE
:1022E00000000000000000000000000000000000EE
:1022F00000000000000000000000000000000000DE
:1023000000000000000000000000000000000000CD
:1023100000000000000000CC1A1ECCC0828A36E407
:102320008444A84818D0901020202040404080804D
:1023300080000000000000000080404234081320AC
:102340000000000101030307070F0C1C1838337E3F
:1023500078F4CAC582810E7CE00101000000000013
:102360000001020201000000000000000000000067
:10237000000000000000000000000001010303074E
:10238000070F0C000000000000000000000000002B
:10239000000000000000000000000000000000003D
:1023A000000000000000000000000000000000002D
:1023B000000000000000000000000000000000001D
:1023C000000000000000000000000000000000000D
:1023D00000000000000000000000000000000000FD
:1023E00000000000000000000000000000000000ED
:1023F00000000000000000000000000000000000DD
:1024000000000000000000000000000000000000CC
:1024100000000000000000000000000000000000BC
:102420000000000000000000000000000000000CA0
:10243000DA1ECCC0828A36E48444A84818D09010B2
:1024400020202040404080808000000000000000EC
:1024500000000000000000887B0800010103030762
:10246000070F0C1C1838337E78F4CAC582810E7CA5
:10247000E001010000000000000000000000000179
:102480000202010000000000000000000000000047
:102490000000000101030307070F0C00000000000B
:1024A000000000000000000000000000000000002C
:1024B000000000000000000000000000000000001C
:1024C000000000000000000000000000000000000C
:1024D00000000000000000000000000000000000FC
:1024E00000000000000000000000000000000000EC
:1024F00000000000000000000000000000000000DC
:1025000000000000000000000000000000000000CB
:1025100000000000000000000000000000000000BB
:1025200000000000000000000000000000000000AB
:10253000000000000000000000000000000000009B
:10254000000000000000000C1ADE0CC0828A36E495
:102550008444A84818D0901020202040404080801B
:1025600080000000000000000000000000000000EB
:102570000020139869058107070F0C1C1838337E5B
:1025800078F4CAC582810E7CE001010000000000E1
:102590000000000000000000000000010202010035
:1025A000000000000000000000000001010303071C
:1025B000070F0C00000000000000000000000000F9
:1025C000000000000000000000000000000000000B
:1025D00000000000000000000000000000000000FB
:1025E00000000000000000000000000000000000EB
:1025F00000000000000000000000000000000000DB
:1026000000000000000000000000000000000000CA
:1026100000000000000000000000000000000000BA
:1026200000000000000000000000000000000000AA
:10263000000000000000000000000000000000009A
:10264000000000000000000000000000000000008A
:102650000000000000000000000000000000000C6E
:102660001A1E4CC0028A36A40444A84818D0901000
:1026700020202040404080808000000000000000BA
:1026800000000000000000000000000804020568CF
:1026900093876C0C1838337E78F4CAC582810E7C1F
:1026A000E001010000000000000000000000000048
:1026B000000000000000000000000000000000001A
:1026C0000000000101030307070F0C0000000000D9
:1026D00000000000000000000000000000000000FA
:1026E00000000000000000000000000000000000EA
:1026F00000000000000000000000000000000000DA
:1027000000000000000000000000000000000000C9
:1027100000000000000000000000000000000000B9
:1027200000000000000000000000000000000000A9
:102730000000000000000000000000000000000099
:102740000000000000000000000000000000000089
:102750000000000000000000000000000000000079
:102760000000000000000000000000000000000069
:102770000000000000000000000000000000000059
:102780000000000000000000000000000000000049
:10279000000000000000000000008040C08020A079
:1027A000A0202020A020D0D0901010101010905009
:1027B000906868C888080808080808000000000039
:1027C0000000017B0301080C0D0F0E0D0E1D1818E3
:1027D000191B1E1C1A1D1A19181010303133363CE3
:1027E00038343A00000000000000314F4120000062
:1027F00000000000000000000000000000000000D9
:1028000000000000000000000000000000000000C8
:1028100000000000000000000000000000000000B8
:1028200000000000000000000000000000000000A8
:102830000000000000000000000000000000000098
:102840000000000000000000000000000000000088
:102850000000000000000000000000000000000078
:102860000000000000000000000000000000000068
:102870000000000000000000000000000000000058
:102880000000000000000000000000000000000048
:102890000000000000000000000000000000000038
:1028A0000000000000000000000000000000000028
:1028B0000000000000000000000000000000000018
:1028C000000000000000000000008080C0C06060C8
:1028D0003030180000000000000000000000000080
:1028E00000008080C0C060603030B8188C6CE6C6D4
:1028F0008383E119E4168C8C985874000000000062
:102900000000000000000018B43C19012022261C21
:102910001816090E09040404030303010101000051
:10292000000000000000000000000000000000881F
:102930007B08000000000000000000000000000014
:102940000000000000000000000000000000000087
:102950000000000000000001020201000000000071
:102960000000000000000000000000000000000067
:102970000000000B0BF83878E8D0A000A0100C0C79
:102980000704040405070707000000F83878E0C8CA
:10299000A4438300000007040404050707070000A0
:1029A00000191001010705050703030303030303CF
:1029B00003030303030307050507040400000000E5
:1029C0000000000000000000000000000000000007
:1029D00000000000000404070505070303030303C8
:1029E00003030303030303030705050701010000B5
:1029F00000000000000000000000000000000000D7
:102A000000000000000000010107050507030303A3
:102A1000030303030303030303030705050701017E
:102A200000000000000000000000000000000000A6
:102A300000000000000000000001010F0B0A0E065C
:102A40000606040C0C0C081818181870505070402A
:102A50004000000000000000000000000000000036
:102A60000000000000000000000000004040705026
:102A7000507018181818080C0C0C040606060E0ADC
:102A80000B0F01010000000000000000000000002A
:102A90000000000000000000000000000001070B23
:102AA0000A0E06040C0C08181810303020E06040A4
:102AB000C000000000000000000000000000000056
:102AC0000000000000000001010101010000000001
:102AD00000000000C04060E0203030101818080CE2
:102AE0000C04060E0A0B07010000000101010101A0
:102AF00000000000000000000000000000000000D6
:102B00000019362C183060C0800000000000000062
:102B100000000000000000000000000000000000B5
:102B2000000103066CD8B0608000000000000000C7
:102B30000000000000000000000000000000000095
:102B40000000000080C06030182C36190000000022
:102B50000000000000008060B0D86C060301000097
:102B600000000000000D08252D39312931252D39AF
:102B7000312931210C08627A7A62627A7A62627A49
:102B80007A620B08878F9DB7E7C7A5D7AF978DFFF0
:102B9000FFFFFFFFFFFFFFFFFFFFFFFFFFFFFFFF45
:102BA000FFFFFFFFFF16080054AA007C5444007882
:102BB000147800485424000C700C00AA540054AA45
:102BC000007C107C00781478007C1468007C443809
:102BD00000AA54000000000000000000F0F8F0F02F
:102BE000F0F0F0F8F0091000000000000000000014
:102BF000F008D0D010101008F014020303000303F3
:102C0000030003030300030303000303030003148F
:102C100002010000000100000001000000010000AE
:102C2000000100000007070007070700070707006B
:102C30000707070007070700071403020000000248
:102C4000000000020000000200000002000000FF7F
:102C5000FFFFFCFCFCFCFCFFFFFFFFFFFFFFFFFF93
:102C6000FFFFFFFFFF07070701010101010707073A
:102C70000B1300FE48484848484848FE0000FF92B1
:102C8000929292929292FF000003000000000000D6
:102C900000030000190100050F0C18042418053C5E
:102CA00018060943001342001D4100274000313F30
:102CB000003B3E00453D00092F03152F01212F0148
:102CC0002D2F01392F01452F01174B01234B0157A0
:102CD00050015F50016349016F49017B49016A500E
:102CE0000E573F01633F016F3F017B3F01FB6C01CA
:102CF000166C01226C012E6C01326C014F6C0100CC
:102D00005C000A5D00145E001E5F002860003261F6
:102D1000003C62004663005064005A650071700216
:102D20007D70020A85001484001E83002882003210
:102D300081003C8000467F00507E005A7D00647C0C
:102D400000094A035B6A03FC2F0100240700448941
:102D50001444882845883C468850478864488878C9
:102D60004988580A0A55000B007A0C007A4D79857B
:102D7000527285516B8550000000387CFEFFFFFFCA
:102D8000FE7C380000000101010000000909003844
:102D90005482D68254380000000000000000000079
:102DA00000384CC292866438000000000000000029
:102DB00000000038648692C24C3800000000000019
:102DC0000000000003F70403F80403F90403FA0405
:102DD00003FB0403FC0403FD0403FE0403FF0403DC
:102DE00000040301020501020701020901020B01AF
:102DF000020D02020F020211020213020215020268
:102E00001703021903021B03021D03021F03022101
:102E100004022304022504022704022904022B05CC
:102E2000022D05022F050231050233050235060287
:102E30003706023906023B06023D06023F07024101
:102E400007024307024507024707024908024B08E9
:102E5000024D08024F0802510802530902550902A7
:102E60005709025909025B09025D0A025F0A026101
:102E70000A02630A02650A02670B02690B026B0B06
:102E8000026D0B026F0B02710C02730D04730F04C1
:102E90007311047313047315047317047319047303
:102EA0001B04731D04731F04732104732304712313
:102EB000016F23016D23016B240169240167240143
:102EC0006524016324016125015F25015D25015B06
:102ED0002501592501572601552601532601512662
:102EE000014F26014D27014B2701492701472701A3
:102EF0004527014328014128013F28013D28013B86
:102F000028013929013729013529013329013129BE
:102F1000012F2A012D2A012B2A01292A01272A0102
:102F2000252B01232B01212B011F2B011D2B011B05
:102F30002C01192C01172C01152C01132C01112D1A
:102F4000010F2D010D2D010B2D01092D01072E0162
:102F5000052F010531010533010535040537040549
:102F60003904053B04053D04053F04054104010205
:102F700004081020408000005401DC03B40000006D
:102F80004A011704B40000004A017003B4000000B5
:102F90004A017003B40000009F00DC03B40000008D
:102FA0009F00DC03B40100004A001704B4000000D5
:102FB0004A017003B40000009F00BA0254010000EF
:102FC0001200BA02AA00000012009302AA00000038
:102FD0005D004B0262030000EE0200005401DC03BE
:102FE000B40000004A011704B40000004A01700355
:102FF000B40000004A017003B40000009F00DC032D
:10300000B40000009F00DC03B40100004A00170474
:10301000B40000004A017003B40000009F00BA022F
:10302000540100001200BA02AA000000120093022C
:10303000AA0000005D004B0262030000EE02008067
:103040000601FA00B801FA008801FA00B801FA0096
:103050000601FA00B8017D0088017701B801FA0085
:103060003701FA000B02FA00D201FA000B02FA0053
:103070003701FA000B027D00D20177010B02FA0042
:103080005D01FA00BA02FA006E02FA00BA02FA0012
:103090009F01FA00BA027D006E027701BA02FA00BF
:1030A0000B027D000B027D000B027D000B027D00F8
:1030B000D201FA000B02FA000000FA000B027D00B8
:1030C0000B027D000B027D000B027D0000802108B9
:1030D0000F0F08080006090B06000E03030E000F71
:1030E000090F06000F0F000F02030F000E0F090D4E
:1030F000000E10BEBDBEBDBEBDBEBDBEBDBEBDBE12
:103100000000040004000400040004000400004E59
:10311000080F0D0702000F050F0A000F0D0900022E
:103120000B0D00020B0D00000000000F0D07020048
:103130000F0F0808000E03030E00030E0E0300001D
:103140000006090B06000F02030F00000000010F2C
:103150000F010E03030E000F0D0702000F0D090EE5
:1031600010A7C7A7C7A7C7A7C7A7C7A7C7A700070D
:103170000707070707070707070707070024080EC1
:103180001F1F1F0E00000000000000000000001FB5
:103190000E04000000000000000000040E1F0004E8
:1031A0000E1F004030762FFFFFFFFFFFFFFFFFFFE6
:1031B000FFFFFFFFFFFFFFFFFFFFFFFFFFFFFFFF1F
:1031C000FFFFFFFFFFFFFFFFFFFFFFFFFFFFFFFF0F
:1031D000FFFFFFFFFFFFFFFFFFFFFFFFFFFFFFFFFF
:1031E000FFFFFFFFFFFFFFFFFFFFFFFFFFFFFFFFEF
:1031F000FFFFFFFFFFFFFFFFFFFFFFFFFFFFFFFFDF
:10320000FFFFFFFFFFFFFFFFFFFFFFFFFFFFFFFFCE
:10321000FFFFFFFFFFFFFFFFFFFFFFFFFFFFFFFFBE
:10322000FFFFFFFFFFFFFFFFFFFFFFFFFFFFFF4469
:1032300010000000000000BC7EC7EBEDEBC77EBCB9
:1032400000003C2C00381438000824100004380416
:10325000000000000000BC7EC1D5D5D5CB7EBC00EF
:10326000003C103C00381438003C1428003C241862
:103270000000000000000000000000000102020247
:103280000202010000000000000000000000000039
:103290000000000000000000000000010202020225
:1032A000020100000000000000000000000000001B
:1032B000000000000000000000387CFEFFFFFFFE61
:1032C0007C380000000101010000000909003854A9
:1032D00082D6825438000000000000000000000088
:1032E000384CC292866438000000000000000000E4
:1032F000000038648692C24C3800000000000000D4
:10330000000000693400000000000000FC02FDFD28
:10331000FDFDFDFDFDFDFDFD02FDFDFDFDFDFDFDD8
:10332000FDFDFD027C90E8F4FAFDFDFDFDFDFDFDD7
:10333000FDFDFDFAF4E890FC02FDFDFDFDFDFDFD47
:10334000FDFDF3CC02FDFDFDFDFDFDFDFDFDFDFDE3
:1033500002DCE8F4FAFDFDFDFDFDFDFDFDFDFDFADD
:10336000F4E8D020C00000000000000000000000D1
:1033700000000000000001FE00FFBF7F7F3FBFBFD5
:10338000BC7E7F7FBF7FB7CB35C20202FF00FFBF8D
:103390007FBF7FBFFF01FE0001FF7FBF7FBF7FFFB9
:1033A00000FFFE00FFBF7FBF7FBFFF7FFFBF7CB07E
:1033B0007FBF7FBF7FBFFF00FE00FFBF7FBF7FBF1C
:1033C000FF00FE0EECAB6BAB6BAB6BEB0CF30000DA
:1033D0000000000000000000000000000000F008F5
:1033E000F7B0DFAAD08003354E7D6F15FAAFD5AAAE
:1033F000D7AED9B6F40FF08F7AD5AAD5AADFB8D751
:10340000B4D8AFD5AAD5EA7D8FF00FF7B0DFAAD533
:10341000AAD5AADFB0F1079D7AD5AAD5AAD5AAFF69
:1034200000FF40BF6AD5AAD5AADFB0D7B4D3BED5B6
:103430006A350A959F809F80800000000000000090
:10344000000000000000003B78EABA3A3A2ABA7855
:10345000B86B3A79EAB83A3A2ABA7ABA6A3A78EB61
:10346000B8393A28BA7ABA6A3A7AEABA3A3A28BA03
:1034700079B86B387AEABA3A3A2ABA7ABA6A3A78B2
:10348000EBBA383A2ABA7ABA6A387BE8B8393A28B5
:10349000BA7ABA6A3A3A0A00E01C8261BCB2A8A8B9
:1034A000B2BC61821CE000000000000000000000CF
:1034B00004040405070605060504040404040507BE
:1034C00006050605040404040405070605060504AC
:1034D00004040404050706050605040404040405A1
:1034E0000706050605040404040405070605060589
:1034F00004040404040507060506050400001C6214
:10350000810972F4D16B9AF2F29A6BD1F47209814B
:10351000621C901050D09010901050D090109010CD
:1035200050D09010901050D09010901050D090101B
:10353000901050D09010901050D09010901050D00B
:103540009010901050D09010901050D0901090107B
:1035500050D09010901050D09010901050D09010EB
:103560009050D09010901050D6921594141655D0BB
:103570009010901556D4941592161002030202036F
:103580000302030202030302030202030302030213
:103590000203030203020203030203020203030203
:1035A00003020203030203020203030203020203F3
:1035B00003020302020303020302020303020302E3
:1035C00002030302030202030302020203030203D3
:1035D00002020303020302020203030203020203C4
:1035E00003020302FD3111241FBECFEFDAE0DEBF7C
:1035F000CDBF11E0A0E0B1E0E2E7FFE602C0059038
:103600000D92A436B107D9F726E0A4E6B1E001C0D7
:103610001D92A337B207E1F71AE1C3EFDAE104C064
:103620002197FE010E948B36C23FD107C9F70E9445
:10363000CA320C94B7370C9400002F923F924F92ED
:103640005F926F927F928F929F92AF92BF92CF9232
:10365000DF92EF92FF920F931F93CF93DF93CDB73B
:10366000DEB76C970FB6F894DEBF0FBECDBF8C01EE
:103670004B01DB011996DC9019971A96BC91B88F13
:10368000FC0182818111CCC07801FDE4EF0EF11CB8
:10369000D70119968C918111C3C0980123593F4FCE
:1036A0003B8B2A8BD9018C91882359F1F401278116
:1036B000308520FD01C7F70182818111E5C3D70163
:1036C0001A968C911A97811176C11B969C91911133
:1036D00072C1D70113968C91BD2DB074CB2E86FD8F
:1036E000E4C3C110EDC3CD2CC5FCF6C3C4FC01C4BA
:1036F000C7FC05C4F801E159FF4F8081882309F414
:1037000003C41701F701C480D40117968C9180FF80
:1037100061C1F8017196FF8BEE8BD80154968C91A4
:10372000F696F98BE88B863209F45DC18F3309F484
:10373000C1C68D3009F4EFC59FEF863209F4ECC5A0
:103740008F3309F4E9C58D3009F4E6C5F4018781AA
:10375000908566E070E00E946336892B61F4580121
:10376000FAE1AF0EB11C43E0442E28893989A21634
:10377000B30609F03AC1D40153968C915397813026
:1037800009F4FBC1D40153968C918130A9F47801DE
:10379000BAE4EB0EF11CE889F9899081D7018C918C
:1037A000890F90E0E215F30509F08AC2882309F435
:1037B00093C2813009F48DC2D40117968D919C91EA
:1037C000189783709927892B09F494C2F801818D89
:1037D000882309F4BFC28489863208F4A1C28732E3
:1037E00008F0A8C2F8017A96288939892E173F0770
:1037F00009F02DC3D40117968D919C91189766E01E
:1038000070E00E946336892B09F428C3F401878194
:1038100090856CE070E00E946336892B09F429C31F
:10382000D40152968C915297811107C081E0549631
:103830008C93F801E359FF4F10825801BEE6AB0E9E
:10384000B11CF501F080F3E6FF1538F022E0F21626
:10385000C8F531E0F316D1F150C054E6F51621F069
:10386000FA94D501FC9249C081E0F801ED58FF4F70
:103870008083F4018289882301F160E070E0C8014F
:10388000835B9F4F0E94652CF8017A96C801895B83
:103890009F4F8E179F0741F020812B3A18F010821E
:1038A000128213823596F5CFF801EA59FF4F8081D5
:1038B000811103C0C8010E949E2CD5018C918150BA
:1038C0008C931BC0FA94F501F08217C0D401529674
:1038D0008C91882349F0C801835B9F4F0E94802C04
:1038E000F801E359FF4FF082F5011082F801ED581D
:1038F000FF4F108281E03F9781837801FFE6EF0E52
:10390000F11CD7018C91882311F081508C93F80120
:10391000E359FF4F8081D40154962C91811125C029
:10392000211123C0888D8095D8228D2D8C7009F4AB
:10393000C7C581E0808336961082F5011082C801E8
:10394000835B9F4F0E94802CF801E15AFF4F108249
:1039500013820180F281E02D82E0818384E18483FF
:10396000D3FEAEC5D7018C93ABC5F401828580959B
:10397000918589232223B9F083FFA2C583E884BD02
:103980008FEF87BD81EF80938000109288001092A6
:103990008A000E94EB2385E0D40156968C935697BB
:1039A00057961C928DC582FF8BC5F801928181E0EC
:1039B0008927828385C5F701938591116FC288237A
:1039C00029F023703327232B09F4F3C21701D70101
:1039D0001496CC905801B9E5AB0EB11CF501858168
:1039E000811197CE39C491E097C4D50112968C917C
:1039F000882309F4BEC0EA89FB898081882309F401
:103A00003EC0D70112968C91882309F438C0D501A5
:103A10008C91B3E08B9FC0011124FC01E45AFE4F4E
:103A20005490FC01E35AFE4F7490F701808191811C
:103A300025E0289FF001299FF00D1124E752F94E4F
:103A40006490D70116966C92C1010E944B2CE52D13
:103A5000550CFF0B262D30E0E217F30781F4082EFA
:103A6000000C990B7C188719910977FC939509979D
:103A700034F4F401808991890196918B808BC10186
:103A80000E94BB2C29833A834B835C836D837E83A6
:103A9000D5018C91B3E08B9FC00111249C01245A65
:103AA0003E4FF9014491835A9E4FFC014491AA89EB
:103AB000BB894C9141111FC0F501908123E0929F79
:103AC000F0011124E25AFE4F84919F5F86958695FE
:103AD0008695980FD5019C93B3E09B9FC00111245C
:103AE000FC01E45AFE4F2491FC01E35AFE4F8491FD
:103AF000222379F014C0F9012491FC018491C101C1
:103B00000E94BB2C2F83388749875A876B877C8715
:103B1000D3CF811104C0D5011C9212961C92D501FD
:103B2000EC91B3E0EB9FF0011124E25AFE4FE491D7
:103B3000E770D5011496EC931497E13071F0E23000
:103B4000C1F411968C9111978F5F833019F0119603
:103B50008C930FC0F50111820CC0D50111968C9188
:103B60001197811102C011964C92F501818181500B
:103B70008183F5E0AF0EB11CF8CD17968D919C9125
:103B800018976AE070E00E946336892B09F0FACD3D
:103B9000A888B988F801E259FF4FFA8FE98F980198
:103BA0002D583F4F3C8F2B8FB801615A7F4F7D8B33
:103BB0006C8B34E1632E2A143B0409F4E3CDD50168
:103BC0008C91882309F478C011968C9111978F5F9E
:103BD00011968C93B3E08B9FC0011124FC01E0513E
:103BE000FC4F2491FC01EF50FC4F8491211105C042
:103BF000811103C0F50110821182AA89BB898C91C1
:103C0000882309F459C0F5018181F3E08F9FC00139
:103C10001124FC01E051FC4F4490FC01EF50FC4F9B
:103C20007490042C000C5508C1010E94BB2C298300
:103C30003A834B835C836D837E8389819A81AC0157
:103C4000460F511D92012F5F3F4F24173507A4F5F2
:103C500025E1420E511C8415950574F57C18E72D5D
:103C6000F0E08B819C81AC01470F511D9F012C5FBF
:103C70003F4F2417350704F538968E179F07E4F455
:103C8000E1E0D7011996EC93AA89BB891C9228EC34
:103C9000E98DFA8D2083AB8DBC8D1C92EC89FD895A
:103CA000108213820180F281E02DB2E0B183648240
:103CB000F40182898150828BF3E0AF0EB11C7BCF7F
:103CC0002081222321F02181921708F4922F33962C
:103CD00069CD933308F470CD0E944F3522E330E074
:103CE00040E050E00E94F435672B682B692B09F403
:103CF000B6C362CDF801E15AFF4F8381882309F4EE
:103D000065CD813051F4138210820180F281E02D63
:103D100082E0818384E1848359CD8150838356CDB1
:103D20008E3098F48D3009F05DCD88E0868B8EE082
:103D3000848B58CD8F3348F08F3309F053CD84E016
:103D4000F801868B8EE3848B4DCD8E899F890E94EE
:103D5000B72348CD8389882339F08150838B811123
:103D60002BC088E2828B28C0F8018289882321F148
:103D70008150828B811120C08489863221F08F335B
:103D800021F080E003C081E001C082E0D8015796B5
:103D9000ED91FC91589720910A0130910B014091CF
:103DA0000C012D873E874F87DE01A80FB11D1D96A0
:103DB0008C91808381E08283F8018189882311F0CE
:103DC000815043C08489863271F020F48D3049F0EF
:103DD000F8F408CD8F33E0F08F3309F003CD84E0A1
:103DE00015C088E013C00E944F3522E030E040E06B
:103DF00050E00E94F435672B682B692B11F484E0A6
:103E000001C088E0D80156968C9302C0F801868BD9
:103E10008E899F890E94B723D80154968C9186324F
:103E200029F08F3319F08D3009F0DCCC0E944F352A
:103E300022E830E040E050E00E94F435DC01CB01A4
:103E40008A5B9F4FAF4FBF4FF801818BCBCC8381F3
:103E5000882311F0815083833596C6CCF801ED5943
:103E6000FF4F80818F5F843011F08083CFCC108230
:103E7000CDCCF801EC59FF4F80818F5F833011F07A
:103E80008083CECC1082CCCC883220F48F5FF701B7
:103E9000828337CCD70112961C9233CCA901437090
:103EA0005527452B09F45EC08ACDD5FE02C082FDA0
:103EB00037C0CC20E1F0F701838183FD15C017C026
:103EC000D3FE32C087FF30C081E0F7018287C7018F
:103ED0000E94F62CC12C08CCF701838182FFD8C246
:103EE000C7010E94122DD4C2C7010E94122DCD2CF1
:103EF000FDCBD70113968C9181FD2CC0F9CBF70136
:103F0000838180FD2BC0F6CBC3FEFBCBD70113967C
:103F10008C9184FFF6CB81E0D70112968C93F1CB84
:103F2000C7010E94F62CC5CF83FFDDCBD7018D9151
:103F30009C9111978439910549F481E01B968C93EB
:103F40006AED70E0C7010E94652CCDCBC7010E94CD
:103F5000F62CC9CBC7010E94122DCACBC7010E9403
:103F6000F62CC8CBF701808191818E3E910509F036
:103F70004EC081E0D70119968C93EA89FB891082A3
:103F800088ECF801E259FF4F8083359610827497D0
:103F9000108213820180F281E02D82E0818384E12E
:103FA0008483D40152968C915297815052968C936F
:103FB000A8CBD40153968C91813009F44BC144E0D5
:103FC000F701808191815801F9E5AF0EB11CD5014F
:103FD0002C91BC01605A710967327105E0F08B3A8F
:103FE000910509F4C6C008F065C0833A910509F44B
:103FF000AAC008F050C08839910509F48EC08F39E5
:10400000910509F497C08739910509F478C0C70173
:104010000E94F62C76CBF801EA59FF4F308131111E
:10402000DECF1E9611963C911197E1E0E30F1196B9
:10403000EC9311975C91513089F048F05230D1F4F3
:1040400073E0E79FF0011124EC52FF4F0DC053E0E5
:10405000E59FF0011124E35CFE4F06C063E0E69F9C
:10406000F0011124E75EFE4FE491E93019F4119656
:104070003C9311971296EA89FB89AE17BF0791F618
:10408000D80155963C9155973F3008F0A8CF3F5F37
:1040900055963C93A4CF853A910509F463C008F482
:1040A0007CC0883A910509F0B2CFC7010E94F62C76
:1040B00085E070C0893D910509F45BCF88F4873BAA
:1040C000910509F45BC0873C910509F46DC08E3AF7
:1040D000910509F09CCFC7010E94F62C89E05AC0D7
:1040E0008333B1E09B0709F476C08A33E1E09E0791
:1040F00009F499C08732914009F089CF71C024300A
:1041000008F485CF421708F482CF81E0D5011596D7
:104110008C93C7010E94F62C7ACF233010F04217FF
:1041200018F468EC70E032C084E0F501808381E02F
:1041300085836DCFC7010E94F62CD5011C9281E0CA
:10414000F801818FDECAC7010E94F62C81E0D501FB
:104150008C93F801EA59FF4F8081882309F4D1CA72
:10416000815005C0C7010E94F62C82E0F5018083D2
:10417000C8CAC7010E94F62C88E0F8CFF801EA59B6
:10418000FF4F8081811143CF60EF70E0C7010E9433
:10419000652CB7CAD5018C93B4CAF4018089918982
:1041A0004496918B808B33CF88ECF801E259FF4F16
:1041B00080833F97108213820180F281E02D82E09C
:1041C000818384E18483F801ED58FF4F1082AA892E
:1041D000BB891C9296CAF801EC59FF4F118217CF88
:1041E000F40180899189C296918B808BC7010E94CE
:1041F000F62CF801EF58FF4F8081893010F48F5F63
:104200008083F801EE58FF4F6081603508F079CA6D
:104210006F5F608370E088EE93E00E947736D40190
:104220001B966C936ECA88ECF801E259FF4F8083AD
:104230003F97108213820180F281E02D82E081831A
:1042400084E18483F801ED58FF4F1082EA89FB89ED
:10425000108257CA43E0B4CEF5019181923099F5AE
:10426000F50124818081222371F021502483835021
:10427000853008F04ECA8381823009F44ACAC501EC
:104280000E94C52346CA8830C9F018F4833088F4E8
:1042900040CA893009F03DCA93838AE08483118241
:1042A00038CAF50180818830A1F148F1893009F0E0
:1042B00030CA88E0D5018C9384E118C089E0F5010B
:1042C000808384E107C0933039F4F5018481882329
:1042D00081F0815084831DCA913009F01ACAD5013A
:1042E00014968C9114978823E1F2815014968C9344
:1042F00010CAC5010E94C5238AE0D501F7CF8330DB
:1043000008F407CA82E083838AE0848383E08183A0
:1043100000CA85E0D4CF90E0D80151968C918D33BE
:1043200008F414CAD80153968C91539781110ECA80
:1043300052968C9181110ACA5801BAE1AB0EB11C98
:10434000F50181E0D801A059BF4F288939892E177E
:104350003F0709F458C02281222309F452C091304A
:10436000F1F018F09230C1F14CC070802C917216AF
:1043700008F446C030E0472D50E0B901695D7F4F39
:10438000641775071CF46AE36715D0F5265F3F4F85
:1043900024173507B4F57DE1771590F532C02081FB
:1043A0002B3318F02E3460F102C02E3150F0622F02
:1043B00070E04C9150E0425E5F4F4617570704F59E
:1043C00002C02223F1F030E04C9150E04F5F5F4F8C
:1043D00042175307ACF415C060816B3318F06E348C
:1043E00078F002C06E3148F0462F50E02C9130E05A
:1043F000245C3F4F241735071CF42C91261708F036
:1044000080E03596A2CF882309F4A0C988899989CC
:10441000A816B90609F49AC9D50112968C9112977B
:10442000811104C013968C91882321F0B5E0AB0E66
:10443000B11CECCF0E944F352CE130E040E050E061
:104440000E94F435DC01CB010296A11DB11DF501DE
:104450008383F801B08EA78A128A838B77C9E88993
:10446000F9898081882339F0F7018081882311F050
:104470008FEF01C081E090E0FC01EE0FFF1FE80F1D
:10448000F91FE00FF11FE95BFF4F81E0808394C9C2
:10449000D70113968C9185FF29C981E0F801E15A73
:1044A000FF4F80839CE8938336971582818384E154
:1044B00084831CC992E030CF1701F701C48029C959
:1044C0006C960FB6F894DEBF0FBECDBFDF91CF91D3
:1044D0001F910F91FF90EF90DF90CF90BF90AF9022
:1044E0009F908F907F906F905F904F903F902F9014
:1044F000089580915702E0915A02F0915B0288235F
:1045000051F0CF01029690935B0280935A02E4919E
:104510008E2F90E00895CF01029690935B028093D6
:104520005A0280819181089508950895089508950B
:104530000895089508952F923F924F925F926F923F
:104540007F928F929F92AF92BF92CF92DF92EF9223
:10455000FF920F931F93CF93DF9300D000D000D032
:10456000CDB7DEB78C013B018EE0FB018387F801FC
:10457000108E118E84E6828FFB018389F801838F70
:10458000FB01408851884114510409F44FC088232D
:1045900029F029EDA22EBB24B39404C097ECA92ED8
:1045A000BB24B3946501312CC6010E94BE35481668
:1045B000590640F43394F6E0CF0ED11C83E0381254
:1045C000F3CF34C045019CE0890E911C82E0282E77
:1045D000FE0131967F013214B0F42A94B501F6E061
:1045E0002F9E600D711D112446E050E0C7010E940E
:1045F000A63546E050E0B401C7010E94C43586E00C
:10460000881A9108E8CF86E0F70111928A95E9F7B8
:104610008FE38B838C838D835A82498246E050E0FE
:10462000B601C7010E94C435832D01C08FEFF80188
:10463000878BF3011286118642E150E067EC71E04E
:10464000C8014C960E94A63542E150E069ED71E048
:10465000C8018E960E94A63526960FB6F894DEBF46
:104660000FBECDBFDF91CF911F910F91FF90EF90C3
:10467000DF90CF90BF90AF909F908F907F906F9082
:104680005F904F903F902F9008950C9429370C9491
:1046900029370C9429370C9429370C9429370C941A
:1046A0002937FC018081813099F050F08230C9F4C3
:1046B000E18183E0E89FF0011124EC52FF4F0FC02D
:1046C000E18183E0E89FF0011124E35CFE4F07C025
:1046D000E18183E0E89FF0011124E75EFE4F8491C1
:1046E000089580E00895FC018081813099F050F0B8
:1046F0008230C9F4E18183E0E89FF0011124ED529A
:10470000FF4F0FC0E18183E0E89FF0011124E45CDA
:10471000FE4F07C0E18183E0E89FF0011124E85ECD
:10472000FE4F8491089580E00895FC0180818130DE
:1047300099F050F08230C9F4E18183E0E89FF00104
:104740001124EE52FF4F0FC0E18183E0E89FF0019A
:104750001124E55CFE4F07C0E18183E0E89FF00192
:104760001124E95EFE4F8491089580E00895FC01D4
:104770008581843019F0883021F00895838181503B
:1047800002C083818F5F83830895FC01828184301E
:1047900019F0883061F017C08381882321F08530BB
:1047A00090F481500DC081E0838388E00BC0838149
:1047B000843028F0843039F493E0938303C08F5F12
:1047C000838301C0828380818350853018F4838184
:1047D0008D5F80830895E1E7F0E080818D7F8083A5
:1047E000109291004698479810925C0208951F928B
:1047F0000F920FB60F921124CF92DF92EF92FF9299
:104800000F931F932F933F934F935F936F937F93D8
:104810008F939F93AF93BF93CF93DF93EF93FF93C8
:1048200080915F0290916002A0916102B09162025A
:10483000892B8A2B8B2B89F180915E0281110BC011
:1048400098B180E4892788B980915D02882319F0A6
:1048500088B1805888B980915F0290916002A091E0
:104860006102B0916202181619061A061B060CF0B6
:10487000A4C080915F0290916002A0916102B0910A
:1048800062020197A109B10980935F0290936002CF
:10489000A0936102B093620290C00E9479228115B8
:1048A00020E8920719F40E94EB2387C021E02093AF
:1048B0005C02813020E8920731F410925B02109282
:1048C0005A020E94792297FD05C0209159022223A5
:1048D00009F43FC02091580221113BC021E02093F0
:1048E0005D02EC01DF77209769F481E080935E023E
:1048F00046983FE9C32E3FE0D32EE12CF12CCAEFBE
:10490000D0E014C08E0120E030E060E472E48FE07B
:1049100090E0A90198010E94F43569017A0181E0D3
:10492000C81AD108E108F10810925E02E0916C0605
:10493000F0916D060995811103C081E080935E02BC
:1049400080915D028823B9F180915E02811133C0AC
:1049500003C010925D02C5CF46992DC0479A0E94B0
:104960007922009771F09C01DE010E944836DC013B
:10497000CB0129E0B595A795979587952A95D1F70D
:1049800003C08FEF9FEFDC01109290002AE020938C
:104990009100D0929900C092980080935F0290930A
:1049A0006002A0936102B093620280917100826004
:1049B0008093710002C04798D2CFFF91EF91DF91B1
:1049C000CF91BF91AF919F918F917F916F915F91A7
:1049D0004F913F912F911F910F91FF90EF90DF909A
:1049E000CF900F900FBE0F901F9018952F923F926F
:1049F0004F925F926F927F928F929F92AF92BF92EF
:104A0000CF92DF92EF92FF920F931F93CF93DF939A
:104A100000D000D0CDB7DEB75C014B016C012DE4B6
:104A2000C20ED11CD6011496FC90FB012780308465
:104A300040E00E94FD2A2501FAE14F0E511C35018C
:104A400027E4620E711C4614570439F1D201129604
:104A50008C9112978823E9F08C91B3E08B9FC00171
:104A60001124FC01E35AFE4F6491FC01E45AFE4F0D
:104A700084916F19062E000C770BE12CF201018155
:104A800026E636E148E756E1082E000C990B0E9415
:104A9000AC30F5E04F0E511CD6CFF501E359FF4F76
:104AA0008081811108C0C10168E270E00E94633614
:104AB000853108F4C1C0D6018D919C91119725E0F4
:104AC000289FF001299FF00D1124E452F94EE49142
:104AD00012960C911297011138C0E11141C016963F
:104AE0009C91169715968C911597981307C001E025
:104AF00018968C91843009F059C057C089178CF4EE
:104B0000F60187818F5F878398E09087803109F471
:104B10001782D60117960C9106950695000F0D5F2A
:104B200020C098170CF042C0F60187818F5F878301
:104B300094E09087803109F41782D60117960C9182
:104B400006950695000F0E5F0CC0F60196818581D3
:104B500098132BC08085843009F476C10BE026C001
:104B60000E2F033118F4003108F146C0053108F06A
:104B700063C0C6010E944B2CF6019681958320816B
:104B8000318195E0929FF001939FF00D1124E7523F
:104B9000F94EE491D6011696EC932DEE200F682F76
:104BA000880F770B44E254E142C000E0C6010E9446
:104BB0004B2CD60116969C91169715969C9315979B
:104BC0002D913C91119795E0929FF001939FF00DEC
:104BD0001124E752F94EE4911696EC93682F880F52
:104BE000770BE02E24EA34E144E855E18E2FEE0FF6
:104BF000990B0E94AC3020C0C6010E944B2CF601DC
:104C0000968195832081318195E0929FF001939F59
:104C1000F00D1124E752F94EE491D6011696EC936B
:104C200020EF200F682F880F770B4EE454E18E2F72
:104C3000EE0F990B0E942C30D5015596EC915597AB
:104C400054963C91ED3030F0EF3008F1EF3011F434
:104C500018E022C0363249F020F43D3031F080F4C3
:104C60001BC03F3368F03F33B9F4D50152968C91A5
:104C7000882379F06AE00E94573616E0181B0CC0B2
:104C8000D50156968C91883031F412E005C017E0BA
:104C900003C010E001C011E0D50159968C91882322
:104CA00029F0F0E0EA57F44FE49101C0E0E0EF1999
:104CB00063E06E0F062E000C770B212F46E052E1C9
:104CC000832F90E00E942C30F4018389813059F5C4
:104CD0006C147D0441F1D3018C91882301F111966C
:104CE0008C91B3E08B9FC0011124FC01EE50FC4F6E
:104CF000E4900491FC01EF50FC4F6491FC01E05101
:104D0000FC4F84916F19062E000C770B2CEF30E1CD
:104D100040E851E1082E000C990B0E94AC30E3E012
:104D20006E0E711CD5CF40E4B401C5010E94FD2A6E
:104D3000D40154968C9181111EC0F501ED58FF4F9E
:104D40008081882321F1E12C00E02AE43FE042E267
:104D500050E164E170E08BE190E00E94AC30F4013E
:104D60002289215042E15FE067E170E08FE490E04A
:104D70000E942C301DC0E12C00E02EEB3CE04FE9FE
:104D80005DE064E170E089E190E00E94AC30D50123
:104D900012968C91882361F0E12C00E026E93BE03B
:104DA00049E25CE064E170E087E290E00E94AC30B0
:104DB000E12C00E02CEA3EE04EED5EE060E070E0C9
:104DC00086E690E00E94AC3019821A821B821C8217
:104DD000F40180899189FE0131966E0125E0C20EB1
:104DE000D11C2AE030E0B9010E9463368193CB01E7
:104DF000EC15FD05C1F709E610E0D6012E916D0115
:104E000042E85EE063E070E0C8010E942C300B5F76
:104E10001F4F0D37110589F70F900F900F900F90CE
:104E2000DF91CF911F910F91FF90EF90DF90CF9086
:104E3000BF90AF909F908F907F906F905F904F90BA
:104E40003F902F900C94922A0AE0B0CE4F925F923E
:104E50006F927F929F92AF92BF92CF92DF92EF922A
:104E6000FF920F931F93CF93DF93EC018C01015AB4
:104E70001F4F875A9F4FD80112969C938E9311977C
:104E80000C970E94802CFE01EE58FF4F83E4808334
:104E90007E01B1E7EB0EF11C85E0F70180833397CB
:104EA0008DE78083D8011C9213961C92139711965C
:104EB000ED91FC91129782E0818384E18483FE016D
:104EC000ED58FF4F10826E01BDE6CB0ED11CF601EE
:104ED0001082CE010E949E2CFE017A96CE01895B43
:104EE0009F4FE817F90751F410E08DE7482E512C39
:104EF000612C712C05E0992493942CC010821282AD
:104F000013823596EECF141761F1828DD901A81B5B
:104F1000B109CD01B7FF03C09195819591090F9714
:104F200004F50E944F35A30192010E94F435645CA0
:104F3000F7015081FE0140E0262F30E04513E3CF1A
:104F40000A9DF0010B9DF00D1124EC0FFD1F628FE7
:104F5000948E1F5FD7018C91181730F4A12EB12CBD
:104F6000E0CF4F5F3596EACFF60110821A8280EDCE
:104F70009FE290936D0680936C06DF91CF911F9115
:104F80000F91FF90EF90DF90CF90BF90AF909F90E8
:104F90007F906F905F904F9008952F923F924F9225
:104FA0005F926F927F928F929F92AF92BF92CF92B9
:104FB000DF92EF92FF920F931F93CF93DF93CDB7C2
:104FC000DEB728970FB6F894DEBF0FBECDBF5C01E9
:104FD0008B01FC01838D6501811104C0FCE1CF0EC2
:104FE000D11C03C02EE2C20ED11CF80147805084B0
:104FF000EAE08E2E912CF3E0EF2EF12C20E049E731
:105000005BE0B401C7010E942C30FAE0EF0EF11C06
:105010002FEF821A920A31E7E316F10479F766E37B
:10502000862E912C7FE0E72EF12C20E049E75BE013
:10503000B401C7010E942C308AE0E80EF11C91E017
:10504000891A9108EDE7EE16F10479F7A5014C5E97
:105050005F4FF5016189C8010E94B42AA5014B5E2A
:105060005F4FF5016289C8010E94B42AA5014A5E1A
:105070005F4FF5016389C8010E94B42AF801878156
:10508000908565E070E00E946336892BD9F4F501C4
:1050900081898F5F8E3811F0818B02C0F501118AF2
:1050A000F50182898F5F8E3811F0828B02C0F50185
:1050B000128AF50183898F5F8E3811F0838B02C0CD
:1050C000F501138AE12C00E027EA38E04FE05AE0CE
:1050D00062E170E08DE190E00E94AC302BE936E0B7
:1050E00040EA57E063E070E086E190E00E94AC3077
:1050F000760108E110E03E01F7E06F0E711C9E01A1
:105100002F5F3F4F1901C701029698878F8354E2A2
:10511000852E912CEF81F8852191F887EF832F332D
:1051200011F0205401C020E045E056E0B801C40170
:105130000E943C30F6E08F0E911C26E3821691040B
:1051400049F778866F8241E4842E912CF10126E0A4
:1051500011922A95E9F7F70180819181F1016AE0C6
:1051600070E00E9463368193CB016E167F06B9F71B
:10517000EF81F8852291F887EF83255E45E056E0C0
:10518000B801C4010E943C30F5E08F0E911C2FE560
:1051900082169104D9F6075F1F4F36E0E30EF11C2B
:1051A0000333110509F0AFCFF50107890F3F09F46B
:1051B0006BC0C20168E270E00E946336853108F47A
:1051C00063C0C601F6E00F9F800D911D11249C0164
:1051D0002E5F3F4F290139E0039F800111244801D0
:1051E00087E1880E911CF501608CF6E06F9E30011E
:1051F0001124730123E2E20EF11C39E2630E711CEB
:10520000015E1F4F6E147F04F1F0640197FE02C02F
:10521000C12CD12CC8010134110514F080E490E0B8
:10522000C816D90664F480E8E816F10424F4B6013F
:10523000C7010E94A22A9FEFC91AD90AEBCFEFEF4C
:10524000EE1AFE0ADFCFF501808DF201E80FF11DA5
:1052500020812F3311F0205401C020E0F50167892F
:10526000F9E06F9FB0011124685E7F4F36E0839FA5
:10527000C00111243BEFC32EE12C00E010E045E01B
:1052800056E084960E949D2DF50187898F3F79F421
:10529000828D81110CC0E12C00E02FE735E041EC5C
:1052A00055E065E370E080E390E00E94AC30E12CD3
:1052B000F501038D21EE34E045E155E06BE170E04E
:1052C00082E090E00E94AC3028960FB6F894DEBFE2
:1052D0000FBECDBFDF91CF911F910F91FF90EF9047
:1052E000DF90CF90BF90AF909F908F907F906F9006
:1052F0005F904F903F902F900C94922ACF92DF9224
:10530000EF92FF921F93CF93DF93EC017B01DB01C0
:1053100019961C918B8DFE01811102C07C9601C0F3
:10532000BE962F89D7012F3F09F480C017968D9123
:105330009C9118976CE070E00E9463367C01892B89
:1053400009F093C0B6E02B9FE00DF11D11243296B9
:1053500017FF19C0888DDF01A80FB11D8C918F5FD9
:105360008C93888DDF01A80FB11D8C918B3514F0C3
:1053700081E48C93888DDF01A80FB11D8C9180345E
:1053800011F481E48C9314FF10C0888DDF01A80F05
:10539000B11D8C9181508C93888DDF01A80FB11DB8
:1053A0008C91813414F48AE58C9315FF05C0888DA7
:1053B000882311F08150888F16FF05C0888D8230B8
:1053C00010F48F5F888F13FF50C080818F3309F4F2
:1053D0004CC081818F3309F448C082818F3309F436
:1053E00044C06F01F60161916F012F898B8D882375
:1053F00019F089ED91E002C087EC91E0F6E02F9F73
:10540000800D911D112497012E5F3F4F820F931F36
:105410000E94D4353FEFE31AF30A43E0E416F104A7
:1054200009F78FEF8F8B84E68A8F1FC01A968C91B5
:10543000809581238C7099F08A8D811110C083E84A
:1054400084BD27BD81EF8093800010928800109268
:105450008A000E94EB2382E0F701868B178A15FDF4
:105460001B8E16FF02C081E08B8F1076898D10365F
:10547000E1F58F5F898F853108F445C08D3310F1D8
:105480008D3309F040C0198E83E884BD8FEF87BD4E
:1054900081EF809380001092880010928A000E9411
:1054A000C23142E150E067EC71E0CE014C960E94BF
:1054B000A63542E150E069ED71E0CE018E960E9482
:1054C000A63521C020E430E0A901481B5109CA01DA
:1054D000880F93E894BD9FEF97BD91EF9093800064
:1054E0001092880080938A000EC0882361F083E8C0
:1054F00084BD8FEF87BD81EF80938000109288007C
:1055000010928A00198E8A8D882311F081508A8F1B
:10551000DF91CF911F91FF90EF90DF90CF90089592
:105520000E94B237E7E6F2E081E0A0E0B8E0008058
:105530000EBC8111012C1197A0FDFDCF0192B9F78E
:105540000DB40895EEE6FFE290E1969FD001A078B9
:105550001124A80F6770E60FF11D9491A959BD4F52
:105560008C91982B9C930895EF920F931F93CF9358
:10557000DF93EA0143E0649F90011124F901EC53A9
:10558000F24D1491F901EB53F24D4491F901EA53B4
:10559000F24D2491FC018781908565E070E00E94C6
:1055A0006336892B91F4213041F0223071F48881E7
:1055B0008F5F8330F9F418821EC08881811102C088
:1055C00083E088838881815015C02430A1F400E0F5
:1055D000642F440F770BE12C2AE73DE24CE85DE2B3
:1055E000812F90E00E94AC30DF91CF911F910F91FD
:1055F000EF90089588830881EBCF2F923F924F92CE
:105600005F926F927F928F929F92AF92BF92CF9252
:10561000DF92EF92FF920F931F93CF93DF93CDB75B
:10562000DEB72A970FB6F894DEBF0FBECDBF5B0181
:10563000342EFC01E35BFF4F248023E9C22E2CE2D1
:10564000D22E2C0124E6420E511C7696FA83E98371
:105650009C012A593F4F3C832B833A97FE83ED836D
:105660002750310938872F834C013BE6830E911C6C
:105670003C01E9E66E0E711C9C0129593F4F3A87A7
:105680002987F601F49031966491319684912491A2
:1056900030E0220F232F221F330B332039F0F0E4A8
:1056A0003F12B2C02115310509F4AEC0F5010389DE
:1056B000013019F0232B09F0A7C0162F1219E82F7B
:1056C000EF718E2F90E08331910508F09DC0FC01B1
:1056D000EA5AFF4F0C948B3600E0E12C80E044E75F
:1056E0005BE2C6C089859A850E949523E82E89854C
:1056F0009A850E947323082F89859A8512C0C30159
:105700000E947323082FC3010E945123E12C0BC078
:10571000C4010E949523E82EC4010E947323082F20
:10572000C4010E94512341EA59E2A2C0612F110F26
:10573000770BE12C00E02FE43CE240E75CE211C093
:10574000EF81F885808100E0E12C43E759E290C0C9
:10575000612F110F770BE12C00E025E23CE249E3D9
:105760005CE28F2DFF0C990B0E94AC304DC0612F75
:10577000110F770BE12C00E029EF3BE24FE05CE2F8
:10578000F0CFED81FE81808100E0E12C41E85EE117
:105790006FC0EB81FC81808100E0E12C4BEC5DE18E
:1057A00067C0E981FA81808100E0E12C41E85DE198
:1057B0005FC0F2018181882339F1808100E0E12C12
:1057C00043E15DE155C0612F110F770BE12C00E043
:1057D00023ED3BE245EE5BE2C4CF612F110F770B67
:1057E000E12C2FE83BE245EA5BE2BBCFF501828981
:1057F000811139C009C0F50182898230A0F504C049
:10580000F5018289833078F5F3E0CF0ED11C27E7CC
:105810003DE22C153D0509F034CF80E02A960FB605
:10582000F894DEBF0FBECDBFDF91CF911F910F91D6
:10583000FF90EF90DF90CF90BF90AF909F908F90B0
:105840007F906F905F904F903F902F90089500E071
:10585000E12C80E042E85BE20BC000E0E12C80E05C
:1058600045E65BE205C000E0E12C80E04AE05DE156
:10587000602F000F770B610F711D17FD7A95EE2DCC
:10588000EE0CFF0B282FCF018F0D911DF7FC9A9581
:105890000E942C30B9CFDC018D919C91119725E0AD
:1058A000289FF001299FF00D1124E652F94E9491A2
:1058B0001296EC911297F0E0E055F94EE4911496AF
:1058C0008C91981B892F8E1B0895DC0111967C9377
:1058D0006E9385E0869F9001879F300D1124F9011A
:1058E000E352F94EE4911396EC931397F901E552C4
:1058F000F94EE4911496EC93149712961C92089525
:10590000CF93DF93EC0160E070E00E94652C1A8277
:1059100019861A861B868881998125E0289FF001C7
:10592000299FF00D1124E752F94EE491EE838FEF99
:105930008D8388E08887DF91CF910895FC01DC0199
:10594000A959BF4F1C9211961C92119681E08C931D
:1059500011961C92119682E08C9311961C92118ADA
:10596000128A138A8DE0848B118E158AEA59FF4FB3
:1059700084E080830895CF93DF9300D000D000D0DF
:10598000CDB7DEB7DC018D919C91119725E0289F62
:10599000A001299F500D1124FA01E752F94E2491DC
:1059A000FA01E652F94E44911296EC911297F0E00A
:1059B000E055F94EE49114968C91481B4E1B30E053
:1059C0003A832983042E000C550B5C834B833A8168
:1059D0005C8167E07BE080E090E026960FB6F8946B
:1059E000DEBF0FBECDBFDF91CF910895DC018D9159
:1059F0009C911197019611969C938E9345E0489F38
:105A00009001499F300D1124F901E352F94EE491C0
:105A10001396EC931397F901E552F94EE49114961D
:105A2000EC930895DC018D919C911197019711964B
:105A30009C938E9345E0489F9001499F300D11241F
:105A4000F901E352F94EE4911396EC931397F9019F
:105A5000E552F94EE4911496EC9308953FB7F8940B
:105A60008091680690916906A0916A06B0916B06D4
:105A700026B5A89B05C02F3F19F00196A11DB11DA9
:105A80003FBFBA2FA92F982F8827820F911DA11DE4
:105A9000B11DBC01CD0142E0660F771F881F991F21
:105AA0004A95D1F708951F920F920FB60F921124C5
:105AB0002F933F938F939F93AF93BF9380916302F4
:105AC00090916402A0916502B091660230916706E0
:105AD00023E0230F2D3720F40196A11DB11D05C031
