:100000000C944F1A0C94771A0C94771A0C94771A54
:100010000C94771A0C94771A0C94771A0C94771A1C
:100020000C94771A0C94771A0C94771A0C94771A0C
:100030000C94771A0C94771A0C94771A0C94771AFC
:100040000C94771A0C94771A0C94771A0C94771AEC
:100050000C94771A0C94771A0C94771A0C94B52B8D
:100060000C94771A0C94771A0C94771A0C94771ACC
:100070000C94771A0C94771A0C94771A0C94771ABC
:100080000C9449220C94771A0C94771A0C94771AD2
:100090000C94771A0C94771A0C94771A0C94771A9C
:1000A0000C94771A0C94771A0C94771A052A092A5B
:1000B000122A502A162A202A382A572A5D2A642A08
:1000C0006B2A712A772A832A7D2A45120200451459
:1000D00002004516020045180200451A0200451CA0
:1000E0000200451E02004520020045220200452470
:1000F00002004526020045280200452A0200452C40
:100100000200452E0200453002004532020045340F
:10011000020043340000413400003F3400003D350C
:100120000000393500003735000035350000333622
:100130000000313600002F3600002D3600002B362F
:1001400000152C1302002C1502002C1702002C198C
:1001500002002C1B02002C1D02002C1F02002C216F
:1001600002002C2302002C2502002C2702002C293F
:1001700002002C2B02002C2D02002C2F02002C310F
:1001800002002C3302002C3500002C3700002937E8
:1001900000002737000025370000233700001F38F4
:1001A00000001D3800001B38000019380000173807
:1001B0000000153900151313020013150200131760
:1001C000020013190200131B0200131D0200131F6B
:1001D000020013210200132302001325020013273B
:1001E000020013290200132B0200132D0200132F0B
:1001F00002001331020013330200133502001337DB
:10020000020013390000113900000F3900000D39C8
:1002100000000B3A0000093A0000073A0000053AD6
:100220000000033A0000013B0000FF3D0000FF3FDB
:100230000000FF410000FF430000FF450000FF47B2
:100240000000FF490000FF4B0000FF4D0000FF4F82
:100250000000FF510000FF53000001530100035351
:1002600001000553010007530100095401000B541C
:1002700001000D5401000F540100115401001355E9
:1002800001001555010017550100195501001B55B6
:1002900001001D5601001F56010021560100235682
:1002A00001002556010027570100295701002B574F
:1002B00001002D5701002F5701003158010033581C
:1002C00001003558010037580100395801003B59E9
:1002D00001003D5901003F590100415901004359B6
:1002E0000100455A0100475A0100495A01004B5A82
:1002F00001004D5A01004F5B0100515B0100535B4F
:100300000100555B0100575B0100595C01005B5C1B
:1003100001005D5C01005F5C0100615C0100635DE8
:100320000100645E0100655F0100656101006563B5
:100330000100656501006567010065690100656B85
:100340000100656D0100656F010065710100657355
:10035000010063730000617300005F7300005D744F
:1003600000005B740000597400005774000055745D
:10037000000053750000517500004F7500004D7569
:1003800000004B7500004976000047760000457676
:10039000000043760000417600003F7700003D7783
:1003A00000003B7700003977000037770000357890
:1003B000000033780000317800002F7800002D789D
:1003C00000002B79000029790000277900002579A9
:1003D000000023790000217A00001F7A00001D7AB6
:1003E00000001B7A0000197A0000177B0000157BC3
:1003F0000000137B0000117B00000F7B00000D7CD0
:1004000000000B7C0000097C0000077C0000057CDC
:100410000000037D0000017E0000018000000182D9
:100420000000018400000186000001880000018AAC
:100430000000018C0000000002007F4A027D4A0299
:100440007B4A02794A02774A02754A02734A02716C
:100450004A026F4A026D49026B49026949026749C3
:10046000026549006349006149005F49005D490038
:100470005B4900594900574800554802534802510A
:1004800048024F48024D48024B480249480247483B
:10049000024548014347014147013F47013D4701AC
:1004A0003B4701394701374701354702334702319E
:1004B00047022F46022D46022B46022946022746B6
:1004C000022546002346002146001F46001D460027
:1004D0001B4500194500174500154502134502113B
:1004E00045020F45020D45020B450209450207442E
:1004F00002054401034401014401FF4401FD44019C
:10050000FB4401F94401F74401F54401F34302F1CE
:100510004302EF4302ED4302EB4302000002D5F039
:100520008D14A1C881CFD9F1AF20000000000000D8
:1005300000000000000000010303010303010505A2
:100540000105050107070107070100090000010077
:100550000001000001000001FF0304FF0304FE0589
:1005600006FE0506FF0708FF0708070D06070D062C
:100570000B0E040B0E040D10010E100112120313CA
:1005800012031514051514051616071718070A0087
:100590000900000200000200000200000200030245
:1005A000000602000902000C02000F020012020005
:1005B0001402000009FCFEFFFFFFFFFFFFFFFFFF2B
:1005C000FFFFFFFFFFFFFFFFFFFFFFFFFEFEFC0738
:1005D0000F1F1F1F1F1F1F1F1F1F1F1F1F1F1F1F3B
:1005E0001F1F1F1F1F1F1F1F0F1A0D00FC02FAFAEB
:1005F000AAAA02F2FA2AF202B2BAEA6A021AFAE2E3
:100600001A02FC00000007080A0A0A0A080A0A0976
:100610000A080A0A0A0908080A0A08080700000066
:10062000FC02FAFA22FA02F2FA2AF202FAFA2AD2C0
:1006300002FAFA8AF202FC00000007080A0A090A14
:10064000080A0A090A080A0A090A080A0A0A0A0814
:10065000070000FCFCFCFCFCFCFCFCFCFCFCFCFCC7
:10066000FCFCFCFCFFFFFFFFFFFFFFFFFFFFFFFFA6
:10067000FFFEFCF80101010101010101010101017D
:1006800001010101010101010103070F0F0F0F0F0C
:100690000F0F070301210C00007828100078285064
:1006A0000078580010482000104820000078FC8E88
:1006B000D6DAD68EFC7800000000000000000000B2
:1006C0000000000000000000000000000000010227
:1006D0000505050505020100000408022905023E82
:1006E00009093E3F25251A1E2121123F21211E3FC7
:1006F0002525213F0505011E21293A3F04043F21FC
:100700003F21001021211F3F040A313F2020203FBC
:1007100002023F3F02043F1E21211E3F0909061E1F
:1007200021112E3F09093622252519013F01011FFC
:1007300020201F0F10201F3F10103F3B04043B03DD
:10074000043807312D23211E29251E223F20003287
:100750002929261221251A0C0A3F08172525191EBA
:10076000252518013905031A25251A0629291EFCF5
:10077000FEFFFFFFFFFFFFFFFFFFFFFFFFFFFFFF8A
:10078000FFFFFFFFFFFFFFFFFFFFFFFFFFFFFFFF79
:10079000FFFFFFFFFFFFFFFFFFFFFFFFFFFFFFFF69
:1007A000FFFFFFFFFFFFFFFFFFFFFFFFFFFFFFFF59
:1007B000FFFFFFFFFFFFFFFFFFFFFFFFFFFFFFFF49
:1007C000FFFFFFFEFEFCFFFFFFFFFFFFFFFFFFFF3E
:1007D000FFFFFFFFFFFFFFFFFFFFFFFFFFFFFFFF29
:1007E000FFFFFFFFFFFFFFFFFFFFFFFFFFFFFFFF19
:1007F000FFFFFFFFFFFFFFFFFFFFFFFFFFFFFFFF09
:10080000FFFFFFFFFFFFFFFFFFFFFFFFFFFFFFFFF8
:10081000FFFFFFFFFFFFFFFFFFFFFFFFFF010307DA
:100820000707070707070707070707070707070758
:100830000707070707070707070707070707070748
:100840000707070707070707070707070707070738
:100850000707070707070707070707070707070728
:100860000707070707070707070707070707070718
:1008700007070703571300FC0202F2F2F282F2F2BA
:10088000F202F2F2F202C2E2F2121252624202F2F8
:10089000F2F282F2F2F20202E2F29292122202C228
:1008A000E2F2321212722202C2E2F2125212F2E2A8
:1008B000C202F2F2F21212F2F2E202F2F2F29292B8
:1008C0001202E2F2929212220202FC000000FF00E9
:1008D000005F5F5F005F5F5F005F5F5F00172F5F1C
:1008E00050515F2F5F005F5F5F005F5F5F002C5CB8
:1008F0005151535F2E00172F5F585050582E00173C
:100900002F5F5050505F2F17005F5F5F01015F5EE8
:1009100058005F5F5F5052500C5C5151535F2E0086
:1009200000FF0000000102020202020202020202B3
:100930000202020202020202020202020202020297
:100940000202020202020202020202020202020287
:100950000202020202020202020202020202020277
:100960000202020202020202020202020202020267
:100970000202020202020202010000FFFFFFFFFF6B
:10098000FFFFFFFFFFFFFFFFFFFFFFFFFFFFFFFF77
:10099000FFFFFFFFFFFFFFFFFFFFFFFFFFFFFFFF67
:1009A000FFFFFFFFFFFFFFFFFFFFFFFFFFFFFFFF57
:1009B000FFFFFFFFFFFFFFFFFFFFFFFFFFFFFFFF47
:1009C000FFFFFFFFFFFFFFFFFFFFFFFFFFFFFFFF37
:1009D000FFFFFFFFFFFFFFFFFFFFFFFFFFFFFFFF27
:1009E000FFFFFFFFFFFFFFFFFFFFFFFFFFFFFFFF17
:1009F000FFFFFFFFFFFFFFFFFFFFFFFFFFFFFFFF07
:100A0000FFFFFFFFFFFFFFFFFFFFFFFFFFFFFFFFF6
:100A1000FFFFFFFFFFFFFFFFFFFFFFFFFFFFFFFFE6
:100A2000FFFFFFFFFFFFFFFFFFFFFFFFFFFFFFFFD6
:100A3000FFFFFFFFFFFFFFFFFFFFFFFFFFFFFFFFC6
:100A4000FFFFFFFFFFFFFFFFFFFFFFFFFFFFFFFFB6
:100A5000FFFFFFFFFFFFFFFFFFFFFFFFFFFFFFFFA6
:100A6000FFFFFFFFFFFFFFFFFFFFFFFFFFFFFFFF96
:100A7000FFFFFFFFFFFFFFFFFFFFFFFFFFFFFFFF86
:100A8000FFFFFFFFFFFFFFFFFFFFFFFFFFFFFFFF76
:100A9000FFFFFFFFFFFFFFFFFFFFFF030303030352
:100AA0000303030303030303030303030303030316
:100AB0000303030303030303030303030303030306
:100AC00003030303030303030303030303030303F6
:100AD00003030303030303030303030303030303E6
:100AE000030303482200FC06020202020202020281
:100AF00002020202020202020202020202020202D6
:100B000002020202020202020202020202020202C5
:100B100002020202020202020202020202020202B5
:100B20000202020202020202020206FC0000FF00B0
:100B300000000000000000000000000000000000B5
:100B400000000000000000000000000000000000A5
:100B50000000000000000000000000000000000095
:100B60000000000000000000000000000000000085
:100B7000000000FF0000FF00000000000000000077
:100B80000000000000000000000000000000000065
:100B90000000000000000000000000000000000055
:100BA0000000000000000000000000000000000045
:100BB0000000000000000000000000FF0000FF80B7
:100BC0000000000000000000000000000000000025
:100BD0000000000000000000000000000000000015
:100BE0000000000000000000000000000000000005
:100BF00000000000000000000000000000000000F5
:100C0000000080FF0000000101010101010101015C
:100C100001010101010101010101010101010101C4
:100C200001010101010101010101010101010101B4
:100C300001010101010101010101010101010101A4
:100C40000101010101010101010101000000000099
:100C50000000000000000306090C0F1214F8FCFE4F
:100C6000FFFFFFFFFFFFFFFFFFFFFFFFFFFFFFFF94
:100C7000FFFFFFFFFFFFFFFFFFFFFFFFFFFFFFFF84
:100C8000FFFFFFFFFFFFFFFFFFFFFFFEFCF8FFFF7F
:100C9000FFFFFFFFFFFFFFFFFFFFFFFFFFFFFFFF64
:100CA000FFFFFFFFFFFFFFFFFFFFFFFFFFFFFFFF54
:100CB000FFFFFFFFFFFFFFFFFFFFFFFFFFFFFF0043
:100CC00001030707070707070707070707070707BE
:100CD00007070707070707070707070707070707A4
:100CE00007070707070707070707070707030100A5
:100CF000311300F8040202F2F2F21212F2F2E202EE
:100D000002E2F2F2C2020202F2F2F2020202F20283
:100D100002E2F29292122202F2F2F2929212020293
:100D200004F80000FF0000005F5F5F010505050299
:100D300058071414075F5E50002F5F5F5050502F0C
:100D4000002C545151535F2E005F5F5F5052500092
:100D50000000FF0000000102020202020202020281
:100D60000202020202020202020202020202020263
:100D70000202020202020202020202020202020253
:100D80000202010000F8FCFEFFFFFFFFFFFFFFFF74
:100D9000FFFFFFFFFFFFFFFFFFFFFFFFFFFFFFFF63
:100DA000FFFFFFFFFFFFFFFFFFFFFFFFFFFFFFFF53
:100DB000FFFFFFFFFFFFFFFFFFFFFFFFFFFFFFFF43
:100DC000FFFFFFFFFFFFFFFFFFFFFFFFFFFEFCF83E
:100DD000FFFFFFFFFFFFFFFFFFFFFFFFFFFFFFFF23
:100DE000FFFFFFFFFFFFFFFFFFFFFFFFFFFFFFFF13
:100DF000FFFFFFFFFFFFFFFFFFFFFFFFFFFFFFFF03
:100E0000FFFFFFFFFFFFFFFFFFFFFFFFFFFFFFFFF2
:100E1000FFFFFFFFFFFFFFFFFFFFFF0001030707CB
:100E20000707070707070707070707070707070752
:100E30000707070707070707070707070707070742
:100E40000707070707070707070707070707070732
:100E50000707070707070707070707070707070722
:100E60000707070301004B1300F804C2E2F2121255
:100E7000526242020202E2F2F2C2020202F2F2F212
:100E800002C2F2F2F20202F2F2F29292120202C2F2
:100E9000E2F2125212F2E2C232F2F28202827212D2
:100EA00002F2F2F292921202F2F2F21212F2F2E272
:100EB00004F80000FF00172F5F50515F2F5F0058AC
:100EC000071414075F5E50005F015F5E015F5F5FA4
:100ED00000005F5F5F5052500000172F5F5050506E
:100EE0005F2F1700035F5F58070000005F5F5F50D0
:100EF0005250005F5F5F01015F5E5800FF0000001D
:100F000001020202020202020202020202020202C2
:100F100002020202020202020202020202020202B1
:100F200002020202020202020202020202020202A1
:100F30000202020202020202020202020202020291
:100F4000020202020202010000040406090F060A5E
:100F50000F0F08090D0F0A090B0F0F03020F0F07E0
:100F60000D0D0D0F0A0E0E010D0F030E0B0B0F07CB
:100F7000050F0FFCFEFFFFFFFFFFFFFFFFFFFFFF5F
:100F8000FFFFFFFFFFFFFFFFFFFFFEFC000103036A
:100F90000303030303030303030303030303030321
:100FA0000303030100190A00FC020202020202020A
:100FB0000202020202020202020202020202FC0019
:100FC0000000010101010101010101010101010113
:100FD000010101010101010000090D000404FCFEF2
:100FE000FE000000000A0A0B0B0B0A0A00001C821C
:100FF000C2E27E3E1C00000B0B0B0B0B0B0B000028
:1010000080863232FEFECC0000050A0A0A0B0B0570
:1010100000F8FCFEFFFFFFFFFFFFFFFFFFFFFFFFEA
:10102000FFFFFFFFFFFFFFFFFFFFFFFFFFFFFFFFD0
:10103000FFFFFFFFFFFFFFFFFFFFFFFFFFFFFFFFC0
:10104000FFFFFFFFFFFFFFFFFFFFFFFFFFFFFFFFB0
:10105000FFFFFFFFFFFFFEFCF8FFFFFFFFFFFFFFAB
:10106000FFFFFFFFFFFFFFFFFFFFFFFFFFFFFFFF90
:10107000FFFFFFFFFFFFFFFFFFFFFFFFFFFFFFFF80
:10108000FFFFFFFFFFFFFFFFFFFFFFFFFFFFFFFF70
:10109000FFFFFFFFFFFFFFFFFFFFFFFFFFFFFFFF60
:1010A000FF000103070707070707070707070707E9
:1010B00007070707070707070707070707070707C0
:1010C00007070707070707070707070707070707B0
:1010D00007070707070707070707070707070707A0
:1010E000070707070707030100481300F804020277
:1010F000020202020202020202F2F2F20202020200
:10110000F2F2F20232F2F2820282721202F2F2F28F
:1011100092921202E2F2929212220202020202025F
:10112000020202020202020202020202020202029F
:1011300004F80000FF0000000000000000000000B4
:10114000005F5F5F505050005F5F5F0000035F5FB4
:1011500058070000005F5F5F5050500C54515153CE
:101160005F2E0000000000000000000000000000F2
:10117000000000000000000000FF0000000102026B
:10118000020202020202020202020202020202023F
:10119000020202020202020202020202020202022F
:1011A000020202020202020202020202020202021F
:1011B000020202020202020202020202020202020F
:1011C00001000040E8FCFCFCFCFCDCBBFFFDFFFB7D
:1011D000B870F0F0F0F07020000000000000000097
:1011E00001010101010103030303030301000000E6
:1011F0002070F0F0F0F070BBFFFDFFFBB8DCFCFCF2
:10120000FCFCFCE8400000010303030303030101AD
:10121000010101010000000000000090F8F8F8F85A
:10122000F8F8F8FBFFFFFFFBF8F8F8F8F8F8F8F823
:101230009000010101010101010101010101010110
:1012400001010101010100160A0040485868584890
:101250008890B3D5B390102060A0602020000000DB
:10126000000000000000000000000000010101017A
:1012700001010000000000202060A060201093B554
:10128000D3B09088485868584840000000000101D9
:10129000010101010000000000000000000000004A
:1012A00000009090B0D0B0909090B3D5B390909053
:1012B000B0D0B0909090000000000000000000004E
:1012C00000000000000000000000000000141400F6
:1012D0000000C03804C2796551516579C20438C034
:1012E00000000038C40213E4E9A2D735E5E535D79C
:1012F000A2E9E41302C438000C050A08090D0A012A
:101300000101010A0D09080A050C0000000000C0D7
:101310003844DAE5F9C5338A74887080000000002B
:10132000000043249B070697337938101000800192
:101330000608F000060D0F07000809060D0F07004C
:1013400008060908000E01000000807088748A33C6
:10135000C5F9E5DA4438C000000000F00806018055
:101360000010103879339706079B244300000001D2
:101370000E000809060800070F0D06090800070FF0
:101380000D0600C03008087CF4C21D2B416B412BB8
:101390009EC47C080830C00738C012C4E8E2F7F5E4
:1013A0006565F5F7E2E8C412C03807000C050A08C5
:1013B000090D0B010101010B0D09080A050C0000C4
:1013C0000000C0380402D9A511B115A1C20438C06B
:1013D00000000078848203CFCFECF1E26466E4F28F
:1013E000E9CCC703828478000C050A08090D0B01BB
:1013F0000101010B0D09080A050C00000000C038AE
:1014000004C2796551516579C20438C0000000708A
:10141000888403C4D982385482D682543881C40364
:10142000848870000C050A08090D0B020000020AEE
:101430000D09080A050C00000000C03804C27965D7
:1014400051516579C20438C000000038C40213E469
:10145000E9229745256525478229E41302C438000F
:101460000C050A0809080305080D08050308080A01
:10147000050C0000000000C020109010C8A42272CB
:10148000CAAA4A02E408F000186488473079FEFCD2
:101490007132254A2C0987710804030000000000FE
:1014A000020504080A05010101010000000000E82E
:1014B000182090C8C8C424844830A0202040404050
:1014C000800000C38142BDDB5ABD66007EC37E81C1
:1014D000FF665A4224817E070804090B0B0B0C0996
:1014E0000A0C0504040202020100000A0D0000407B
:1014F00094BCB6FAD68C400000000000050905082F
:101500000000FE4094BCB6FAD68C401007000000E4
:1015100005090508000E0D000018ACF46C78A80051
:1015200000000000000008060B0701010000000099
:101530000000000000000080C0C0A070E04000007B
:101540000000000A0A07030503050001000000006F
:1015500080008000808080008040C0800000000407
:101560000200030709070F050E03000ADFFFFFFF54
:10157000FF6F040607070706006FFFFFFFFFDF0A84
:1015800000060707070604FFFFFFFFFFFFE6000254
:101590000707070600E6FFFFFFFFFFFF000607073C
:1015A0000702001FFFFFFFFFFF6600020707070695
:1015B0000066FFFFFFFFFF1F000607070702001F6F
:1015C000FFFFFFFFFF260406070707060026FFFFB1
:1015D000FFFFFF1F000607070706041FFFFFFFFFAF
:1015E000FF660006070707020066FFFFFFFFFF1FF9
:1015F00000020707070600FFFFFFFFFFFFE60406E4
:101600000707070702E6FFFFFFFFFFFF02070707C5
:10161000070604E2FFFFFFFFFF3A00060707070285
:10162000003AFFFFFFFFFFE2000207070706005630
:10163000FEFEFFFFFFDE0000050F1F0F1DDEFFFF98
:10164000FFFEFE561D0F1F0F050000070B000ADEF0
:10165000FB9D6B0600040204060000066B9DFBDE8A
:101660000A00000006040204004A1EDBFDEB2640CF
:10167000000002040600004026EBFDDB1E4A0000CD
:1016800006040200000A1EDBFDEB660000000200FB
:101690000600000066EBFDDB1E0A000006000200EB
:1016A000000A1EDBFDAB260000040200060000005D
:1016B00026ABFDDB1E0A000006000204000A1EDB4A
:1016C000FDEB6600000006000200000066EBFDDB9B
:1016D0001E0A000002000600004A1EDBFDEB264049
:1016E000000402000202004026EBFDDB1E4A00025D
:1016F00002000204004022EBFBEB22100000060077
:101700000200001022EBFBEB22400000020006006A
:101710000054BCB6FAD60C00000005090508000C00
:10172000D6FAB6BC540008050905000000387CFE56
:10173000FFFFFFFE7C3800000001010100000009EE
:101740000900385482D6825438000000000000009E
:1017500000000000384CC29286643800000000008F
:1017600000000000000038648692C24C380000007F
:10177000000000000000000002040608090A0A0B2D
:101780000B0C0C0C0D0D0D0D0D0D0D0D0D0D0D0D8E
:101790000D0D0D0D0C0C0C0B0B0A090806040200B4
:1017A0000B794A00180D794A001C0F794A000C1178
:1017B0007849000C137849000C157849000C17780B
:1017C00049000C197849000C1B7748000C1D77481C
:1017D000000C1F7748000C217748000C2377480045
:1017E0000C257647000C277647000C297647000C1D
:1017F0002B7647000C2D7647000C2F7546000C31D8
:101800007546000C337546000C357546000C37756F
:1018100046000C397445000C3B7445000C3D744582
:10182000000C3F7445001C417445001C4373430089
:101830001C457343001C477343000C497343000C61
:101840004B7343000C4D7242000C4F7242000C511E
:101850007242000C537242000C557242000C5771D8
:1018600041000C597141000C5B7141000C5D7141EC
:1018700000055D6F3F0C035D6D3D0C035D6B3B0D23
:10188000035D69390D035D67370C035D65350C0336
:101890005D63330D035D61310D035D5F2F0C035DEF
:1018A0005D2D0C035D5B2B0D035D592900465B59D3
:1018B00029004C595828004C575828004C55582896
:1018C000004C535828004C515828004C4F572700C3
:1018D0004C4D5727005C4B5727005C495727005C4D
:1018E000475727005C455626005C435626005C415E
:1018F0005626005C3F5626005C3D5626005C3B5554
:1019000025005C395525005C375525005C3555258B
:10191000005C335525005C315424005C2F542400B6
:101920005C2D5424004C2B5424004C295424004C8E
:10193000275323004C255323004C235323004C21D1
:101940005323004C1F5323004C1D5222004C1B52AA
:1019500022004C195222004C175222004C155222E0
:10196000004C135121004C115121004C0F5121000A
:101970004C0D5121004C0B512100490B4F1F0C0302
:101980000B4D1D0C030B4B1B0D030B49190D030BCA
:1019900047170C030B45150C030B43130D030B41A9
:1019A000110D030B3F0F0C030B3D0D0C030B3B0BF9
:1019B0000D030B39090D030B37070C030B35050C11
:1019C000030B33030D030B31010D030B2F000C032D
:1019D0000B2D000C030B2B000D030B29000D030B2B
:1019E00027000C030B2400002A0D2400000C0F24F8
:1019F00000000C112400000C132400000C1524001E
:101A0000000C172400000C192400000C1B240000FB
:101A10000C1D2400000C1F2400000C212400000CCD
:101A2000232400000C252400000C272400000C298E
:101A30002400000C2B2400000C2D2400000C2F246B
:101A400000000C312400000C332400000C3524006D
:101A5000000C372400000C392400000C3B2400004B
:101A60000C3D2400000C3F2400000C412400000C1D
:101A7000432400000C452400000C472400000C49BE
:101A80002400008C4B2400008C4D21000B044F1FC0
:101A9000000B0C511E000B0C531D000B0C551D00B0
:101AA0000F00551D000F00551D000F00551D000FA4
:101AB00000551D000F00551D000F00551D000F00A3
:101AC0005F15000F005F15000F005B150013005B32
:101AD000150013005F170014005F1700140064194D
:101AE00000140064190014006419001400581D014A
:101AF0001400581D021400581D031400542A041425
:101B000000542A051400542A061400583207140001
:101B10005832081400583209140059340900005989
:101B2000340901005B340903005D340905005F34AA
:101B300009070061340909006334090300653409A9
:101B40000500673409070069340909006B3409038B
:101B5000006D340905006F3409070071340909006C
:101B600073340903007534090500773409070079D7
:101B7000340909007B340903007D340905007F34F2
:101B80000907008134090700551E000B00571F018B
:101B90000B005B21030B005D23050B005F26080B88
:101BA0000061290B0B00632C0E0B006530120B003B
:101BB0006733151000693315110069331512006978
:101BC0003315120069331512006933151200693399
:101BD00015120069331512006933151200693315A7
:101BE00012004D24000B004F24000B005124000B69
:101BF000005325000B005525000B005725010B0055
:101C00005B26030B005D26050B005F27080B0061B8
:101C1000280B0B0063290E0B00652B120B00672E9F
:101C20001510006933151100693315120069331559
:101C30001200693315120069331512006933151249
:101C4000006933151200693315120069331512004B
:101C5000C7340901006334090100633409000063DB
:101C60003409000061330902005F310904005D2E70
:101C70000906005B2C090800592A090200572809A7
:101C800004005526090600532409080051220902C0
:101C9000004F210904004D220906004B24090800C9
:101CA0004924090200472409040045240906004389
:101CB0002409080041240902003F240904003D24AE
:101CC0000906003B240908003924090200372409C9
:101CD00004003524090600332409080031240902D0
:101CE000002F240904002D240906002B24090800D4
:101CF00029240902002724090400252409060023B9
:101D00002409080021240902001F240904001D24BD
:101D10000906001B220908001920090200171E08E5
:101D20000400151C070600131A0608001118050AFE
:101D3000000F16040A000F14030A000F13020A0012
:101D40000F11010A000D0F000A000B0E000200091E
:101D50000E000400070E000600050E000800030E2A
:101D6000000200030E000C00030E000C00030E0026
:101D70000D00030E000D00030E000C00030E000CFE
:101D800000030E000D00030E000D00030E000C00FA
:101D9000030E000C00030E000D00030E000D0003E7
:101DA0000E000C00030E000200010E000400FF0EE6
:101DB000000600FD0E000800FB0E000200F90E00F8
:101DC0000400F70E000600F50E000800792400005C
:101DD00004000000000000000000F0F8F0F0F0F057
:101DE000F0F8F00910000000000000000000F0080A
:101DF000D0D010101008F00C1400108000002080CB
:101E000000004008000002884040820880408802AC
:101E100000010206040C0C0C0C0406020100400038
:101E20000000401000002080100004814040880223
:101E30008040820800010206040C0C0C0C0406020F
:101E4000010010800000004000000020000004900D
:101E5000404091048040910400010206040C0C0CE7
:101E60000C040602010910000048B0CCB04200008A
:101E7000F008DFDB151B1F08F0000080E862C0D00F
:101E80000000F008DFD41B141F08F0000080E87287
:101E9000C0D00000F008DFD41B141F08F0000002BF
:101EA000B058A4F00000F008DFDF151E1F08F0098D
:101EB0001B0000805C7B5C000000060910202020D5
:101EC00010080000000000000000000000000000FA
:101ED00000000000000000805C7B5C00000006C980
:101EE0001020202010080000FF000000000000006B
:101EF0000401000000000000000000805C7B5C002A
:101F0000000006C910A0202010080000FF00FF00FC
:101F10000000000004010401000000000000008037
:101F20005C7B5C00000006C910A020A01008000027
:101F3000FF00FF00FF000000040104010401000095
:101F4000000000805C7B5C00000006C910A020A09F
:101F500010C80000FF00FF00FF00FF0004010401A3
:101F60000401040100283800000000000000000007
:101F7000000000000000000000000000804018B4D5
:101F8000BC180008D0B02040808000000000000095
:101F900000000000000000000000000000609090C1
:101FA0004A0408010000000003070C3973E8981484
:101FB0001415D3D6140C1800000000000000000017
:101FC0000000000000000000000000000000000011
:101FD00000000000000103071C38F3CD940A0A003A
:101FE00000000000000000000000000000000000F1
:101FF00000000000000000000000000000000000E1
:1020000000000001030F1E0000000000000000009F
:1020100000000000000000000000000000000000C0
:1020200000000000000000000000000000000000B0
:1020300000000000000000000000000000000000A0
:102040000000000000000000000000000000000090
:102050000000000000000000000000000000000080
:102060000000000000000000000000000000000070
:102070000000000000000000000000000000000060
:102080000000000000000000000000000000000050
:102090000000000000009834BC180008D0B02040B8
:1020A0008080000000000000000000000000000030
:1020B000000000000000000000808468102601007D
:1020C00003070C3973E898141415D3D6140C1800B0
:1020D0000000000000000000000000000000000000
:1020E00003040402000000000000000000010307D8
:1020F0001C38F3CD940A0A00000000000000000024
:1021000000000000000000000000000000000000CF
:10211000000000000000000000000001030F1E008E
:1021200000000000000000000000000000000000AF
:10213000000000000000000000000000000000009F
:10214000000000000000000000000000000000008F
:10215000000000000000000000000000000000007F
:10216000000000000000000000000000000000006F
:10217000000000000000000000000000000000005F
:10218000000000000000000000000000000000004F
:10219000000000000000000000000000000000003F
:1021A000000000000000000000000000000018B463
:1021B000BC180008D0B02040808000000000000063
:1021C000000000000000000000000000000000000F
:1021D00000000000000040DE43070C3973E898144B
:1021E0001415D3D6140C18000000000000000000E5
:1021F00000000000000000000000000000000C13C0
:1022000010080000000103071C38F3CD940A0A00EF
:1022100000000000000000000000000000000000BE
:1022200000000000000000000000000000000000AE
:1022300000000001030F1E0000000000000000006D
:10224000000000000000000000000000000000008E
:10225000000000000000000000000000000000007E
:10226000000000000000000000000000000000006E
:10227000000000000000000000000000000000005E
:10228000000000000000000000000000000000004E
:10229000000000000000000000000000000000003E
:1022A000000000000000000000000000000000002E
:1022B000000000000000000000000000000000001E
:1022C000000000000000000000000000000000000E
:1022D00000000000000000000000000000000000FE
:1022E0008040200C1A1ECCC0828A36E48444A84860
:1022F00018D09010202020404040808080000000B6
:1023000000003048482502040000000000000001E1
:1023100001030307070F0C1C1838337E78F4CAC575
:1023200082810E7CE001010000000000000000003E
:10233000000000000000000000000000000000009D
:10234000000000000000000101030307070F0C005C
:10235000000000000000000000000000000000007D
:10236000000000000000000000000000000000006D
:10237000000000000000000000000000000000005D
:10238000000000000000000000000000000000004D
:10239000000000000000000000000000000000003D
:1023A000000000000000000000000000000000002D
:1023B000000000000000000000000000000000001D
:1023C000000000000000000000000000000000000D
:1023D00000000000000000000000000000000000FD
:1023E00000000000000000000000000000000000ED
:1023F0000000000000000000000000CC1A1ECCC04D
:10240000828A36E48444A84818D0901020202040C6
:1024100040408080800000000000000000804042BA
:10242000340813200000000101030307070F0C1CF0
:102430001838337E78F4CAC582810E7CE001010031
:102440000000000000010202010000000000000086
:10245000000000000000000000000000000000017B
:1024600001030307070F0C0000000000000000003C
:10247000000000000000000000000000000000005C
:10248000000000000000000000000000000000004C
:10249000000000000000000000000000000000003C
:1024A000000000000000000000000000000000002C
:1024B000000000000000000000000000000000001C
:1024C000000000000000000000000000000000000C
:1024D00000000000000000000000000000000000FC
:1024E00000000000000000000000000000000000EC
:1024F00000000000000000000000000000000000DC
:1025000000000000000000000000000000000000CB
:102510000000000CDA1ECCC0828A36E48444A8484D
:1025200018D0901020202040404080808000000083
:102530000000000000000000000000887B0800018F
:1025400001030307070F0C1C1838337E78F4CAC543
:1025500082810E7CE001010000000000000000000C
:102560000000000102020100000000000000000065
:10257000000000000000000101030307070F0C002A
:10258000000000000000000000000000000000004B
:10259000000000000000000000000000000000003B
:1025A000000000000000000000000000000000002B
:1025B000000000000000000000000000000000001B
:1025C000000000000000000000000000000000000B
:1025D00000000000000000000000000000000000FB
:1025E00000000000000000000000000000000000EB
:1025F00000000000000000000000000000000000DB
:1026000000000000000000000000000000000000CA
:1026100000000000000000000000000000000000BA
:1026200000000000000000000000000C1ADE0CC0DA
:10263000828A36E48444A84818D090102020204094
:10264000404080808000000000000000000000008A
:10265000000000000020139869058107070F0C1C7B
:102660001838337E78F4CAC582810E7CE0010100FF
:102670000000000000000000000000000000000159
:102680000202010000000000000000000000000144
:1026900001030307070F0C0000000000000000000A
:1026A000000000000000000000000000000000002A
:1026B000000000000000000000000000000000001A
:1026C000000000000000000000000000000000000A
:1026D00000000000000000000000000000000000FA
:1026E00000000000000000000000000000000000EA
:1026F00000000000000000000000000000000000DA
:1027000000000000000000000000000000000000C9
:1027100000000000000000000000000000000000B9
:1027200000000000000000000000000000000000A9
:102730000000000000000000000000000000000099
:102740000000000C1A1E4CC0028A36A40444A8489B
:1027500018D0901020202040404080808000000051
:102760000000000000000000000000000000000861
:102770000402056893876C0C1838337E78F4CAC558
:1027800082810E7CE00101000000000000000000DA
:102790000000000000000000000000000000000039
:1027A000000000000000000101030307070F0C00F8
:1027B0000000000000000000000000000000000019
:1027C0000000000000000000000000000000000009
:1027D00000000000000000000000000000000000F9
:1027E00000000000000000000000000000000000E9
:1027F00000000000000000000000000000000000D9
:1028000000000000000000000000000000000000C8
:1028100000000000000000000000000000000000B8
:1028200000000000000000000000000000000000A8
:102830000000000000000000000000000000000098
:102840000000000000000000000000000000000088
:102850000000000000000000000000000000000078
:102860000000000000000000000000000000000068
:102870000000000000000000000000000000804098
:10288000C08020A0A0202020A020D0D09010101028
:1028900010109050906868C8880808080808080058
:1028A000000000000000017B0301080C0D0F0E0D5D
:1028B0000E1D1818191B1E1C1A1D1A19181010307D
:1028C0003133363C38343A00000000000000314F0C
:1028D0004120000000000000000000000000000097
:1028E00000000000000000000000000000000000E8
:1028F00000000000000000000000000000000000D8
:1029000000000000000000000000000000000000C7
:1029100000000000000000000000000000000000B7
:1029200000000000000000000000000000000000A7
:102930000000000000000000000000000000000097
:102940000000000000000000000000000000000087
:102950000000000000000000000000000000000077
:102960000000000000000000000000000000000067
:102970000000000000000000000000000000000057
:102980000000000000000000000000000000000047
:102990000000000000000000000000000000000037
:1029A0000000000000000000000000000000808027
:1029B000C0C060603030180000000000000000005F
:1029C0000000000000008080C0C060603030B81897
:1029D0008C6CE6C68383E119E4168C8C98587400DD
:1029E000000000000000000000000018B43C1901C5
:1029F0002022261C1816090E0904040403030301EF
:102A000001010000000000000000000000000000C4
:102A1000000000887B0800000000000000000000AB
:102A200000000000000000000000000000000000A6
:102A30000000000000000000000000010202010090
:102A40000000000000000000000000000000000086
:102A50000000000000000014020303000303030051
:102A60000303030003030300030303000314020131
:102A70000000000100000001000000010000000152
:102A80000000000707000707070007070700070700
:102A900007000707070007140302000000020000F8
:102AA000000200000002000000020000000B0BF812
:102AB0003878E8D0A000A0100C0C07040404050727
:102AC0000707000000F83878E0C8A443830000003E
:102AD0000704040405070707000000FFFFFFFCFCD4
:102AE000FCFCFCFFFFFFFFFFFFFFFFFFFFFFFFFFFF
:102AF000FF07070701010101010707070B1300FE8C
:102B000048484848484848FE0000FF9292929292F6
:102B10009292FF0000030000000000000003001973
:102B20001001010705050703030303030303030360
:102B30000303030307050507040400000000000069
:102B40000000000000000000000000000000000085
:102B50000000000404070505070303030303030340
:102B60000303030303030705050701010000000039
:102B70000000000000000000000000000000000055
:102B8000000000000001010705050703030303031C
:102B90000303030303030303070505070101000003
:102BA0000000000000000000000000000000000025
:102BB0000000000000000001010F0B0A0E060606CF
:102BC000040C0C0C08181818187050507040400075
:102BD00000000000000000000000000000000000F5
:102BE00000000000000000000000404070505070E5
:102BF00018181818080C0C0C040606060E0A0B0F01
:102C000001010000000000000000000000000000C2
:102C1000000000000000000000000001070B0A0E89
:102C200006040C0C08181810303020E06040C0007A
:102C30000000000000000000000000000000000094
:102C4000000000000001010101010000000000007F
:102C50000000C04060E0203030101818080C0C0450
:102C6000060E0A0B0701000000010101010100002E
:102C7000000000000000000000000000000000193B
:102C8000362C183060C080000000000000000000FA
:102C90000000000000000000000000000000000133
:102CA00003066CD8B0608000000000000000000047
:102CB0000000000000000000000000000000000014
:102CC000000080C06030182C3619000000000000A1
:102CD000000000008060B0D86C0603010000000016
:102CE0000000000D08252D39312931252D393129D4
:102CF00031210C08627A7A62627A7A62627A7A6246
:102D00000B08878F9DB7E7C7A5D7AF978D0019012F
:102D10000400050E040C180404241805043C1806CD
:102D20000409430004134200041D4100042740002D
:102D300004313F00043B3E0004453D0004092F03DD
:102D400004152F0104212F01042D2F0104392F0117
:102D500004452F0104174B0104234B010457500174
:102D6000045B500104573F0104633F01046F3F01BE
:102D7000047B3F0104FB6C0104166C0104226C010E
:102D8000042E6C0104326C01044F6C0104005C00E1
:102D9000040A5D0004145E00041E5F000428600045
:102DA00004326100043C6200044663000450640085
:102DB000045A650004717002047D7002040A8500E3
:102DC00004148400041E830004288200043281005D
:102DD000043C800004467F0004507E00045A7D00BD
:102DE00004647C0004094A03045B6A0304FC2F01A9
:102DF0000400240704004409051444080528450874
:102E0000053C460805504708056448080578490808
:102E100005580A0A0455000B04007A0C04007A0DC8
:102E20000200000004010204081020408000005449
:102E300001DC03B40000004A011704B40000004A9A
:102E4000017003B40000004A017003B40000009F49
:102E500000DC03B40000009F00DC03B40100004A62
:102E6000001704B40000004A017003B40000009F82
:102E700000BA02540100001200BA02AA00000012B7
:102E8000009302AA0000005D004B0262030000EE06
:102E90000200005401DC03B40000004A011704B42E
:102EA0000000004A017003B40000004A017003B43E
:102EB0000000009F00DC03B40000009F00DC03B4AE
:102EC0000100004A001704B40000004A017003B476
:102ED0000000009F00BA02540100001200BA02AACA
:102EE00000000012009302AA0000005D004B026285
:102EF000030000EE0200800601FA00B801FA008823
:102F000001FA00B801FA000601FA00B8017D008854
:102F1000017701B801FA003701FA000B02FA00D27A
:102F200001FA000B02FA003701FA000B027D00D211
:102F30000177010B02FA005D01FA00BA02FA006E95
:102F400002FA00BA02FA009F01FA00BA027D006E8E
:102F5000027701BA02FA000B027D000B027D000B22
:102F6000027D000B027D00D201FA000B02FA000084
:102F700000FA000B027D000B027D000B027D000BAE
:102F8000027D00008021080F0F08080006090B06CB
:102F9000000E03030E000F090F06000F0F000F02B3
:102FA000030F000E0F090D000E10BEBDBEBDBEBD4D
:102FB000BEBDBEBDBEBDBE000004000400040004D2
:102FC0000004000400004E080F0D0702000F050F5B
:102FD0000A000F0D0900020B0D00020B0D0000008E
:102FE00000000F0D0702000F0F0808000E03030E6C
:102FF00000030E0E0300000006090B06000F02037B
:103000000F00000000010F0F010E03030E000F0D53
:103010000702000F0D090E10A7C7A7C7A7C7A7C7AC
:10302000A7C7A7C7A70007070707070707070707D7
:103030000707070024080E1F1F1F0E0000000000D6
:103040000000000000001F0E04000000000000004F
:103050000000040E1F00040E1F00F72E2D2EFFFF90
:10306000FFFFFFFFFFFFFFFFFFFFFFFFFFFFFFFF70
:10307000FFFFFFFFFFFFFFFFFFFFFFFFFFFFFFFF60
:10308000FFFFFFFFFFFFFFFFFFFFFFFFFFFFFFFF50
:10309000FFFFFFFFFFFFFFFFFFFFFFFFFFFFFFFF40
:1030A000FFFFFFFFFFFFFFFFFFFFFFFFFFFFFFFF30
:1030B000FFFFFFFFFFFFFFFFFFFFFFFFFFFFFFFF20
:1030C000FFFFFFFFFFFFFFFFFFFFFFFFFFFFFFFF10
:1030D000FFFFFFFFFFFFFFFFFFFFFFFFFFFFFFFF00
:1030E000FFFFFFFFFFFF4410000000000000BC7E58
:1030F000C7EBEDEBC77EBC00003C2C003814380059
:1031000008241000043804000000000000BC7EC148
:10311000D5D5D5CB7EBC00003C103C00381438001F
:103120003C1428003C2418000000000000000000AF
:103130000000000102020202020100000000000083
:10314000000000000000000000000000000000007F
:103150000000010202020202010000000000000063
:10316000000000000000000000000000000000005F
:10317000387CFEFFFFFFFE7C3800000001010100EB
:103180000000090900385482D6825438000000003B
:1031900000000000000000384CC292866438000035
:1031A00000000000000000000038648692C24C3825
:1031B0000000000000000000000069340000000072
:1031C000000000FC02FDFDFDFDFDFDFDFDFDFD021D
:1031D000FDFDFDFDFDFDFDFDFDFD027C90E8F4FA29
:1031E000FDFDFDFDFDFDFDFDFDFDFAF4E890FC0299
:1031F000FDFDFDFDFDFDFDFDFDF3CC02FDFDFDFD35
:10320000FDFDFDFDFDFDFD02DCE8F4FAFDFDFDFD2B
:10321000FDFDFDFDFDFDFAF4E8D020C0000000003A
:103220000000000000000000000000000001FE009F
:10323000FFBF7F7F3FBFBFBC7E7F7FBF7FB7CB35E8
:10324000C20202FF00FFBF7FBF7FBFFF01FE000180
:10325000FF7FBF7FBF7FFF00FFFE00FFBF7FBF7FFD
:10326000BFFF7FFFBF7CB07FBF7FBF7FBFFF00FE80
:1032700000FFBF7FBF7FBFFF00FE0EECAB6BAB6BF1
:10328000AB6BEB0CF300000000000000000000003E
:103290000000000000F008F7B0DFAAD08003354E30
:1032A0007D6F15FAAFD5AAD7AED9B6F40FF08F7AE5
:1032B000D5AAD5AADFB8D7B4D8AFD5AAD5EA7D8F1D
:1032C000F00FF7B0DFAAD5AAD5AADFB0F1079D7A33
:1032D000D5AAD5AAD5AAFF00FF40BF6AD5AAD5AA0C
:1032E000DFB0D7B4D3BED56A350A959F809F808062
:1032F00000000000000000000000000000003B781B
:10330000EABA3A3A2ABA78B86B3A79EAB83A3A2A33
:10331000BA7ABA6A3A78EBB8393A28BA7ABA6A3AD3
:103320007AEABA3A3A28BA79B86B387AEABA3A3AC3
:103330002ABA7ABA6A3A78EBBA383A2ABA7ABA6AC0
:10334000387BE8B8393A28BA7ABA6A3A3A0A00E0D9
:103350001C8261BCB2A8A8B2BC61821CE000000063
:10336000000000000000000404040507060506052F
:103370000404040404050706050605040404040403
:1033800005070605060504040404040507060506EA
:1033900005040404040405070605060504040404E2
:1033A00004050706050605040404040405070605CC
:1033B00006050400001C62810972F4D16B9AF2F2D6
:1033C0009A6BD1F4720981621C901050D0901090C9
:1033D0001050D09010901050D09010901050D0906D
:1033E00010901050D09010901050D090109010501D
:1033F000D09010901050D09010901050D09010900D
:103400001050D09010901050D09010901050D0903C
:1034100010901050D090109050D09010901050D626
:10342000921594141655D09010901556D494159268
:103430001610020302020303020302020303020343
:103440000202030302030202030302030202030354
:103450000203020203030203020203030203020245
:103460000303020302020303020302020303020333
:103470000202030302030202030302030202030324
:103480000202020303020302020303020302020216
:103490000303020302020303020302005D3011244E
:1034A0001FBECFEFDAE0DEBFCDBF11E0A0E0B1E09C
:1034B000E2EEFBE602C005900D92A436B107D9F703
:1034C00026E0A4E6B1E001C01D92AB35B207E1F7FA
:1034D0001AE1CFE4DAE104C02197FE010E94C3346F
:1034E000CE34D107C9F70E9416310C94EF350C94F5
:1034F00000002F923F924F925F926F927F928F9235
:103500009F92AF92BF92CF92DF92EF92FF920F9372
:103510001F93CF93DF93CDB7DEB76C970FB6F894B8
:10352000DEBF0FBECDBF8C012B01DB0119967C9055
:1035300019971A96BC91BC8FFC0182819801235A7D
:103540003F4F19018111E0C0C801895B9F4F9B8BE0
:103550008A8BDC018C918111D7C0D9018C91F80143
:10356000FE967F0198012E5B3F4F4901882381F130
:10357000F2012781308520FDB6C6580160E4A60E11
:10358000B11CD5018C918111C6C3A801485B5F4F66
:10359000DA018C91F801E75BFF4F811154C19081F2
:1035A000911151C16801B1E4CB0ED11CD6018C91AF
:1035B000B72DB0746B2E86FDE1C36110EAC3672C92
:1035C00065FCF3C364FCFEC367FC01C463FC04C474
:1035D000F4019080D20117968C9180FF40C1F801D0
:1035E0007196FB8FEA8FD80154968C91B796F98B20
:1035F000E88B863209F43CC18F3309F472C68D30F2
:1036000009F4A3C59FEF863209F4A0C58F3309F4EE
:103610009DC58D3009F49AC5F2018781908566E0D9
:1036200070E00E94AF349801285C3F4F3D8B2C8B9B
:10363000892BB1F468013AE1C30ED11C43E0642E3A
:10364000C801805C9F4F9F8B8E8BD801AC5BBF4FB6
:10365000B98FA88FEC89FD89CE16DF0609F00AC163
:10366000D20153968C915397813009F4C6C1D2018F
:1036700053968C91813099F4A889B989FD0180E035
:10368000EE16FF0609F05CC290E0AE15BF0509F02A
:103690005CC2882309F467C2813009F461C2D20197
:1036A00017968D919C91189783709927892B09F40F
:1036B00068C2F801818D882309F493C28489863217
:1036C00008F475C2873208F07CC2F8017A96980136
:1036D000285C3F4F2E173F0709F000C3D201179611
:1036E0008D919C91189766E070E00E94AF34892B11
:1036F00009F4FBC2F201878190856CE070E00E94C2
:10370000AF34892B09F4FCC2D20152968C915297A6
:10371000811105C081E054968C93F10110827801EB
:10372000FEE5EF0EF11CD7018D919C918436910539
:10373000A0F482309105A8F50197B9F5C801CE969D
:103740000E94E22A81E0D1018C93F701118210825C
:10375000F801EF59FF4F108228C08436910529F0F7
:103760008F3F9105F1F0E8F020C081E0F801EF59BA
:10377000FF4F808360E070E0C801CE960E94CA2AA5
:10378000F801EA5AFF4F8081811103C0C8010E94ED
:10379000002BD7018D919C91119701978D939C934C
:1037A00004C00197F70191838083D1018C91F201CC
:1037B0002489811122C0211120C08C8D8095872100
:1037C0008C7009F493C581E08C93F801EF59FF4F99
:1037D0001082D7011D921C92C801CE960E94E22A47
:1037E000F801E05BFF4F108213820180F281E02D2F
:1037F00082E0818384E1848379C5F20182858095AA
:10380000918589232223B9F083FF70C583E884BDA5
:103810008FEF87BD81EF8093800010928800109217
:103820008A000E943D2285E0D20156968C935697DD
:1038300057961C925BC582FF59C5F801928181E0C1
:103840008927828353C5908191116CC2882329F006
:1038500023703327232B09F46CC2D4019C90680198
:10386000BAE4CB0ED11CF60185818111B8CE0EC40D
:1038700091E06CC4D60112968C91882309F4B9C0EA
:10388000F1018081882309F43EC0AE89BF898C9103
:10389000882309F438C0D6018C91B4E08B9FC00115
:1038A0001124FC01E653FF4F8490FC01E553FF4FC8
:1038B000B490F80186AD97AD25E0289FF001299FCF
:1038C000F00D1124E056F84EA490A88DB98DAC925D
:1038D000C7010E94B02AE82D880CFF0B2A2D30E08A
:1038E000E217F30781F4082E000C990BB9188B1915
:1038F0009109B7FC9395099734F4F2018089918975
:103900000196918B808BC7010E941D2B29833A83DE
:103910004B835C836D837E83D6018C91B4E08B9F57
:10392000C00111249C0126533F4FF9014491855356
:103930009F4FFC014491D1014C9141111DC0F601F2
:10394000808124E0829FF0011124E353FF4F949182
:103950008F5FE82FE90FD601EC93B4E0EB9FC00135
:103960001124FC01E653FF4F2491FC01E553FF4F66
:103970008491222379F014C0F9012491FC018491EF
:10398000C7010E941D2B2F83388749875A876B8771
:103990007C87D5CF811104C0D6011C9212961C924F
:1039A000D601EC91B4E0EB9FF0011124E453FF4FFA
:1039B000E491D6011496EC931497EE2371F0E13064
:1039C000C1F411968C9111978F5F833019F0119685
:1039D0008C930FC0F60111820CC0D60111968C9108
:1039E0001197811102C011966C92F601818181506C
:1039F0008183F5E0CF0ED11C2DCE17968D919C9131
:103A000018976AE070E00E94AF34892B09F02FCE3E
:103A1000CC88DD88F801E25AFF4FFF8BEE8B9801CE
:103A20002F593F4F398F288FC801805B9F4F9D8B47
:103A30008C8B34E1632EEC14FD0409F418CED6010E
:103A40008C91882309F478C011968C9111978F5F1F
:103A500011968C93B3E08B9FC0011124FC01E65CAE
:103A6000FB4F2491FC01E55CFB4F8491211105C0C3
:103A7000811103C0F60110821182D1018C9188233B
:103A800009F45AC0F6018181F3E08F9FC00111242F
:103A9000FC01E65CFB4FA490FC01E55CFB4F8490CD
:103AA0000A2C000CBB08C7010E941D2B29833A83F6
:103AB0004B835C836D837E8389819A81AC01460F41
:103AC000511D95012F5F3F4F24173507ACF525E1B8
:103AD000A20EB11C8A159B057CF58918E82DF0E033
:103AE0008B819C81AC01470F511D9F012C5F3F4F83
:103AF000241735070CF538968E179F07ECF4E1E094
:103B0000AA89BB89EC93D1011C9228EC30E0EE89A4
:103B1000FF8931832083A88DB98D1C92EC89FD89A2
:103B2000108213820180F281E02DB2E0B1836482C1
:103B3000F20182898150828BF3E0CF0ED11C7BCFC2
:103B4000908191118F5F33969BCD2C91222331F080
:103B500011962C911197921708F4922F139695CDE8
:103B6000933308F49CCD0E949B3322E330E040E085
:103B700050E00E944034672B682B692B09F489C3FD
:103B80008ECDF801E05BFF4F8381882309F491CD4E
:103B9000813051F4138210820180F281E02D82E0A5
:103BA000818384E1848385CD8150838382CD8E306F
:103BB00098F48D3009F089CD88E0868B8EE0848B77
:103BC00084CD8F3348F08F3309F07FCD84E0F80146
:103BD000868B8EE3848B79CD8A8D9B8D0E94092202
:103BE00074CD8389882339F08150838B81112BC058
:103BF00088E2828B28C0F8018289882321F18150D4
:103C0000828B811120C08489863221F08F3321F08C
:103C100080E003C081E001C082E0D8015796ED91B9
:103C2000FC91589720910A0130910B0140910C01B1
:103C30002D873E874F87DE01A80FB11D1D968C9101
:103C4000808381E08283F8018189882311F081508B
:103C500043C08489863271F020F48D3049F0F8F445
:103C600034CD8F33E0F08F3309F02FCD84E015C0D1
:103C700088E013C00E949B3322E030E040E050E037
:103C80000E944034672B682B692B11F484E001C03B
:103C900088E0D80156968C9302C0F801868B8A8DF5
:103CA0009B8D0E940922D80154968C91863229F06E
:103CB0008F3319F08D3009F008CD0E949B3322E834
:103CC00030E040E050E00E944034DC01CB018A5BF0
:103CD0009F4FAF4FBF4FF801818BF7CC8381882373
:103CE00011F0815083833596F5CCF801EC5AFF4FE3
:103CF00080818F5F843011F08083FCCC1082FACCFD
:103D0000F801EB5AFF4F80818F5F833011F0808381
:103D1000FBCC1082F9CC883210F48F5F2CC0D50117
:103D20001C9256CCA90143705527452B09F498C025
:103D30008DCDD20153968C91813009F4A4C1F5E068
:103D4000F88BD801DE96CD90DC90DF975801BAE46D
:103D5000AB0EB11CF5016080C601805A91098797AE
:103D600008F4B0C0B8EACB16D10409F05DC0C701B1
:103D70000E94582B85E0F50180832ACC75FE02C095
:103D800082FD30C06620E1F0F601808183FD15C020
:103D900017C073FE2BC087FF29C081E0FA01808322
:103DA000C7010E94582B612C0BCCF601808182FF49
:103DB00087C2C7010E94742B83C2C7010E94742B63
:103DC000672C00CCD6018C9181FD26C0FDCBF6017D
:103DD000808180FD25C0FACBD6018C9184FFF8CB81
:103DE00081E03BC0C7010E94582BCCCF83FFE7CBBB
:103DF000D801DE968D919C91DF978439910541F42D
:103E000081E080836AED70E0C7010E94CA2AD7CBA7
:103E1000C7010E94582BD3CBC7010E94742BD4CB6F
:103E2000C7010E94582BD2CBE9EACE16D10408F084
:103E30006CC0FFE9CF16D10409F4D1C0A8F184EA1F
:103E4000C816D10409F4F5C095EAC916D10409F0E1
:103E500057C0C7010E94582B82E0D5018C93B8CB84
:103E6000F80186AD97AD8E3E910541F581E0EA8976
:103E7000FB898083D1011C9288EC90E0F801E25A22
:103E8000FF4F918380833396108271971082138243
:103E90000180F281E02D82E0818384E18483F2015C
:103EA00082898150828B94CB37E9C316D10409F4FF
:103EB00077C068E9C616D10409F481C0C7010E9421
:103EC000582B86CB3C96808181114CCFC801895AF2
:103ED0009F4F0E94DF21C801875A9F4F0E94DF2118
:103EE000C801855A9F4F0E94DF21D80155968C91B9
:103EF00055978F3008F036CF8F5F55968C9332CF21
:103F0000A3EACA16D104D1F674C0B7ECCB16D1041B
:103F100009F4A1C098F4FEEACF16D10409F484C0D4
:103F200027EBC216D10409F473C03BEAC316D104CF
:103F300029F6C7010E94582B88E08FCF67E2C6168A
:103F400061E0D60609F47CC08AE3C81681E0D80691
:103F500009F481C099EDC916D10409F0AFCF81E011
:103F6000AA89BB898C93F101108288EC90E0F8015A
:103F7000E25AFF4F918380833396108271971082AB
:103F800013820180F281E02D82E0818384E18483C9
:103F9000D20152968C915297815052968C9318CBA5
:103FA000A3E0A61508F08ACFB889B61508F486CF25
:103FB00081E0F5018583C7010E94582B7FCFF2E095
:103FC000F61518F42889261518F468EC70E028C056
:103FD00084E0D5018C9381E015968C936FCFC70157
:103FE0000E94582BF501108281E0D80159968C93DC
:103FF000EFCAC7010E94582B81E0F5018083F801C8
:10400000EA5AFF4F8081882309F4E2CA8150B4CE76
:10401000F801EA5AFF4F8081811150CF60EF70E0C4
:10402000C7010E94CA2AD4CAC7010E94582B89E03E
:10403000A2CED20150968D919C915197449606C084
:10404000D20150968D919C915197C29651969C9316
:104050008E93509733CF88EC90E0F801E25AFF4FEF
:10406000918380833E97108213820180F281E02D3C
:1040700082E0818384E18483F801EF59FF4F10824D
:10408000F1011082A5CAB4E0B88B5BCEF601918134
:10409000923099F5F60124818081222371F021501C
:1040A00024838350853008F09ACA8381823009F4D2
:1040B00096CAC6010E94172292CA8830C9F018F425
:1040C000833088F48CCA893009F089CA93838AE0E6
:1040D0008483118284CAF60180818830A1F148F17D
:1040E000893009F07CCA88E0D6018C9384E118C03D
:1040F00089E0F601808384E107C0933039F4F6014A
:104100008481882381F08150848369CA913009F0C9
:1041100066CAD60114968C9114978823E1F28150D7
:1041200014968C935CCAC6010E9417228AE0D601BD
:10413000F7CF833008F453CA82E083838AE0848314
:1041400083E081834CCA85E0D4CF90E0D8015196BA
:104150008C918D3308F460CAD80153968C91539793
:1041600081115ACA52968C91811156CA6801BAE1DE
:10417000CB0ED11CF60181E0D801A05ABF4F28898F
:1041800039892E173F0709F458C02281222309F4E8
:1041900052C09130F1F018F09230C1F14CC0B080B3
:1041A0002C91B21608F446C030E04B2D50E0B90116
:1041B000695D7F4F641775071CF46AE36B15D0F5D2
:1041C000265F3F4F24173507B4F52DE12B1590F5E9
:1041D00032C020812B3318F02E3460F102C02E3112
:1041E00050F0622F70E04C9150E0425E5F4F4617F6
:1041F000570704F502C02223F1F030E04C9150E063
:104200004F5F5F4F42175307ACF415C060816B33AB
:1042100018F06E3478F002C06E3148F0462F50E04E
:104220002C9130E0245C3F4F241735071CF42C916F
:10423000261708F080E03596A2CF882309F4ECC950
:1042400088899989C816D90609F4E6C9D601129653
:104250008C911297811119C013968C91811115C000
:104260000E949B332CE130E040E050E00E9440345B
:10427000DC01CB010296A11DB11DF6018383F8017B
:10428000D08EC78A128A838BC7C9F5E0CF0ED11CA6
:10429000D7CFF80180AD882339F0F80183AD8823AA
:1042A00011F08FEF01C081E090E0FC01EE0FFF1FE5
:1042B0008E0F9F1FF801E80FF91F81E080AFEFC953
:1042C000D6018C9185FF7EC981E0F801E05BFF4F4C
:1042D00080839CE8938336971582818384E184836D
:1042E00071C992E033CFF401908079C96C960FB612
:1042F000F894DEBF0FBECDBFDF91CF911F910F911C
:10430000FF90EF90DF90CF90BF90AF909F908F90F5
:104310007F906F905F904F903F902F900895809185
:104320003F02E0914202F0914302882351F0CF0115
:1043300002969093430280934202E4918E2F90E084
:104340000895CF01029690934302809342028081A8
:104350009181089508950895089508950895089500
:1043600008950C9461350C9461350C9461350C946E
:1043700061350C9461350C946135FC01808181308C
:1043800099F050F08230C9F4E18183E0E89FF001B8
:104390001124E45BFA4F0FC0E18183E0E89FF00154
:1043A0001124E55DFA4F07C0E18183E0E89FF00149
:1043B0001124EF56FA4F8491089580E00895DC01AE
:1043C00011968C911197E1E0E80F1196EC931197FB
:1043D0009C91913059F018F0923079F0089593E063
:1043E000E99FF0011124E35DFA4F0DC093E0E99FCE
:1043F000F0011124ED56FA4F06C093E0E99FF00159
:104400001124E25BFA4FE491E93011F411968C9398
:104410000895FC018581843019F0883021F00895D9
:104420008381815002C083818F5F83830895FC0163
:104430008281843019F0883061F017C0838188232D
:1044400021F0853090F481500DC081E0838388E0B5
:104450000BC08381843028F0843039F493E0938357
:1044600003C08F5F838301C0828380818350853046
:1044700018F483818D5F80830895E1E7F0E0808107
:104480008D7F808310929100469847981092440245
:1044900008951F920F920FB60F921124CF92DF92C0
:1044A000EF92FF920F931F932F933F934F935F933E
:1044B0006F937F938F939F93AF93BF93CF93DF932C
:1044C000EF93FF938091470290914802A091490297
:1044D000B0914A02892B8A2B8B2B89F1809146025D
:1044E00081110BC098B180E4892788B98091450279
:1044F000882319F088B1805888B98091470290913B
:104500004802A0914902B0914A02181619061A06EB
:104510001B060CF0A4C08091470290914802A09124
:104520004902B0914A020197A109B109809347025B
:1045300090934802A0934902B0934A0290C00E940F
:104540008F21811520E8920719F40E943D2287C02F
:1045500021E020934402813020E8920731F4109248
:104560004302109242020E948F2197FD05C02091C4
:104570004102222309F43FC02091400221113BC097
:1045800021E020934502EC01DF77209769F481E078
:104590008093460246983FE9C32E3FE0D32EE12C9C
:1045A000F12CCAEFD0E014C08E0120E030E060E4CE
:1045B00072E48FE090E0A90198010E944034690103
:1045C0007A0181E0C81AD108E108F1081092460288
:1045D000E0915406F09155060995811103C081E0E0
:1045E00080934602809145028823B9F1809146026A
:1045F000811133C003C010924502C5CF46992DC02A
:10460000479A0E948F21009771F09C01DE010E9461
:104610009434DC01CB0129E0B595A7959795879552
:104620002A95D1F703C08FEF9FEFDC011092900025
:104630002AE020939100D0929900C0929800809334
:10464000470290934802A0934902B0934A02809196
:10465000710082608093710002C04798D2CFFF91B1
:10466000EF91DF91CF91BF91AF919F918F917F910A
:104670006F915F914F913F912F911F910F91FF90FB
:10468000EF90DF90CF900F900FBE0F901F90189576
:104690002F923F924F925F926F927F928F929F9252
:1046A000AF92BF92CF92DF92EF92FF920F931F9340
:1046B000CF93DF9300D000D0CDB7DEB76C015B01A4
:1046C0002C012EE3420E511CFC01EE5BFF4FF080EB
:1046D000DB0117962D903C90189744E00E94972993
:1046E0003601BAE16B0E711C4601E8E38E0E911C97
:1046F0006814790439F1D30112968C9112978823AA
:10470000E9F08C91B4E08B9FC0011124FC01E553CA
:10471000FF4F6491FC01E653FF4F84916F19062E01
:10472000000C770BE12CF30101812DE237E14FE31F
:1047300057E1082E000C990B0E940E2FF5E06F0E2A
:10474000711CD6CFF601E35AFF4F8081811108C05A
:10475000C10168E270E00E94AF34853108F4D5C031
:10476000D601DE968D919C91DF9725E0289FF00180
:10477000299FF00D1124ED55F84EE491A05CBF4F38
:104780000C9101113FC0E23008F04BC0F601EC5B28
:10479000FF4F908131978081981307C001E03396D5
:1047A0008081843009F067C065C08917A4F4F601E0
:1047B000EB5BFF4F80818F5F808398E0D601AA5B1F
:1047C000BF4F9C93803109F41082008106950695B5
:1047D000000F0D5F27C098170CF04DC0F601EB5B82
:1047E000FF4F80818F5F808394E0D601AA5BBF4F2B
:1047F0009C93803109F41082008106950695000F84
:104800000E5F10C0F601EC5BFF4F90813197808105
:10481000981330C033968081843009F47EC10BE058
:104820002AC00E2F033118F4003128F14AC0053197
:1048300008F06BC0C2010E94B02AD601AC5BBF4F2A
:104840009C91F601ED5BFF4F9083F60126AD37ADED
:1048500095E0929FF001939FF00D1124E056F84EE1
:10486000E491EC932DEE200F682F880F770B4BEE21
:1048700054E146C000E0C2010E94B02AD601AC5B00
:10488000BF4F9C91F601ED5BFF4F9083F60126AD83
:1048900037AD95E0929FF001939FF00D1124E05603
:1048A000F84EE491EC93682F880F770BE02E2BE6FF
:1048B00035E14BE456E18E2FEE0F990B0E940E2F3F
:1048C00024C0C2010E94B02AD601AC5BBF4F9C91AC
:1048D000F601ED5BFF4F9083F60126AD37AD95E015
:1048E000929FF001939FF00D1124E056F84EE49151
:1048F000EC9320EF200F682F880F770B45E155E1EF
:104900008E2FEE0F990B0E948E2ED6015596EC91AC
:10491000559754963C91ED3030F0EF3008F1EF3080
:1049200011F418E022C0363249F020F43D3031F065
:1049300080F41BC03F3368F03F33B9F4D601529680
:104940008C91882379F06AE00E94A33416E0181B4A
:104950000CC0D60156968C91883031F412E005C017
:1049600017E003C010E001C011E0D60159968C9108
:10497000882329F0F0E0E35BF34FE49101C0E0E02D
:10498000EF1963E06E0F062E000C770B212F4DEC14
:1049900052E1832F90E00E948E2EF50183898130B1
:1049A00059F58414950441F1D4018C91882301F1C7
:1049B00011968C91B3E08B9FC0011124FC01E45C43
:1049C000FB4FE4900491FC01E55CFB4F6491FC011A
:1049D000E65CFB4F84916F19062E000C770B23ECDD
:1049E00031E147E452E1082E000C990B0E940E2F92
:1049F000E3E08E0E911CD5CF42E0B501C6010E94C6
:104A00009729D50154968C9181111EC0F601EF595A
:104A1000FF4F8081882321F1E12C00E021E130E18A
:104A200049EE50E164E170E08BE190E00E940E2FCE
:104A3000F5012289215049ED5FE067E170E08FE4E4
:104A400090E00E948E2E1DC0E12C00E025E83DE0A4
:104A500046E65EE064E170E089E190E00E940E2F9E
:104A6000D60112968C91882361F0E12C00E02DE5AF
:104A70003CE040EF5CE064E170E087E290E00E949F
:104A80000E2FE12C00E023E73FE045EA5FE060E025
:104A900070E086E690E00E940E2F19821A821B8237
:104AA0001C82F50180899189FE0131966E0125E015
:104AB000C20ED11C2AE030E0B9010E94AF348193CC
:104AC000CB01EC15FD05C1F709E610E0D6012E91EA
:104AD0006D0149E45FE063E070E0C8010E948E2E42
:104AE0000B5F1F4F0D37110589F70F900F900F9037
:104AF0000F90DF91CF911F910F91FF90EF90DF907A
:104B0000CF90BF90AF909F908F907F906F905F906D
:104B10004F903F902F900C9475290AE0ACCE4F92A5
:104B20005F926F927F928F929F92AF92BF92CF923D
:104B3000DF92EF92FF920F931F93CF93DF93EC01DD
:104B40008C01005B1F4F865B9F4FD80112969C9390
:104B50008E9311970C970E94E22AFE01E25AFF4FB2
:104B600088EC90E091838083F801108213820180A9
:104B7000F281E02D82E0818384E18483FE01EF599C
:104B8000FF4F10826E01FDE5CF0ED11CD6011C92A5
:104B9000CE010E94002BFE017A96CE01C8968E1798
:104BA0009F0729F01082128213823596F8CF2E01CA
:104BB000B9E14B0E511C8E018EE6882E912CA12C52
:104BC000B12C3E01E0E66E0E711CEE24E394F12C54
:104BD0000E949B33A50194010E944034605BFE015A
:104BE00070E0462F50E0F71681F0D3012C9130E0B1
:104BF000828DDA01A81BB109CD01B7FF03C09195E1
:104C000081959109821793071CF37F5F3596753064
:104C100051F7D8015A966C935A975C96EC92F3949C
:104C2000B5E0FB12D5CF0B5F1F4F4016510679F64A
:104C3000F60110821A8282E39EE2909355068093D9
:104C40005406DF91CF911F910F91FF90EF90DF906D
:104C5000CF90BF90AF909F908F907F906F905F901C
:104C60004F9008952F923F924F925F926F927F9252
:104C70008F929F92AF92BF92CF92DF92EF92FF926C
:104C80000F931F93CF93DF93CDB7DEB728970FB65F
:104C9000F894DEBF0FBECDBF5C01FC0185896501C4
:104CA000811104C0F6E1CF0ED11C03C028E2C20E70
:104CB000D11CFB0147805084E12C00E02BE739E058
:104CC00043EE5AE062E170E08DE190E00E940E2F29
:104CD0002FE637E044E758E063E070E086E190E0DB
:104CE0000E940E2F760108E110E03E01F7E06F0E02
:104CF000711C9E012F5F3F4F1901C70102969887D3
:104D00008F8354E2852E912CEF81F8852191F887CD
:104D1000EF832F3311F0205401C020E049ED56E01D
:104D2000B801C4010E949E2EF6E08F0E911C26E36E
:104D30008216910449F778866F8241E4842E912C83
:104D4000F10126E011922A95E9F7F701808191811E
:104D5000F1016AE070E00E94AF348193CB016E16DE
:104D60007F06B9F7EF81F8852291F887EF83255EFA
:104D700049ED56E0B801C4010E949E2EF5E08F0E69
:104D8000911C2FE582169104D9F6075F1F4F36E07C
:104D9000E30EF11C0333110509F0AFCFF5010189D2
:104DA0000F3F09F46BC0C20168E270E00E94AF34AB
:104DB000853108F463C0C601F6E00F9F800D911D98
:104DC00011249C012E5F3F4F290139E0039F800190
:104DD0001124480187E1880E911CF5016288F6E0F4
:104DE0006F9E30011124730123E2E20EF11C39E2BF
:104DF000630E711C015E1F4FE614F704F1F06401AD
:104E000097FE02C0C12CD12CC8010134110514F049
:104E100080E490E0C816D90664F480E8E816F1044E
:104E200024F4B601C7010E9485299FEFC91AD90A47
:104E3000EBCFEFEFEE1AFE0ADFCFF5018289F20128
:104E4000E80FF11D20812F3311F0205401C020E024
:104E5000F5016189F9E06F9FB0011124685E7F4F11
:104E600036E0839FC00111243BEFC32EE12C00E00C
:104E700010E049ED56E084960E94FF2BF5018189F0
:104E80008F3F79F4848981110CC0E12C00E023E587
:104E900036E045E956E065E370E080E390E00E948B
:104EA0000E2FE12CF501058925EB35E049EE55E0A3
:104EB0006BE170E082E090E00E940E2F28960FB622
:104EC000F894DEBF0FBECDBFDF91CF911F910F9140
:104ED000FF90EF90DF90CF90BF90AF909F908F901A
:104EE0007F906F905F904F903F902F900C9475291A
:104EF000CF92DF92EF92FF921F93CF93DF93EC015B
:104F00007B01DB0119961C918D89FE01811102C084
:104F1000769601C0B8962989D7012F3F09F480C041
:104F200017968D919C9118976CE070E00E94AF34B9
:104F30007C01892B09F093C0B6E02B9FE00DF11D99
:104F40001124329617FF19C08A89DF01A80FB11DFD
:104F50008C918F5F8C938A89DF01A80FB11D8C9192
:104F60008B3514F081E48C938A89DF01A80FB11D81
:104F70008C91803411F481E48C9314FF10C08A89E1
:104F8000DF01A80FB11D8C9181508C938A89DF01BC
:104F9000A80FB11D8C91813414F48AE58C9315FF10
:104FA00005C08A89882311F081508A8B16FF05C0BD
:104FB0008A89823010F48F5F8A8B13FF50C0808102
:104FC0008F3309F44CC081818F3309F448C082814A
:104FD0008F3309F444C06F01F60161916F01298993
:104FE0008D89882319F08FEB90E002C08DEA90E064
:104FF000F6E02F9F800D911D112497012E5F3F4FEA
:10500000820F931F0E9420343FEFE31AF30A43E01C
:10501000E416F10409F78FEF898B84E68C8B1FC0AF
:105020001A968C91809581238C7099F08C898111CE
:1050300010C083E884BD27BD81EF8093800010926B
:10504000880010928A000E943D2282E0F701868B40
:10505000178A15FD1D8A16FF02C081E08D8B107620
:105060008B891036E1F58F5F8B8B853108F445C055
:105070008D3310F18D3309F040C01B8A83E884BD65
:105080008FEF87BD81EF809380001092880010928F
:105090008A000E94243042E150E06DEA70E0CE01C7
:1050A00046960E94F23342E150E06FEB70E0CE0191
:1050B00088960E94F23321C020E430E0A901481B09
:1050C0005109CA01880F93E894BD9FEF97BD91EFF6
:1050D000909380001092880080938A000EC08823ED
:1050E00061F083E884BD8FEF87BD81EF80938000FE
:1050F0001092880010928A001B8A8C89882311F0F4
:1051000081508C8BDF91CF911F91FF90EF90DF90BA
:10511000CF9008952F923F924F925F926F927F921D
:105120008F929F92AF92BF92CF92DF92EF92FF92B7
:105130000F931F93CF93DF9300D000D000D0CDB753
:10514000DEB78C012B01FC01128A138A84E6848B62
:10515000FB018389F801858BFB01608871886114EC
:10516000710409F44DC0882321F02FEBA22EB12C3D
:1051700003C09DEAA92EB12C6501312CC6010E9405
:105180000A346816790640F43394F6E0CF0ED11C49
:1051900083E03812F3CF34C045019CE0890E911CA6
:1051A00082E0282EFE0131967F013214B0F42A9459
:1051B000B501F6E02F9E600D711D112446E050E010
:1051C000C7010E94F23346E050E0B401C7010E94DB
:1051D000103486E0881A9108E8CF86E0F701119232
:1051E0008A95E9F78FE38B838C838D837A8269823A
:1051F00046E050E0B601C7010E941034832D01C083
:105200008FEFF801818BF2011286118642E150E0A6
:105210006DEA70E0C80146960E94F23342E150E028
:105220006FEB70E0C80188960E94F23326960FB6A5
:10523000F894DEBF0FBECDBFDF91CF911F910F91CC
:10524000FF90EF90DF90CF90BF90AF909F908F90A6
:105250007F906F905F904F903F902F900895FC014A
:105260008081813099F050F08230C9F4E18183E08F
:10527000E89FF0011124E25BFA4F0FC0E18183E067
:10528000E89FF0011124E35DFA4F07C0E18183E05C
:10529000E89FF0011124ED56FA4F8491089580E0C3
:1052A0000895FC018081813099F050F08230C9F47A
:1052B000E18183E0E89FF0011124E35BFA4F0FC026
:1052C000E18183E0E89FF0011124E45DFA4F07C01B
:1052D000E18183E0E89FF0011124EE56FA4F8491BA
:1052E000089580E008950E94EA35EFE4F2E081E05D
:1052F000A0E0B8E000800EBC8111012C1197A0FD48
:10530000FDCF0192B9F70DB40895E5E2FEE290E118
:10531000969FD001A0781124A80F6770E60FF11DA9
:105320009491A15BBD4F8C91982B9C9308952F92E3
:105330003F924F925F926F927F928F929F92AF9225
:10534000BF92CF92DF92EF92FF920F931F93CF9372
:10535000DF93CDB7DEB72D970FB6F894DEBF0FBE43
:10536000CDBF1B01F42EFC01EE5BFF4F10812DE041
:10537000822E2DE2922E9C012B5A3F4F3A83298395
:10538000DC01AC5ABF4FBC83AB837496FE83ED83C4
:105390002B50310938872F831497BA87A9872C019E
:1053A000BBE54B0E511C3C01E9E56E0E711C5C0126
:1053B000F7E5AF0EB11CF401C490319624912B8710
:1053C000319684913196E4919E2F9F2109F4A6C0D5
:1053D000D10153969C91913011F0E0FD9FC0BB85A7
:1053E000B11BBB8790E08F30910508F097C0FC019E
:1053F000EA5AFF4F2B85022E000C330B3D872C877A
:105400000C2C000CDD080C94C33420E040E05DE27D
:1054100003C020E042EF5CE26C857D85C6010E94FE
:105420008E2E7CC020E043EE5CE2F6CFC5010E94E8
:10543000BD21082FC5010E945129E82EC50121C0B8
:10544000C3010E94BD21082FC3010E945129E82EEB
:10545000C3010E942F296C857D856E0D711D282F3B
:105460004FE15BE2C601801B910907FD9395D7CF01
:10547000C2010E94BD21082FC2010E945129E82EBD
:10548000C2010E942F296C857D856E0D711D282F0C
:105490004FE15BE2C601800F911D07FD9A95BFCFDA
:1054A000E12C00E02BED3AE24CEF5AE232C0A98544
:1054B000BA852C914DEA5AE2AFCFE12C00E023E807
:1054C0003AE247E95AE225C0E12C00E027E53AE25A
:1054D0004DE65AE21EC0EF81F885208145E65FE186
:1054E0009BCFAD81BE812C914FEA5EE195CFEB81E0
:1054F000FC81208145E65EE18FCFA981BA812C91A4
:1055000047EF5DE189CFE12C00E021ED3DE143EE85
:105510005DE16C857D85C6010E940E2FB4E08B0E87
:10552000911CE1E2FEE2E815F90509F044CF2D9661
:105530000FB6F894DEBF0FBECDBFDF91CF911F91A4
:105540000F91FF90EF90DF90CF90BF90AF909F9022
:105550008F907F906F905F904F903F902F90089525
:10556000DC018D919C91119725E0289FF001299FE6
:10557000F00D1124EF55F84E94911296EC9112977C
:10558000F0E0E958F84EE49114968C91981B892F1D
:105590008E1B0895DC0111967C936E9385E0869FA7
:1055A0009001879F300D1124F901EC55F84EE491DC
:1055B0001396EC931397F901EE55F84EE491149677
:1055C000EC930895CF93DF93EC0160E070E00E94CC
:1055D000CA2A1A8219861A861B8688E088878881DB
:1055E000998125E0289FF001299FF00D1124E056B4
:1055F000F84E84918E83E491ED83DF91CF910895ED
:10560000FC01DC01A95ABF4F1C9211961C92119605
:1056100081E08C9311961C92119682E08C931196E6
:105620001C92118A128A138A8DE0848B118E158A3E
:10563000EA5AFF4F84E080830895CF93DF9300D030
:1056400000D000D0CDB7DEB7DC018D919C911197D1
:1056500025E0289FA001299F500D1124FA01E05652
:10566000F84E2491FA01EF55F84E44911296EC91C0
:105670001297F0E0E958F84EE49114968C91481B8B
:105680004E1B30E03A832983042E000C550B5C83BB
:105690004B833A815C8167E07BE080E090E0269676
:1056A0000FB6F894DEBF0FBECDBFDF91CF91089546
:1056B000DC018D919C911197019611969C938E938C
:1056C00045E0489F9001499F300D1124F901EC55A8
:1056D000F84EE4911396EC931397F901EE55F84EBA
:1056E000E4911496EC930895DC018D919C911197AF
:1056F000019711969C938E9345E0489F9001499F96
:10570000300D1124F901EC55F84EE4911396EC9309
:105710001397F901EE55F84EE4911496EC93089521
:105720003FB7F8948091500690915106A09152068F
:10573000B091530626B5A89B05C02F3F19F00196DE
:10574000A11DB11D3FBFBA2FA92F982F8827820F07
:10575000911DA11DB11DBC01CD0142E0660F771F57
:10576000881F991F4A95D1F708951F920F920FB67F
:105770000F9211242F933F938F939F93AF93BF93D7
:1057800080914B0290914C02A0914D02B0914E023B
:1057900030914F0623E0230F2D3720F40196A11DF1
:1057A000B11D05C026E8230F0296A11DB11D20934F
:1057B0004F0680934B0290934C02A0934D02B093FE
:1057C0004E028091500690915106A0915206B091E0
:1057D00053060196A11DB11D80935006909351066A
:1057E000A0935206B0935306BF91AF919F918F91B2
:1057F0003F912F910F900FBE0F901F9018954F92D1
:105800005F927F928F929F92AF92BF92CF92DF92E0
:10581000EF92FF920F931F93CF93DF9300D000D0AE
:10582000CDB7DEB7DC0148014115510509F406C2C8
:10583000FA01F490319684914E5F5F4FAF2CB12CFA
:10584000211102C0EE2061F101E010E0982F977065
:1058500011F400E010E0982F969596959695090F13
:10586000111D0A9DF0010B9DF00D1A9DF00D1124E4
:1058700013E0712EC71003C0EE0FFF1F0AC0811482
:10588000910439F0EE9E8001EF9E100D1124800EE0
:10589000911E2E9F80012F9F100D1124400F511F2C
:1058A0001FEFC11208C08114910419F0CC24C394D5
:1058B00002C022E0C22EFD01EA0DFB1D1E161F06CE
:1058C0000CF0BCC1A038B1050CF0B8C19B01280F89
:1058D000311D121613060CF0B1C1603471050CF0C5
:1058E000ADC14115510509F4A9C1362F37708B019F
:1058F00077FF02C0095F1F4F93E0159507959A95B2
:10590000E1F7202F77FF04C0332311F02FEF200F92
:10591000B7FF05C0002711270A1B1B0B02C000E0C0
:1059200010E0E038F1051CF090E89A1B01C09F2DB3
:10593000901B622F022E000C770B2F3F1CF4E62EDB
:10594000E09401C0E12CF1E0E82FE77009F4F0E009
:10595000869586958695F80F6F0F711D69307105D4
:1059600014F0F8E0F21BFE192E0D60E82603A00DDE
:10597000B11D1124A00FB11FFE9C000D111D11249B
:10598000400F511F61E070E07B01032E02C0EE0C5E
:10599000FF1C0A94E2F773E0C71609F407C17C15EF
:1059A000C8F081E0C81609F4B9C0E2E0CE1246C1E1
:1059B0008FEF8E9D80018F9D100D11240095109505
:1059C0001C830B839C80BD01615B7D4F2B018F2E5F
:1059D000820E2DC06AEF762EC71409F43BC01BEF70
:1059E000C1122CC1BD01615B7D4F4B01DF2ED20E78
:1059F00083C084918E9D60018F9DD00C1124DA822A
:105A0000C98227FD05C0DB018C918023C82ACC9276
:105A1000311113C031966F5F7F4F8E2F841B891712
:105A200040F32F5F4A0D5B1DB0E84B0E511C28154B
:105A300009F404C1B201FA01F0CF27305CF76B0121
:105A4000B0E8CB0ED11CD6018C9189217A808729B0
:105A50008C93E0CFBD01615B7D4F4B01DF2ED20EF9
:105A60002D1509F4EBC0B401FA018E2F841B8917A0
:105A7000F0F484918E9D80018F9D100D11241A8366
:105A8000098327FD04C0DB018C91082B0C93332381
:105A900051F0273044F48B0100581F4FD801CC90AF
:105AA0008A818C298C9331966F5F7F4FDECF2F5F79
:105AB0004A0D5B1DB0E88B0E911CD2CF84918E9D58
:105AC000B0018F9D700D11247A83698327FD05C075
:105AD0006095D8018C9168236C93311113C0319675
