:100000000C94871A0C94AF1A0C94AF1A0C94AF1A74
:100010000C94AF1A0C94AF1A0C94AF1A0C94AF1A3C
:100020000C94AF1A0C94AF1A0C94AF1A0C94AF1A2C
:100030000C94AF1A0C94AF1A0C94AF1A0C94AF1A1C
:100040000C94AF1A0C94AF1A0C94AF1A0C94AF1A0C
:100050000C94AF1A0C94AF1A0C94AF1A0C94642C35
:100060000C94AF1A0C94AF1A0C94AF1A0C94AF1AEC
:100070000C94AF1A0C94AF1A0C94AF1A0C94AF1ADC
:100080000C94AF220C94AF1A0C94AF1A0C94AF1AC4
:100090000C94AF1A0C94AF1A0C94AF1A0C94AF1ABC
:1000A0000C94AF1A0C94AF1A0C94AF1A442A4B2A32
:1000B000522AA02A592A662A832AAA2AB32ABD2AA2
:1000C000C72AD02AD92AED2AF72AE22A102B0B2B8D
:1000D000052B451202004514020045160200451882
:1000E0000200451A0200451C0200451E0200452080
:1000F0000200452202004524020045260200452850
:100100000200452A0200452C0200452E020045301F
:1001100002004532020045340200433400004134FD
:1001200000003F3400003D35000039350000373510
:1001300000003535000033360000313600002F3620
:1001400000002D3600002B3600152C1302002C1554
:1001500002002C1702002C1902002C1B02002C1D7F
:1001600002002C1F02002C2102002C2302002C254F
:1001700002002C2702002C2902002C2B02002C2D1F
:1001800002002C2F02002C3102002C3302002C35EF
:1001900000002C37000029370000273700002537E2
:1001A0000000233700001F3800001D3800001B38F6
:1001B0000000193800001738000015390015131316
:1001C0000200131502001317020013190200131B7B
:1001D0000200131D0200131F02001321020013234B
:1001E0000200132502001327020013290200132B1B
:1001F0000200132D0200132F0200133102001333EB
:1002000002001335020013370200133900001139C0
:1002100000000F3900000D3900000B3A0000093AC8
:100220000000073A0000053A0000033A0000013BD5
:100230000000FF3D0000FF3F0000FF410000FF43C2
:100240000000FF450000FF470000FF490000FF4B92
:100250000000FF4D0000FF4F0000FF510000FF5362
:10026000000001530100035301000553010007532F
:100270000100095401000B5401000D5401000F54FA
:1002800001001154010013550100155501001755C7
:100290000100195501001B5501001D5601001F5694
:1002A0000100215601002356010025560100275761
:1002B0000100295701002B5701002D5701002F572E
:1002C00001003158010033580100355801003758FA
:1002D0000100395801003B5901003D5901003F59C7
:1002E00001004159010043590100455A0100475A94
:1002F0000100495A01004B5A01004D5A01004F5B61
:100300000100515B0100535B0100555B0100575B2D
:100310000100595C01005B5C01005D5C01005F5CF9
:100320000100615C0100635D0100645E0100655FC6
:100330000100656101006563010065650100656795
:10034000010065690100656B0100656D0100656F65
:100350000100657101006573010063730000617342
:1003600000005F7300005D7400005B74000059744E
:10037000000057740000557400005375000051755B
:1003800000004F7500004D7500004B750000497668
:100390000000477600004576000043760000417675
:1003A00000003F7700003D7700003B770000397781
:1003B000000037770000357800003378000031788E
:1003C00000002F7800002D7800002B79000029799B
:1003D0000000277900002579000023790000217AA8
:1003E00000001F7A00001D7A00001B7A0000197AB5
:1003F0000000177B0000157B0000137B0000117BC1
:1004000000000F7B00000D7C00000B7C0000097CCD
:100410000000077C0000057C0000037D0000017ED9
:1004200000000180000001820000018400000186BC
:10043000000001880000018A0000018C000000001B
:1004400002007F4A027D4A027B4A02794A02774AC9
:1004500002754A02734A02714A026F4A026D4902EA
:100460006B490269490267490265490063490061B5
:1004700049005F49005D49005B4900594900574800
:10048000005548025348025148024F48024D480265
:100490004B48024948024748024548014347014149
:1004A00047013F47013D47013B4701394701374776
:1004B000013547023347023147022F46022D4602DB
:1004C0002B460229460227460225460023460021E4
:1004D00046001F46001D46001B45001945001745F4
:1004E000001545021345021145020F45020D450254
:1004F0000B4502094502074402054401034401017A
:100500004401FF4401FD4401FB4401F94401F74467
:1005100001F54401F34302F14302EF4302ED4302CC
:10052000EB4302000002D5F08D14A1C881CFD9F1B0
:10053000AF200000000000000000000000000001EB
:100540000303010303010505010505010707010771
:100550000701000900000100000100000100000186
:10056000FF0304FF0304FE0506FE0506FF0708FF60
:100570000708070D06070D060B0E040B0E040D10E1
:10058000010E1001121203131203151405151405A0
:100590001616071718070A000900000200000200DB
:1005A0000002000002000302000602000902000C23
:1005B00002000F02001202001402000009FCFEFFFC
:1005C000FFFFFFFFFFFFFFFFFFFFFFFFFFFFFFFF3B
:1005D000FFFFFFFFFEFEFC070F1F1F1F1F1F1F1F38
:1005E0001F1F1F1F1F1F1F1F1F1F1F1F1F1F1F1F1B
:1005F0000F1A0D00FC02FAFAAAAA02F2FA2AF20273
:10060000B2BAEA6A021AFAE21A02FC00000007080B
:100610000A0A0A0A080A0A090A080A0A0A09080844
:100620000A0A080807000000FC02FAFA22FA02F29D
:10063000FA2AF202FAFA2AD202FAFA8AF202FC0042
:10064000000007080A0A090A080A0A090A080A0A29
:10065000090A080A0A0A0A08070000FCFCFCFCFC5C
:10066000FCFCFCFCFCFCFCFCFCFCFCFCFFFFFFFFBE
:10067000FFFFFFFFFFFFFFFFFFFEFCF8010101018D
:10068000010101010101010101010101010101015A
:100690000103070F0F0F0F0F0F0F070301210C00AE
:1006A0000078281000782850007858001048200062
:1006B000104820000078FC8ED6DAD68EFC78000038
:1006C000000000000000000000000000000000002A
:1006D00000000000000001020505050505020100FB
:1006E000000408022905023E09093E3F25251A1E7D
:1006F0002121123F21211E3F2525213F0505011EF5
:1007000021293A3F04043F213F21001021211F3FAE
:10071000040A313F2020203F02023F3F02043F1ED7
:1007200021211E3F0909061E21112E3F09093622EB
:10073000252519013F01011F20201F0F10201F3FF9
:1007400010103F3B04043B03043807312D23211EC6
:1007500029251E223F2000322929261221251A0C84
:100760000A3F08172525191E252518013905031AE2
:1007700025251A0629291EFCFEFFFFFFFFFFFFFFAC
:10078000FFFFFFFFFFFFFFFFFFFFFFFFFFFFFFFF79
:10079000FFFFFFFFFFFFFFFFFFFFFFFFFFFFFFFF69
:1007A000FFFFFFFFFFFFFFFFFFFFFFFFFFFFFFFF59
:1007B000FFFFFFFFFFFFFFFFFFFFFFFFFFFFFFFF49
:1007C000FFFFFFFFFFFFFFFFFFFFFFFEFEFCFFFF3E
:1007D000FFFFFFFFFFFFFFFFFFFFFFFFFFFFFFFF29
:1007E000FFFFFFFFFFFFFFFFFFFFFFFFFFFFFFFF19
:1007F000FFFFFFFFFFFFFFFFFFFFFFFFFFFFFFFF09
:10080000FFFFFFFFFFFFFFFFFFFFFFFFFFFFFFFFF8
:10081000FFFFFFFFFFFFFFFFFFFFFFFFFFFFFFFFE8
:10082000FFFFFFFFFF01030707070707070707078A
:100830000707070707070707070707070707070748
:100840000707070707070707070707070707070738
:100850000707070707070707070707070707070728
:100860000707070707070707070707070707070718
:10087000070707070707070707070703571300FCC2
:100880000202F2F2F282F2F2F202F2F2F202C2E2B8
:10089000F2121252624202F2F2F282F2F2F2020218
:1008A000E2F29292122202C2E2F232121272220298
:1008B000C2E2F2125212F2E2C202F2F2F21212F2A8
:1008C000F2E202F2F2F292921202E2F29292122218
:1008D0000202FC000000FF00005F5F5F005F5F5FDF
:1008E000005F5F5F00172F5F50515F2F5F005F5FFA
:1008F0005F005F5F5F002C5C5151535F2E00172F2C
:100900005F585050582E00172F5F5050505F2F17D0
:10091000005F5F5F01015F5E58005F5F5F50525094
:100920000C5C5151535F2E0000FF000000010202D9
:100930000202020202020202020202020202020297
:100940000202020202020202020202020202020287
:100950000202020202020202020202020202020277
:100960000202020202020202020202020202020267
:100970000202020202020202020202020202020257
:10098000010000FFFFFFFFFFFFFFFFFFFFFFFFFF73
:10099000FFFFFFFFFFFFFFFFFFFFFFFFFFFFFFFF67
:1009A000FFFFFFFFFFFFFFFFFFFFFFFFFFFFFFFF57
:1009B000FFFFFFFFFFFFFFFFFFFFFFFFFFFFFFFF47
:1009C000FFFFFFFFFFFFFFFFFFFFFFFFFFFFFFFF37
:1009D000FFFFFFFFFFFFFFFFFFFFFFFFFFFFFFFF27
:1009E000FFFFFFFFFFFFFFFFFFFFFFFFFFFFFFFF17
:1009F000FFFFFFFFFFFFFFFFFFFFFFFFFFFFFFFF07
:100A0000FFFFFFFFFFFFFFFFFFFFFFFFFFFFFFFFF6
:100A1000FFFFFFFFFFFFFFFFFFFFFFFFFFFFFFFFE6
:100A2000FFFFFFFFFFFFFFFFFFFFFFFFFFFFFFFFD6
:100A3000FFFFFFFFFFFFFFFFFFFFFFFFFFFFFFFFC6
:100A4000FFFFFFFFFFFFFFFFFFFFFFFFFFFFFFFFB6
:100A5000FFFFFFFFFFFFFFFFFFFFFFFFFFFFFFFFA6
:100A6000FFFFFFFFFFFFFFFFFFFFFFFFFFFFFFFF96
:100A7000FFFFFFFFFFFFFFFFFFFFFFFFFFFFFFFF86
:100A8000FFFFFFFFFFFFFFFFFFFFFFFFFFFFFFFF76
:100A9000FFFFFFFFFFFFFFFFFFFFFFFFFFFFFFFF66
:100AA000FFFFFF0303030303030303030303030322
:100AB0000303030303030303030303030303030306
:100AC00003030303030303030303030303030303F6
:100AD00003030303030303030303030303030303E6
:100AE0000303030303030303030303482200FC0679
:100AF00002020202020202020202020202020202D6
:100B000002020202020202020202020202020202C5
:100B100002020202020202020202020202020202B5
:100B200002020202020202020202020202020202A5
:100B3000020206FC0000FF000000000000000000B0
:100B400000000000000000000000000000000000A5
:100B50000000000000000000000000000000000095
:100B60000000000000000000000000000000000085
:100B70000000000000000000000000FF0000FF0077
:100B80000000000000000000000000000000000065
:100B90000000000000000000000000000000000055
:100BA0000000000000000000000000000000000045
:100BB0000000000000000000000000000000000035
:100BC000000000FF0000FF800000000000000000A7
:100BD0000000000000000000000000000000000015
:100BE0000000000000000000000000000000000005
:100BF00000000000000000000000000000000000F5
:100C00000000000000000000000080FF0000000164
:100C100001010101010101010101010101010101C4
:100C200001010101010101010101010101010101B4
:100C300001010101010101010101010101010101A4
:100C40000101010101010101010101010101010194
:100C50000101010000000000000000000000030688
:100C6000090C0F1214F8FCFEFFFFFFFFFFFFFFFF50
:100C7000FFFFFFFFFFFFFFFFFFFFFFFFFFFFFFFF84
:100C8000FFFFFFFFFFFFFFFFFFFFFFFFFFFFFFFF74
:100C9000FFFFFFFEFCF8FFFFFFFFFFFFFFFFFFFF6F
:100CA000FFFFFFFFFFFFFFFFFFFFFFFFFFFFFFFF54
:100CB000FFFFFFFFFFFFFFFFFFFFFFFFFFFFFFFF44
:100CC000FFFFFFFFFFFFFF000103070707070707FD
:100CD00007070707070707070707070707070707A4
:100CE0000707070707070707070707070707070794
:100CF0000707070707030100311300F8040202F297
:100D0000F2F21212F2F2E20202E2F2F2C202020283
:100D1000F2F2F2020202F20202E2F29292122202D3
:100D2000F2F2F2929212020204F80000FF000000B8
:100D30005F5F5F010505050258071414075F5E50E9
:100D4000002F5F5F5050502F002C545151535F2E95
:100D5000005F5F5F505250000000FF000000010282
:100D60000202020202020202020202020202020263
:100D70000202020202020202020202020202020253
:100D800002020202020202020202010000F8FCFE5C
:100D9000FFFFFFFFFFFFFFFFFFFFFFFFFFFFFFFF63
:100DA000FFFFFFFFFFFFFFFFFFFFFFFFFFFFFFFF53
:100DB000FFFFFFFFFFFFFFFFFFFFFFFFFFFFFFFF43
:100DC000FFFFFFFFFFFFFFFFFFFFFFFFFFFFFFFF33
:100DD000FFFFFFFFFFFEFCF8FFFFFFFFFFFFFFFF2E
:100DE000FFFFFFFFFFFFFFFFFFFFFFFFFFFFFFFF13
:100DF000FFFFFFFFFFFFFFFFFFFFFFFFFFFFFFFF03
:100E0000FFFFFFFFFFFFFFFFFFFFFFFFFFFFFFFFF2
:100E1000FFFFFFFFFFFFFFFFFFFFFFFFFFFFFFFFE2
:100E2000FFFFFF000103070707070707070707077B
:100E30000707070707070707070707070707070742
:100E40000707070707070707070707070707070732
:100E50000707070707070707070707070707070722
:100E600007070707070707070707070301004B13D3
:100E700000F804C2E2F21212526242020202E2F2EC
:100E8000F2C2020202F2F2F202C2F2F2F20202F242
:100E9000F2F29292120202C2E2F2125212F2E2C292
:100EA00032F2F2820282721202F2F2F29292120292
:100EB000F2F2F21212F2F2E204F80000FF00172F31
:100EC0005F50515F2F5F0058071414075F5E50009A
:100ED0005F015F5E015F5F5F00005F5F5F505250C8
:100EE0000000172F5F5050505F2F1700035F5F58AF
:100EF000070000005F5F5F505250005F5F5F0101BD
:100F00005F5E5800FF0000000102020202020202BE
:100F100002020202020202020202020202020202B1
:100F200002020202020202020202020202020202A1
:100F30000202020202020202020202020202020291
:100F40000202020202020202020202020202010084
:100F500000040406090F060A0F0F08090D0F0A09FD
:100F60000B0F0F03020F0F070D0D0D0F0A0E0E01D1
:100F70000D0F030E0B0B0F07050F0FFCFEFFFFFFFE
:100F8000FFFFFFFFFFFFFFFFFFFFFFFFFFFFFFFF71
:100F9000FFFFFEFC0001030303030303030303033A
:100FA00003030303030303030303030100190A00FC
:100FB000FC02020202020202020202020202020217
:100FC000020202020202FC00000001010101010113
:100FD0000101010101010101010101010101010002
:100FE00000090D000404FCFEFE000000000A0A0BCC
:100FF0000B0B0A0A00001C82C2E27E3E1C00000BA2
:101000000B0B0B0B0B0B000080863232FEFECC006C
:1010100000050A0A0A0B0B0500F8FCFEFFFFFFFFA4
:10102000FFFFFFFFFFFFFFFFFFFFFFFFFFFFFFFFD0
:10103000FFFFFFFFFFFFFFFFFFFFFFFFFFFFFFFFC0
:10104000FFFFFFFFFFFFFFFFFFFFFFFFFFFFFFFFB0
:10105000FFFFFFFFFFFFFFFFFFFFFFFFFFFFFEFCA4
:10106000F8FFFFFFFFFFFFFFFFFFFFFFFFFFFFFF97
:10107000FFFFFFFFFFFFFFFFFFFFFFFFFFFFFFFF80
:10108000FFFFFFFFFFFFFFFFFFFFFFFFFFFFFFFF70
:10109000FFFFFFFFFFFFFFFFFFFFFFFFFFFFFFFF60
:1010A000FFFFFFFFFFFFFFFFFF0001030707070729
:1010B00007070707070707070707070707070707C0
:1010C00007070707070707070707070707070707B0
:1010D00007070707070707070707070707070707A0
:1010E000070707070707070707070707070703019A
:1010F00000481300F8040202020202020202020285
:1011000002F2F2F202020202F2F2F20232F2F2828F
:101110000282721202F2F2F292921202E2F29292BF
:10112000122202020202020202020202020202026F
:10113000020202020202020204F80000FF000000A4
:101140000000000000000000005F5F5F5050500092
:101150005F5F5F0000035F5F58070000005F5F5F35
:101160005050500C545151535F2E000000000000AD
:10117000000000000000000000000000000000006F
:1011800000FF00000001020202020202020202024B
:10119000020202020202020202020202020202022F
:1011A000020202020202020202020202020202021F
:1011B000020202020202020202020202020202020F
:1011C000020202020202020201000040E8FCFCFCF2
:1011D000FCFCDCBBFFFDFFFBB870F0F0F0F0702012
:1011E00000000000000000000101010101010303F3
:1011F00003030303010000002070F0F0F0F070BB67
:10120000FFFDFFFBB8DCFCFCFCFCFCE8400000013F
:1012100003030303030301010101010100000000B6
:1012200000000090F8F8F8F8F8F8F8FBFFFFFFFB73
:10123000F8F8F8F8F8F8F8F8900001010101010158
:10124000010101010101010101010101010100167A
:101250000A004048586858488890B3D5B390102089
:1012600060A06020200000000000000000000000DE
:101270000000000001010101010100000000002048
:101280002060A060201093B5D3B09088485868586B
:1012900048400000000001010101010100000000C0
:1012A000000000000000000000009090B0D0B0905E
:1012B0009090B3D5B3909090B0D0B0909090000043
:1012C000000000000000000000000000000000001E
:1012D00000000000001414000000C03804C279654A
:1012E00051516579C20438C000000038C40213E4CB
:1012F000E9A2D735E5E535D7A2E9E41302C4380001
:101300000C050A08090D0A010101010A0D09080A64
:10131000050C0000000000C03844DAE5F9C5338A46
:101320007488708000000000000043249B0706972B
:1013300033793810100080010608F000060D0F0701
:10134000000809060D0F070008060908000E010035
:101350000000807088748A33C5F9E5DA4438C0002B
:10136000000000F00806018000101038793397065D
:10137000079B2443000000010E000809060800072F
:101380000F0D06090800070F0D0600C03008087C85
:10139000F4C21D2B416B412B9EC47C080830C00752
:1013A00038C012C4E8E2F7F56565F5F7E2E8C41263
:1013B000C03807000C050A08090D0B010101010BDB
:1013C0000D09080A050C00000000C0380402D9A568
:1013D00011B115A1C20438C000000078848203CF87
:1013E000CFECF1E26466E4F2E9CCC70382847800D2
:1013F0000C050A08090D0B010101010B0D09080A72
:10140000050C00000000C03804C2796551516579AF
:10141000C20438C000000070888403C4D9823854E4
:1014200082D682543881C403848870000C050A086F
:10143000090D0B020000020A0D09080A050C000044
:101440000000C03804C2796551516579C20438C0C2
:1014500000000038C40213E4E922974525652547BA
:101460008229E41302C438000C050A0809080305A0
:10147000080D08050308080A050C0000000000C05C
:1014800020109010C8A42272CAAA4A02E408F000F0
:10149000186488473079FEFC7132254A2C0987711F
:1014A0000804030000000000020504080A05010109
:1014B00001010000000000E8182090C8C8C424847E
:1014C0004830A02020404040800000C38142BDDB66
:1014D0005ABD66007EC37E81FF665A4224817E0724
:1014E0000804090B0B0B0C090A0C05040402020288
:1014F0000100000A0D00004094BCB6FAD68C4000F2
:1015000000000000050905080000FE4094BCB6FA82
:10151000D68C40100700000005090508000E0D00DC
:101520000018ACF46C78A800000000000000080669
:101530000B07010100000000000000000000008017
:10154000C0C0A070E04000000000000A0A070305C8
:101550000305000100000000800080008080800002
:101560008040C080000000040200030709070F0547
:101570000E03000ADFFFFFFFFF6F040607070706E1
:10158000006FFFFFFFFFDF0A00060707070604FFE3
:10159000FFFFFFFFFFE600020707070600E6FFFF69
:1015A000FFFFFFFF000607070702001FFFFFFFFF07
:1015B000FF660002070707060066FFFFFFFFFF1F29
:1015C000000607070702001FFFFFFFFFFF260406B4
:1015D000070707060026FFFFFFFFFF1F000607079C
:1015E0000706041FFFFFFFFFFF660006070707024D
:1015F0000066FFFFFFFFFF1F00020707070600FF4F
:10160000FFFFFFFFFFE604060707070702E6FFFFED
:10161000FFFFFFFF02070707070604E2FFFFFFFFC8
:10162000FF3A000607070702003AFFFFFFFFFFE24D
:101630000002070707060056FEFEFFFFFFDE000060
:10164000050F1F0F1DDEFFFFFFFEFE561D0F1F0FB4
:10165000050000070B000ADEFB9D6B060004020478
:10166000060000066B9DFBDE0A0000000604020473
:10167000004A1EDBFDEB264000000204060000408D
:1016800026EBFDDB1E4A000006040200000A1EDBFA
:10169000FDEB6600000002000600000066EBFDDBCB
:1016A0001E0A000006000200000A1EDBFDAB260039
:1016B000000402000600000026ABFDDB1E0A00004D
:1016C00006000204000A1EDBFDEB660000000600B7
:1016D0000200000066EBFDDB1E0A000002000600AF
:1016E000004A1EDBFDEB264000040200020200401F
:1016F00026EBFDDB1E4A000202000204004022EB42
:10170000FBEB2210000006000200001022EBFBEBB6
:1017100022400000020006000054BCB6FAD60C00BD
:10172000000005090508000CD6FAB6BC54000805EF
:101730000905000000387CFEFFFFFFFE7C3800003A
:1017400000010101000000090900385482D68254CA
:10175000380000000000000000000000384CC29279
:1017600086643800000000000000000000003864BB
:101770008692C24C3800000000000000000000000B
:1017800002040608090A0A0B0B0C0C0C0D0D0D0DBA
:101790000D0D0D0D0D0D0D0D0D0D0D0D0C0C0C0B7E
:1017A0000B0A0908060402000B794A01180D794A50
:1017B000001C0F794A000C117849000C137849007D
:1017C0000C157849000C177849000C197849000C61
:1017D0001B7748000C1D7748000C1F7748000C2130
:1017E0007748000C237748000C257647000C2776B5
:1017F00047000C297647000C2B7647000C2D7647C6
:10180000000C2F7546000C317546000C33754600F0
:101810000C357546000C377546000C397445000CC4
:101820003B7445000C3D7445000C3F7445001C4161
:101830007445001C437343001C457343001C4773ED
:1018400043000C497343000C4B7343000C4D724230
:10185000000C4F7242000C517242000C5372420055
:101860000C557242000C577141000C597141000C2B
:101870005B7141000D5D714100055D6F3F0C035DC3
:101880006D3D0C035D6B3B0D035D69390D035D67B9
:10189000370C035D65350C035D63330D035D61310A
:1018A0000D035D5F2F0C035D5D2D0C035D5B2B0D48
:1018B000035D592900465B5929004E595828004CB0
:1018C000575828004C555828004C535828004C5164
:1018D0005828004C4F5727004C4D5727005C4B575A
:1018E00027005C495727005C475727005C45562670
:1018F000005C435626005C415626005C3F5626009D
:101900005C3D5626005C3B5525005C395525005C46
:10191000375525005C355525005C335525005C3175
:101920005424005C2F5424005C2D5424004C2B5470
:1019300024004C295424004C275323004C255323C6
:10194000004C235323004C215323004C1F532300EE
:101950004C1D5222004C1B5222004C195222004CAA
:10196000175222004C155222004C135121004C11E9
:101970005121004C0F5121004C0D5121004D0B51B4
:101980002100490B4F1F0C030B4D1D0C030B4B1B70
:101990000D030B49190D030B47170C030B45150CD1
:1019A000030B43130D030B41110D030B3F0F0C03EE
:1019B0000B3D0D0C030B3B0B0D030B39090D030BFA
:1019C00037070C030B35050C030B33030D030B31E9
:1019D000010D030B2F000C030B2D000C030B2B0030
:1019E0000D030B29000D030B27000C030B24000033
:1019F0002A0D2400000E0F2400000C112400000CFE
:101A0000132400000C152400000C172400000C19EE
:101A10002400000C1B2400000C1D2400000C1F24BB
:101A200000000C212400000C232400000C252400BD
:101A3000000C272400000C292400000C2B2400009B
:101A40000C2D2400000C2F2400000C312400000C6D
:101A5000332400000C352400000C372400000C391E
:101A60002400000C3B2400000C3D2400000C3F240B
:101A700000000C412400000C432400000C4524000D
:101A8000000C472400000C492400008C4B2400006B
:101A90008C4D21000B044F1F000B0C511E000B0C32
:101AA000531D000B0C551D000F00551D000F005558
:101AB0001D000F00551D000F00551D000F00551D86
:101AC000000F00551D000F005F15000F005F15008F
:101AD0000F005B150013005B150013005F17001467
:101AE000005F17001400641900140064190014004A
:101AF0006419001400581D011400581D02140058E8
:101B00001D031400542A041400542A051400542AF6
:101B100006140058320714005832081400583209CD
:101B20001400593409000059340901005B340903D9
:101B3000005D340905005F340907006134090900BC
:101B40006334090300653409050067340907006937
:101B5000340909006B340903006D340905006F3442
:101B60000907007134090900733409030075340949
:101B70000500773409070079340909007B3409032B
:101B8000007D340905007F3409070081340907000E
:101B9000551E000B00571F010B005B21030B005D5E
:101BA00023050B005F26080B0061290B0B00632C3B
:101BB0000E0B006530120B006733151000693315EA
:101BC00011006933151200693315120069331512BB
:101BD00000693315120069331512006933151200BC
:101BE000693315120069331512004D24000B004FA4
:101BF00024000B005124000B005325000B00552539
:101C0000000B005725010B005B26030B005D26052A
:101C10000B005F27080B0061280B0B0063290E0BDC
:101C200000652B120B00672E15100069331511008B
:101C300069331512006933151200693315120069F2
:101C40003315120069331512006933151200693318
:101C50001512006933151200C734090100633409F5
:101C60000100633409000063340900006133090294
:101C7000005F310904005D2E0906005B2C09080095
:101C8000592A09020057280904005526090600535D
:101C90002409080051220902004F210904004D22A5
:101CA0000906004B240908004924090200472409B9
:101CB00004004524090600432409080041240902C0
:101CC000003F240904003D240906003B24090800C4
:101CD0003924090200372409040035240906003399
:101CE0002409080031240902002F240904002D24AE
:101CF0000906002B240908002924090200272409C9
:101D000004002524090600232409080021240902CF
:101D1000001F240904001D240906001B22090800D5
:101D20001920090200171E080400151C07060013DD
:101D30001A0608001118050A000F16040A000F14ED
:101D4000030A000F13020A000F11010A000D0F0011
:101D50000A000B0E000200090E000400070E000628
:101D600000050E000800030E000200030E000C0028
:101D7000030E000C00030E000D00030E000D000307
:101D80000E000C00030E000C00030E000D00030EED
:101D9000000D00030E000C00030E000C00030E00EB
:101DA0000D00030E000D00030E000C00030E0002D8
:101DB00000010E000400FF0E000600FD0E000800EA
:101DC000FB0E000200F90E000400F70E000600F5FD
:101DD0000E00080079240000040705000A1E1B1DE0
:101DE0000B06FFFFFFFFFFFFFFFFFFFFFFFFFFFFF0
:101DF000FFFFFFFFFFFFFFFF16080054AA007C54FF
:101E0000440078147800485424000C700C00AA5444
:101E10000054AA007C107C00781478007C146800C0
:101E20007C443800AA54000000000000000000F0CC
:101E3000F8F0F0F0F0F0F8F00910000000000000F9
:101E4000000000F008D0D010101008F00C140010A2
:101E5000800000208000004008000002884040828E
:101E6000088040880200010206040C0C0C0C0406D9
:101E7000020100400000004010000020801000041B
:101E800081404088028040820800010206040C0C58
:101E90000C0C04060201001080000000400000004D
:101EA0002000000490404091048040910400010211
:101EB00006040C0C0C0C040602010910000048B0CA
:101EC000CCB0420000F008DFDB151B1F08F000005B
:101ED00080E862C0D00000F008DFD41B141F08F0B7
:101EE000000080E872C0D00000F008DFD41B141F8F
:101EF00008F0000002B058A4F00000F008DFDF1581
:101F00001E1F08F0091B0000805C7B5C00000006BF
:101F10000910202020100800000000000000000030
:101F2000000000000000000000000000805C7B5CFE
:101F300000000006C91020202010080000FF00004B
:101F4000000000000004010000000000000000008C
:101F5000805C7B5C00000006C910A02020100800F7
:101F600000FF00FF00000000000401040100000069
:101F700000000000805C7B5C00000006C910A0200F
:101F8000A010080000FF00FF00FF00000004010493
:101F90000104010000000000805C7B5C0000000682
:101FA000C910A020A010C80000FF00FF00FF00FF24
:101FB00000040104010401040100283800000000AD
:101FC0000000000000000000000000000000000011
:101FD00000804018B4BC180008D0B02040808000B9
:101FE00000000000000000000000000000000000F1
:101FF00000006090904A0408010000000003070CF4
:102000003973E898141415D3D6140C180000000086
:1020100000000000000000000000000000000000C0
:10202000000000000000000000000103071C38F35E
:10203000CD940A0A0000000000000000000000002B
:102040000000000000000000000000000000000090
:10205000000000000000000001030F1E000000004F
:102060000000000000000000000000000000000070
:102070000000000000000000000000000000000060
:102080000000000000000000000000000000000050
:102090000000000000000000000000000000000040
:1020A0000000000000000000000000000000000030
:1020B0000000000000000000000000000000000020
:1020C0000000000000000000000000000000000010
:1020D0000000000000000000000000000000000000
:1020E00000000000000000000000009834BC180050
:1020F00008D0B020408080000000000000000000F8
:1021000000000000000000000000000000008084CB
:10211000681026010003070C3973E898141415D3CE
:10212000D6140C18000000000000000000000000A1
:102130000000000000030404020000000000000092
:1021400000000103071C38F3CD940A0A00000000C8
:10215000000000000000000000000000000000007F
:10216000000000000000000000000000000000006F
:1021700001030F1E0000000000000000000000002E
:10218000000000000000000000000000000000004F
:10219000000000000000000000000000000000003F
:1021A000000000000000000000000000000000002F
:1021B000000000000000000000000000000000001F
:1021C000000000000000000000000000000000000F
:1021D00000000000000000000000000000000000FF
:1021E00000000000000000000000000000000000EF
:1021F00000000000000000000000000000000000DF
:1022000000000018B4BC180008D0B0204080800046
:1022100000000000000000000000000000000000BE
:10222000000000000000000000000040DE43070C3A
:102230003973E898141415D3D6140C180000000054
:10224000000000000000000000000000000000008E
:102250000000000C1310080000000103071C38F3F5
:10226000CD940A0A000000000000000000000000F9
:10227000000000000000000000000000000000005E
:10228000000000000000000001030F1E000000001D
:10229000000000000000000000000000000000003E
:1022A000000000000000000000000000000000002E
:1022B000000000000000000000000000000000001E
:1022C000000000000000000000000000000000000E
:1022D00000000000000000000000000000000000FE
:1022E00000000000000000000000000000000000EE
:1022F00000000000000000000000000000000000DE
:1023000000000000000000000000000000000000CD
:1023100000000000000000000000000000000000BD
:1023200000000000000000000000000000000000AD
:1023300000000000008040200C1A1ECCC0828A36AB
:10234000E48444A84818D0901020202040404080C9
:102350008080000000000030484825020400000092
:10236000000000000101030307070F0C1C1838339D
:102370007E78F4CAC582810E7CE001010000000075
:10238000000000000000000000000000000000004D
:102390000000000000000000000000000101030335
:1023A00007070F0C00000000000000000000000004
:1023B000000000000000000000000000000000001D
:1023C000000000000000000000000000000000000D
:1023D00000000000000000000000000000000000FD
:1023E00000000000000000000000000000000000ED
:1023F00000000000000000000000000000000000DD
:1024000000000000000000000000000000000000CC
:1024100000000000000000000000000000000000BC
:1024200000000000000000000000000000000000AC
:10243000000000000000000000000000000000009C
:10244000000000000000000000000000000000008C
:10245000CC1A1ECCC0828A36E48444A84818D09096
:1024600010202020404040808080000000000000BC
:1024700000008040423408132000000001010303E3
:1024800007070F0C1C1838337E78F4CAC582810EFA
:102490007CE00101000000000000010202010000D8
:1024A000000000000000000000000000000000002C
:1024B000000000000101030307070F0C00000000EB
:1024C000000000000000000000000000000000000C
:1024D00000000000000000000000000000000000FC
:1024E00000000000000000000000000000000000EC
:1024F00000000000000000000000000000000000DC
:1025000000000000000000000000000000000000CB
:1025100000000000000000000000000000000000BB
:1025200000000000000000000000000000000000AB
:10253000000000000000000000000000000000009B
:10254000000000000000000000000000000000008B
:10255000000000000000000000000000000000007B
:1025600000000000000000000CDA1ECCC0828A3699
:10257000E48444A84818D090102020204040408097
:10258000808000000000000000000000000000004B
:10259000887B08000101030307070F0C1C18383360
:1025A0007E78F4CAC582810E7CE001010000000043
:1025B0000000000000000000010202010000000015
:1025C0000000000000000000000000000101030303
:1025D00007070F0C000000000000000000000000D2
:1025E00000000000000000000000000000000000EB
:1025F00000000000000000000000000000000000DB
:1026000000000000000000000000000000000000CA
:1026100000000000000000000000000000000000BA
:1026200000000000000000000000000000000000AA
:10263000000000000000000000000000000000009A
:10264000000000000000000000000000000000008A
:10265000000000000000000000000000000000007A
:10266000000000000000000000000000000000006A
:10267000000000000000000000000000000000005A
:102680000C1ADE0CC0828A36E48444A84818D09024
:10269000102020204040408080800000000000008A
:1026A0000000000000000000000020139869058170
:1026B00007070F0C1C1838337E78F4CAC582810EC8
:1026C0007CE00101000000000000000000000000AC
:1026D00000000000010202010000000000000000F4
:1026E000000000000101030307070F0C00000000B9
:1026F00000000000000000000000000000000000DA
:1027000000000000000000000000000000000000C9
:1027100000000000000000000000000000000000B9
:1027200000000000000000000000000000000000A9
:102730000000000000000000000000000000000099
:102740000000000000000000000000000000000089
:102750000000000000000000000000000000000079
:102760000000000000000000000000000000000069
:102770000000000000000000000000000000000059
:102780000000000000000000000000000000000049
:1027900000000000000000000C1A1E4CC0028A3627
:1027A000A40444A84818D090102020204040408025
:1027B0008080000000000000000000000000000019
:1027C00000000000080402056893876C0C18383379
:1027D0007E78F4CAC582810E7CE001010000000011
:1027E00000000000000000000000000000000000E9
:1027F00000000000000000000000000001010303D1
:1028000007070F0C0000000000000000000000009F
:1028100000000000000000000000000000000000B8
:1028200000000000000000000000000000000000A8
:102830000000000000000000000000000000000098
:102840000000000000000000000000000000000088
:102850000000000000000000000000000000000078
:102860000000000000000000000000000000000068
:102870000000000000000000000000000000000058
:102880000000000000000000000000000000000048
:102890000000000000000000000000000000000038
:1028A0000000000000000000000000000000000028
:1028B0000000000000000000000000000000000018
:1028C0000000000000000000000000000000000008
:1028D0000000008040C08020A0A0202020A020D0A8
:1028E000D09010101010109050906868C888080898
:1028F0000808080800000000000000017B03010830
:102900000C0D0F0E0D0E1D1818191B1E1C1A1D1A6A
:1029100019181010303133363C38343A00000000BA
:10292000000000314F4120000000000000000000C6
:102930000000000000000000000000000000000097
:102940000000000000000000000000000000000087
:102950000000000000000000000000000000000077
:102960000000000000000000000000000000000067
:102970000000000000000000000000000000000057
:102980000000000000000000000000000000000047
:102990000000000000000000000000000000000037
:1029A0000000000000000000000000000000000027
:1029B0000000000000000000000000000000000017
:1029C0000000000000000000000000000000000007
:1029D00000000000000000000000000000000000F7
:1029E00000000000000000000000000000000000E7
:1029F00000000000000000000000000000000000D7
:102A00000000008080C0C06060303018000000000E
:102A100000000000000000000000008080C0C060D6
:102A2000603030B8188C6CE6C68383E119E4168CEC
:102A30008C985874000000000000000000000000A6
:102A400018B43C19012022261C1816090E0904048A
:102A50000403030301010100000000000000000066
:102A60000000000000000000887B0800000000005B
:102A70000000000000000000000000000000000056
:102A80000000000000000000000000000000000046
:102A90000102020100000000000000000000000030
:102AA000000000000000000000000000140203030A
:102AB00000030303000303030003030300030303F2
:102AC00000031402010000000100000001000000EA
:102AD00001000000010000000707000707070007CA
:102AE000070700070707000707070007140302008E
:102AF00000000200000002000000020000000200CE
:102B000000000B0BF83878E8D0A000A0100C0C07E0
:102B100004040405070707000000F83878E0C8A49B
:102B200043830000000704040405070707000000B2
:102B3000FFFFFFFCFCFCFCFCFFFFFFFFFFFFFFFFB4
:102B4000FFFFFFFFFFFF0707070101010101070763
:102B5000070B1300FE48484848484848FE0000FF5D
:102B600092929292929292FF000003000000000065
:102B70000000030019100101070505070303030303
:102B8000030303030303030303070505070404000A
:102B90000000000000000000000000000000000035
:102BA00000000000000000000404070505070303FF
:102BB00003030303030303030303030705050701DB
:102BC0000100000000000000000000000000000004
:102BD00000000000000000000000010107050507DB
:102BE00003030303030303030303030303070505AD
:102BF00007010100000000000000000000000000CC
:102C000000000000000000000000000001010F0BA8
:102C10000A0E060606040C0C0C081818181870503A
:102C20005070404000000000000000000000000064
:102C30000000000000000000000000000000004054
:102C4000407050507018181818080C0C0C04060628
:102C5000060E0A0B0F01010000000000000000003A
:102C60000000000000000000000000000000000064
:102C700001070B0A0E06040C0C081818103030203F
:102C8000E06040C000000000000000000000000004
:102C9000000000000000000000000101010101002F
:102CA00000000000000000C04060E020303010183C
:102CB00018080C0C04060E0A0B07010000000101A5
:102CC0000101010000000000000000000000000001
:102CD0000000000019362C183060C0800000000091
:102CE00000000000000000000000000000000000E4
:102CF000000000000103066CD8B0608000000000F6
:102D000000000000000000000000000000000000C3
:102D10000000000000000080C06030182C36190050
:102D20000000000000000000008060B0D86C0603C6
:102D300001000000000000000D08252D3931293167
:102D4000252D39312931210C08627A7A62627A7A2A
:102D500062627A7A620B08878F9DB7E7C7A5D7AF03
:102D6000978D0019010400050F040C1804042418A1
:102D700005043C18060409430004134200041D41E5
:102D8000000427400004313F00043B3E0004453D61
:102D90000004092F0304152F0104212F01042D2FF6
:102DA0000104392F0104452F0104174B0104234B63
:102DB0000104575001045F500104634901046F4945
:102DC00001047B4901046A500E04573F0104633F2C
:102DD00001046F3F01047B3F0104FB6C0104166C8E
:102DE0000104226C01042E6C0104326C01044F6C4E
:102DF0000104005C00040A5D0004145E00041E5F10
:102E0000000428600004326100043C620004466350
:102E10000004506400045A650004717002047D705F
:102E200002040A850004148400041E83000428821E
:102E30000004328100043C800004467F0004507E80
:102E400000045A7D0004647C0004094A03045B6AA0
:102E50000304FC2F01040024070400440905144462
:102E60000805284508053C460805504708056448FC
:102E7000080578490805580A0A0455000B04007A29
:102E80000C04007A0D0279851202728511026B859D
:102E9000100200000004010204081020408000001D
:102EA0005401DC03B40000004A011704B400000020
:102EB0004A017003B40000004A017003B40000002E
:102EC0009F00DC03B40000009F00DC03B40100009D
:102ED0004A001704B40000004A017003B400000067
:102EE0009F00BA02540100001200BA02AA000000BA
:102EF00012009302AA0000005D004B026203000072
:102F0000EE0200005401DC03B40000004A01170483
:102F1000B40000004A017003B40000004A017003CD
:102F2000B40000009F00DC03B40000009F00DC033D
:102F3000B40100004A001704B40000004A01700305
:102F4000B40000009F00BA02540100001200BA024F
:102F5000AA00000012009302AA0000005D004B02CC
:102F600062030000EE0200800601FA00B801FA00D8
:102F70008801FA00B801FA000601FA00B8017D00E4
:102F800088017701B801FA003701FA000B02FA0054
:102F9000D201FA000B02FA003701FA000B027D00A1
:102FA000D20177010B02FA005D01FA00BA02FA00C1
:102FB0006E02FA00BA02FA009F01FA00BA027D001E
:102FC0006E027701BA02FA000B027D000B027D004F
:102FD0000B027D000B027D00D201FA000B02FA0009
:102FE0000000FA000B027D000B027D000B027D0049
:102FF0000B027D00008021080F0F08080006090B56
:1030000006000E03030E000F090F06000F0F000F3E
:1030100002030F000E0F090D000E10BEBDBEBDBE97
:10302000BDBEBDBEBDBEBDBE0000040004000400A8
:10303000040004000400004E080F0D0702000F05F5
:103040000F0A000F0D0900020B0D00020B0D00000E
:103050000000000F0D0702000F0F0808000E030309
:103060000E00030E0E0300000006090B06000F02FF
:10307000030F00000000010F0F010E03030E000FED
:103080000D0702000F0D090E10A7C7A7C7A7C7A7F6
:10309000C7A7C7A7C7A700070707070707070707A7
:1030A000070707070024080E1F1F1F0E000000005F
:1030B000000000000000001F0E04000000000000DF
:1030C000000000040E1F00040E1F00682F9E2EFF3C
:1030D000FFFFFFFFFFFFFFFFFFFFFFFFFFFFFFFF00
:1030E000FFFFFFFFFFFFFFFFFFFFFFFFFFFFFFFFF0
:1030F000FFFFFFFFFFFFFFFFFFFFFFFFFFFFFFFFE0
:10310000FFFFFFFFFFFFFFFFFFFFFFFFFFFFFFFFCF
:10311000FFFFFFFFFFFFFFFFFFFFFFFFFFFFFFFFBF
:10312000FFFFFFFFFFFFFFFFFFFFFFFFFFFFFFFFAF
:10313000FFFFFFFFFFFFFFFFFFFFFFFFFFFFFFFF9F
:10314000FFFFFFFFFFFFFFFFFFFFFFFFFFFFFFFF8F
:10315000FFFFFFFFFFFFFF4410000000000000BC66
:103160007EC7EBEDEBC77EBC00003C2C003814386A
:103170000008241000043804000000000000BC7E99
:10318000C1D5D5D5CB7EBC00003C103C00381438EE
:10319000003C1428003C241800000000000000003F
:1031A0000000000001020202020201000000000013
:1031B000000000000000000000000000000000000F
:1031C00000000001020202020201000000000000F3
:1031D00000000000000000000000000000000000EF
:1031E00000387CFEFFFFFFFE7C380000000101017B
:1031F000000000090900385482D6825438000000CB
:103200000000000000000000384CC29286643800C4
:103210000000000000000000000038648692C24CEC
:1032200038000000000000000000006934000000C9
:1032300000000000FC02FDFDFDFDFDFDFDFDFDFDAE
:1032400002FDFDFDFDFDFDFDFDFDFD027C90E8F4B0
:10325000FAFDFDFDFDFDFDFDFDFDFDFAF4E890FC30
:1032600002FDFDFDFDFDFDFDFDFDF3CC02FDFDFDBF
:10327000FDFDFDFDFDFDFDFD02DCE8F4FAFDFDFDBB
:10328000FDFDFDFDFDFDFDFAF4E8D020C0000000CD
:10329000000000000000000000000000000001FE2F
:1032A00000FFBF7F7F3FBFBFBC7E7F7FBF7FB7CBAD
:1032B00035C20202FF00FFBF7FBF7FBFFF01FE00DC
:1032C00001FF7FBF7FBF7FFF00FFFE00FFBF7FBF0B
:1032D0007FBFFF7FFFBF7CB07FBF7FBF7FBFFF008F
:1032E000FE00FFBF7FBF7FBFFF00FE0EECAB6BABEE
:1032F0006BAB6BEB0CF30000000000000000000063
:10330000000000000000F008F7B0DFAAD08003350D
:103310004E7D6F15FAAFD5AAD7AED9B6F40FF08FA0
:103320007AD5AAD5AADFB8D7B4D8AFD5AAD5EA7DC1
:103330008FF00FF7B0DFAAD5AAD5AADFB0F1079DAD
:103340007AD5AAD5AAD5AAFF00FF40BF6AD5AAD5CB
:10335000AADFB0D7B4D3BED56A350A959F809F80C7
:103360008000000000000000000000000000003BA2
:1033700078EABA3A3A2ABA78B86B3A79EAB83A3A75
:103380002ABA7ABA6A3A78EBB8393A28BA7ABA6A73
:103390003A7AEABA3A3A28BA79B86B387AEABA3A53
:1033A0003A2ABA7ABA6A3A78EBBA383A2ABA7ABA80
:1033B0006A387BE8B8393A28BA7ABA6A3A3A0A00DF
:1033C000E01C8261BCB2A8A8B2BC61821CE0000013
:1033D00000000000000000000404040507060506C4
:1033E0000504040404040507060506050404040492
:1033F000040507060506050404040404050706057C
:10340000060504040404040507060506050404046F
:10341000040405070605060504040404040507065C
:103420000506050400001C62810972F4D16B9AF252
:10343000F29A6BD1F4720981621C901050D09010F6
:10344000901050D09010901050D09010901050D0FC
:103450009010901050D09010901050D0901090106C
:1034600050D09010901050D09010901050D09010DC
:10347000901050D09010901050D09010901050D0CC
:103480009010901050D090109050D09010901050FC
:10349000D6921594141655D09010901556D49415B4
:1034A0009216100203020203030203020203030244
:1034B00003020203030203020203030203020203E4
:1034C00003020302020303020302020303020302D4
:1034D00002030302030202030302030202030302C4
:1034E00003020203030203020203030203020203B4
:1034F00003020202030302030202030302030202A5
:103500000203030203020203030203020E31112429
:103510001FBECFEFDAE0DEBFCDBF11E0A0E0B1E02B
:10352000EAE7FDE602C005900D92A436B107D9F78F
:1035300026E0A4E6B1E001C01D92AD36B207E1F786
:103540001AE1C7E8DAE104C02197FE010E948F3535
:10355000C638D107C9F70E94CE310C94BB360C9403
:1035600000002F923F924F925F926F927F928F92C4
:103570009F92AF92BF92CF92DF92EF92FF920F9302
:103580001F93CF93DF93CDB7DEB765970FB6F8944F
:10359000DEBF0FBECDBF8C016B01DB011996BC9065
:1035A00019971A96BC91BD8BFC0182818111C4C010
:1035B0007801FDE4EF0EF11CD70119968C91811171
:1035C000BBC0980123593F4F398B288BD9018C916F
:1035D000882359F1F6012781308520FDC6C6F70101
:1035E00082818111D2C3D7011A968C911A978111C9
:1035F00060C11B969C9191115CC1D70113968C916F
:10360000BB2DB074AB2E86FDD1C3A110DAC3AB2C99
:10361000A5FCE3C3A4FCEEC3A7FCF2C3F801E15987
:10362000FF4F8081882309F4F0C33701D701149636
:10363000AC90F601878180FF4AC198012F5E3F4F11
:103640003B8B2A8BD80154968C91F801E95BFF4F94
:103650001F01863209F445C18F3309F47FC68D30CE
:1036600009F4B1C59FEF863209F4AEC58F3309F472
:10367000ABC58D3009F4A8C5F6018781908566E059
:1036800070E00E946735892B41F44801FAE18F0E02
:10369000911C8214930409F026C1F60183898130BC
:1036A00009F40DC2D60153968C91813091F4D10169
:1036B000F10180E06E167F0609F078C290E0A61551
:1036C000B70509F078C2882309F483C2813009F470
:1036D0007DC2F6018781908583709927892B09F433
:1036E00086C2D80159968C915997882309F4B3C2A0
:1036F00054968C91863208F490C2873208F098C2B2
:10370000F8017A962E163F0609F022C3D6011796C5
:103710008D919C91189766E070E00E946735892B27
:1037200009F41DC3F601878190856CE070E00E946A
:103730006735892B09F41EC3D60152968C91529796
:10374000811107C081E054968C93F801E359FF4F33
:1037500010824801BEE68B0E911CF401F080F3E666
:10376000FF15C8F022E0F21608F042C031E0F31273
:1037700042C0C801835B9F4F0E94772BF801E35939
:10378000FF4FF082F4011082F801ED58FF4F1082D4
:103790003F97F18230C044E6F4122AC081E0F8017C
:1037A000ED58FF4F808360E070E0C801835B9F4F5E
:1037B0000E945C2BF8017A96C801895B9F4FE8173D
:1037C000F90741F020812B3A18F0108212821382FF
:1037D0003596F5CFF801EA59FF4F8081811103C07A
:1037E000C8010E94952BF40180818150808303C021
:1037F000FA94D401FC927801FFE6EF0EF11CD70198
:103800008C91882311F081508C93F801E359FF4F7C
:103810008081D60154962C91811125C0211123C09D
:103820008D898095B8228B2D8C7009F4A3C581E019
:10383000808336961082F4011082C801835B9F4F0B
:103840000E94772BF801E15AFF4F1082138201800A
:10385000F281E02D82E0818384E18483B3FE8AC516
:10386000D7018C9387C5F601828580959185892340
:103870002223B9F083FF7EC583E884BD8FEF87BD27
:1038800081EF809380001092880010928A000E943D
:10389000A32285E0D60156968C93569757961C9294
:1038A00069C582FF67C5F801928181E0892782831B
:1038B00061C5F7019385911172C2882329F02370A5
:1038C0003327232B09F4DAC23701F701A48048011A
:1038D000F9E58F0E911CD40115968C918111ADCE16
:1038E0000DC491E071C4D40112968C91882309F41F
:1038F000E2C0E889F9898081882309F43FC0D701B3
:1039000012968C91882309F439C0D4018C91B4E0CB
:103910008B9FC0011124FC01EE52FF4F24912C8B90
:10392000FC01ED52FF4F5490D7018D919C91B5E071
:10393000B89FF001B99FF00D1124E855F84E44905E
:10394000F7014682C3010E94422B2C89E22F220FED
:10395000FF0B242D30E0E217F30781F4082E000C52
:10396000990B5A188519910957FC9395099734F4C6
:10397000F601808991890196918B808BC3010E9409
:10398000CC2B29833A834B835C836D837E83D40164
:103990008C91B4E08B9FC00111249C012E523F4FAB
:1039A000F90144918D529F4FFC014491A889B98936
:1039B0004C914423A9F1F9012491FC01F491FC8B71
:1039C000422E220F5508C3010E94CC2B2F8338872B
:1039D00049875A876B877C872F813885A901460FD5
:1039E000511DC201019684179507D4F40796281734
:1039F0003907B4F45C885A18852D550C990B298524
:103A00003A85A901470F511DBA01AC014F5F5F4FC5
:103A1000461757072CF40896281739070CF4A0C44A
:103A2000D4018C91B4E08B9FF0011124EB52FF4F35
:103A300094918F5FE82FE90FD401EC93B4E0EB9FF2
:103A4000C0011124FC01EE52FF4F2491FC01ED5204
:103A5000FF4F8491211105C0811103C0F401108230
:103A60001282D401EC91B4E0EB9FF0011124EC52EE
:103A7000FF4FE491D4011496EC931497EE2359F080
:103A8000E130C9F411968C9111978F5F833089F4DE
:103A9000F401118210C0D40111968C9111978111FB
:103AA00003C0E3E01196EC93D40111968C91119729
:103AB000815011968C93B5E08B0E911CEACD8781D5
:103AC00090856AE070E00E946735892B09F0EACDA5
:103AD00071016E147F0409F4E5CDD7018C91882320
:103AE00009F460C011968C9111978F5F11968C9399
:103AF000B3E08B9FC0011124FC01EE5BFB4F2491CE
:103B0000FC01ED5BFB4F8491211105C0811103C0C5
:103B1000F70110821182A889B9898C91882309F450
:103B200041C0F7018181F3E08F9FC0011124FC01A6
:103B3000EE5BFB4F8490FC01ED5BFB4F5490082C37
:103B4000000C9908C3010E94CC2B29833A834B8334
:103B50005C836D837E8389819A81AC01460F511D00
:103B600094012F5F3F4F24173507E4F425E1820EBF
:103B7000911C88159905B4F45A18E52DF0E08B8155
:103B80009C81AC01470F511D9F012C5F3F4F2417B3
:103B9000350744F438968E179F0724F4B601C80100
:103BA0000E94B12B33E0E30EF11C93CF9081911171
:103BB0008F5F33967FCD2C91222331F011962C917B
:103BC0001197921708F4922F139679CD933308F436
:103BD00080CD0E94533422E330E040E050E00E9468
:103BE000F834672B682B692B09F48DC372CDF8016B
:103BF000E15AFF4F8381882309F473CD813051F45A
:103C0000138210820180F281E02D82E0818384E1C1
:103C1000848367CD8150838364CD8E30B8F48D303A
:103C200009F06ECD88E0F801868B8EE0848B68CD3C
:103C30008F3360F08F3309F063CD84E0D80156965E
:103C40008C9356978EE354968C935ACD8A899B8990
:103C50000E946F2255CDF8018389882339F0815065
:103C6000838B81112AC088E2828B27C082898823B6
:103C700021F18150828B811120C08489863221F00C
:103C80008F3321F080E003C081E001C082E0D801E1
:103C90005796ED91FC91589720910A0130910B01B4
:103CA00040910C012D873E874F87DE01A80FB11D83
:103CB0001D968C91808381E08283F801818988231D
:103CC00011F0815043C08489863271F020F48D3028
:103CD00049F0F8F415CD8F33E0F08F3309F010CDB3
:103CE00084E015C088E013C00E94533422E030E025
:103CF00040E050E00E94F834672B682B692B11F4E8
:103D000084E001C088E0D80156968C9302C0F80187
:103D1000868B8A899B890E946F22D80154968C9148
:103D2000863229F08F3319F08D3009F0E9CC0E94EA
:103D3000533422E830E040E050E00E94F834DC01E7
:103D4000CB018A5B9F4FAF4FBF4FF801818BD8CC1F
:103D50008381882311F0815083833596D3CCF80179
:103D6000ED59FF4F80818F5F843011F08083DACC72
:103D70001082D8CCF801EC59FF4F80818F5F8330DF
:103D800011F08083D9CC1082D7CC883220F48F5F99
:103D9000F70182834ACCD70112961C9246CCA90126
:103DA00043705527452B09F45EC087CDB5FE02C090
:103DB00082FD37C0AA20E1F0F701838183FD15C0A1
:103DC00017C0B3FE32C087FF30C081E0F7018287A1
:103DD000C7010E94072CA12C1BCCF701838182FF15
:103DE000ACC2C7010E94232CA8C2C7010E94232C89
:103DF000AB2C10CCD70113968C9181FD2CC00CCC30
:103E0000F701838180FD2BC009CCA3FE0ECCD70126
:103E100013968C9184FF09CC81E0D70112968C9384
:103E200004CCC7010E94072CC5CF83FFF0CBD7017C
:103E30008D919C9111978439910549F481E01B96ED
:103E40008C936AED70E0C7010E945C2BE0CBC70148
:103E50000E94072CDCCBC7010E94232CDDCBC701BD
:103E60000E94072CDBCBF701808191818E3E91056A
:103E7000B9F5B601C8010E94B12BD7CBD601539634
:103E80008C91813009F437C134E0532ED7016D9005
:103E90007C904801B9E58B0E911CF401A080C30110
:103EA000805A9109879700F1BBEA6B16710409F4F7
:103EB000B1C008F046C0F3EA6F16710409F494C06B
:103EC00080F538E96316710409F477C04FE9641688
:103ED000710409F480C057E96516710409F45EC0E5
:103EE000C7010E94072CA1CB3D9680818111DCCFB8
:103EF000C80189599F4F0E944522C80187599F4F89
:103F00000E944522C80185599F4F0E944522D80131
:103F100055968C9155978F3038F68F5F55968C93C8
:103F2000C3CF85EA6816710409F46DC008F486C031
:103F3000A8EA6A167104A1F6C7010E94072C85E061
:103F40007AC0B9ED6B16710409F493CFA0F4F7EBC6
:103F50006F16710409F463C027EC6216710409F44A
:103F600074C03EEA6316710409F0BACFC7010E941B
:103F7000072C89E060C043E3641641E0740609F44D
:103F80007BC05AE3651651E0750609F49DC087E2CF
:103F9000681681E0780609F0A3CF73C093E09A1504
:103FA00008F09ECF5A1408F49BCF81E0D4011596F7
:103FB0008C93C7010E94072C93CFB2E0BA1510F47E
:103FC0005A1418F468EC70E032C084E0F401808385
:103FD00081E0858385CFC7010E94072CD4011C9204
:103FE00081E0F801818F21CBC7010E94072C81E07D
:103FF000D4018C93F801EA59FF4F8081882309F49A
:1040000014CB815005C0C7010E94072C82E0F40147
:1040100080830BCBC7010E94072C88E0F8CFF80102
:10402000EA59FF4F808181115BCF60EF70E0C701DB
:104030000E945C2BFACAD4018C93F7CAF6018089DE
:1040400091894496918B808B4BCF88ECF801E25993
:10405000FF4F80833F97108213820180F281E02D11
:1040600082E0818384E18483F801ED58FF4F108260
:10407000A889B9891C92D9CAF801EC59FF4F11825D
:104080002FCFF60180899189C296918B808BC701D1
:104090000E94072CF801EF58FF4F8081893010F4FF
:1040A0008F5F8083F801EE58FF4F6081603508F024
:1040B000BCCA6F5F608370E088EE93E00E947B353E
:1040C000D6011B966C93B1CA88ECF801E259FF4FF8
:1040D00080833F97108213820180F281E02D82E07D
:1040E000818384E18483F801ED58FF4F1082E889D1
:1040F000F98910829ACA83E0582EC8CEF4019181C2
:104100009230C1F5D40114962C9114978C912223EE
:1041100089F0215014962C9314978350853008F021
:104120008CCA13968C91823009F487CAC4010E940C
:104130007D2283CA8830C9F018F4833088F47DCAA0
:10414000893009F07ACAF40193838AE0848311826A
:1041500074CA80818830A9F148F1893009F06DCAAC
:1041600088E0F401808384E119C089E0D4018C9354
:1041700084E109C0933051F4D40114968C911497C2
:10418000882371F0815014968C9357CA913009F0AE
:1041900054CAF40184818823E1F2815084834DCA9A
:1041A000C4010E947D228AE0F401F8CF833008F434
:1041B00044CA82E0F40183838AE0848383E08183BC
:1041C0003CCA85E0D3CF90E0D80151968C918D33D5
:1041D00008F452CAD80153968C91539781114CCA56
:1041E00052968C91811148CA4801BAE18B0E911CFC
:1041F000F40181E0D801A059BF4FE215F30509F49D
:1042000058C02281222309F452C09130F1F018F0F5
:104210009230C1F14CC050802C91521608F446C027
:1042200030E0652D70E0A901495D5F4F46175707E3
:104230001CF44AE34515D0F5265F3F4F2617370794
:10424000B4F55DE1551598F131C020812B3318F09C
:104250002E3460F102C02E3150F0622F70E04C918C
:1042600050E0425E5F4F4617570704F502C0222315
:10427000F1F030E04C9150E04F5F5F4F4217530731
:10428000B4F014C060816B3318F06E3478F002C063
:104290006E3148F0462F50E02C9130E0245C3F4FC7
:1042A000241735071CF42C91261708F080E035966A
:1042B000A4CF882309F4E0C98214930409F4DCC96B
:1042C000D40112968C911297811119C013968C917A
:1042D000811115C00E9453342CE130E040E050E0E1
:1042E0000E94F834DC01CB010296A11DB11DF4013E
:1042F0008383F801908E878A128A838BBDC9F5E08B
:104300008F0E911CD9CFD1018C91882349F0F801EF
:10431000E65BFF4F8081882311F08FEF01C081E0C1
:1043200090E0FC01EE0FFF1FE80FF91FE00FF11FF7
:10433000E95BFF4F81E08083CCC9F701838185FF72
:1043400069C981E0F801E15AFF4F80839CE89383BB
:1043500036971582818384E184835CC992E034CFEF
:10436000B601C8010E94B12B5BCB3701D70114966F
:10437000AC9063C965960FB6F894DEBF0FBECDBF93
:10438000DF91CF911F910F91FF90EF90DF90CF9031
:10439000BF90AF909F908F907F906F905F904F9065
:1043A0003F902F90089580915102E0915402F09136
:1043B0005502882351F0CF010296909355028093C5
:1043C0005402E4918E2F90E00895CF0102969093CD
:1043D0005502809354028081918108950895089533
:1043E000089508950895089508950C942D360C9419
:1043F0002D360C942D360C942D360C942D360C94B1
:104400002D36FC018081813099F050F08230C9F462
:10441000E18183E0E89FF0011124EB5AFA4F0FC0CD
:10442000E18183E0E89FF0011124EC5CFA4F07C0C2
:10443000E18183E0E89FF0011124E656FA4F849170
:10444000089580E00895FC018081813099F050F05A
:104450008230C9F4E18183E0E89FF0011124EC5A35
:10446000FA4F0FC0E18183E0E89FF0011124ED5C79
:10447000FA4F07C0E18183E0E89FF0011124E7567D
:10448000FA4F8491089580E00895DC0111968C9193
:104490001197E1E0E80F1196EC9311979C91913000
:1044A00059F018F0923079F0089593E0E99FF00107
:1044B0001124EB5CFA4F0DC093E0E99FF001112449
:1044C000E556FA4F06C093E0E99FF0011124EA5A3D
:1044D000FA4FE491E93011F411968C930895FC01A0
:1044E0008581843019F0883021F0089583818150CE
:1044F00002C083818F5F83830895FC0182818430B1
:1045000019F0883061F017C08381882321F085304D
:1045100090F481500DC081E0838388E00BC08381DB
:10452000843028F0843039F493E0938303C08F5FA4
:10453000838301C0828380818350853018F4838116
:104540008D5F80830895E1E7F0E080818D7F808337
:1045500010929100469847981092560208951F9223
:104560000F920FB60F921124CF92DF92EF92FF922B
:104570000F931F932F933F934F935F936F937F936B
:104580008F939F93AF93BF93CF93DF93EF93FF935B
:104590008091590290915A02A0915B02B0915C0205
:1045A000892B8A2B8B2B89F18091580281110BC0AA
:1045B00098B180E4892788B980915702882319F03F
:1045C00088B1805888B98091590290915A02A0917F
:1045D0005B02B0915C02181619061A061B060CF055
:1045E000A4C08091590290915A02A0915B02B091AF
:1045F0005C020197A109B1098093590290935A0274
:10460000A0935B02B0935C0290C00E94D3218115FD
:1046100020E8920719F40E94A32287C021E020938A
:104620005602813020E8920731F410925502109220
:1046300054020E94D32197FD05C0209153022223EA
:1046400009F43FC02091520221113BC021E0209388
:104650005702EC01DF77209769F481E080935802DC
:1046600046983FE9C32E3FE0D32EE12CF12CCAEF50
:10467000D0E014C08E0120E030E060E472E48FE00E
:1046800090E0A90198010E94F83469017A0181E063
:10469000C81AD108E108F10810925802E0916606A4
:1046A000F09167060995811103C081E0809358025B
:1046B000809157028823B9F180915802811133C04B
:1046C00003C010925702C5CF46992DC0479A0E9449
:1046D000D321009771F09C01DE010E944C35DC0172
:1046E000CB0129E0B595A795979587952A95D1F7A0
:1046F00003C08FEF9FEFDC01109290002AE020931F
:104700009100D0929900C0929800809359029093A2
:104710005A02A0935B02B0935C02809171008260A8
:104720008093710002C04798D2CFFF91EF91DF9143
:10473000CF91BF91AF919F918F917F916F915F9139
:104740004F913F912F911F910F91FF90EF90DF902C
:10475000CF900F900FBE0F901F9018952F923F9201
:104760004F925F926F927F928F929F92AF92BF9281
:10477000CF92DF92EF92FF920F931F93CF93DF932D
:1047800000D000D0CDB7DEB75C014B016C012DE449
:10479000C20ED11CD6011496FC90FB0127803084F8
:1047A00044E00E94E1292501FAE14F0E511C350138
:1047B00027E4620E711C4614570439F1D201129697
:1047C0008C9112978823E9F08C91B4E08B9FC00103
:1047D0001124FC01ED52FF4F6491FC01EE52FF4F9A
:1047E00084916F19062E000C770BE12CF2010181E8
:1047F00025E337E147E457E1082E000C990B0E94AE
:10480000BD2FF5E04F0E511CD6CFF501E359FF4FF8
:104810008081811108C0C10168E270E00E946735A3
:10482000853108F4C1C0D6018D919C91119725E086
:10483000289FF001299FF00D1124E555F84EE491D1
:1048400012960C911297011138C0E11141C01696D1
:104850009C91169715968C911597981307C001E0B7
:1048600018968C91843009F059C057C089178CF480
:10487000F60187818F5F878398E09087803109F404
:104880001782D60117960C9106950695000F0D5FBD
:1048900020C098170CF042C0F60187818F5F878394
:1048A00094E09087803109F41782D60117960C9115
:1048B00006950695000F0E5F0CC0F6019681858166
:1048C00098132BC08085843009F476C10BE026C094
:1048D0000E2F033118F4003108F146C0053108F0FD
:1048E00063C0C6010E94422BF60196819583208108
:1048F000318195E0929FF001939FF00D1124E855CE
:10490000F84EE491D6011696EC932DEE200F682F09
:10491000880F770B43EF54E142C000E0C6010E94CC
:10492000422BD60116969C91169715969C93159737
:104930002D913C91119795E0929FF001939FF00D7E
:104940001124E855F84EE4911696EC93682F880FE1
:10495000770BE02E23E735E143E556E18E2FEE0F8E
:10496000990B0E94BD2F20C0C6010E94422BF60168
:10497000968195832081318195E0929FF001939FEC
:10498000F00D1124E855F84EE491D6011696EC93FB
:1049900020EF200F682F880F770B4DE155E18E2F08
:1049A000EE0F990B0E943D2FD5015596EC9155972E
:1049B00054963C91ED3030F0EF3008F1EF3011F4C7
:1049C00018E022C0363249F020F43D3031F080F456
:1049D0001BC03F3368F03F33B9F4D50152968C9138
:1049E000882379F06AE00E945B3516E0181B0CC042
:1049F000D50156968C91883031F412E005C017E04D
:104A000003C010E001C011E0D50159968C918823B4
:104A100029F0F0E0EB5AF34FE49101C0E0E0EF1928
:104A200063E06E0F062E000C770B212F45ED52E14F
:104A3000832F90E00E943D2FF4018389813059F546
:104A40006C147D0441F1D3018C91882301F11196FE
:104A50008C91B3E08B9FC0011124FC01EC5BFB4FF8
:104A6000E4900491FC01ED5BFB4F6491FC01EE5B73
:104A7000FB4F84916F19062E000C770B2BEC31E164
:104A80004FE452E1082E000C990B0E94BD2FE3E089
:104A90006E0E711CD5CF42E0B401C5010E94E12920
:104AA000D40154968C9181111EC0F501ED58FF4F31
:104AB0008081882321F1E12C00E029E130E141EF00
:104AC00050E164E170E08BE190E00E94BD2FF401C1
:104AD0002289215041EE5FE067E170E08FE490E0D1
:104AE0000E943D2F1DC0E12C00E02DE83DE04EE688
:104AF0005EE064E170E089E190E00E94BD2FD501A5
:104B000012968C91882361F0E12C00E025E63CE0D0
:104B100048EF5CE064E170E087E290E00E94BD2F26
:104B2000E12C00E02BE73FE04DEA5FE060E070E061
:104B300086E690E00E94BD2F19821A821B821C8299
:104B4000F40180899189FE0131966E0125E0C20E43
:104B5000D11C2AE030E0B9010E9467358193CB0176
:104B6000EC15FD05C1F709E610E0D6012E916D01A7
:104B700041E55FE063E070E0C8010E943D2F0B5FFC
:104B80001F4F0D37110589F70F900F900F900F9061
:104B9000DF91CF911F910F91FF90EF90DF90CF9019
:104BA000BF90AF909F908F907F906F905F904F904D
:104BB0003F902F900C94BF290AE0B0CE2F923F92E5
:104BC0004F925F926F927F928F929F92AF92BF921D
:104BD000CF92DF92EF92FF920F931F93CF93DF93C9
:104BE000EC018C01015A1F4F875A9F4FD801129632
:104BF0009C938E9311970C970E94772BFE01EE5891
:104C0000FF4F83E480837E01B1E7EB0EF11C85E06A
:104C1000F701808333978DE78083D8011C92139628
:104C20001C9213971196ED91FC91129782E081836B
:104C300084E18483FE01ED58FF4F10826E01BDE6D2
:104C4000CB0ED11CF6011082CE010E94952BFE01E5
:104C50007A96CE01895B9F4FE817F90759F400E077
:104C60008FE5882E912CA12CB12C95E0392E222491
:104C700023942EC01082128213823596EDCF141722
:104C800009F454C0828DD901A81BB109CD01B7FF29
:104C900003C091958195910940970CF047C00E94FF
:104CA0005334A50194010E94F834695CF7015081E6
:104CB000FE0140E0262F30E04513E1CFD3016C9395
:104CC000F20120821F5FD7018C91181740F30F5F0C
:104CD000D7018C91081770F410E02E01309E400C23
:104CE000511C11243201BAE16B0E711CECE14E0E25
:104CF000511CE9CFF60110821A8281EE9EE2909358
:104D0000670680936606DF91CF911F910F91FF9008
:104D1000EF90DF90CF90BF90AF909F908F907F905B
:104D20006F905F904F903F902F9008954F5F359612
:104D3000C3CF2F923F924F925F926F927F928F924A
:104D40009F92AF92BF92CF92DF92EF92FF920F931A
:104D50001F93CF93DF93CDB7DEB728970FB6F894A4
:104D6000DEBF0FBECDBF5C01FC01858965018111ED
:104D700004C0F6E1CF0ED11C03C028E2C20ED11C44
:104D8000FB0147805084E12C00E023E839E04BEE42
:104D90005AE062E170E08DE190E00E94BD2F27E7CC
:104DA00037E04CE758E063E070E086E190E00E9475
:104DB000BD2F760108E110E03E01F7E06F0E711C97
:104DC0009E012F5F3F4F1901C701029698878F837D
:104DD00054E2852E912CEF81F8852191F887EF839D
:104DE0002F3311F0205401C020E041EE56E0B8010D
:104DF000C4010E944D2FF6E08F0E911C26E382160F
:104E0000910449F778866F8241E4842E912CF10158
:104E100026E011922A95E9F7F70180819181F1014D
:104E20006AE070E00E9467358193CB016E167F06C1
:104E3000B9F7EF81F8852291F887EF83255E41EE7F
:104E400056E0B801C4010E944D2FF5E08F0E911C71
:104E50002FE582169104D9F6075F1F4F36E0E30E67
:104E6000F11C0333110509F0AFCFF50101890F3FA4
:104E700009F46BC0C20168E270E00E9467358531B9
:104E800008F463C0C601F6E00F9F800D911D112448
:104E90009C012E5F3F4F290139E0039F80011124BF
:104EA000480187E1880E911CF5016288F6E06F9E4B
:104EB00030011124730123E2E20EF11C39E2630E8A
:104EC000711C015E1F4FE614F704F1F0640197FEB8
:104ED00002C0C12CD12CC8010134110514F080E4AA
:104EE00090E0C816D90664F480E8E816F10424F4CA
:104EF000B601C7010E94CF299FEFC91AD90AEBCF8B
:104F0000EFEFEE1AFE0ADFCFF5018289F201E80F1A
:104F1000F11D20812F3311F0205401C020E0F50154
:104F20006189F9E06F9FB0011124685E7F4F36E020
:104F3000839FC00111243BEFC32EE12C00E010E061
:104F400041EE56E084960E94AE2CF50181898F3F98
:104F500079F4848981110CC0E12C00E02BE536E066
:104F60004DE956E065E370E080E390E00E94BD2FDC
:104F7000E12CF50105892DEB35E041EF55E06BE1C2
:104F800070E082E090E00E94BD2F28960FB6F89462
:104F9000DEBF0FBECDBFDF91CF911F910F91FF906C
:104FA000EF90DF90CF90BF90AF909F908F907F90C9
:104FB0006F905F904F903F902F900C94BF29CF92AD
:104FC000DF92EF92FF921F93CF93DF93EC017B016F
:104FD000DB0119961C918D89FE01811102C0769624
:104FE00001C0B8962989D7012F3F09F480C01796D0
:104FF0008D919C9118976CE070E00E9467357C0160
:10500000892B09F093C0B6E02B9FE00DF11D112410
:10501000329617FF19C08A89DF01A80FB11D8C9144
:105020008F5F8C938A89DF01A80FB11D8C918B351E
:1050300014F081E48C938A89DF01A80FB11D8C9153
:10504000803411F481E48C9314FF10C08A89DF014D
:10505000A80FB11D8C9181508C938A89DF01A80F14
:10506000B11D8C91813414F48AE58C9315FF05C031
:105070008A89882311F081508A8B16FF05C08A899E
:10508000823010F48F5F8A8B13FF50C080818F3382
:1050900009F44CC081818F3309F448C082818F3379
:1050A00009F444C06F01F60161916F0129898D896E
:1050B000882319F089ED91E002C087EC91E0F6E0D9
:1050C0002F9F800D911D112497012E5F3F4F820F5E
:1050D000931F0E94D8343FEFE31AF30A43E0E4162B
:1050E000F10409F78FEF898B84E68C8B1FC01A9629
:1050F0008C91809581238C7099F08C89811110C0DE
:1051000083E884BD27BD81EF8093800010928800E2
:1051100010928A000E94A32282E0F701868B178AF0
:1051200015FD1D8A16FF02C081E08D8B10768B89DC
:105130001036E1F58F5F8B8B853108F445C08D33D8
:1051400010F18D3309F040C01B8A83E884BD8FEFD6
:1051500087BD81EF809380001092880010928A00B2
:105160000E94D33042E150E067EC71E0CE014696F8
:105170000E94AA3442E150E069ED71E0CE018896C8
:105180000E94AA3421C020E430E0A901481B510943
:10519000CA01880F93E894BD9FEF97BD91EF90935C
:1051A00080001092880080938A000EC0882361F0EE
:1051B00083E884BD8FEF87BD81EF809380001092DC
:1051C000880010928A001B8A8C89882311F08150F4
:1051D0008C8BDF91CF911F91FF90EF90DF90CF905C
:1051E00008952F923F924F925F926F927F928F928B
:1051F0009F92AF92BF92CF92DF92EF92FF920F9366
:105200001F93CF93DF9300D000D000D0CDB7DEB78F
:105210008C013B018EE0FB018387F801128A138A1F
:1052200084E6848BFB018389F801858BFB01408830
:1052300051884114510409F44FC0882329F029ED05
:10524000A22EBB24B39404C097ECA92EBB24B39424
:105250006501312CC6010E94C2344816590640F43B
:105260003394F6E0CF0ED11C83E03812F3CF34C074
:1052700045019CE0890E911C82E0282EFE013196AA
:105280007F013214B0F42A94B501F6E02F9E600D30
:10529000711D112446E050E0C7010E94AA3446E087
:1052A00050E0B401C7010E94C83486E0881A910812
:1052B000E8CF86E0F70111928A95E9F78FE38B83B7
:1052C0008C838D835A82498246E050E0B601C70143
:1052D0000E94C834832D01C08FEFF801818BF30148
:1052E0001286118642E150E067EC71E0C8014696F3
:1052F0000E94AA3442E150E069ED71E0C80188964D
:105300000E94AA3426960FB6F894DEBF0FBECDBF1A
:10531000DF91CF911F910F91FF90EF90DF90CF9091
:10532000BF90AF909F908F907F906F905F904F90C5
:105330003F902F900895FC018081813099F050F0CA
:105340008230C9F4E18183E0E89FF0011124EA5A38
:10535000FA4F0FC0E18183E0E89FF0011124EB5C7C
:10536000FA4F07C0E18183E0E89FF0011124E55680
:10537000FA4F8491089580E008950E94B636E1E6E0
:10538000F2E081E0A0E0B8E000800EBC8111012CC9
:105390001197A0FDFDCF0192B9F70DB40895E6E98C
:1053A000FEE290E1969FD001A0781124A80F6770CB
:1053B000E60FF11D9491AF59BD4F8C91982B9C93A2
:1053C00008952F923F924F925F926F927F928F92A9
:1053D0009F92AF92BF92CF92DF92EF92FF920F9384
:1053E0001F93CF93DF93CDB7DEB72A970FB6F8940C
:1053F000DEBF0FBECDBF5B01242EFC01E35BFF4F80
:10540000348022E6C22E2DE2D22E2C0124E6420E5A
:10541000511CDC01AD59BF4FBA83A9837996FC8337
:10542000EB839C01275A3F4F3E832D831497B88707
:10543000AF834C01BBE68B0E911C3C01E9E66E0E7E
:10544000711C225F3F4F3A872987F601F49031960D
:105450006491319684913196E4919E2F922109F4C2
:10546000EFC0D50153960C91013011F0E0FDE8C07A
:10547000162F131990E08331910508F0E1C0FC016B
:10548000EA5AFF4F0C948F35612F110F770B20E0F4
:1054900045E55DE2D0C0612F110F770B20E047E4B6
:1054A0005DE2C9C0612F110F770B20E048E35DE298
:1054B000C2C089859A850E942322E82E89859A8513
:1054C0000E940122082F89859A8526C0C3010E9467
:1054D0002322E82EC3010E940122082FC3010E944B
:1054E0009B29602F70E0610F711D17FD7A95EF2DDC
:1054F000FF0CFF0B282F44E75BE2CF018E199109C7
:10550000E7FC93959BC0C4010E942322E82EC401AE
:105510000E940122082FC4010E949B29602F70E085
:10552000610F711D17FD7A95EE2DEE0CFF0B282FE4
:1055300044E75BE2CF018F0D911DF7FC9A957EC089
:10554000612F110F770BE12C00E020E33BE241E5F6
:105550005BE255C0612F110F770BEF81F885208139
:1055600042E05BE268C0612F110F770BE12C00E095
:1055700028ED3AE24CEE5AE242C0612F110F770B50
:10558000E12C00E02CEA3AE242EC5AE238C0612F0A
:10559000110F770BAD81BE812C914AEB5FE14BC0BF
:1055A000612F110F770BEB81FC81208144E05FE1DB
:1055B00042C0612F110F770BA981BA812C914AEB60
:1055C0005EE139C0F20181818823D1F1612F110F91
:1055D000770B20814CE45EE12EC0612F110F770B19
:1055E000E12C00E026E23EE148E35EE108C0612FE5
:1055F000110F770BE12C22EE3DE148EF5DE18F2D9D
:10560000FF0C990B0E94BD2F1BC0D50152968C91A7
:105610008823B1F00AC0F5018289823030F410C0CD
:10562000D50152968C91833058F0612F110F770B72
:1056300020E049ED5DE18F2DFF0C990B0E943D2F7D
:10564000B4E0CB0ED11CE2E9FEE2EC15FD0509F059
:10565000FCCE2A960FB6F894DEBF0FBECDBFDF9109
:10566000CF911F910F91FF90EF90DF90CF90BF905F
:10567000AF909F908F907F906F905F904F903F90F2
:105680002F900895DC018D919C91119725E0289F22
:10569000F001299FF00D1124E755F84E94911296D0
:1056A000EC911297F0E0E158F84EE49114968C9149
:1056B000981B892F8E1B0895DC0111967C936E93A5
:1056C00085E0869F9001879F300D1124F901E455F4
:1056D000F84EE4911396EC931397F901E655F84EC2
:1056E000E4911496EC93149712961C920895CF931C
:1056F000DF93EC0160E070E00E945C2B1A82198657
:105700001A861B868881998125E0289FF001299FB0
:10571000F00D1124E855F84EE491EE838FEF8D8360
:1057200088E08887DF91CF910895FC01DC01A959B9
:10573000BF4F1C9211961C92119681E08C9311968A
:105740001C92119692E09C9311961C92118A128AD7
:10575000138A9DE0948B118E158AEA59FF4F80833E
:105760000895FC01E35BFF4F21E02187B096108292
:10577000319628EC2083359610827497108213821C
:105780000180F281E02D82E0818384E18483FB014A
:1057900082898150828B0895CF93DF9300D000D00F
:1057A00000D0CDB7DEB7DC018D919C91119725E03B
:1057B000289FA001299F500D1124FA01E855F84EA9
:1057C0002491FA01E755F84E44911296EC91129704
:1057D000F0E0E158F84EE49114968C91481B4E1B72
:1057E00030E03A832983042E000C550B5C834B83F5
:1057F0003A815C8167E07BE080E090E026960FB61E
:10580000F894DEBF0FBECDBFDF91CF910895DC01CC
:105810008D919C911197019611969C938E9345E0E2
:10582000489F9001499F300D1124F901E455F84E2D
:10583000E4911396EC931397F901E655F84EE49131
:105840001496EC930895DC018D919C91119701972A
:1058500011969C938E9345E0489F9001499F300D8F
:105860001124F901E455F84EE4911396EC93139743
:10587000F901E655F84EE4911496EC9308953FB77C
:10588000F8948091620690916306A0916406B091AD
:10589000650626B5A89B05C02F3F19F00196A11DEE
:1058A000B11D3FBFBA2FA92F982F8827820F911DB6
:1058B000A11DB11DBC01CD0142E0660F771F881FFD
:1058C000991F4A95D1F708951F920F920FB60F9224
:1058D00011242F933F938F939F93AF93BF93809106
:1058E0005D0290915E02A0915F02B09160023091E2
:1058F000610623E0230F2D3720F40196A11DB11D71
:1059000005C026E8230F0296A11DB11D2093610654
:1059100080935D0290935E02A0935F02B093600259
:105920008091620690916306A0916406B09165062D
:105930000196A11DB11D8093620690936306A0930A
:105940006406B0936506BF91AF919F918F913F918F
:105950002F910F900FBE0F901F9018954F925F924E
:105960007F928F929F92AF92BF92CF92DF92EF92EF
:10597000FF920F931F93CF93DF9300D000D0CDB74A
:10598000DEB7DC0148014115510509F406C2FA01F0
:10599000F490319684914E5F5F4FAF2CB12C211162
:1059A00002C0EE2061F101E010E0982F977011F431
:1059B00000E010E0982F969596959695090F111D89
:1059C0000A9DF0010B9DF00D1A9DF00D112413E0BE
:1059D000712EC71003C0EE0FFF1F0AC0811491047F
:1059E00039F0EE9E8001EF9E100D1124800E911E65
:1059F0002E9F80012F9F100D1124400F511F1FEF6C
:105A0000C11208C08114910419F0CC24C39402C0BF
:105A100022E0C22EFD01EA0DFB1D1E161F060CF032
:105A2000BCC1A038B1050CF0B8C19B01280F311DD5
:105A3000121613060CF0B1C1603471050CF0ADC143
:105A40004115510509F4A9C1362F37708B0177FF35
:105A500002C0095F1F4F93E0159507959A95E1F7EE
:105A6000202F77FF04C0332311F02FEF200FB7FF53
:105A700005C0002711270A1B1B0B02C000E010E025
:105A8000E038F1051CF090E89A1B01C09F2D901B97
:105A9000622F022E000C770B2F3F1CF4E62EE094B1
:105AA00001C0E12CF1E0E82FE77009F4F0E0869501
:105AB00086958695F80F6F0F711D6930710514F08A
:105AC000F8E0F21BFE192E0D60E82603A00DB11DB3
:105AD0001124A00FB11FFE9C000D111D1124400FB9
