:100000000C94F31A0C941B1B0C941B1B0C941B1BC1
:100010000C941B1B0C941B1B0C941B1B0C941B1B88
:100020000C941B1B0C941B1B0C941B1B0C941B1B78
:100030000C941B1B0C941B1B0C941B1B0C941B1B68
:100040000C941B1B0C941B1B0C941B1B0C941B1B58
:100050000C941B1B0C941B1B0C941B1B0C94EB2C67
:100060000C941B1B0C941B1B0C941B1B0C941B1B38
:100070000C941B1B0C941B1B0C941B1B0C941B1B28
:100080000C940F230C941B1B0C941B1B0C941B1B1C
:100090000C941B1B0C941B1B0C941B1B0C941B1B08
:1000A0000C941B1B0C941B1B0C941B1B9D2BC72B14
:1000B000BB2BCD2B392B462B512B5D2BB52BD32BAB
:1000C000652B6D2B752B882B8E2B7D2B982B932BD3
:1000D000062B000001000001000001000001FF03E9
:1000E00004FF0304FE0506FE0506FF0708FF0708D8
:1000F000070D06070D060B0E040B0E040D10010E66
:100100001001121203131203151405151405161607
:10011000071718070A000900000200000200000289
:10012000000002000302000602000902000C0200A7
:100130000F0200120200140200000900000000007B
:100140000000000000000001030301030301050596
:1001500001050501070701070701000945120445CC
:100160001404451604451804451A04451C04451E8C
:10017000044520044522044524044526044528045A
:10018000452A04452C04452E0445300445320445D7
:1001900034044334014134013F34013D35013935E4
:1001A000013735013535013336013136012F36013E
:1001B0002D36012B36A92C13042C15042C17042CD6
:1001C00019042C1B042C1D042C1F042C21042C238B
:1001D000042C25042C27042C29042C2B042C2D045E
:1001E0002C2F042C31042C33042C35012C370129FD
:1001F00037012737012537012337011F38011D3803
:10020000011B38011938011738011539A9131304D6
:10021000131504131704131904131B04131D0413DB
:100220001F04132104132304132504132704132983
:1002300004132B04132D04132F041331041333045C
:100240001335041337041339011139010F39010D26
:1002500039010B3A01093A01073A01053A01033A1B
:1002600001013B01FF3D01FF3F01FF4101FF430150
:10027000FF4501FF4701FF4901FF4B01FF4D01FF12
:100280004F01FF5101FF5301015302035302055374
:10029000020753020954020B54020D54020F540278
:1002A0001154021355021555021755021955021B18
:1002B00055021D56021F560221560223560225568C
:1002C000022757022957022B57022D57022F570298
:1002D0003158023358023558023758023958023B18
:1002E00059023D59023F5902415902435902455AA8
:1002F00002475A02495A024B5A024D5A024F5B02B8
:10030000515B02535B02555B02575B02595C025B17
:100310005C025D5C025F5C02615C02635D02645EC4
:1003200002655F02656102656302656502656702D9
:10033000656902656B02656D02656F026571026534
:1003400073026373016173015F73015D74015B7418
:1003500001597401577401557401537501517501A8
:100360004F75014D75014B75014976014776014581
:1003700076014376014176013F77013D77013B7776
:100380000139770137770135780133780131780108
:100390002F78012D78012B79012979012779012501
:1003A0007901237901217A011F7A011D7A011B7AD3
:1003B00001197A01177B01157B01137B01117B0168
:1003C0000F7B010D7C010B7C01097C01077C010581
:1003D0007C01037D01017E01018001018201018414
:1003E00001018601018801018A01018C01000004DC
:1003F0007F4A027D4A027B4A02794A02774A0275A5
:100400004A02734A02714A026F4A026D49026B49FD
:100410000269490267490265490063490061490070
:100420005F49005D49005B49005949005748005544
:1004300048025348025148024F48024D48024B4877
:1004400002494802474802454801434701414701E4
:100450003F47013D47013B470139470137470135D8
:1004600047023347023147022F46022D46022B46F0
:10047000022946022746022546002346002146005F
:100480001F46001D46001B45001945001745001575
:1004900045021345021145020F45020D45020B4569
:1004A00002094502074402054401034401014401D5
:1004B000FF4401FD4401FB4401F94401F74401F507
:1004C0004401F34302F14302EF4302ED4302EB43E5
:1004D00002000002D5F08D14A1C881CFD9F1AF2060
:1004E00000FCFEFFFFFFFFFFFFFFFFFFFFFFFFFF1F
:1004F000FFFFFFFFFFFFFFFFFEFEFC070F1F1F1F99
:100500001F1F1F1F1F1F1F1F1F1F1F1F1F1F1F1FFB
:100510001F1F1F1F0F1A0D00FC02FAFAAAAA02F2EF
:10052000FA2AF202B2BAEA6A021AFAE21A02FC00E3
:10053000000007080A0A0A0A080A0A090A080A0A39
:100540000A0908080A0A080807000000FC02FAFA6B
:1005500022FA02F2FA2AF202FAFA2AD202FAFA8A03
:10056000F202FC00000007080A0A090A080A0A0940
:100570000A080A0A090A080A0A0A0A08070000FC07
:10058000FCFCFCFCFCFCFCFCFCFCFCFCFCFCFCFCAB
:10059000FFFFFFFFFFFFFFFFFFFFFFFFFFFEFCF876
:1005A000010101010101010101010101010101013B
:1005B000010101010103070F0F0F0F0F0F0F0703B9
:1005C00001210C000078281000782850007858008D
:1005D00010482000104820000078FC8ED6DAD68E15
:1005E000FC78000000000000000000000000000097
:1005F00000000000000000000000010205050505E4
:1006000005020100000408022905023E09093E3FD7
:1006100025251A1E2121123F21211E3F2525213F7C
:100620000505011E21293A3F04043F213F21001006
:1006300021211F3F040A313F2020203F02023F3F7B
:1006400002043F1E21211E3F0909061E21112E3FD3
:1006500009093622252519013F01011F20201F0FFE
:1006600010201F3F10103F3B04043B0304380731A8
:100670002D23211E29251E223F2000322929261242
:1006800021251A0C0A3F08172525191E25251801B2
:100690003905031A25251A0629291EFCFEFFFFFF2E
:1006A000FFFFFFFFFFFFFFFFFFFFFFFFFFFFFFFF5A
:1006B000FFFFFFFFFFFFFFFFFFFFFFFFFFFFFFFF4A
:1006C000FFFFFFFFFFFFFFFFFFFFFFFFFFFFFFFF3A
:1006D000FFFFFFFFFFFFFFFFFFFFFFFFFFFFFFFF2A
:1006E000FFFFFFFFFFFFFFFFFFFFFFFFFFFFFFFE1B
:1006F000FEFCFFFFFFFFFFFFFFFFFFFFFFFFFFFF0E
:10070000FFFFFFFFFFFFFFFFFFFFFFFFFFFFFFFFF9
:10071000FFFFFFFFFFFFFFFFFFFFFFFFFFFFFFFFE9
:10072000FFFFFFFFFFFFFFFFFFFFFFFFFFFFFFFFD9
:10073000FFFFFFFFFFFFFFFFFFFFFFFFFFFFFFFFC9
:10074000FFFFFFFFFFFFFFFFFF010307070707078B
:100750000707070707070707070707070707070729
:100760000707070707070707070707070707070719
:100770000707070707070707070707070707070709
:1007800007070707070707070707070707070707F9
:1007900007070707070707070707070707070703ED
:1007A000571300FC0202F2F2F282F2F2F202F2F2CB
:1007B000F202C2E2F2121252624202F2F2F282F249
:1007C000F2F20202E2F29292122202C2E2F2321239
:1007D00012722202C2E2F2125212F2E2C202F2F2E9
:1007E000F21212F2F2E202F2F2F292921202E2F249
:1007F000929212220202FC000000FF00005F5F5F85
:10080000005F5F5F005F5F5F00172F5F50515F2FDA
:100810005F005F5F5F005F5F5F002C5C5151535F63
:100820002E00172F5F585050582E00172F5F505032
:10083000505F2F17005F5F5F01015F5E58005F5FD1
:100840005F5052500C5C5151535F2E0000FF00006E
:10085000000102020202020202020202020202027B
:100860000202020202020202020202020202020268
:100870000202020202020202020202020202020258
:100880000202020202020202020202020202020248
:100890000202020202020202020202020202020238
:1008A00002020202010000FFFFFFFFFFFFFFFFFF48
:1008B000FFFFFFFFFFFFFFFFFFFFFFFFFFFFFFFF48
:1008C000FFFFFFFFFFFFFFFFFFFFFFFFFFFFFFFF38
:1008D000FFFFFFFFFFFFFFFFFFFFFFFFFFFFFFFF28
:1008E000FFFFFFFFFFFFFFFFFFFFFFFFFFFFFFFF18
:1008F000FFFFFFFFFFFFFFFFFFFFFFFFFFFFFFFF08
:10090000FFFFFFFFFFFFFFFFFFFFFFFFFFFFFFFFF7
:10091000FFFFFFFFFFFFFFFFFFFFFFFFFFFFFFFFE7
:10092000FFFFFFFFFFFFFFFFFFFFFFFFFFFFFFFFD7
:10093000FFFFFFFFFFFFFFFFFFFFFFFFFFFFFFFFC7
:10094000FFFFFFFFFFFFFFFFFFFFFFFFFFFFFFFFB7
:10095000FFFFFFFFFFFFFFFFFFFFFFFFFFFFFFFFA7
:10096000FFFFFFFFFFFFFFFFFFFFFFFFFFFFFFFF97
:10097000FFFFFFFFFFFFFFFFFFFFFFFFFFFFFFFF87
:10098000FFFFFFFFFFFFFFFFFFFFFFFFFFFFFFFF77
:10099000FFFFFFFFFFFFFFFFFFFFFFFFFFFFFFFF67
:1009A000FFFFFFFFFFFFFFFFFFFFFFFFFFFFFFFF57
:1009B000FFFFFFFFFFFFFFFFFFFFFFFFFFFFFFFF47
:1009C000FFFFFFFFFFFFFF03030303030303030313
:1009D00003030303030303030303030303030303E7
:1009E00003030303030303030303030303030303D7
:1009F00003030303030303030303030303030303C7
:100A00000303030303030303030303030303034871
:100A10002200FC060202020202020202020202029A
:100A200002020202020202020202020202020202A6
:100A30000202020202020202020202020202020296
:100A40000202020202020202020202020202020286
:100A500002020202020206FC0000FF000000000089
:100A60000000000000000000000000000000000086
:100A70000000000000000000000000000000000076
:100A80000000000000000000000000000000000066
:100A9000000000000000000000000000000000FF57
:100AA0000000FF0000000000000000000000000047
:100AB0000000000000000000000000000000000036
:100AC0000000000000000000000000000000000026
:100AD0000000000000000000000000000000000016
:100AE00000000000000000FF0000FF800000000088
:100AF00000000000000000000000000000000000F6
:100B000000000000000000000000000000000000E5
:100B100000000000000000000000000000000000D5
:100B2000000000000000000000000000000080FF46
:100B300000000001010101010101010101010101A8
:100B40000101010101010101010101010101010195
:100B50000101010101010101010101010101010185
:100B60000101010101010101010101010101010175
:100B70000101010101010100000B08878F9DB7E70A
:100B8000C7A5D7AF978D000000000000000000034C
:100B900006090C0F1214F8FCFEFFFFFFFFFFFFFF1A
:100BA000FFFFFFFFFFFFFFFFFFFFFFFFFFFFFFFF55
:100BB000FFFFFFFFFFFFFFFFFFFFFFFFFFFFFFFF45
:100BC000FFFFFFFFFEFCF8FFFFFFFFFFFFFFFFFF40
:100BD000FFFFFFFFFFFFFFFFFFFFFFFFFFFFFFFF25
:100BE000FFFFFFFFFFFFFFFFFFFFFFFFFFFFFFFF15
:100BF000FFFFFFFFFFFFFFFF0001030707070707D6
:100C00000707070707070707070707070707070774
:100C10000707070707070707070707070707070764
:100C2000070707070707030100311300F804020252
:100C3000F2F2F21212F2F2E20202E2F2F2C2020264
:100C400002F2F2F2020202F20202E2F292921222A4
:100C500002F2F2F2929212020204F80000FF000087
:100C6000005F5F5F010505050258071414075F5E0A
:100C700050002F5F5F5050502F002C545151535F44
:100C80002E005F5F5F505250000000FF0000000127
:100C90000202020202020202020202020202020234
:100CA0000202020202020202020202020202020224
:100CB0000202020202020202020202010000F8FC29
:100CC000FEFFFFFFFFFFFFFFFFFFFFFFFFFFFFFF35
:100CD000FFFFFFFFFFFFFFFFFFFFFFFFFFFFFFFF24
:100CE000FFFFFFFFFFFFFFFFFFFFFFFFFFFFFFFF14
:100CF000FFFFFFFFFFFFFFFFFFFFFFFFFFFFFFFF04
:100D0000FFFFFFFFFFFFFEFCF8FFFFFFFFFFFFFFFE
:100D1000FFFFFFFFFFFFFFFFFFFFFFFFFFFFFFFFE3
:100D2000FFFFFFFFFFFFFFFFFFFFFFFFFFFFFFFFD3
:100D3000FFFFFFFFFFFFFFFFFFFFFFFFFFFFFFFFC3
:100D4000FFFFFFFFFFFFFFFFFFFFFFFFFFFFFFFFB3
:100D5000FFFFFFFF00010307070707070707070754
:100D60000707070707070707070707070707070713
:100D70000707070707070707070707070707070703
:100D800007070707070707070707070707070707F3
:100D90000707070707070707070707070301004BB0
:100DA0001300F804C2E2F21212526242020202E29C
:100DB000F2F2C2020202F2F2F202C2F2F2F2020213
:100DC000F2F2F29292120202C2E2F2125212F2E233
:100DD000C232F2F2820282721202F2F2F2929212A3
:100DE00002F2F2F21212F2F2E204F80000FF00172F
:100DF0002F5F50515F2F5F0058071414075F5E503C
:100E0000005F015F5E015F5F5F00005F5F5F5052E8
:100E1000500000172F5F5050505F2F1700035F5F87
:100E200058070000005F5F5F505250005F5F5F0136
:100E3000015F5E5800FF0000000102020202020290
:100E40000202020202020202020202020202020282
:100E50000202020202020202020202020202020272
:100E60000202020202020202020202020202020262
:100E70000202020202020202020202020202020153
:100E80000000040406090F060A0F0F08090D0F0AD7
:100E9000090B0F0F03020F0F070D0D0D0F0A0E0E9A
:100EA000010D0F030E0B0B0F07050F0FFCFEFFFFCD
:100EB000FFFFFFFFFFFFFFFFFFFFFFFFFFFFFFFF42
:100EC000FFFFFFFEFC00010303030303030303030F
:100ED0000303030303030303030303030100190ACA
:100EE00000FC0202020202020202020202020202EA
:100EF00002020202020202FC0000000101010101E3
:100F000001010101010101010101010101010101D1
:100F10000000090D000404FCFEFE000000000A0AA7
:100F20000B0B0B0A0A00001C82C2E27E3E1C000072
:100F30000B0B0B0B0B0B0B000080863232FEFECC32
:100F40000000050A0A0A0B0B0500F8FCFEFFFFFF74
:100F5000FFFFFFFFFFFFFFFFFFFFFFFFFFFFFFFFA1
:100F6000FFFFFFFFFFFFFFFFFFFFFFFFFFFFFFFF91
:100F7000FFFFFFFFFFFFFFFFFFFFFFFFFFFFFFFF81
:100F8000FFFFFFFFFFFFFFFFFFFFFFFFFFFFFFFE72
:100F9000FCF8FFFFFFFFFFFFFFFFFFFFFFFFFFFF6B
:100FA000FFFFFFFFFFFFFFFFFFFFFFFFFFFFFFFF51
:100FB000FFFFFFFFFFFFFFFFFFFFFFFFFFFFFFFF41
:100FC000FFFFFFFFFFFFFFFFFFFFFFFFFFFFFFFF31
:100FD000FFFFFFFFFFFFFFFFFFFF00010307070702
:100FE0000707070707070707070707070707070791
:100FF0000707070707070707070707070707070781
:101000000707070707070707070707070707070770
:101010000707070707070707070707070707070364
:101020000100481300F80402020202020202020256
:101030000202F2F2F202020202F2F2F20232F2F2E0
:10104000820282721202F2F2F292921202E2F292A0
:1010500092122202020202020202020202020202B0
:1010600002020202020202020204F80000FF000073
:10107000000000000000000000005F5F5F50505063
:10108000005F5F5F0000035F5F58070000005F5F65
:101090005F5050500C545151535F2E00000000001F
:1010A0000000000000000000000000000000000040
:1010B0000000FF000000010202020202020202021E
:1010C0000202020202020202020202020202020200
:1010D00002020202020202020202020202020202F0
:1010E00002020202020202020202020202020202E0
:1010F00002020202020202020201000040E8FCFCBD
:10110000FCFCFCDCBBFFFDFFFBB870F0F0F0F07006
:1011100020000000000000000001010101010103A6
:101120000303030303010000002070F0F0F0F070EF
:10113000BBFFFDFFFBB8DCFCFCFCFCFCE840000056
:101140000103030303030301010101010100000086
:101150000000000090F8F8F8F8F8F8F8FBFFFFFF3F
:10116000FBF8F8F8F8F8F8F8F8900001010101012F
:101170000101010101010101010101010101010060
:10118000160A004048586858488890B3D5B3901064
:101190002060A0602020000000000000000000008F
:1011A0000000000000010101010101000000000039
:1011B000202060A060201093B5D3B0908848586874
:1011C0005848400000000001010101010100000039
:1011D00000000000000000000000009090B0D0B0BF
:1011E000909090B3D5B3909090B0D0B09090900084
:1011F00000000000000000000000000000000000EF
:101200000000000000001414000000C03804C2797F
:101210006551516579C20438C000000038C402131A
:10122000E4E9A2D735E5E535D7A2E9E41302C438ED
:10123000000C050A08090D0A010101010A0D09083F
:101240000A050C0000000000C03844DAE5F9C53397
:101250008A7488708000000000000043249B070609
:101260009733793810100080010608F000060D0F42
:1012700007000809060D0F070008060908000E01FF
:10128000000000807088748A33C5F9E5DA4438C0FC
:1012900000000000F0080601800010103879339734
:1012A00006079B2443000000010E00080906080001
:1012B000070F0D06090800070F0D0600C0300808CB
:1012C0007CF4C21D2B416B412B9EC47C080830C0AE
:1012D0000738C012C4E8E2F7F56565F5F7E2E8C43F
:1012E00012C03807000C050A08090D0B01010101A5
:1012F0000B0D09080A050C00000000C0380402D9D3
:10130000A511B115A1C20438C00000007884820381
:10131000CFCFECF1E26466E4F2E9CCC703828478D3
:10132000000C050A08090D0B010101010B0D09084C
:101330000A050C00000000C03804C27965515165EF
:1013400079C20438C000000070888403C4D9823890
:101350005482D682543881C403848870000C050AF4
:1013600008090D0B020000020A0D09080A050C000D
:10137000000000C03804C2796551516579C2043853
:10138000C000000038C40213E4E922974525652512
:10139000478229E41302C438000C050A080908032F
:1013A00005080D08050308080A050C0000000000E8
:1013B000C020109010C8A42272CAAA4A02E408F001
:1013C00000186488473079FEFC7132254A2C098761
:1013D000710804030000000000020504080A05016A
:1013E0000101010000000000E8182090C8C8C424D2
:1013F000844830A02020404040800000C38142BD8E
:10140000DB5ABD66007EC37E81FF665A4224817E20
:10141000070804090B0B0B0C090A0C050404020253
:10142000020100000ADFFFFFFFFF6F040607070746
:1014300006006FFFFFFFFFDF0A000607070706042D
:10144000FFFFFFFFFFFFE600020707070600E6FFBA
:10145000FFFFFFFFFF000607070702001FFFFFFF58
:10146000FFFF660002070707060066FFFFFFFFFF9A
:101470001F000607070702001FFFFFFFFFFF2604EC
:1014800006070707060026FFFFFFFFFF1F000607EE
:10149000070706041FFFFFFFFFFF66000607070799
:1014A000020066FFFFFFFFFF1F000207070706009D
:1014B000FFFFFFFFFFFFE604060707070702E6FF3F
:1014C000FFFFFFFFFF02070707070604E2FFFFFF1A
:1014D000FFFF3A000607070702003AFFFFFFFFFF82
:1014E000E20002070707060056FEFEFFFFFFDE00D0
:1014F00000050F1F0F1DDEFFFFFFFEFE561D0F1F15
:101500000F0500000A0D00004094BCB6FAD68C40CE
:101510000000000000050905080000FE4094BCB66C
:10152000FAD68C40100700000005090508000E0DD2
:10153000000018ACF46C78A800000000000000085F
:10154000060B070101000000000000000000000081
:1015500080C0C0A070E04000000000000A0A07033D
:1015600005030500010000000080008000808080ED
:10157000008040C080000000040200030709070F3C
:10158000050E0300070B000ADEFB9D6B060004023C
:1015900004060000066B9DFBDE0A00000006040244
:1015A00004004A1EDBFDEB2640000002040600009A
:1015B0004026EBFDDB1E4A000006040200000A1E66
:1015C000DBFDEB6600000002000600000066EBFD9C
:1015D000DB1E0A000006000200000A1EDBFDAB262F
:1015E00000000402000600000026ABFDDB1E0A001E
:1015F0000006000204000A1EDBFDEB660000000688
:10160000000200000066EBFDDB1E0A00000200067F
:1016100000004A1EDBFDEB2640000402000202002F
:101620004026EBFDDB1E4A000202000204004022BD
:10163000EBFBEB2210000006000200001022EBFB87
:10164000EB22400000020006000054BCB6FAD60CA3
:1016500000000005090508000CD6FAB6BC540008C5
:10166000050905000000387CFEFFFFFFFE7C380006
:101670000000010101000000090900385482D682EF
:1016800054380000000000000000000000384CC288
:10169000928664380000000000000000000000385E
:1016A000648692C24C380000000000000000000078
:1016B0000002040608090A0A0B0B0C0C0C0D0D0D98
:1016C0000D0D0D0D0D0D0D0D0D0D0D0D0D0C0C0C4D
:1016D0000B0B0A0908060402000B794A01180D7960
:1016E0004A001C0F794A000C117849000C13784904
:1016F000000C157849000C177849000C197849003E
:101700000C1B7748000C1D7748000C1F7748000C15
:10171000217748000C237748000C257647000C27DA
:101720007647000C297647000C2B7647000C2D7667
:1017300047000C2F7546000C317546000C3375467A
:10174000000C357546000C377546000C39744500A1
:101750000C3B7445000C3D7445000C3F7445001C67
:10176000417445001C437343001C457343001C47F0
:101770007343000C497343000C4B7343000C4D72D0
:1017800042000C4F7242000C517242000C537242E4
:10179000000C557242000C577141000C5971410008
:1017A0000C5B7141000D5D714100055D6F3F0C03E5
:1017B0005D6D3D0C035D6B3B0D035D69390D035D94
:1017C00067370C035D65350C035D63330D035D61A5
:1017D000310D035D5F2F0C035D5D2D0C035D5B2BF5
:1017E0000D035D592900465B5929004E59582800C0
:1017F0004C575828004C555828004C535828004C3A
:10180000515828004C4F5727004C4D5727005C4B30
:101810005727005C495727005C475727005C45560F
:1018200026005C435626005C415626005C3F562647
:10183000005C3D5626005C3B5525005C3955250073
:101840005C375525005C355525005C335525005C1B
:10185000315424005C2F5424005C2D5424004C2B64
:101860005424004C295424004C275323004C255366
:1018700023004C235323004C215323004C1F53239C
:10188000004C1D5222004C1B5222004C19522200C7
:101890004C175222004C155222004C135121004C7F
:1018A000115121004C0F5121004C0D5121004D0BC5
:1018B000512100490B4F1F0C030B4D1D0C030B4B0B
:1018C0001B0D030B49190D030B47170C030B451593
:1018D0000C030B43130D030B41110D030B3F0F0CB6
:1018E000030B3D0D0C030B3B0B0D030B39090D03D3
:1018F0000B37070C030B35050C030B33030D030BE0
:1019000031010D030B2F000C030B2D000C030B2BCF
:10191000000D030B29000D030B27000C030B240003
:10192000002A0D2400000E0F2400000C11240000DA
:101930000C132400000C152400000C172400000CCC
:10194000192400000C1B2400000C1D2400000C1F97
:101950002400000C212400000C232400000C25246A
:1019600000000C272400000C292400000C2B24006C
:10197000000C2D2400000C2F2400000C312400004A
:101980000C332400000C352400000C372400000C1C
:10199000392400000C3B2400000C3D2400000C3FC7
:1019A0002400000C412400000C432400000C4524BA
:1019B00000000C472400000C492400008C4B24003C
:1019C000008C4D21000B044F1F000B0C511E000B0F
:1019D0000C531D000B0C551D000F00551D000F0072
:1019E000551D000F00551D000F00551D000F00551F
:1019F0001D000F00551D000F005F15000F005F1543
:101A0000000F005B150013005B150013005F17004B
:101A100014005F1700140064190014006419001406
:101A2000006419001400581D011400581D02140010
:101A3000581D031400542A041400542A0514005499
:101A40002A0614005832071400583208140058327D
:101A5000091400593409000059340901005B3409A4
:101A600003005D340905005F34090700613409098A
:101A70000063340903006534090500673409070071
:101A800069340909006B340903006D340905006FDE
:101A900034090700713409090073340903007534EF
:101AA000090500773409070079340909007B3409F6
:101AB00003007D340905007F3409070081340907DC
:101AC00000551E000B00571F010B005B21030B008C
:101AD0005D23050B005F26080B0061290B0B0063DB
:101AE0002C0E0B006530120B0067331510006933A4
:101AF0001511006933151200693315120069331589
:101B0000120069331512006933151200693315127A
:101B100000693315120069331512004D24000B00C3
:101B20004F24000B005124000B005325000B0055DF
:101B300025000B005725010B005B26030B005D26DB
:101B4000050B005F27080B0061280B0B0063290EB3
:101B50000B00652B120B00672E1510006933151151
:101B6000006933151200693315120069331512002C
:101B700069331512006933151200693315120069B3
:101B8000331512006933151200C73409010063349C
:101B9000090100633409000063340900006133095E
:101BA00002005F310904005D2E0906005B2C090864
:101BB00000592A0902005728090400552609060081
:101BC000532409080051220902004F210904004D45
:101BD000220906004B240908004924090200472471
:101BE000090400452409060043240908004124098A
:101BF00002003F240904003D240906003B24090893
:101C0000003924090200372409040035240906009C
:101C1000332409080031240902002F240904002D6F
:101C2000240906002B24090800292409020027247E
:101C30000904002524090600232409080021240999
:101C400002001F240904001D240906001B220908A4
:101C5000001920090200171E080400151C070600C1
:101C6000131A0608001118050A000F16040A000FBF
:101C700014030A000F13020A000F11010A000D0FCE
:101C8000000A000B0E000200090E000400070E00FF
:101C90000600050E000800030E000200030E000CF3
:101CA00000030E000C00030E000D00030E000D00DB
:101CB000030E000C00030E000C00030E000D0003C9
:101CC0000E000D00030E000C00030E000C00030EAE
:101CD000000D00030E000D00030E000C00030E00AB
:101CE0000200010E000400FF0E000600FD0E0008B9
:101CF00000FB0E000200F90E000400F70E000600C3
:101D0000F50E0008007924000004FFFFFFFFFFFF2D
:101D1000FFFFFFFFFFFFFFFFFFFFFFFFFFFFFFFFD3
:101D2000000000000000000000F0F8F0F0F0F0F01B
:101D3000F8F014020303000303030003030300038A
:101D40000303000303030003070700070707000757
:101D5000070700070707000707070007FFFFFFFC4B
:101D6000FCFCFCFCFFFFFFFFFFFFFFFFFFFFFFFF8F
:101D7000FFFF07070701010101010707070705002A
:101D80000A1E1B1D0B0616087A7A7A007C54440042
:101D900078147800485424000C700C007A7A7A7A0F
:101DA0007A007C107C00781478007C1468007C44F5
:101DB00038007A7A0910000000000000000000F0EE
:101DC00008D0D010101008F00C1400108000002073
:101DD000800000400800000288404082088040885F
:101DE0000200010206040C0C0C0C04060201004067
:101DF0000000004010000020801000048140408856
:101E0000028040820800010206040C0C0C0C04063F
:101E100002010010800000004000000020000004CB
:101E200090404091048040910400010206040C0C93
:101E30000C0C040602010910000048B0CCB04200AE
:101E400000F008DFDB151B1F08F0000080E862C00F
:101E5000D00000F008DFD41B141F08F0000080E859
:101E600072C0D00000F008DFD41B141F08F000007F
:101E700002B058A4F00000F008DFDF151E1F08F0C4
:101E8000091B0000805C7B5C00000006091020201C
:101E9000201008000000000000000000000000000A
:101EA0000000000000000000805C7B5C0000000679
:101EB000C91020202010080000FF000000000000D2
:101EC000000401000000000000000000805C7B5C5A
:101ED00000000006C910A0202010080000FF00FF2D
:101EE00000000000000401040100000000000000E8
:101EF000805C7B5C00000006C910A020A0100800D8
:101F000000FF00FF00FF00000004010401040100C5
:101F100000000000805C7B5C00000006C910A0206F
:101F2000A010C80000FF00FF00FF00FF0004010434
:101F30000104010401002838000000000000000036
:101F400000000000000000000000000000804018B9
:101F5000B4BC180008D0B020408080000000000011
:101F60000000000000000000000000000000609081
:101F7000904A0408010000000003070C3973E89838
:101F8000141415D3D6140C18000000000000000033
:101F90000000000000000000000000000000000041
:101FA0000000000000000103071C38F3CD940A0A6A
:101FB0000000000000000000000000000000000021
:101FC0000000000000000000000000000000000011
:101FD0000000000001030F1E0000000000000000D0
:101FE00000000000000000000000000000000000F1
:101FF00000000000000000000000000000000000E1
:1020000000000000000000000000000000000000D0
:1020100000000000000000000000000000000000C0
:1020200000000000000000000000000000000000B0
:1020300000000000000000000000000000000000A0
:102040000000000000000000000000000000000090
:102050000000000000000000000000000000000080
:10206000000000000000009834BC180008D0B02028
:102070004080800000000000000000000000000020
:1020800000000000000000000000808468102601AD
:102090000003070C3973E898141415D3D6140C18E0
:1020A0000000000000000000000000000000000030
:1020B000000304040200000000000000000001030F
:1020C000071C38F3CD940A0A00000000000000004D
:1020D0000000000000000000000000000000000000
:1020E00000000000000000000000000001030F1EBF
:1020F00000000000000000000000000000000000E0
:1021000000000000000000000000000000000000CF
:1021100000000000000000000000000000000000BF
:1021200000000000000000000000000000000000AF
:10213000000000000000000000000000000000009F
:10214000000000000000000000000000000000008F
:10215000000000000000000000000000000000007F
:10216000000000000000000000000000000000006F
:102170000000000000000000000000000000001847
:10218000B4BC180008D0B0204080800000000000DF
:10219000000000000000000000000000000000003F
:1021A0000000000000000040DE43070C3973E8988F
:1021B000141415D3D6140C18000000000000000001
:1021C0000000000000000000000000000000000C03
:1021D0001310080000000103071C38F3CD940A0A0D
:1021E00000000000000000000000000000000000EF
:1021F00000000000000000000000000000000000DF
:102200000000000001030F1E00000000000000009D
:1022100000000000000000000000000000000000BE
:1022200000000000000000000000000000000000AE
:10223000000000000000000000000000000000009E
:10224000000000000000000000000000000000008E
:10225000000000000000000000000000000000007E
:10226000000000000000000000000000000000006E
:10227000000000000000000000000000000000005E
:10228000000000000000000000000000000000004E
:10229000000000000000000000000000000000003E
:1022A000000000000000000000000000000000002E
:1022B000008040200C1A1ECCC0828A36E48444A8D8
:1022C0004818D0901020202040404080808000009E
:1022D0000000003048482502040000000000000013
:1022E0000101030307070F0C1C1838337E78F4CA6A
:1022F000C582810E7CE001010000000000000000AA
:1023000000000000000000000000000000000000CD
:1023100000000000000000000101030307070F0C8C
:1023200000000000000000000000000000000000AD
:10233000000000000000000000000000000000009D
:10234000000000000000000000000000000000008D
:10235000000000000000000000000000000000007D
:10236000000000000000000000000000000000006D
:10237000000000000000000000000000000000005D
:10238000000000000000000000000000000000004D
:10239000000000000000000000000000000000003D
:1023A000000000000000000000000000000000002D
:1023B000000000000000000000000000000000001D
:1023C000000000000000000000000000CC1A1ECC3D
:1023D000C0828A36E48444A84818D0901020202077
:1023E00040404080808000000000000000008040ED
:1023F00042340813200000000101030307070F0CFB
:102400001C1838337E78F4CAC582810E7CE0010145
:1024100000000000000001020201000000000000B6
:1024200000000000000000000000000000000000AC
:102430000101030307070F0C00000000000000006B
:10244000000000000000000000000000000000008C
:10245000000000000000000000000000000000007C
:10246000000000000000000000000000000000006C
:10247000000000000000000000000000000000005C
:10248000000000000000000000000000000000004C
:10249000000000000000000000000000000000003C
:1024A000000000000000000000000000000000002C
:1024B000000000000000000000000000000000001C
:1024C000000000000000000000000000000000000C
:1024D00000000000000000000000000000000000FC
:1024E000000000000CDA1ECCC0828A36E48444A8C6
:1024F0004818D0901020202040404080808000006C
:10250000000000000000000000000000887B0800C0
:102510000101030307070F0C1C1838337E78F4CA37
:10252000C582810E7CE00101000000000000000077
:102530000000000001020201000000000000000095
:1025400000000000000000000101030307070F0C5A
:10255000000000000000000000000000000000007B
:10256000000000000000000000000000000000006B
:10257000000000000000000000000000000000005B
:10258000000000000000000000000000000000004B
:10259000000000000000000000000000000000003B
:1025A000000000000000000000000000000000002B
:1025B000000000000000000000000000000000001B
:1025C000000000000000000000000000000000000B
:1025D00000000000000000000000000000000000FB
:1025E00000000000000000000000000000000000EB
:1025F0000000000000000000000000000C1ADE0CCB
:10260000C0828A36E48444A84818D0901020202044
:10261000404040808080000000000000000000007A
:1026200000000000000020139869058107070F0CC7
:102630001C1838337E78F4CAC582810E7CE0010113
:10264000000000000000000000000000000000008A
:102650000102020100000000000000000000000074
:102660000101030307070F0C000000000000000039
:10267000000000000000000000000000000000005A
:10268000000000000000000000000000000000004A
:10269000000000000000000000000000000000003A
:1026A000000000000000000000000000000000002A
:1026B000000000000000000000000000000000001A
:1026C000000000000000000000000000000000000A
:1026D00000000000000000000000000000000000FA
:1026E00000000000000000000000000000000000EA
:1026F00000000000000000000000000000000000DA
:1027000000000000000000000000000000000000C9
:10271000000000000C1A1E4CC0028A36A40444A813
:102720004818D09010202020404040808080000039
:102730000000000000000000000000000000000099
:10274000080402056893876C0C1838337E78F4CA45
:10275000C582810E7CE00101000000000000000045
:102760000000000000000000000000000000000069
:1027700000000000000000000101030307070F0C28
:102780000000000000000000000000000000000049
:102790000000000000000000000000000000000039
:1027A0000000000000000000000000000000000029
:1027B0000000000000000000000000000000000019
:1027C0000000000000000000000000000000000009
:1027D00000000000000000000000000000000000F9
:1027E00000000000000000000000000000000000E9
:1027F00000000000000000000000000000000000D9
:1028000000000000000000000000000000000000C8
:1028100000000000000000000000000000000000B8
:1028200000000000000000000000000000000000A8
:102830000000000000000000000000000000000098
:102840000000000000000000000000000000008008
:1028500040C08020A0A0202020A020D0D090101028
:102860001010109050906868C88808080808080878
:1028700000000000000000017B0301080C0D0F0E9A
:102880000D0E1D1818191B1E1C1A1D1A19181010D0
:10289000303133363C38343A00000000000000315B
:1028A0004F41200000000000000000000000000078
:1028B0000000000000000000000000000000000018
:1028C0000000000000000000000000000000000008
:1028D00000000000000000000000000000000000F8
:1028E00000000000000000000000000000000000E8
:1028F00000000000000000000000000000000000D8
:1029000000000000000000000000000000000000C7
:1029100000000000000000000000000000000000B7
:1029200000000000000000000000000000000000A7
:102930000000000000000000000000000000000097
:102940000000000000000000000000000000000087
:102950000000000000000000000000000000000077
:102960000000000000000000000000000000000067
:1029700000000000000000000000000000000080D7
:1029800080C0C0606030301800000000000000000F
:10299000000000000000008080C0C060603030B8DF
:1029A000188C6CE6C68383E119E4168C8C985874F5
:1029B00000000000000000000000000018B43C19F6
:1029C000012022261C1816090E090404040303031F
:1029D00001010100000000000000000000000000F4
:1029E00000000000887B08000000000000000000DC
:1029F00000000000000000000000000000000000D7
:102A000000000000000000000000000001020201C0
:102A100000000000000000000000000000000000B6
:102A2000000000000000000014020100000001008E
:102A3000000001000000010000000100000014037C
:102A4000020000000200000002000000020000007E
:102A5000020000000B0BF83878E8D0A000A0100CA2
:102A60000C0704040405070707000000F83878E0A5
:102A7000C8A44383000000070404040507070700F7
:102A800000000B1300FE48484848484848FE000034
:102A9000FF92929292929292FF0000030000000037
:102AA00000000003001910010107050507030303D7
:102AB00003030303030303030303070505070404D8
:102AC0000000000000000000000000000000000006
:102AD00000000000000000000004040705050703D3
:102AE00003030303030303030303030307050507AA
:102AF00001010000000000000000000000000000D4
:102B000000000000000000000000000101070505B2
:102B1000070303030303030303030303030307057B
:102B20000507010100000000000000000000000097
:102B30000000000000000000000000000001010F84
:102B40000B0A0E060606040C0C0C08181818187050
:102B500050507040400000000000000000000000E5
:102B60000000000000000000000000000000000065
:102B700040407050507018181818080C0C0C0406BF
:102B800006060E0A0B0F0101000000000000000005
:102B90000000000000000000000000000000000035
:102BA0000001070B0A0E06040C0C08181810303030
:102BB00020E06040C00000000000000000000000B5
:102BC0000000000000000000000000010101010100
:102BD0000000000000000000C04060E02030301025
:102BE0001818080C0C04060E0A0B0701000000015F
:102BF00001010101000000000000000000000000D1
:102C0000000000000019362C183060C08000000061
:102C100000000000000000000000000000000000B4
:102C200000000000000103066CD8B06080000000C6
:102C30000000000000000000000000000000000094
:102C4000000000000000000080C06030182C361921
:102C5000000000000000000000008060B0D86C069A
:102C60000301000000000000000D08252D39312966
:102C700031252D39312931210C08627A7A62627A44
:102C80007A62627A7A620B08878F9DB7E7C7A5D709
:102C9000AF978D00190100050F0C18042418053C8E
:102CA00018060943001342001D4100274000313F30
:102CB000003B3E00453D00092F03152F01212F0148
:102CC0002D2F01392F01452F01174B01234B0157A0
:102CD00050015F50016349016F49017B49016A500E
:102CE0000E573F01633F016F3F017B3F01FB6C01CA
:102CF000166C01226C012E6C01326C014F6C0100CC
:102D00005C000A5D00145E001E5F002860003261F6
:102D1000003C62004663005064005A650071700216
:102D20007D70020A85001484001E83002882003210
:102D300081003C8000467F00507E005A7D00647C0C
:102D400000094A035B6A03FC2F0100240700448941
:102D50001444882845883C468850478864488878C9
:102D60004988580A0A55000B007A0C007A4D79857B
:102D7000527285516B8550000000387CFEFFFFFFCA
:102D8000FE7C380000000101010000000909003844
:102D90005482D68254380000000000000000000079
:102DA00000384CC292866438000000000000000029
:102DB00000000038648692C24C3800000000000019
:102DC0000000000003F70403F80403F90403FA0405
:102DD00003FB0403FC0403FD0403FE0403FF0403DC
:102DE00000040301020501020701020901020B01AF
:102DF000020D02020F020211020213020215020268
:102E00001703021903021B03021D03021F03022101
:102E100004022304022504022704022904022B05CC
:102E2000022D05022F050231050233050235060287
:102E30003706023906023B06023D06023F07024101
:102E400007024307024507024707024908024B08E9
:102E5000024D08024F0802510802530902550902A7
:102E60005709025909025B09025D0A025F0A026101
:102E70000A02630A02650A02670B02690B026B0B06
:102E8000026D0B026F0B02710C02730D04730F04C1
:102E90007311047313047315047317047319047303
:102EA0001B04731D04731F04732104732304712313
:102EB000016F23016D23016B240169240167240143
:102EC0006524016324016125015F25015D25015B06
:102ED0002501592501572601552601532601512662
:102EE000014F26014D27014B2701492701472701A3
:102EF0004527014328014128013F28013D28013B86
:102F000028013929013729013529013329013129BE
:102F1000012F2A012D2A012B2A01292A01272A0102
:102F2000252B01232B01212B011F2B011D2B011B05
:102F30002C01192C01172C01152C01132C01112D1A
:102F4000010F2D010D2D010B2D01092D01072E0162
:102F5000052F010531010533010535040537040549
:102F60003904053B04053D04053F04054104010205
:102F700004081020408000005401DC03B40000006D
:102F80004A011704B40000004A017003B4000000B5
:102F90004A017003B40000009F00DC03B40000008D
:102FA0009F00DC03B40100004A001704B4000000D5
:102FB0004A017003B40000009F00BA0254010000EF
:102FC0001200BA02AA00000012009302AA00000038
:102FD0005D004B0262030000EE0200005401DC03BE
:102FE000B40000004A011704B40000004A01700355
:102FF000B40000004A017003B40000009F00DC032D
:10300000B40000009F00DC03B40100004A00170474
:10301000B40000004A017003B40000009F00BA022F
:10302000540100001200BA02AA000000120093022C
:10303000AA0000005D004B0262030000EE02008067
:103040000601FA00B801FA008801FA00B801FA0096
:103050000601FA00B8017D0088017701B801FA0085
:103060003701FA000B02FA00D201FA000B02FA0053
:103070003701FA000B027D00D20177010B02FA0042
:103080005D01FA00BA02FA006E02FA00BA02FA0012
:103090009F01FA00BA027D006E027701BA02FA00BF
:1030A0000B027D000B027D000B027D000B027D00F8
:1030B000D201FA000B02FA000000FA000B027D00B8
:1030C0000B027D000B027D000B027D0000802108B9
:1030D0000F0F08080006090B06000E03030E000F71
:1030E000090F06000F0F000F02030F000E0F090D4E
:1030F000000E10BEBDBEBDBEBDBEBDBEBDBEBDBE12
:103100000000040004000400040004000400004E59
:10311000080F0D0702000F050F0A000F0D0900022E
:103120000B0D00020B0D00000000000F0D07020048
:103130000F0F0808000E03030E00030E0E0300001D
:103140000006090B06000F02030F00000000010F2C
:103150000F010E03030E000F0D0702000F0D090EE5
:1031600010A7C7A7C7A7C7A7C7A7C7A7C7A700070D
:103170000707070707070707070707070024080EC1
:103180001F1F1F0E00000000000000000000001FB5
:103190000E04000000000000000000040E1F0004E8
:1031A0000E1F004030762FFFFFFFFFFFFFFFFFFFE6
:1031B000FFFFFFFFFFFFFFFFFFFFFFFFFFFFFFFF1F
:1031C000FFFFFFFFFFFFFFFFFFFFFFFFFFFFFFFF0F
:1031D000FFFFFFFFFFFFFFFFFFFFFFFFFFFFFFFFFF
:1031E000FFFFFFFFFFFFFFFFFFFFFFFFFFFFFFFFEF
:1031F000FFFFFFFFFFFFFFFFFFFFFFFFFFFFFFFFDF
:10320000FFFFFFFFFFFFFFFFFFFFFFFFFFFFFFFFCE
:10321000FFFFFFFFFFFFFFFFFFFFFFFFFFFFFFFFBE
:10322000FFFFFFFFFFFFFFFFFFFFFFFFFFFFFF4469
:1032300010000000000000BC7EC7EBEDEBC77EBCB9
:1032400000003C2C00381438000824100004380416
:10325000000000000000BC7EC1D5D5D5CB7EBC00EF
:10326000003C103C00381438003C1428003C241862
:103270000000000000000000000000000102020247
:103280000202010000000000000000000000000039
:103290000000000000000000000000010202020225
:1032A000020100000000000000000000000000001B
:1032B000000000000000000000387CFEFFFFFFFE61
:1032C0007C380000000101010000000909003854A9
:1032D00082D6825438000000000000000000000088
:1032E000384CC292866438000000000000000000E4
:1032F000000038648692C24C3800000000000000D4
:10330000000000693400000000000000FC02FDFD28
:10331000FDFDFDFDFDFDFDFD02FDFDFDFDFDFDFDD8
:10332000FDFDFD027C90E8F4FAFDFDFDFDFDFDFDD7
:10333000FDFDFDFAF4E890FC02FDFDFDFDFDFDFD47
:10334000FDFDF3CC02FDFDFDFDFDFDFDFDFDFDFDE3
:1033500002DCE8F4FAFDFDFDFDFDFDFDFDFDFDFADD
:10336000F4E8D020C00000000000000000000000D1
:1033700000000000000001FE00FFBF7F7F3FBFBFD5
:10338000BC7E7F7FBF7FB7CB35C20202FF00FFBF8D
:103390007FBF7FBFFF01FE0001FF7FBF7FBF7FFFB9
:1033A00000FFFE00FFBF7FBF7FBFFF7FFFBF7CB07E
:1033B0007FBF7FBF7FBFFF00FE00FFBF7FBF7FBF1C
:1033C000FF00FE0EECAB6BAB6BAB6BEB0CF30000DA
:1033D0000000000000000000000000000000F008F5
:1033E000F7B0DFAAD08003354E7D6F15FAAFD5AAAE
:1033F000D7AED9B6F40FF08F7AD5AAD5AADFB8D751
:10340000B4D8AFD5AAD5EA7D8FF00FF7B0DFAAD533
:10341000AAD5AADFB0F1079D7AD5AAD5AAD5AAFF69
:1034200000FF40BF6AD5AAD5AADFB0D7B4D3BED5B6
:103430006A350A959F809F80800000000000000090
:10344000000000000000003B78EABA3A3A2ABA7855
:10345000B86B3A79EAB83A3A2ABA7ABA6A3A78EB61
:10346000B8393A28BA7ABA6A3A7AEABA3A3A28BA03
:1034700079B86B387AEABA3A3A2ABA7ABA6A3A78B2
:10348000EBBA383A2ABA7ABA6A387BE8B8393A28B5
:10349000BA7ABA6A3A3A0A00E01C8261BCB2A8A8B9
:1034A000B2BC61821CE000000000000000000000CF
:1034B00004040405070605060504040404040507BE
:1034C00006050605040404040405070605060504AC
:1034D00004040404050706050605040404040405A1
:1034E0000706050605040404040405070605060589
:1034F00004040404040507060506050400001C6214
:10350000810972F4D16B9AF2F29A6BD1F47209814B
:10351000621C901050D09010901050D090109010CD
:1035200050D09010901050D09010901050D090101B
:10353000901050D09010901050D09010901050D00B
:103540009010901050D09010901050D0901090107B
:1035500050D09010901050D09010901050D09010EB
:103560009050D09010901050D6921594141655D0BB
:103570009010901556D4941592161002030202036F
:103580000302030202030302030202030302030213
:103590000203030203020203030203020203030203
:1035A00003020203030203020203030203020203F3
:1035B00003020302020303020302020303020302E3
:1035C00002030302030202030302020203030203D3
:1035D00002020303020302020203030203020203C4
:1035E00003020302953111241FBECFEFDAE0DEBFE4
:1035F000CDBF11E0A0E0B1E0E2EAFEE602C0059036
:103600000D92A436B107D9F726E0A4E6B1E001C0D7
:103610001D92A337B207E1F71AE1C3EFDAE104C064
:103620002197FE010E942336C23FD107C9F70E94AD
:1036300062320C944F370C9400002F923F924F92BD
:103640005F926F927F928F929F92AF92BF92CF9232
:10365000DF92EF92FF920F931F93CF93DF93CDB73B
:10366000DEB765970FB6F894DEBF0FBECDBF8C01F5
:103670006B01DB011996BC9019971A96BC91BC8B13
:10368000FC0182818111C2C07801FDE4EF0EF11CC2
:10369000D70119968C918111B9C0980123593F4FD8
:1036A000398B288BD9018C91882359F1F601278118
:1036B000308520FDE4C6F70182818111F1C3D70175
:1036C0001A968C911A9781117DC11B969C9191112C
:1036D00079C1D70113968C91BB2DB074AB2E86FDAA
:1036E000F0C3A110F9C3AB2CA5FC02C4A4FC0DC40B
:1036F000A7FC11C4F801E159FF4F8081882309F428
:103700000FC41701F701A480D60117968C9180FF92
:1037100067C1F8017196FB8BEA8BD80154968C91A6
:10372000F6963F01863209F464C18F3309F49BC6D3
:103730008D3009F4CFC59FEF863209F4CCC58F33A5
:1037400009F4C9C58D3009F4C6C5F6018781908595
:1037500066E070E00E94FB35892B41F44801FAE1F4
:103760008F0E911C8614970409F045C1F6018389D8
:10377000813009F43EC2D60153968C918130A1F478
:103780007801BAE4EB0EF11CF3019081D7018C9122
:10379000890F90E0E215F30509F09FC2882309F430
:1037A000A8C2813009F4A2C2D60117968D919C91CE
:1037B000189783709927892B09F4A9C2F801818D84
:1037C000882309F4D3C28489863208F4B5C28732CB
:1037D00008F0BCC2F8017A966E167F0609F043C362
:1037E000D60117968D919C91189766E070E00E9423
:1037F000FB35892B09F43EC3F601878190856CE087
:1038000070E00E94FB35892B09F43FC3D601529624
:103810008C915297811107C081E054968C93F801E6
:10382000E359FF4F10824801BEE68B0E911CF40154
:10383000F080F3E6FF1548F022E0F21608F04AC0E7
:1038400031E0F31609F44AC05FC044E6F41242C006
:1038500081E0F801ED58FF4F8083F60182898823CB
:10386000A1F160E070E0C801835B9F4F0E94E22BF2
:10387000F8017A96C801895B9F4F8E179F0741F028
:1038800020812B3A18F01082128213823596F5CFE0
:10389000F801EA59FF4F8081811104C0C8010E94DC
:1038A0001B2C13C0D80151961C92519752961C9212
:1038B000529753961C9253978DE054968C9354973D
:1038C00059961C92599755961C92F401808181500B
:1038D00080831AC0FA94D401FC9216C0F601828942
:1038E000882349F0C801835B9F4F0E94FD2BF8019C
:1038F000E359FF4FF082D4011C92F801ED58FF4FBD
:10390000108281E03F9781837801BFE6EB0EF11CC6
:10391000F7018081882311F081508083F801E359F9
:10392000FF4F8081D60154962C91811125C0211121
:1039300023C08C898095B8228B2D8C7009F4A4C586
:1039400081E0808336961082F4011082C801835B87
:103950009F4F0E94FD2BF801E15AFF4F1182108208
:103960000280F381E02D82E0828384E18083B3FED4
:103970008BC5D7018C9388C5F6018285809591858A
:1039800089232223B9F083FF7FC583E884BD8FEFAD
:1039900087BD81EF809380001092880010928A008A
:1039A0000E94032385E0D60156968C93569757962E
:1039B0001C926AC582FF68C5F801928181E089275F
:1039C000828362C5F7019385911174C2882329F01F
:1039D00023703327232B09F4DCC21701F701A480DD
:1039E0004801B9E58B0E911CF4018581811191CEBE
:1039F00013C491E070C4D40112968C91882309F409
:103A0000F4C0E889F9898081882309F44DC0D70181
:103A100012968C91882309F447C0D4012C91B3E00D
:103A20002B9F90011124F901E45AFE4F4491F901B2
:103A3000E35AFE4F2491D701ED91FC91B5E0BE9F72
:103A4000B001BF9F700D1124FB01E752F94E349174
:103A5000F7013683FB01E652F94E9491E82FF0E02E
:103A6000E055F94E8491042E000C550BE32FF0E045
:103A70004E175F07C9F4F7013481E92FE31BE81BF8
:103A80000E2E000CFF0B2A19E21BF10927FDF395FE
:103A9000399754F4D60150968D919C915197019687
:103AA00051969C938E935097C1010E94532C298369
:103AB0003A834B835C836D837E83F4018081F3E0E2
:103AC0008F9FC00111249C01245A3E4FF90144915B
:103AD000835A9E4FFC014491A889B9894C91442393
:103AE000A9F1F9012491FC01F491FD8B422E220FE2
:103AF0005508C1010E94532C2F83388749875A8764
:103B00006B877C872F813885A901460F511DC20123
:103B1000019684179507D4F4079628173907B4F44B
:103B20005D885A18852D550C990B29853A85A90170
:103B3000470F511DBA01AC014F5F5F4F4617570742
:103B40002CF40896281739070CF48FC4D4019C91E3
:103B5000B3E09B9FF0011124E25AFE4F84918695B9
:103B6000869586959F5F980FF4019083F3E09F9F61
:103B7000C0011124FC01E45AFE4F2491FC01E35AD8
:103B8000FE4F8491211106C0811104C0D4011C9202
:103B900012961C92D401EC91B3E0EB9FF00111243A
:103BA000E25AFE4FE491E770D4011496EC93149717
:103BB000E13059F0E230C9F411968C9111978F5F82
:103BC000833089F4F401118210C0D40111968C91D4
:103BD0001197811103C0E3E01196EC93D401119683
:103BE0008C911197815011968C93B5E08B0E911C9E
:103BF000B9CD878190856AE070E00E94FB35892B02
:103C000009F0B9CD73012E143F0409F4B4CDD701E6
:103C10008C91882309F45DC011968C9111978F5F68
:103C200011968C93B3E08B9FC0011124FC01E051ED
:103C3000FC4F2491FC01EF50FC4F8491211105C0F1
:103C4000811103C0F70110821182A889B9898C9172
:103C5000882309F43EC0F7018181F3E08F9FC00102
:103C60001124FC01E051FC4F8490FC01EF50FC4F0B
:103C70005490082C000C9908C1010E94532C2983F0
:103C80003A834B835C836D837E8389819A81AC0107
:103C9000460F511D94012F5F3F4F24173507CCF479
:103CA00025E1820E911C881599059CF45A18E52D82
:103CB000F0E08B819C81AC01470F511D9F012C5F6F
:103CC0003F4F241735072CF438968E179F070CF4B6
:103CD000D1C333E0E30EF11C96CF2081222321F0E3
:103CE0002181921708F4922F339654CD933308F420
:103CF0005BCD0E94E73422E330E040E050E00E94D8
:103D00008C35672B682B692B09F484C34DCDF801E2
:103D1000E15AFF4F8081882309F450CD813049F466
:103D2000108211820280F381E02D82E0828384E19F
:103D300001C08150808342CD8E3098F48D3009F0DF
:103D400049CD88E0868B8EE0848B44CD8F3348F05C
:103D50008F3309F03FCD84E0F801868B8EE3848BAE
:103D600039CD8A899B890E94CF2234CD83898823CB
:103D700039F08150838B81112BC088E2828B28C05F
:103D8000F8018289882321F18150828B811120C022
:103D90008489863221F08F3321F080E003C081E0F6
:103DA00001C082E0D8015796ED91FC91589720917F
:103DB0000A0130910B0140910C012D873E874F87FE
:103DC000DE01A80FB11D1D968C91808381E0828356
:103DD000F8018189882311F0815043C0848986329B
:103DE00071F020F48D3049F0F8F4F4CC8F33E0F02A
:103DF0008F3309F0EFCC84E015C088E013C00E9437
:103E0000E73422E030E040E050E00E948C35672B40
:103E1000682B692B11F484E001C088E0D801569624
:103E20008C9302C0F801868B8A899B890E94CF22DD
:103E3000D80154968C91863229F08F3319F08D3049
:103E400009F0C8CC0E94E73422E830E040E050E0BE
:103E50000E948C35DC01CB018A5B9F4FAF4FBF4F77
:103E6000F801818BB7CC8381882311F08150838343
:103E70003596B2CCF801ED59FF4F80818F5F8430C9
:103E800011F08083B9CC1082B7CCF801EC59FF4F08
:103E900080818F5F833011F08083B8CC1082B6CCE4
:103EA000883220F48F5FF70182832BCCD7011296E2
:103EB0001C9227CCA90143705527452B09F45EC0FD
:103EC00085CDB5FE02C082FD37C0AA20E1F0F70122
:103ED000838183FD15C017C0B3FE32C087FF30C099
:103EE00081E0F7018287C7010E948E2CA12CFCCBB8
:103EF000F701838182FFA6C2C7010E94AA2CA2C239
:103F0000C7010E94AA2CAB2CF1CBD70113968C9140
:103F100081FD2CC0EDCBF701838180FD2BC0EACB66
:103F2000A3FEEFCBD70113968C9184FFEACB81E0FF
:103F3000D70112968C93E5CBC7010E948E2CC5CF7A
:103F400083FFD1CBD7018D919C9111978439910535
:103F500049F481E01B968C936AED70E0C7010E94E2
:103F6000E22BC1CBC7010E948E2CBDCBC7010E94A2
:103F7000AA2CBECBC7010E948E2CBCCBF70180813E
:103F800091818E3E910599F5B601C8010E94382CA9
:103F9000B8CBD60153968C91813009F43BC144E0F3
:103FA000D7018D919C914801B9E58B0E911CF401CC
:103FB0002181BC01605A710967327105E0F08B3ACA
:103FC000910509F4CAC008F061C0833A910509F46B
:103FD000AEC008F04CC08839910509F48AC08F3909
:103FE000910509F496C08739910509F474C0C70199
:103FF0000E948E2C86CB3D9630813111E0CFD801C6
:10400000A959BF4F3C91E1E0E30FEC9311965C910D
:104010001197513089F048F05230C1F473E0E79FB6
:10402000F0011124EC52FF4F0DC053E0E59FF00169
:104030001124E35CFE4F06C063E0E69FF00111240B
:10404000E75EFE4FE491E93009F43C931296E8896B
:10405000F989AE17BF07B1F6D80155963C9155972F
:104060003F3008F0ACCF3F5F55963C93A8CF853AE0
:10407000910509F46DC008F487C0883A910509F0EC
:10408000B6CFC7010E948E2C85E07AC0893D91058C
:1040900009F47ACF88F4873B910509F465C0873C21
:1040A000910509F478C08E3A910509F0A0CFC701B7
:1040B0000E948E2C89E064C08333B1E09B0709F431
:1040C00081C08A33E1E09E0709F465C087329140E0
:1040D00009F47DC08CCF243008F489CF421708F44E
:1040E00086CF81E0D40115968C93C7010E948E2C57
:1040F0007ECF233010F0421718F468EC70E03CC01B
:10410000C7010E948E2C84E0F401818381E08583C5
:10411000F8CAC7010E948E2CD40111961C9281E02E
:10412000F801818F84E6818B128A138AEACAC7015B
:104130000E948E2C81E0D40111968C93F801EA59EB
:10414000FF4F8081882309F4DCCA81508083D9CA5B
:10415000C7010E948E2C82E004C0C7010E948E2CF1
:1041600088E0F4018183CDCAF801EA59FF4F8081CC
:1041700081113DCF60EF70E0C7010E94E22BC1CA00
:10418000D40111968C93BDCAF60180899189449619
:10419000918B808B2CCF88ECF801E259FF4F808304
:1041A0003F97118210820280F381E02D82E08283AA
:1041B00084E18083F801ED58FF4F1082A889B98906
:1041C0001C929FCAF801EC59FF4F118210CFF601E3
:1041D00080899189C296918B808BC7010E948E2C19
:1041E000F801EF58FF4F8081893010F48F5F808392
:1041F000F801EE58FF4F6081603508F082CA6F5FAA
:10420000608370E088EE93E00E940F36D6011B9623
:104210006C9377CA43E0C4CEF40192819230A9F541
:10422000F40120818181222371F021502083835069
:10423000853008F06ECA8481823009F46ACAC401EC
:104240000E94DD2266CA8830D9F018F4833088F4E1
:1042500060CA893009F05DCA94838AE08083128243
:1042600058CAF4018181883099F140F1893009F010
:1042700050CA88E0D40111968C93119784E116C03E
:1042800089E0F401818384E107C0933039F4F401BB
:104290008081882369F0815080833BCA913009F086
:1042A00038CAD4018C918823E1F281508C9331CAB1
:1042B000C4010E94DD228AE0D401F8CF833008F4E3
:1042C00028CA82E084838AE0808383E0828321CAD3
:1042D00085E0D7CF90E0D80151968C918D3308F4CA
:1042E00034CAD80153968C91539781112ECA529695
:1042F0008C9181112ACA4801BAE18B0E911CF401FC
:1043000081E0D801A059BF4F6E167F0609F458C04E
:104310002281222309F452C09130F1F018F092303A
:10432000C1F14CC050802C91521608F446C030E0C8
:10433000652D70E0A901495D5F4F461757071CF4D2
:104340004AE34515D0F5265F3F4F26173707B4F5EA
:104350005DE1551598F131C020812B3318F02E34D2
:1043600060F102C02E3150F0622F70E04C9150E0AD
:10437000425E5F4F4617570704F502C02223F1F053
:1043800030E04C9150E04F5F5F4F42175307B4F05D
:1043900014C060816B3318F06E3478F002C06E3157
:1043A00048F0462F50E02C9130E0245C3F4F24171A
:1043B00035071CF42C91261708F080E03596A4CF21
:1043C000882309F4C2C98614970409F4BEC9D4012C
:1043D00012968C911297811119C013968C918111AC
:1043E00015C00E94E7342CE130E040E050E00E942C
:1043F0008C35DC01CB010296A11DB11DF401838334
:10440000F801908E878A128A838B9FC9F5E08F0E00
:10441000911CD9CFD3018C91882339F0F701808189
:10442000882311F08FEF01C081E090E0FC01EE0FD6
:10443000FF1FE80FF91FE00FF11FE95BFF4F81E05D
:104440008083B2C9F701838185FF50C981E0F801FB
:10445000E15AFF4F81839CE89083369715828283CF
:1044600084E1808343C992E036CFB601C8010E943F
:10447000382C6CCBB601C8010E94382C2ACC17010D
:10448000D7011496AC9045C965960FB6F894DEBF77
:104490000FBECDBFDF91CF911F910F91FF90EF9095
:1044A000DF90CF90BF90AF909F908F907F906F9054
:1044B0005F904F903F902F90089580915702E09128
:1044C0005A02F0915B02882351F0CF01029690933B
:1044D0005B0280935A02E4918E2F90E00895CF0101
:1044E000029690935B0280935A0280819181089595
:1044F00008950895089508950895089508950C94D1
:10450000C1360C94C1360C94C1360C94C1360C944F
:10451000C1360C94C136FC018181813099F050F094
:104520008230C9F4E08183E0E89FF0011124ED526C
:10453000FF4F0FC0E08183E0E89FF0011124E45CAD
:10454000FE4F07C0E08183E0E89FF0011124E85EA0
:10455000FE4F8491089580E00895FC0181818130AF
:1045600099F050F08230C9F4E08183E0E89FF001D7
:104570001124EE52FF4F0FC0E08183E0E89FF0016D
:104580001124E55CFE4F07C0E08183E0E89FF00165
:104590001124E95EFE4F8491089580E00895FC01A6
:1045A0008581843019F0883021F00895838181500D
:1045B00002C083818F5F83830895FC0183818430EF
:1045C00019F0883061F017C08481882321F085308C
:1045D00090F481500DC081E0848388E00BC0848119
:1045E000843028F0843039F493E0948303C08F5FE3
:1045F000848301C0838381818350853018F4848152
:104600008D5F81830895E1E7F0E080818D7F808375
:10461000109291004698479810925C0208951F925C
:104620000F920FB60F921124CF92DF92EF92FF926A
:104630000F931F932F933F934F935F936F937F93AA
:104640008F939F93AF93BF93CF93DF93EF93FF939A
:1046500080915F0290916002A0916102B09162022C
:10466000892B8A2B8B2B89F180915E0281110BC0E3
:1046700098B180E4892788B980915D02882319F078
:1046800088B1805888B980915F0290916002A091B2
:104690006102B0916202181619061A061B060CF088
:1046A000A4C080915F0290916002A0916102B091DC
:1046B00062020197A109B10980935F0290936002A1
:1046C000A0936102B093620290C00E945D228115A6
:1046D00020E8920719F40E94032387C021E0209369
:1046E0005C02813020E8920731F410925B02109254
:1046F0005A020E945D2297FD05C020915902222393
:1047000009F43FC02091580221113BC021E02093C1
:104710005D02EC01DF77209769F481E080935E020F
:1047200046983FE9C32E3FE0D32EE12CF12CCAEF8F
:10473000D0E014C08E0120E030E060E472E48FE04D
:1047400090E0A90198010E948C3569017A0181E00D
:10475000C81AD108E108F10810925E02E0916C06D7
:10476000F0916D060995811103C081E080935E028E
:1047700080915D028823B9F180915E02811133C07E
:1047800003C010925D02C5CF46992DC0479A0E9482
:104790005D22009771F09C01DE010E94E035DC0192
:1047A000CB0129E0B595A795979587952A95D1F7DF
:1047B00003C08FEF9FEFDC01109290002AE020935E
:1047C0009100D0929900C092980080935F029093DC
:1047D0006002A0936102B0936202809171008260D6
:1047E0008093710002C04798D2CFFF91EF91DF9183
:1047F000CF91BF91AF919F918F917F916F915F9179
:104800004F913F912F911F910F91FF90EF90DF906B
:10481000CF900F900FBE0F901F9018952F923F9240
:104820004F925F926F927F928F929F92AF92BF92C0
:10483000CF92DF92EF92FF920F931F93CF93DF936C
:1048400000D000D0CDB7DEB75C014B016C012DE488
:10485000C20ED11CD6011496FC90FB012780308437
:1048600040E00E94A72A2501FAE14F0E511C3501B4
:1048700027E4620E711C4614570439F1D2011296D6
:104880008C9112978823E9F06C91B3E06B9FB00193
:104890001124FB01E45AFE4F8491FB01E35AFE4FC1
:1048A00064916F19062E000C770BE12CF201018147
:1048B00026E636E148E756E1082E000C990B0E94E7
:1048C0004430F5E04F0E511CD6CFF501E359FF4FB0
:1048D0008081811108C0C10168E270E00E94FB354F
:1048E000853108F48BC0D6018D919C9125E0289FDD
:1048F000B001299F700D1124FB01E452F94E24915F
:10490000F601928191112DC0211135C0368185812A
:10491000381305C021E080858430D9F539C083176C
:104920007CF487818F5F878328E02087803109F4BA
:104930001782F601278126952695220F2D5F1BC031
:1049400038173CF587818F5F878324E0208780318B
:1049500009F41782F601278126952695220F2E5FEE
:104960000AC026818581281313C08085843009F40C
:104970004DC12BE00EC0233118F4203150F00EC091
:10498000253190F42351A0E0B0E044E055E110C09F
:1049900020E0A4E2B4E144E855E10AC02051A0E0DF
:1049A000B0E04EE255E104C0A0E0B0E040E050E0ED
:1049B000F60186818583FB01E752F94E8491F60169
:1049C0008683FB01E652F94E6491E92FF0E0E05551
:1049D000F94E3491F6019481691B631B062E000C7D
:1049E000770B082E000C990B109719F40E94C42F16
:1049F00005C0E22E022F9D010E944430D50154963D
:104A00003C91549759969C91599755968C9199231E
:104A100031F0E82FF0E0EA57F44FE49101C0E0E014
:104A2000EF19ED5F8D3030F08F3008F18F3011F4D9
:104A300018E022C0363249F020F43D3031F080F4E5
:104A40001BC03F3368F03F33B9F4D50152968C91C7
:104A5000882379F06AE00E94EF3516E0181B0CC03D
:104A6000D50156968C91883031F412E005C017E0DC
:104A700003C010E001C011E06E2FEE0F770B212F65
:104A800046E052E1832F90E00E94C42FF401838915
:104A9000813059F56C147D0441F1D3018C91882348
:104AA00001F111960C91B3E00B9F80011124F801E4
:104AB000E051FC4F8491F801EF50FC4F6491F801F4
:104AC000EE50FC4F04916F19062E000C770BE02E70
:104AD0002CEF30E140E851E1082E000C990B0E94C8
:104AE0004430E3E06E0E711CD5CF40E4B401C50143
:104AF0000E94A72AD40154968C9181111EC0F50101
:104B0000ED58FF4F8081882321F1E12C00E02AE459
:104B10003FE042E250E164E170E08BE190E00E940E
:104B20004430F4012289215042E15FE067E170E006
:104B30008FE490E00E94C42F1DC0E12C00E02EEB1A
:104B40003CE04FE95DE064E170E089E190E00E94C3
:104B50004430D50112968C91882361F0E12C00E05D
:104B600026E93BE049E25CE064E170E087E290E046
:104B70000E944430E12C00E02CEA3EE04EED5EE085
:104B800060E070E086E690E00E94443019821A826C
:104B90001B821C82F40180899189FE0131966E018D
:104BA00025E0C20ED11C2AE030E0B9010E94FB359D
:104BB0008193CB01EC15FD05C1F709E610E0D601A4
:104BC0002E916D0142E85EE063E070E0C8010E9452
:104BD000C42F0B5F1F4F0D37110589F70F900F90F2
:104BE0000F900F90DF91CF911F910F91FF90EF9059
:104BF000DF90CF90BF90AF909F908F907F906F90FD
:104C00005F904F903F902F900C943C2A2AE0C1CEA9
:104C10004F925F926F927F929F92AF92BF92CF928C
:104C2000DF92EF92FF920F931F93CF93DF93EC01EC
:104C30008C01015A1F4F875A9F4FD80113969C939E
:104C40008E9312970C970E94FD2BFE01EE58FF4F9A
:104C500083E480837E01B1E7EB0EF11C85E0F70170
:104C6000808333978DE78083D80111961C9211972A
:104C70001C921296ED91FC91139782E0828384E15D
:104C80008083FE01ED58FF4F10826E01BDE6CB0E12
:104C9000D11CF6011082CE010E941B2CFE017A96D7
:104CA000CE01895B9F4FE817F90751F410E08DE7BB
:104CB000482E512C612C712C95E0992E01E024C0D6
:104CC0001082128213823596EECF191741F1828D30
:104CD000681708F5861B8F3010F50E94E734A30192
:104CE00092010E948C35645CF7012081FE0190E006
:104CF0009213EBCF9A9CF0019B9CF00D1124EC0FCA
:104D0000FD1F628F048F1F5FD7018C91181750F41D
:104D1000A12EB12CE2CF362F381B832FDCCF9F5F23
:104D20003596E6CFD6011C921A8288E69FE29093D0
:104D30006D0680936C06DF91CF911F910F91FF90CC
:104D4000EF90DF90CF90BF90AF909F907F906F904B
:104D50005F904F9008952F923F924F925F926F9283
:104D60007F928F929F92AF92BF92CF92DF92EF92FB
:104D7000FF920F931F93CF93DF93CDB7DEB72897A2
:104D80000FB6F894DEBF0FBECDBF5C018B01FC01F6
:104D9000838D6501811104C0FCE1CF0ED11C03C0DD
:104DA0002EE2C20ED11CF80147805084EAE08E2E1C
:104DB000912CF3E0EF2EF12C20E049E75BE0B40109
:104DC000C7010E94C42FFAE0EF0EF11C2FEF821AE8
:104DD000920A31E7E316F10479F766E3862E912C07
:104DE0007FE0E72EF12C20E049E75BE0B401C7014A
:104DF0000E94C42F8AE0E80EF11C91E0891A910804
:104E0000EDE7EE16F10479F7A5014C5E5F4FF50171
:104E10006189C8010E945E2AA5014B5E5F4FF501C2
:104E20006289C8010E945E2AA5014A5E5F4FF501B2
:104E30006389C8010E945E2AF8018781908565E038
:104E400070E00E94FB35892BD9F4F50181898F5FD1
:104E50008E3811F0818B02C0F501118AF50182892B
:104E60008F5F8E3811F0828B02C0F501128AF50136
:104E700083898F5F8E3811F0838B02C0F501138A0E
:104E8000E12C00E027EA38E04FE05AE062E170E010
:104E90008DE190E00E9444302BE936E040EA57E093
:104EA00063E070E086E190E00E944430760108E122
:104EB00010E03E01F7E06F0E711C9E012F5F3F4F27
:104EC0001901C701029698878F8354E2852E912C91
:104ED000EF81F8852191F887EF832F3311F020546B
:104EE00001C020E045E056E0B801C4010E94D42F83
:104EF000F6E08F0E911C26E38216910449F778861E
:104F00006F8241E4842E912CF10126E011922A95C2
:104F1000E9F7F70180819181F1016AE070E00E9478
:104F2000FB358193CB016E167F06B9F7EF81F885CB
:104F30002291F887EF83255E45E056E0B801C40171
:104F40000E94D42FF5E08F0E911C2FE5821691045C
:104F5000D9F6075F1F4F36E0E30EF11C033311054E
:104F600009F0AFCFF50107890F3F09F46BC0C2010B
:104F700068E270E00E94FB35853108F463C0C60129
:104F8000F6E00F9F800D911D11249C012E5F3F4F75
:104F9000290139E0039F80011124480187E1880E2F
:104FA000911CF501608CF6E06F9E300111247301B5
:104FB00023E2E20EF11C39E2630E711C015E1F4F09
:104FC0006E147F04F1F0640197FE02C0C12CD12C55
:104FD000C8010134110514F080E490E0C816D90628
:104FE00064F480E8E816F10424F4B601C7010E94D5
:104FF0004C2A9FEFC91AD90AEBCFEFEFEE1AFE0A3F
:10500000DFCFF501808DF201E80FF11D20812F33F4
:1050100011F0205401C020E0F5016789F9E06F9F8D
:10502000B0011124685E7F4F36E0839FC0011124D8
:105030003BEFC32EE12C00E010E045E056E0849603
:105040000E94352DF50187898F3F79F4828D81117A
:105050000CC0E12C00E02FE735E041EC55E065E3C2
:1050600070E080E390E00E944430E12CF501038D74
:1050700021EE34E045E155E06BE170E082E090E044
:105080000E94443028960FB6F894DEBF0FBECDBF05
:10509000DF91CF911F910F91FF90EF90DF90CF9014
:1050A000BF90AF909F908F907F906F905F904F9048
:1050B0003F902F900C943C2ACF92DF92EF92FF9278
:1050C0001F93CF93DF93EC017B01DB0119961C91B9
:1050D0008B8DFE01811102C07C9601C0BE962F8986
:1050E000D7012F3F09F480C017968D919C91189796
:1050F0006CE070E00E94FB357C01892B09F093C0C5
:10510000B6E02B9FE00DF11D1124329617FF19C058
:10511000888DDF01A80FB11D8C918F5F8C93888DD6
:10512000DF01A80FB11D8C918B3514F081E48C93B5
:10513000888DDF01A80FB11D8C91803411F481E4BA
:105140008C9314FF10C0888DDF01A80FB11D8C91C6
:1051500081508C93888DDF01A80FB11D8C91813413
:1051600014F48AE58C9315FF05C0888D882311F00F
:105170008150888F16FF05C0888D823010F48F5FB4
:10518000888F13FF50C080818F3309F44CC0818118
:105190008F3309F448C082818F3309F444C06F0112
:1051A000F60161916F012F898B8D882319F089EDAC
:1051B00091E002C087EC91E0F6E02F9F800D911DF9
:1051C000112497012E5F3F4F820F931F0E946C3571
:1051D0003FEFE31AF30A43E0E416F10409F78FEF17
:1051E0008F8B84E68A8F1FC01A968C9180958123BD
:1051F0008C7099F08A8D811110C083E884BD27BD21
:1052000081EF809380001092880010928A000E94A3
:10521000032382E0F701868B178A15FD1B8E16FF8C
:1052200002C081E08B8F1076898D1036E1F58F5F9B
:10523000898F853108F445C08D3310F18D3309F025
:1052400040C0198E83E884BD8FEF87BD81EF8093C6
:1052500080001092880010928A000E945A3142E128
:1052600050E067EC71E0CE014C960E943E3542E181
:1052700050E069ED71E0CE018E960E943E3521C06E
:1052800020E430E0A901481B5109CA01880F93E8C6
:1052900094BD9FEF97BD91EF90938000109288008E
:1052A00080938A000EC0882361F083E884BD8FEF6D
:1052B00087BD81EF809380001092880010928A0051
:1052C000198E8A8D882311F081508A8FDF91CF91BA
:1052D0001F91FF90EF90DF90CF9008952F923F9213
:1052E0004F925F926F927F928F929F92AF92BF92F6
:1052F000CF92DF92EF92FF920F931F93CF93DF93A2
:1053000000D000D000D0CDB7DEB78C013B018EE0DD
:10531000FB018387F801108E118E84E6828FFB01DA
:105320008389F801838FFB0140885188411451041F
:1053300009F44FC0882329F029EDA22EBB24B39491
:1053400004C097ECA92EBB24B3946501312CC6018F
:105350000E9456354816590640F43394F6E0CF0EB5
:10536000D11C83E03812F3CF34C045019CE0890E94
:10537000911C82E0282EFE0131967F013214B0F498
:105380002A94B501F6E02F9E600D711D112446E0B0
:1053900050E0C7010E943E3546E050E0B401C7012D
:1053A0000E945C3586E0881A9108E8CF86E0F70114
:1053B00011928A95E9F78FE38B838C838D835A82D0
:1053C000498246E050E0B601C7010E945C35832D5A
:1053D00001C08FEFF801878BF3011286118642E13D
:1053E00050E067EC71E0C8014C960E943E3542E106
:1053F00050E069ED71E0C8018E960E943E35269618
:105400000FB6F894DEBF0FBECDBFDF91CF911F91D5
:105410000F91FF90EF90DF90CF90BF90AF909F9053
:105420008F907F906F905F904F903F902F90089556
:10543000FC018181813099F050F08230C9F4E08123
:1054400083E0E89FF0011124EC52FF4F0FC0E08190
:1054500083E0E89FF0011124E35CFE4F07C0E08188
:1054600083E0E89FF0011124E75EFE4F84910895E8
:1054700080E008950E944A37E7E6F2E081E0A0E08C
:10548000B8E000800EBC8111012C1197A0FDFDCF6A
:105490000192B9F70DB40895EEE6FFE290E1969F10
:1054A000D001A0781124A80F6770E60FF11D949128
:1054B000A959BD4F8C91982B9C930895EF920F930F
:1054C0001F93CF93DF93EA0143E0649F900111247F
:1054D000F901EC53F24D1491F901EB53F24D449163
:1054E000F901EA53F24D2491FC018781908565E032
:1054F00070E00E94FB35892B91F4213041F022307D
:1055000071F488818F5F8330F9F418821EC088811E
:10551000811102C083E088838881815015C02430C6
:10552000A1F400E0642F440F770BE12C2AE73DE261
:105530004CE85DE2812F90E00E944430DF91CF91F2
:105540001F910F91EF90089588830881EBCF2F92E0
:105550003F924F925F926F927F928F929F92AF9203
:10556000BF92CF92DF92EF92FF920F931F93CF9350
:10557000DF93CDB7DEB72A970FB6F894DEBF0FBE24
:10558000CDBF5B01342EFC01E35BFF4F248023E998
:10559000C22E2CE2D22E2C0124E6420E511C76960D
:1055A000FA83E9839C012A593F4F3C832B833A9726
:1055B000FE83ED832750310938872F834C013BE66A
:1055C000830E911C3C01E9E66E0E711C9C01295969
:1055D0003F4F3A872987F601F4903196E49031964F
:1055E0008491249130E0220F232F221F330B33208C
:1055F00031F0F0E43F120EC02115310559F0F501EC
:105600000389013049F1232B39F104C0F501828966
:105610008111B7C0F3E0CF0ED11C27E73DE22C1576
:105620003D05C9F680E02A960FB6F894DEBF0FBE9E
:10563000CDBFDF91CF911F910F91FF90EF90DF9041
:10564000CF90BF90AF909F908F907F906F905F9022
:105650004F903F902F900895E218E82FEF718E2F12
:1056600090E083319105B0F6FC01EA5AFF4F0C94AB
:10567000233689859A850E94AD22082F89859A85CF
:105680000E948B22182F89859A8514C0C3010E941D
:105690008B22182FC3010E94182A00E045EA5AE223
:1056A00051C0C4010E94AD22082FC4010E948B2268
:1056B000182FC4010E94182AF1CFEF81F88581814B
:1056C00010E000E044E55AE23DC0ED81FE818181B9
:1056D00010E000E046E35FE135C0EB81FC818081B2
:1056E00010E000E040E85EE12DC0E981FA818081B0
:1056F00010E000E046E35EE125C0F20181818823ED
:1057000009F488CF808110E000E048EC5DE11AC028
:1057100000E020E23DE144EB5DE14AC02AE03DE1EA
:1057200046E85DE145C0F5018289823050F572CFCF
:10573000F5018289833028F56DCF00E046E85CE210
:1057400010E080E0612F110F770B6E0D711DE7FCEB
:105750007A95002E000C110B282FC8018F0D911D7A
:10576000F7FC9A950E94C42F55CF00E028E43DE154
:105770004EE35AE21DC010E000E080E049E65CE242
:10578000E1CF10E000E080E04DE75DE1DBCF10E02D
:1057900000E080E048E75CE2D5CF00E02CE53DE1A9
:1057A00042E85AE205C000E022E33DE148E25AE265
:1057B0006E2DEE0C770BE12C8F2DFF0C990B0E94B8
:1057C000443028CFDC0111967C936E9385E0869F50
:1057D0009001879F300D1124F901E352F94EE491B5
:1057E0001396EC931397F901E552F94EE491149650
:1057F000EC93149712961C920895CF93DF93EC01CB
:1058000060E070E00E94E22B1A8219861A861B86DD
:105810008881998125E0289FF001299FF00D1124AE
:10582000E752F94EE491EE838FEF8D8388E088870D
:10583000DF91CF910895FC01DC01A859BF4F1C9264
:1058400011971C92139681E08C9311971C921396DA
:1058500082E08C9311971C92118A128A138A8DE030
:10586000848B118E158AEA59FF4F84E08083089556
:10587000FC01E35BFF4F21E02187B0961082319657
:1058800028EC208335961082749711821082028052
:10589000F381E02D82E0828384E18083FB018289B1
:1058A0008150828B0895CF93DF9300D000D000D039
:1058B000CDB7DEB7DC018D919C91119725E0289F33
:1058C000A001299F500D1124FA01E752F94E2491AD
:1058D000FA01E652F94E44911296EC911297F0E0DB
:1058E000E055F94EE49114968C91481B4E1B30E024
:1058F0003A832983042E000C550B5C834B833A8139
:105900005C8167E07BE080E090E026960FB6F8943B
:10591000DEBF0FBECDBFDF91CF910895DC018D9129
:105920009C911197019611969C938E9345E0489F08
:105930009001499F300D1124F901E352F94EE49191
:105940001396EC931397F901E552F94EE4911496EE
:10595000EC930895DC018D919C911197019711961C
:105960009C938E9345E0489F9001499F300D1124F0
:10597000F901E352F94EE4911396EC931397F90170
:10598000E552F94EE4911496EC9308953FB7F894DC
:105990008091680690916906A0916A06B0916B06A5
:1059A00026B5A89B05C02F3F19F00196A11DB11D7A
:1059B0003FBFBA2FA92F982F8827820F911DA11DB5
:1059C000B11DBC01CD0142E0660F771F881F991FF2
:1059D0004A95D1F708951F920F920FB60F92112496
:1059E0002F933F938F939F93AF93BF9380916302C5
:1059F00090916402A0916502B091660230916706B1
:105A000023E0230F2D3720F40196A11DB11D05C001
:105A100026E8230F0296A11DB11D209367068093EF
:105A2000630290936402A0936502B0936602809132
:105A3000680690916906A0916A06B0916B0601967E
:105A4000A11DB11D8093680690936906A0936A0614
:105A5000B0936B06BF91AF919F918F913F912F9122
:105A60000F900FBE0F901F9018954F925F927F92EC
:105A70008F929F92AF92BF92CF92DF92EF92FF925E
:105A80000F931F93CF93DF9300D000D0CDB7DEB735
:105A9000DC0148014115510509F406C2FA01F490F0
:105AA000319684914E5F5F4FAF2CB12C211102C013
:105AB000EE2061F101E010E0982F977011F400E002
:105AC00010E0982F969596959695090F111D0A9DB1
:105AD000F0010B9DF00D1A9DF00D112413E0712EB5
