:100000000C94DD1A0C94051B0C94051B0C94051B19
:100010000C94051B0C94051B0C94051B0C94051BE0
:100020000C94051B0C94051B0C94051B0C94051BD0
:100030000C94051B0C94051B0C94051B0C94051BC0
:100040000C94051B0C94051B0C94051B0C94051BB0
:100050000C94051B0C94051B0C94051B0C94772D1C
:100060000C94051B0C94051B0C94051B0C94051B90
:100070000C94051B0C94051B0C94051B0C94051B80
:100080000C9424240C94051B0C94051B0C94051B48
:100090000C94051B0C94051B0C94051B0C94051B60
:1000A0000C94051B0C94051B0C94051B442C6E2C06
:1000B000622C742CD72BE42BEF2BFB2B5C2C7A2C93
:1000C000032C0B2C132C2A2C302CA42B3F2C3A2C39
:1000D000352C000001000001000001000001FF03B9
:1000E00004FF0304FE0506FE0506FF0708FF0708D8
:1000F000070D06070D060B0E040B0E040D10010E66
:100100001001121203131203151405151405161607
:10011000071718070A000900000200000200000289
:10012000000002000302000602000902000C0200A7
:100130000F0200120200140200000900000000007B
:100140000000000000000001030301030301050596
:1001500001050501070701070701000945120445CC
:100160001404451604451804451A04451C04451E8C
:10017000044520044522044524044526044528045A
:10018000452A04452C04452E0445300445320445D7
:1001900034044334014134013F34013D35013935E4
:1001A000013735013535013336013136012F36013E
:1001B0002D36012B36992C13042C15042C17042CE6
:1001C00019042C1B042C1D042C1F042C21042C238B
:1001D000042C25042C27042C29042C2B042C2D045E
:1001E0002C2F042C31042C33042C35012C370129FD
:1001F00037012737012537012337011F38011D3803
:10020000011B3801193801173801153999131304E6
:10021000131504131704131904131B04131D0413DB
:100220001F04132104132304132504132704132983
:1002300004132B04132D04132F041331041333045C
:100240001335041337041339011139010F39010D26
:1002500039010B3A01093A01073A01053A01033A1B
:1002600001013B01FF3D01FF3F01FF4101FF430150
:10027000FF4501FF4701FF4901FF4B01FF4D01FF12
:100280004F01FF5101FF5301015302035302055374
:10029000020753020954020B54020D54020F540278
:1002A0001154021355021555021755021955021B18
:1002B00055021D56021F560221560223560225568C
:1002C000022757022957022B57022D57022F570298
:1002D0003158023358023558023758023958023B18
:1002E00059023D59023F5902415902435902455AA8
:1002F00002475A02495A024B5A024D5A024F5B02B8
:10030000515B02535B02555B02575B02595C025B17
:100310005C025D5C025F5C02615C02635D02645EC4
:1003200002655F02656102656302656502656702D9
:10033000656902656B02656D02656F026571026534
:1003400073026373016173015F73015D74015B7418
:1003500001597401577401557401537501517501A8
:100360004F75014D75014B75014976014776014581
:1003700076014376014176013F77013D77013B7776
:100380000139770137770135780133780131780108
:100390002F78012D78012B79012979012779012501
:1003A0007901237901217A011F7A011D7A011B7AD3
:1003B00001197A01177B01157B01137B01117B0168
:1003C0000F7B010D7C010B7C01097C01077C010581
:1003D0007C01037D01017E01018001018201018414
:1003E00001018601018801018A01018C01000004DC
:1003F0007F4A027D4A027B4A02794A02774A0275A5
:100400004A02734A02714A026F4A026D49026B49FD
:100410000269490267490265490063490061490070
:100420005F49005D49005B49005949005748005544
:1004300048025348025148024F48024D48024B4877
:1004400002494802474802454801434701414701E4
:100450003F47013D47013B470139470137470135D8
:1004600047023347023147022F46022D46022B46F0
:10047000022946022746022546002346002146005F
:100480001F46001D46001B45001945001745001575
:1004900045021345021145020F45020D45020B4569
:1004A00002094502074402054401034401014401D5
:1004B000FF4401FD4401FB4401F94401F74401F507
:1004C0004401F34302F14302EF4302ED4302EB43E5
:1004D0000200000288011400AF00140000802C000C
:1004E000320021003200370032000080DC00320090
:1004F000B8013200700332000080E402F201000013
:100500009000E402220000004800E4022200000003
:100510004800E402B10000006C00E4026900000041
:100520002400E4024600000048003F036900000088
:100530002400A403690000002400DC030A04000076
:10054000FB00DC03690000002400550446000000A5
:100550004800DD0446000000480075055D0200000B
:1005600024007505220000004800750522000000E7
:100570004800750522000000B3005504B1000000DA
:1005800024007505460000004800C80575000000FD
:1005900018007D06690000002400C8056906008077
:1005A000AF00140088011400008010033200930291
:1005B00032000B023200700332005D01320026016E
:1005C0003200EE013200C4003200A5003200830088
:1005D0003200DC00320057003200490032007B005C
:1005E00032007B003200000014007B00320000006B
:1005F00014007B0032000080D5F08D14A1C881CF9B
:10060000D9F1AF2000FCFEFFFFFFFFFFFFFFFFFF60
:10061000FFFFFFFFFFFFFFFFFFFFFFFFFEFEFC07E7
:100620000F1F1F1F1F1F1F1F1F1F1F1F1F1F1F1FEA
:100630001F1F1F1F1F1F1F1F0F1A0D00FC02FAFA9A
:10064000AAAA02F2FA2AF202B2BAEA6A021AFAE292
:100650001A02FC00000007080A0A0A0A080A0A0926
:100660000A080A0A0A0908080A0A08080700000016
:10067000FC02FAFA22FA02F2FA2AF202FAFA2AD270
:1006800002FAFA8AF202FC00000007080A0A090AC4
:10069000080A0A090A080A0A090A080A0A0A0A08C4
:1006A000070000FCFCFCFCFCFCFCFCFCFCFCFCFC77
:1006B000FCFCFCFCFFFFFFFFFFFFFFFFFFFFFFFF56
:1006C000FFFEFCF80101010101010101010101012D
:1006D00001010101010101010103070F0F0F0F0FBC
:1006E0000F0F070301210C00007828100078285014
:1006F0000078580010482000104820000078FC8E38
:10070000D6DAD68EFC780000000000000000000061
:1007100000000000000000000000000000000102D6
:100720000505050505020100000408022905023E31
:1007300009093E3F25251A1E2121123F21211E3F76
:100740002525213F0505011E21293A3F04043F21AB
:100750003F21001021211F3F040A313F2020203F6C
:1007600002023F3F02043F1E21211E3F0909061ECF
:1007700021112E3F09093622252519013F01011FAC
:1007800020201F0F10201F3F10103F3B04043B038D
:10079000043807312D23211E29251E223F20003237
:1007A0002929261221251A0C0A3F08172525191E6A
:1007B000252518013905031A25251A0629291EFCA5
:1007C000FEFFFFFFFFFFFFFFFFFFFFFFFFFFFFFF3A
:1007D000FFFFFFFFFFFFFFFFFFFFFFFFFFFFFFFF29
:1007E000FFFFFFFFFFFFFFFFFFFFFFFFFFFFFFFF19
:1007F000FFFFFFFFFFFFFFFFFFFFFFFFFFFFFFFF09
:10080000FFFFFFFFFFFFFFFFFFFFFFFFFFFFFFFFF8
:10081000FFFFFFFEFEFCFFFFFFFFFFFFFFFFFFFFED
:10082000FFFFFFFFFFFFFFFFFFFFFFFFFFFFFFFFD8
:10083000FFFFFFFFFFFFFFFFFFFFFFFFFFFFFFFFC8
:10084000FFFFFFFFFFFFFFFFFFFFFFFFFFFFFFFFB8
:10085000FFFFFFFFFFFFFFFFFFFFFFFFFFFFFFFFA8
:10086000FFFFFFFFFFFFFFFFFFFFFFFFFF0103078A
:100870000707070707070707070707070707070708
:1008800007070707070707070707070707070707F8
:1008900007070707070707070707070707070707E8
:1008A00007070707070707070707070707070707D8
:1008B00007070707070707070707070707070707C8
:1008C00007070703571300FC0202F2F2F282F2F26A
:1008D000F202F2F2F202C2E2F2121252624202F2A8
:1008E000F2F282F2F2F20202E2F29292122202C2D8
:1008F000E2F2321212722202C2E2F2125212F2E258
:10090000C202F2F2F21212F2F2E202F2F2F2929267
:100910001202E2F2929212220202FC000000FF0098
:10092000005F5F5F005F5F5F005F5F5F00172F5FCB
:1009300050515F2F5F005F5F5F005F5F5F002C5C67
:100940005151535F2E00172F5F585050582E0017EB
:100950002F5F5050505F2F17005F5F5F01015F5E98
:1009600058005F5F5F5052500C5C5151535F2E0036
:1009700000FF000000010202020202020202020263
:100980000202020202020202020202020202020247
:100990000202020202020202020202020202020237
:1009A0000202020202020202020202020202020227
:1009B0000202020202020202020202020202020217
:1009C0000202020202020202010000FFFFFFFFFF1B
:1009D000FFFFFFFFFFFFFFFFFFFFFFFFFFFFFFFF27
:1009E000FFFFFFFFFFFFFFFFFFFFFFFFFFFFFFFF17
:1009F000FFFFFFFFFFFFFFFFFFFFFFFFFFFFFFFF07
:100A0000FFFFFFFFFFFFFFFFFFFFFFFFFFFFFFFFF6
:100A1000FFFFFFFFFFFFFFFFFFFFFFFFFFFFFFFFE6
:100A2000FFFFFFFFFFFFFFFFFFFFFFFFFFFFFFFFD6
:100A3000FFFFFFFFFFFFFFFFFFFFFFFFFFFFFFFFC6
:100A4000FFFFFFFFFFFFFFFFFFFFFFFFFFFFFFFFB6
:100A5000FFFFFFFFFFFFFFFFFFFFFFFFFFFFFFFFA6
:100A6000FFFFFFFFFFFFFFFFFFFFFFFFFFFFFFFF96
:100A7000FFFFFFFFFFFFFFFFFFFFFFFFFFFFFFFF86
:100A8000FFFFFFFFFFFFFFFFFFFFFFFFFFFFFFFF76
:100A9000FFFFFFFFFFFFFFFFFFFFFFFFFFFFFFFF66
:100AA000FFFFFFFFFFFFFFFFFFFFFFFFFFFFFFFF56
:100AB000FFFFFFFFFFFFFFFFFFFFFFFFFFFFFFFF46
:100AC000FFFFFFFFFFFFFFFFFFFFFFFFFFFFFFFF36
:100AD000FFFFFFFFFFFFFFFFFFFFFFFFFFFFFFFF26
:100AE000FFFFFFFFFFFFFFFFFFFFFF030303030302
:100AF00003030303030303030303030303030303C6
:100B000003030303030303030303030303030303B5
:100B100003030303030303030303030303030303A5
:100B20000303030303030303030303030303030395
:100B3000030303482200FC06020202020202020230
:100B40000202020202020202020202020202020285
:100B50000202020202020202020202020202020275
:100B60000202020202020202020202020202020265
:100B70000202020202020202020206FC0000FF0060
:100B80000000000000000000000000000000000065
:100B90000000000000000000000000000000000055
:100BA0000000000000000000000000000000000045
:100BB0000000000000000000000000000000000035
:100BC000000000FF0000FF00000000000000000027
:100BD0000000000000000000000000000000000015
:100BE0000000000000000000000000000000000005
:100BF00000000000000000000000000000000000F5
:100C00000000000000000000000000FF0000FF8066
:100C100000000000000000000000000000000000D4
:100C200000000000000000000000000000000000C4
:100C300000000000000000000000000000000000B4
:100C400000000000000000000000000000000000A4
:100C5000000080FF0000000101010101010101010C
:100C60000101010101010101010101010101010174
:100C70000101010101010101010101010101010164
:100C80000101010101010101010101010101010154
:100C9000010101010101010101010100000B0887AF
:100CA0008F9DB7E7C7A5D7AF978D00000000000064
:100CB0000000000306090C0F1214F8FCFEFFFFFFF2
:100CC000FFFFFFFFFFFFFFFFFFFFFFFFFFFFFFFF34
:100CD000FFFFFFFFFFFFFFFFFFFFFFFFFFFFFFFF24
:100CE000FFFFFFFFFFFFFFFFFEFCF8FFFFFFFFFF1F
:100CF000FFFFFFFFFFFFFFFFFFFFFFFFFFFFFFFF04
:100D0000FFFFFFFFFFFFFFFFFFFFFFFFFFFFFFFFF3
:100D1000FFFFFFFFFFFFFFFFFFFFFFFF00010307D4
:100D20000707070707070707070707070707070753
:100D30000707070707070707070707070707070743
:100D40000707070707070707070703010031130015
:100D5000F8040202F2F2F21212F2F2E20202E2F2FB
:100D6000F2C2020202F2F2F2020202F20202E2F223
:100D70009292122202F2F2F2929212020204F8000D
:100D800000FF0000005F5F5F0105050502580714C2
:100D900014075F5E50002F5F5F5050502F002C549F
:100DA0005151535F2E005F5F5F505250000000FFB3
:100DB000000000010202020202020202020202021A
:100DC0000202020202020202020202020202020203
:100DD00002020202020202020202020202020201F4
:100DE0000000F8FCFEFFFFFFFFFFFFFFFFFFFFFF1C
:100DF000FFFFFFFFFFFFFFFFFFFFFFFFFFFFFFFF03
:100E0000FFFFFFFFFFFFFFFFFFFFFFFFFFFFFFFFF2
:100E1000FFFFFFFFFFFFFFFFFFFFFFFFFFFFFFFFE2
:100E2000FFFFFFFFFFFFFFFFFFFFFEFCF8FFFFFFDD
:100E3000FFFFFFFFFFFFFFFFFFFFFFFFFFFFFFFFC2
:100E4000FFFFFFFFFFFFFFFFFFFFFFFFFFFFFFFFB2
:100E5000FFFFFFFFFFFFFFFFFFFFFFFFFFFFFFFFA2
:100E6000FFFFFFFFFFFFFFFFFFFFFFFFFFFFFFFF92
:100E7000FFFFFFFFFFFFFFFF000103070707070753
:100E800007070707070707070707070707070707F2
:100E900007070707070707070707070707070707E2
:100EA00007070707070707070707070707070707D2
:100EB00007070707070707070707070707070707C2
:100EC0000301004B1300F804C2E2F2121252624214
:100ED000020202E2F2F2C2020202F2F2F202C2F2F2
:100EE000F2F20202F2F2F29292120202C2E2F21262
:100EF0005212F2E2C232F2F2820282721202F2F272
:100F0000F292921202F2F2F21212F2F2E204F800FB
:100F100000FF00172F5F50515F2F5F005807141418
:100F2000075F5E50005F015F5E015F5F5F00005F13
:100F30005F5F5052500000172F5F5050505F2F17C7
:100F400000035F5F58070000005F5F5F5052500072
:100F50005F5F5F01015F5E5800FF00000001020259
:100F60000202020202020202020202020202020261
:100F70000202020202020202020202020202020251
:100F80000202020202020202020202020202020241
:100F90000202020202020202020202020202020231
:100FA000020202010000040406090F060A0F0F08DE
:100FB000090D0F0A090B0F0F03020F0F070D0D0D7F
:100FC0000F0A0E0E010D0F030E0B0B0F07050F0F6F
:100FD000FCFEFFFFFFFFFFFFFFFFFFFFFFFFFFFF25
:100FE000FFFFFFFFFFFFFFFEFC00010303030303FE
:100FF00003030303030303030303030303030303C1
:101000000100190A00FC02020202020202020202AC
:101010000202020202020202020202FC00000001BD
:1010200001010101010101010101010101010101B0
:10103000010101010000090D000404FCFEFE000096
:1010400000000A0A0B0B0B0A0A00001C82C2E27E97
:101050003E1C00000B0B0B0B0B0B0B0000808632B1
:1010600032FEFECC0000050A0A0A0B0B0500F8FC54
:10107000FEFFFFFFFFFFFFFFFFFFFFFFFFFFFFFF81
:10108000FFFFFFFFFFFFFFFFFFFFFFFFFFFFFFFF70
:10109000FFFFFFFFFFFFFFFFFFFFFFFFFFFFFFFF60
:1010A000FFFFFFFFFFFFFFFFFFFFFFFFFFFFFFFF50
:1010B000FFFFFFFEFCF8FFFFFFFFFFFFFFFFFFFF4B
:1010C000FFFFFFFFFFFFFFFFFFFFFFFFFFFFFFFF30
:1010D000FFFFFFFFFFFFFFFFFFFFFFFFFFFFFFFF20
:1010E000FFFFFFFFFFFFFFFFFFFFFFFFFFFFFFFF10
:1010F000FFFFFFFFFFFFFFFFFFFFFFFFFFFF0001FD
:101100000307070707070707070707070707070773
:10111000070707070707070707070707070707075F
:10112000070707070707070707070707070707074F
:10113000070707070707070707070707070707073F
:10114000070707030100481300F804020202020225
:10115000020202020202F2F2F202020202F2F2F2CF
:101160000232F2F2820282721202F2F2F2929212CF
:1011700002E2F2929212220202020202020202022F
:101180000202020202020202020202020204F80049
:1011900000FF0000000000000000000000005F5F92
:1011A0005F505050005F5F5F0000035F5F580700B3
:1011B00000005F5F5F5050500C545151535F2E0040
:1011C000000000000000000000000000000000001F
:1011D000000000000000FF00000001020202020205
:1011E00002020202020202020202020202020202DF
:1011F00002020202020202020202020202020202CF
:1012000002020202020202020202020202020202BE
:1012100002020202020202020202020202010000B3
:1012200040E8FCFCFCFCFCDCBBFFFDFFFBB870F005
:10123000F0F0F0702000000000000000000101014B
:10124000010101030303030303010000002070F008
:10125000F0F0F070BBFFFDFFFBB8DCFCFCFCFCFC1D
:10126000E84000000103030303030301010101013E
:10127000010000000000000090F8F8F8F8F8F8F815
:10128000FBFFFFFFFBF8F8F8F8F8F8F8F89000011A
:10129000010101010101010101010101010101013E
:1012A00001010100160A004048586858488890B368
:1012B000D5B390102060A060202000000000000046
:1012C0000000000000000000000101010101010018
:1012D00000000000202060A060201093B5D3B090E3
:1012E0008848586858484000000000010101010189
:1012F000010000000000000000000000000000905D
:1013000090B0D0B0909090B3D5B3909090B0D0B052
:10131000909090000000000000000000000000001D
:10132000000000000000000000001414000000C0D5
:101330003804C2796551516579C20438C000000093
:1013400038C40213E4E9A2D735E5E535D7A2E9E4CC
:101350001302C438000C050A08090D0A0101010135
:101360000A0D09080A050C0000000000C03844DA24
:10137000E5F9C5338A7488708000000000000043DE
:10138000249B07069733793810100080010608F077
:1013900000060D0F07000809060D0F0700080609D3
:1013A00008000E01000000807088748A33C5F9E5DA
:1013B000DA4438C000000000F00806018000101078
:1013C0003879339706079B2443000000010E00087C
:1013D00009060800070F0D06090800070F0D060093
:1013E000C03008087CF4C21D2B416B412B9EC47C8D
:1013F000080830C00738C012C4E8E2F7F56565F5A3
:10140000F7E2E8C412C03807000C050A08090D0B02
:10141000010101010B0D09080A050C00000000C0C4
:10142000380402D9A511B115A1C20438C0000000CA
:1014300078848203CFCFECF1E26466E4F2E9CCC7B2
:1014400003828478000C050A08090D0B01010101D3
:101450000B0D09080A050C00000000C03804C27911
:101460006551516579C20438C0000000708884035A
:10147000C4D982385482D682543881C40384887097
:10148000000C050A08090D0B020000020A0D0908EC
:101490000A050C00000000C03804C279655151658E
:1014A00079C20438C000000038C40213E4E922976E
:1014B00045256525478229E41302C438000C050A36
:1014C0000809080305080D08050308080A050C00AB
:1014D00000000000C020109010C8A42272CAAA4ABE
:1014E00002E408F000186488473079FEFC71322568
:1014F0004A2C09877108040300000000000205045B
:10150000080A05010101010000000000E818209010
:10151000C8C8C424844830A0202040404080000037
:10152000C38142BDDB5ABD66007EC37E81FF665A21
:101530004224817E070804090B0B0B0C090A0C05D9
:1015400004040202020100000ADFFFFFFFFF6F0434
:101550000607070706006FFFFFFFFFDF0A00060709
:1015600007070604FFFFFFFFFFFFE600020707076C
:101570000600E6FFFFFFFFFFFF0006070707020068
:101580001FFFFFFFFFFF660002070707060066FF59
:10159000FFFFFFFF1F000607070702001FFFFFFFF7
:1015A000FFFF260406070707060026FFFFFFFFFFD1
:1015B0001F000607070706041FFFFFFFFFFF660067
:1015C00006070707020066FFFFFFFFFF1F00020775
:1015D00007070600FFFFFFFFFFFFE60406070707F8
:1015E0000702E6FFFFFFFFFFFF02070707070604EA
:1015F000E2FFFFFFFFFF3A000607070702003AFF7E
:10160000FFFFFFFFE20002070707060056FEFEFF8E
:10161000FFFFDE0000050F1F0F1DDEFFFFFFFEFEB8
:10162000561D0F1F0F0500000A0D00004094BCB6A8
:10163000FAD68C400000000000050905080000FEF5
:101640004094BCB6FAD68C4010070000000509058E
:1016500008000E0D000018ACF46C78A80000000023
:1016600000000008060B0701010000000000000058
:101670000000000080C0C0A070E04000000000003A
:101680000A0A07030503050001000000008000802E
:1016900000808080008040C08000000004020003C1
:1016A0000709070F050E0300070B000ADEFB9D6B01
:1016B0000600040204060000066B9DFBDE0A000023
:1016C0000006040204004A1EDBFDEB264000000277
:1016D000040600004026EBFDDB1E4A000006040263
:1016E00000000A1EDBFDEB660000000200060000A1
:1016F0000066EBFDDB1E0A000006000200000A1E69
:10170000DBFDAB2600000402000600000026ABFD56
:10171000DB1E0A000006000204000A1EDBFDEB6669
:1017200000000006000200000066EBFDDB1E0A0060
:101730000002000600004A1EDBFDEB26400004020A
:10174000000202004026EBFDDB1E4A0002020002FE
:1017500004004022EBFBEB22100000060002000018
:101760001022EBFBEB22400000020006000054BCFC
:10177000B6FAD60C00000005090508000CD6FAB62A
:10178000BC540008050905000000387CFEFFFFFF7F
:10179000FE7C38000000010101000000090900384A
:1017A0005482D6825438000000000000000000007F
:1017B00000384CC29286643800000000000000002F
:1017C00000000038648692C24C380000000000001F
:1017D000000000000002040608090A0A0B0B0C0CAA
:1017E0000C0D0D0D0D0D0D0D0D0D0D0D0D0D0D0D2A
:1017F0000D0C0C0C0B0B0A0908060402000B794AAD
:1018000001180D794A001C0F794A000C1178490023
:101810000C137849000C157849000C177849000C16
:10182000197849000C1B7748000C1D7748000C1FE5
:101830007748000C217748000C237748000C257668
:1018400047000C277647000C297647000C2B76477B
:10185000000C2D7647000C2F7546000C31754600A4
:101860000C337546000C357546000C377546000C78
:10187000397445000C3B7445000C3D7445000C3F29
:101880007445001C417445001C437343001C4573A0
:1018900043001C477343000C497343000C4B7343D4
:1018A000000C4D7242000C4F7242000C517242000B
:1018B0000C537242000C557242000C577141000CDF
:1018C000597141000C5B7141000D5D714100055D76
:1018D0006F3F0C035D6D3D0C035D6B3B0D035D695C
:1018E000390D035D67370C035D65350C035D6333AC
:1018F0000D035D61310D035D5F2F0C035D5D2D0CEC
:10190000035D5B2B0D035D592900465B5929004E91
:10191000595828004C575828004C555828004C530B
:101920005828004C515828004C4F5727004C4D5711
:1019300027005C4B5727005C495727005C47572717
:10194000005C455626005C435626005C4156260046
:101950005C3F5626005C3D5626005C3B5525005CEE
:10196000395525005C375525005C355525005C331D
:101970005525005C315424005C2F5424005C2D5408
:1019800024004C2B5424004C295424004C2753236E
:10199000004C255323004C235323004C2153230098
:1019A0004C1F5323004C1D5222004C1B5222004C52
:1019B000195222004C175222004C155222004C138F
:1019C0005121004C115121004C0F5121004C0D515F
:1019D00021004D0B512100490B4F1F0C030B4D1DD6
:1019E0000C030B4B1B0D030B49190D030B47170C75
:1019F000030B45150C030B43130D030B41110D0392
:101A00000B3F0F0C030B3D0D0C030B3B0B0D030B9E
:101A100039090D030B37070C030B35050C030B338A
:101A2000030D030B31010D030B2F000C030B2D00D5
:101A30000C030B2B000D030B29000D030B27000CCF
:101A4000030B2400002A0D2400000E0F2400000CBC
:101A5000112400000C132400000C152400000C17A6
:101A60002400000C192400000C1B2400000C1D2471
:101A700000000C1F2400000C212400000C23240073
:101A8000000C252400000C272400000C2924000051
:101A90000C2B2400000C2D2400000C2F2400000C23
:101AA000312400000C332400000C352400000C37D6
:101AB0002400000C392400000C3B2400000C3D24C1
:101AC00000000C3F2400000C412400000C432400C3
:101AD000000C452400000C472400000C49240000A1
:101AE0008C4B2400008C4D21000B044F1F000B0C6D
:101AF000511E000B0C531D000B0C551D000F005503
:101B00001D000F00551D000F00551D000F00551D35
:101B1000000F00551D000F00551D000F005F150040
:101B20000F005F15000F005B150013005B1500131D
:101B3000005F170014005F17001400641900140000
:101B400064190014006419001400581D0114005891
:101B50001D021400581D031400542A041400542AB2
:101B6000051400542A06140058320714005832088D
:101B7000140058320914005934090000593409017D
:101B8000005B340903005D340905005F3409070078
:101B900061340909006334090300653409050067ED
:101BA0003409070069340909006B340903006D34F6
:101BB0000905006F340907007134090900733409FD
:101BC00003007534090500773409070079340909E1
:101BD000007B340903007D340905007F34090700C8
:101BE0008134090700551E000B00571F010B005BD5
:101BF00021030B005D23050B005F26080B00612904
:101C00000B0B00632C0E0B006530120B00673315B5
:101C1000100069331511006933151200693315126C
:101C2000006933151200693315120069331512006B
:101C30006933151200693315120069331512004D0E
:101C400024000B004F24000B005124000B005325EF
:101C5000000B005525000B005725010B005B2603E8
:101C60000B005D26050B005F27080B0061280B0B9E
:101C70000063290E0B00652B120B00672E15100058
:101C800069331511006933151200693315120069A3
:101C900033151200693315120069331512006933C8
:101CA00015120069331512006933151200C7340983
:101CB0000100633409010063340900006334090042
:101CC0000061330902005F310904005D2E0906003E
:101CD0005B2C090800592A090200572809040055FD
:101CE00026090600532409080051220902004F2149
:101CF0000904004D220906004B2409080049240963
:101D00000200472409040045240906004324090869
:101D10000041240902003F240904003D2409060073
:101D20003B2409080039240902003724090400353E
:101D300024090600332409080031240902002F2455
:101D40000904002D240906002B2409080029240970
:101D50000200272409040025240906002324090879
:101D60000021240902001F240904001D2409060083
:101D70001B220908001920090200171E080400157B
:101D80001C070600131A0608001118050A000F1692
:101D9000040A000F14030A000F13020A000F1101B6
:101DA0000A000D0F000A000B0E000200090E0004CD
:101DB00000070E000600050E000800030E000200DA
:101DC000030E000C00030E000C00030E000D0003B8
:101DD0000E000D00030E000C00030E000C00030E9D
:101DE000000D00030E000D00030E000C00030E009A
:101DF0000C00030E000D00030E000D00030E000C7E
:101E000000030E000200010E000400FF0E00060099
:101E1000FD0E000800FB0E000200F90E000400F7A2
:101E20000E000600F50E0008007924000004FFFFF4
:101E3000FFFFFFFFFFFFFFFFFFFFFFFFFFFFFFFFB2
:101E4000FFFFFFFF000000000000000000F0F8F0BE
:101E5000F0F0F0F0F8F014020303000303030003B2
:101E60000303000303030003030300030707000742
:101E7000070700070707000707070007070700070E
:101E8000FFFFFFFCFCFCFCFCFFFFFFFFFFFFFFFF71
:101E9000FFFFFFFFFFFF0707070101010101070720
:101EA000070705000A1E1B1D0B0616087A7A7A0022
:101EB0007C54440078147800485424000C700C00C2
:101EC0007A7A7A7A7A007C107C00781478007C1414
:101ED00068007C4438007A7A091000000000000095
:101EE000000000F008D0D010101008F00C140042D0
:101EF0001000004410004008010020D089A8A8A8C4
:101F0000A988B08CD3200002050B0F0A0A0A0A0523
:101F1000020000882000000842000044100220D087
:101F200088A8A8A9A888B08CD3200002050B0F0AA6
:101F30000A0A0A0502000082001044000010420054
:101F4000080020D088A9A8A8A889B08CD3200002B6
:101F5000050B0F0A0A0A0A0502000042100000449D
:101F6000100000084100408091285060115860B175
:101F70008040000103070F0F0F0F070301000088C7
:101F80002000000842000044100240809028506168
:101F9000105860B08140000103070F0F0F0F0703B7
:101FA0000100004108000010440000104200408081
:101FB00091285061105860B18040000103070F0F55
:101FC0000F0F0703010000000000008040800000A8
:101FD0000000008040582E2F2F96954A8000030461
:101FE0000A0A0D0D0D0E0E0B05030910000048B076
:101FF000CCB0420000F008DFDB151B1F08F000002A
:1020000080E862C0D00000F008DFD41B141F08F085
:10201000000080E872C0D00000F008DFD41B141F5D
:1020200008F0000002B058A4F00000F008DFDF154F
:102030001E1F08F0091B0000805C7B5C000000068E
:1020400009102020201008000000000000000000FF
:10205000000000000000000000000000805C7B5CCD
:1020600000000006C91020202010080000FF00001A
:10207000000000000004010000000000000000005B
:10208000805C7B5C00000006C910A02020100800C6
:1020900000FF00FF00000000000401040100000038
:1020A00000000000805C7B5C00000006C910A020DE
:1020B000A010080000FF00FF00FF00000004010462
:1020C0000104010000000000805C7B5C0000000651
:1020D000C910A020A010C80000FF00FF00FF00FFF3
:1020E000000401040104010401002838000000007C
:1020F00000000000000000000000000000000000E0
:1021000000804018B4BC180008D0B0204080800087
:1021100000000000000000000000000000000000BF
:1021200000006090904A0408010000000003070CC2
:102130003973E898141415D3D6140C180000000055
:10214000000000000000000000000000000000008F
:10215000000000000000000000000103071C38F32D
:10216000CD940A0A000000000000000000000000FA
:10217000000000000000000000000000000000005F
:10218000000000000000000001030F1E000000001E
:10219000000000000000000000000000000000003F
:1021A000000000000000000000000000000000002F
:1021B000000000000000000000000000000000001F
:1021C000000000000000000000000000000000000F
:1021D00000000000000000000000000000000000FF
:1021E00000000000000000000000000000000000EF
:1021F00000000000000000000000000000000000DF
:1022000000000000000000000000000000000000CE
:1022100000000000000000000000009834BC18001E
:1022200008D0B020408080000000000000000000C6
:10223000000000000000000000000000000080849A
:10224000681026010003070C3973E898141415D39D
:10225000D6140C1800000000000000000000000070
:102260000000000000030404020000000000000061
:1022700000000103071C38F3CD940A0A0000000097
:10228000000000000000000000000000000000004E
:10229000000000000000000000000000000000003E
:1022A00001030F1E000000000000000000000000FD
:1022B000000000000000000000000000000000001E
:1022C000000000000000000000000000000000000E
:1022D00000000000000000000000000000000000FE
:1022E00000000000000000000000000000000000EE
:1022F00000000000000000000000000000000000DE
:1023000000000000000000000000000000000000CD
:1023100000000000000000000000000000000000BD
:1023200000000000000000000000000000000000AD
:1023300000000018B4BC180008D0B0204080800015
:10234000000000000000000000000000000000008D
:10235000000000000000000000000040DE43070C09
:102360003973E898141415D3D6140C180000000023
:10237000000000000000000000000000000000005D
:102380000000000C1310080000000103071C38F3C4
:10239000CD940A0A000000000000000000000000C8
:1023A000000000000000000000000000000000002D
:1023B000000000000000000001030F1E00000000EC
:1023C000000000000000000000000000000000000D
:1023D00000000000000000000000000000000000FD
:1023E00000000000000000000000000000000000ED
:1023F00000000000000000000000000000000000DD
:1024000000000000000000000000000000000000CC
:1024100000000000000000000000000000000000BC
:1024200000000000000000000000000000000000AC
:10243000000000000000000000000000000000009C
:10244000000000000000000000000000000000008C
:10245000000000000000000000000000000000007C
:1024600000000000008040200C1A1ECCC0828A367A
:10247000E48444A84818D090102020204040408098
:102480008080000000000030484825020400000061
:10249000000000000101030307070F0C1C1838336C
:1024A0007E78F4CAC582810E7CE001010000000044
:1024B000000000000000000000000000000000001C
:1024C0000000000000000000000000000101030304
:1024D00007070F0C000000000000000000000000D3
:1024E00000000000000000000000000000000000EC
:1024F00000000000000000000000000000000000DC
:1025000000000000000000000000000000000000CB
:1025100000000000000000000000000000000000BB
:1025200000000000000000000000000000000000AB
:10253000000000000000000000000000000000009B
:10254000000000000000000000000000000000008B
:10255000000000000000000000000000000000007B
:10256000000000000000000000000000000000006B
:10257000000000000000000000000000000000005B
:10258000CC1A1ECCC0828A36E48444A84818D09065
:10259000102020204040408080800000000000008B
:1025A00000008040423408132000000001010303B2
:1025B00007070F0C1C1838337E78F4CAC582810EC9
:1025C0007CE00101000000000000010202010000A7
:1025D00000000000000000000000000000000000FB
:1025E000000000000101030307070F0C00000000BA
:1025F00000000000000000000000000000000000DB
:1026000000000000000000000000000000000000CA
:1026100000000000000000000000000000000000BA
:1026200000000000000000000000000000000000AA
:10263000000000000000000000000000000000009A
:10264000000000000000000000000000000000008A
:10265000000000000000000000000000000000007A
:10266000000000000000000000000000000000006A
:10267000000000000000000000000000000000005A
:10268000000000000000000000000000000000004A
:1026900000000000000000000CDA1ECCC0828A3668
:1026A000E48444A84818D090102020204040408066
:1026B000808000000000000000000000000000001A
:1026C000887B08000101030307070F0C1C1838332F
:1026D0007E78F4CAC582810E7CE001010000000012
:1026E00000000000000000000102020100000000E4
:1026F00000000000000000000000000001010303D2
:1027000007070F0C000000000000000000000000A0
:1027100000000000000000000000000000000000B9
:1027200000000000000000000000000000000000A9
:102730000000000000000000000000000000000099
:102740000000000000000000000000000000000089
:102750000000000000000000000000000000000079
:102760000000000000000000000000000000000069
:102770000000000000000000000000000000000059
:102780000000000000000000000000000000000049
:102790000000000000000000000000000000000039
:1027A0000000000000000000000000000000000029
:1027B0000C1ADE0CC0828A36E48444A84818D090F3
:1027C0001020202040404080808000000000000059
:1027D000000000000000000000002013986905813F
:1027E00007070F0C1C1838337E78F4CAC582810E97
:1027F0007CE001010000000000000000000000007B
:1028000000000000010202010000000000000000C2
:10281000000000000101030307070F0C0000000087
:1028200000000000000000000000000000000000A8
:102830000000000000000000000000000000000098
:102840000000000000000000000000000000000088
:102850000000000000000000000000000000000078
:102860000000000000000000000000000000000068
:102870000000000000000000000000000000000058
:102880000000000000000000000000000000000048
:102890000000000000000000000000000000000038
:1028A0000000000000000000000000000000000028
:1028B0000000000000000000000000000000000018
:1028C00000000000000000000C1A1E4CC0028A36F6
:1028D000A40444A84818D0901020202040404080F4
:1028E00080800000000000000000000000000000E8
:1028F00000000000080402056893876C0C18383348
:102900007E78F4CAC582810E7CE0010100000000DF
:1029100000000000000000000000000000000000B7
:10292000000000000000000000000000010103039F
:1029300007070F0C0000000000000000000000006E
:102940000000000000000000000000000000000087
:102950000000000000000000000000000000000077
:102960000000000000000000000000000000000067
:102970000000000000000000000000000000000057
:102980000000000000000000000000000000000047
:102990000000000000000000000000000000000037
:1029A0000000000000000000000000000000000027
:1029B0000000000000000000000000000000000017
:1029C0000000000000000000000000000000000007
:1029D00000000000000000000000000000000000F7
:1029E00000000000000000000000000000000000E7
:1029F00000000000000000000000000000000000D7
:102A00000000008040C08020A0A0202020A020D076
:102A1000D09010101010109050906868C888080866
:102A20000808080800000000000000017B030108FE
:102A30000C0D0F0E0D0E1D1818191B1E1C1A1D1A39
:102A400019181010303133363C38343A0000000089
:102A5000000000314F412000000000000000000095
:102A60000000000000000000000000000000000066
:102A70000000000000000000000000000000000056
:102A80000000000000000000000000000000000046
:102A90000000000000000000000000000000000036
:102AA0000000000000000000000000000000000026
:102AB0000000000000000000000000000000000016
:102AC0000000000000000000000000000000000006
:102AD00000000000000000000000000000000000F6
:102AE00000000000000000000000000000000000E6
:102AF00000000000000000000000000000000000D6
:102B000000000000000000000000000000000000C5
:102B100000000000000000000000000000000000B5
:102B200000000000000000000000000000000000A5
:102B30000000008080C0C0606030301800000000DD
:102B400000000000000000000000008080C0C060A5
:102B5000603030B8188C6CE6C68383E119E4168CBB
:102B60008C98587400000000000000000000000075
:102B700018B43C19012022261C1816090E09040459
:102B80000403030301010100000000000000000035
:102B90000000000000000000887B0800000000002A
:102BA0000000000000000000000000000000000025
:102BB0000000000000000000000000000000000015
:102BC00001020201000000000000000000000000FF
:102BD00000000000000000000000000014020100DE
:102BE00000000100000001000000010000000100E1
:102BF00000001403020000000200000002000000B8
:102C000002000000020000000B0BF83878E8D0A0AA
:102C100000A0100C0C0704040405070707000000BF
:102C2000F83878E0C8A443830000000704040405D2
:102C30000707070000000B1300FE484848484848B3
:102C400048FE0000FF92929292929292FF0000033F
:102C50000000000000000003001910010107050535
:102C6000070303030303030303030303030307052A
:102C70000507040400000000000000000000000040
:102C80000000000000000000000000000004040735
:102C900005050703030303030303030303030303FC
:102CA000070505070101000000000000000000000A
:102CB0000000000000000000000000000000000113
:102CC00001070505070303030303030303030303CA
:102CD00003030705050701010000000000000000D4
:102CE00000000000000000000000000000000000E4
:102CF0000001010F0B0A0E060606040C0C0C081846
:102D0000181818705050704040000000000000007B
:102D100000000000000000000000000000000000B3
:102D20000000000040407050507018181818080C2F
:102D30000C0C040606060E0A0B0F01010000000031
:102D40000000000000000000000000000000000083
:102D5000000000000001070B0A0E06040C0C081806
:102D60001810303020E06040C0000000000000007B
:102D70000000000000000000000000000000000152
:102D8000010101010000000000000000C04060E0FF
:102D9000203030101818080C0C04060E0A0B07011E
:102DA000000000010101010100000000000000001E
:102DB00000000000000000000019362C183060C030
:102DC0008000000000000000000000000000000083
:102DD0000000000000000000000103066CD8B06095
:102DE0008000000000000000000000000000000063
:102DF00000000000000000000000000080C0603003
:102E0000182C36190000000000000000000080604F
:102E1000B0D86C060301000000000000000D08257A
:102E20002D39312931252D39312931210C08627A8A
:102E30007A62627A7A62627A7A620B08878F9DB7C9
:102E4000E7C7A5D7AF978D00190100050F0C18042F
:102E50002418053C18060943001342001D410027B1
:102E60004000313F003B3E00453D00092F03152F38
:102E700001212F012D2F01392F01452F01174B0162
:102E8000234B015750015F50016349016F49017B9A
:102E900049016A500E573F01633F016F3F017B3F7D
:102EA00001FB6C01166C01226C012E6C01326C016D
:102EB0004F6C01005C000A5D00145E001E5F00287C
:102EC00060003261003C62004663005064005A6555
:102ED000007170027D70020A85001484001E830058
:102EE0002882003281003C8000467F00507E005ADC
:102EF0007D00647C00094A035B6A03FC2F01002407
:102F0000070044891444882845883C4688504788EF
:102F1000644888784988580A0A55000B007A0C00E2
:102F20007A4D7985527285516B8550000000387C4E
:102F3000FEFFFFFFFE7C38000000010101000000E1
:102F4000090900385482D68254380000000000007D
:102F50000000000000384CC2928664380000000077
:102F60000000000000000038648692C24C38000067
:102F7000000000000000000003F70403F80403F958
:102F80000403FA0403FB0403FC0403FD0403FE042E
:102F900003FF040300040301020501020701020903
:102FA00001020B01020D02020F02021102021302C2
:102FB000021502021703021903021B03021D03027A
:102FC0001F0302210402230402250402270402290C
:102FD00004022B05022D05022F05023105023305DF
:102FE000023506023706023906023B06023D06029A
:102FF0003F0702410702430702450702470702490C
:1030000008024B08024D08024F08025108025309FA
:10301000025509025709025909025B09025D0A02B9
:103020005F0A02610A02630A02650A02670B02690B
:103030000B026B0B026D0B026F0B02710C02730D16
:1030400004730F04731104731304731504731704CA
:10305000731904731B04731D04731F047321047319
:1030600023047123016F23016D23016B2401692463
:10307000016724016524016324016125015F2501A5
:103080005D25015B25015925015726015526015370
:1030900026015126014F26014D27014B27014927C3
:1030A000014727014527014328014128013F280105
:1030B0003D28013B280139290137290135290133F0
:1030C00029013129012F2A012D2A012B2A01292A20
:1030D00001272A01252B01232B01212B011F2B0165
:1030E0001D2B011B2C01192C01172C01152C011370
:1030F0002C01112D010F2D010D2D010B2D01092D7D
:1031000001072E01052F01053101053301053504A5
:10311000053704053904053B04053D04053F040556
:103120004104010204081020408021080F0F080804
:103130000006090B06000E03030E000F090F060020
:103140000F0F000F02030F000E0F090D000E10BE2F
:10315000BDBEBDBEBDBEBDBEBDBEBDBE0000040089
:1031600004000400040004000400004E080F0D07D2
:1031700002000F050F0A000F0D0900020B0D0002DF
:103180000B0D00000000000F0D0702000F0F0808D4
:10319000000E03030E00030E0E0300000006090BD1
:1031A00006000F02030F00000000010F0F010E03C5
:1031B000030E000F0D0702000F0D090E10A7C7A781
:1031C000C7A7C7A7C7A7C7A7C7A7000707070707B6
:1031D00007070707070707070024080E1F1F1F0E12
:1031E00000000000000000000000001F0E040000AE
:1031F00000000000000000040E1F00040E1F00FF6E
:10320000FFFFFFFFFFFFFFFFFFFFFFFFFFFFFFFFCE
:10321000FFFFFFFFFFFFFFFFFFFFFFFFFFFFFFFFBE
:10322000FFFFFFFFFFFFFFFFFFFFFFFFFFFFFFFFAE
:10323000FFFFFFFFFFFFFFFFFFFFFFFFFFFFFFFF9E
:10324000FFFFFFFFFFFFFFFFFFFFFFFFFFFFFFFF8E
:10325000FFFFFFFFFFFFFFFFFFFFFFFFFFFFFFFF7E
:10326000FFFFFFFFFFFFFFFFFFFFFFFFFFFFFFFF6E
:10327000FFFFFFFFFFFFFFFFFFFFFFFFFFFFFFFF5E
:10328000FFFFFFFFFFFFFF4410000000000000BC35
:103290007EC7EBEDEBC77EBC00003C2C0038143839
:1032A0000008241000043804000000000000BC7E68
:1032B000C1D5D5D5CB7EBC00003C103C00381438BD
:1032C000003C1428003C241800000000000000000E
:1032D00000000000010202020202010000000000E2
:1032E00000000000000000000000000000000000DE
:1032F00000000001020202020201000000000000C2
:1033000000000000000000000000000000000000BD
:1033100000387CFEFFFFFFFE7C3800000001010149
:10332000000000090900385482D682543800000099
:103330000000000000000000384CC2928664380093
:103340000000000000000000000038648692C24CBB
:1033500038000000000000000000000D08252D3995
:10336000312931252D3931293121622BFC02FDFD16
:10337000FDFDFDFDFDFDFDFD02FDFDFDFDFDFDFD78
:10338000FDFDFD027C90E8F4FAFDFDFDFDFDFDFD77
:10339000FDFDFDFAF4E890FC02FDFDFDFDFDFDFDE7
:1033A000FDFDF3CC02FDFDFDFDFDFDFDFDFDFDFD83
:1033B00002DCE8F4FAFDFDFDFDFDFDFDFDFDFDFA7D
:1033C000F4E8D020C0000000000000000000000170
:1033D000FE00FFBF7F7F3FBFBFBC7E7F7FBF7FB749
:1033E000CB35C20202FF00FFBF7FBF7FBFFF01FEE0
:1033F0000001FF7FBF7FBF7FFF00FFFE00FFBF7F99
:10340000BF7FBFFF7FFFBF7CB07FBF7FBF7FBFFF9E
:1034100000FE00FFBF7FBF7FBFFF00FE0EECAB6B67
:10342000AB6BAB6BEB0CF300000000000000000086
:10343000F008F7B0DFAAD08003354E7D6F15FAAFE4
:10344000D5AAD7AED9B6F40FF08F7AD5AAD5AADF10
:10345000B8D7B4D8AFD5AAD5EA7D8FF00FF7B0DFD3
:10346000AAD5AAD5AADFB0F1079D7AD5AAD5AAD543
:10347000AAFF00FF40BF6AD5AAD5AADFB0D7B4D350
:10348000BED56A350A959F809F80800000000000AD
:1034900000003B78EABA3A3A2ABA78B86B3A79EA45
:1034A000B83A3A2ABA7ABA6A3A78EBB8393A28BAC4
:1034B0007ABA6A3A7AEABA3A3A28BA79B86B387A72
:1034C000EABA3A3A2ABA7ABA6A3A78EBBA383A2A6F
:1034D000BA7ABA6A387BE8B8393A28BA7ABA6A3A14
:1034E0003A0A00E01C8261BCB2A8A8B2BC61821C8E
:1034F000E0000000040404050706050605040404B2
:10350000040405070605060504040404040507066B
:10351000050605040404040405070605060504045D
:10352000040404050706050605040404040405074D
:10353000060506050404040404050706050605043B
:1035400000001C62810972F4D16B9AF2F29A6BD17D
:10355000F4720981621C00000000000000000000FD
:10356000000000000000000000000000000000005B
:10357000000000000000000000000000000000004B
:10358000000000000000000000000000000000003B
:10359000000000000000000000000000000000002B
:1035A00000000000000602050404060500000000FB
:1035B0000506040405020600FC3111241FBECFEFEE
:1035C000DAE0DEBFCDBF11E0A0E0B1E0E4E5FFE668
:1035D00002C005900D92A436B107D9F726E0A4E603
:1035E000B1E001C01D92A238B207E1F71AE1CDEDBA
:1035F000DAE104C02197FE010E947C36CC3DD10760
:10360000C9F70E94CB320C94A8370C9400002F927B
:103610003F924F925F926F927F928F929F92AF9262
:10362000BF92CF92DF92EF92FF920F931F93CF93AF
:10363000DF93CDB7DEB76D970FB6F894DEBF0FBE40
:10364000CDBF8C016B01DB0119967C9019971A96FE
:10365000BC91B88FFC0182818111E0C07801F8E54E
:10366000EF0EF11CD7011996BC91BA8BB111D6C0DF
:103670004801BBE78B0E911CF4018081882359F12E
:10368000F6012781308520FD65C7D70112968C9100
:103690008111A2C4D7011A968C911A978111ACC1DD
:1036A0001B969C919111A8C1F7018381F72DF074AD
:1036B000BF2E86FDA0C4B110A9C4B72CB5FCB3C4FD
:1036C000B4FCBEC4B7FCC2C4F801E358FF4F80810C
:1036D000882309F4C0C42701D70114966C90F60121
:1036E000878180FF98C198012F5E3F4F3D8B2C8BC7
:1036F000D80154969C91963209F497C19F3309F4EE
:1037000027C79D3009F4C6C68FEF963209F4C3C6A9
:103710009F3309F4C0C69D3009F4BDC698012E5AE6
:103720003F4F398B288B18013CE1230E311CF101EE
:1037300090E048895989E417F50709F078C1F80144
:10374000E158FF4F2081921708F476C1F601878176
:10375000908566E070E00E945436892B39F451015F
:10376000288939892A153B0509F0C5C1D601539628
:103770008C915397813009F484C2F601838981309A
:10378000D1F47801F2E5EF0EF11C580125E5A20E07
:10379000B11CD7019C91F5018081890FE889F989D5
:1037A00090E0E415F50509F018C3882309F421C356
:1037B000813009F41BC3F6018781908583709927B6
:1037C000892B09F424C3D8015B968C915B978823DD
:1037D00009F459C354968C91863208F436C3873263
:1037E00008F03EC3288939892215330509F0D1C371
:1037F000F6018781908566E070E00E945436892B3F
:1038000009F4D4C3D60117968D919C9118976CE05A
:1038100070E00E945436892B09F4D3C3F6018289E3
:10382000811106C081E0848BF801E558FF4F1082BA
:103830005801FCE7AF0EB11CD501FC90B3E6BF15F3
:1038400048F0E2E0FE1608F04AC0F1E0FF1609F485
:103850004AC069C024E6F21242C081E0F801EF5785
:10386000FF4F8083F60182898823A1F160E070E038
:10387000C801885A9F4F0E94892CC8018E5A9F4FB9
:10388000F8017C96E817F90741F020812B3A18F0EF
:103890001082138214823696F5CFF801EC58FF4F50
:1038A0008081811104C0C8010E94C22C13C0D801BC
:1038B00051961C92519752961C92529753961C9275
:1038C00053978DE054968C9354975B961C925B971C
:1038D00055961C92F50180818150808324C0FA9412
:1038E000D501FC9220C0F6018289882349F0C801E5
:1038F000885A9F4F0E94A42CF801E558FF4FF08290
:10390000D5011C92F801EF57FF4F1082709781E0AC
:103910008283D801AE58BF4F8C91823010F48F5FF4
:1039200001C080E081837801BDE7EB0EF11CF70157
:103930008081882311F081508083F801E558FF4F82
:103940008081D60154962C91811125C0211123C06C
:10395000888D80957822872D8C7009F4FFC581E0D1
:10396000808336961082F5011082C801885A9F4FD5
:103970000E94A42CF801E659FF4F138210820480A4
:10398000F581E02D82E0828384E1808373FEE6C5C9
:10399000D7018C93E3C5F6018285809591858923B3
:1039A0002223F9F083FFDAC565E0C60146966D96DD
:1039B0000FB6F894DEBF0FBECDBFDF91CF911F9140
:1039C0000F91FF90EF90DF90CF90BF90AF909F90BE
:1039D0008F907F906F905F904F903F902F900C94BE
:1039E0002E2B82FFBBC5D80112969C91129781E0C5
:1039F000892712968C93B2C5F70193859111F4C271
:103A0000882329F023703327232B09F47BC3270154
:103A1000D70114966C905801F4E6AF0EB11CD50195
:103A200015968C9181115FCED2C481E034C523817B
:103A300021119F5F36967DCE5A89552309F486CE93
:103A4000F10121E0A889B989EA17FB0741F19381C7
:103A5000992319F190819E3418F43181381320E0B4
:103A600034EC390F3B3030F43181831303C08111C2
:103A700001C020E031EE390F3B3030F43181831347
:103A800003C0813009F420E091509B3030F49181E3
:103A9000891303C0823009F420E03696D3CF222365
:103AA00009F454CE5101E889F989AE16BF0609F42C
:103AB0004DCED50113968C9113978111F9C41496AC
:103AC0008C918111F5C40E94403523E230E040E042
:103AD00050E00E94E535DC01CB010596A11DB11D2A
:103AE000F5018483F801B08EA78A128A838B62E382
:103AF000680F618B2BCED50113968C91882309F426
:103B0000BCC0F4018081882309F444C0D701129617
:103B10008C91882309F43EC0D5012C91B3E02B9FF2
:103B200090011124F901E45AFE4F4491F901E35A3E
:103B3000FE4F2491D701ED91FC91B5E0BE9FB001FD
:103B4000BF9F700D1124FB01E350F84E3491F70133
:103B50003683FB01E250F84E9491E82FF0E0EC52EE
:103B6000F84E8491042E000C550BE32FF0E04E1715
:103B70005F0781F4F7013481E92FE31BE81B0E2E68
:103B8000000CFF0B2619E21BF10927FDF39539976D
:103B90000CF492C4C2010E94DF2C29833A834B8328
:103BA0005C836D837E83F5018081F3E08F9FC0018C
:103BB00011249C01245A3E4FF9014491835A9E4F8F
:103BC000FC014491D4014C9141111FC0F501908139
:103BD00023E0929FF0011124E25AFE4F84919F5FEF
:103BE000869586958695980FD5019C93B3E09B9F0B
:103BF000C0011124FC01E45AFE4F2491FC01E35A58
:103C0000FE4F8491222379F014C0F9012491FC0124
:103C10008491C2010E94DF2C2F83388749875A87FD
:103C20006B877C87D3CF811104C0D5011C9213967A
:103C30001C92D501EC91B3E0EB9FF0011124E25A04
:103C4000FE4FE491E770D5011596EC931597E1309E
:103C500051F0E23091F412968C91823010F48F5F23
:103C60000AC080E008C0D50112968C91882311F01B
:103C7000815001C082E0F5018283F6E0AF0EB11CF5
:103C80006FCD17968D919C9118976AE070E00E9415
:103C90005436892B09F071CD88889988F801E55848
:103CA000FF4FFF8BEE8B980124583F4F3B8F2A8F9D
:103CB000A8014F575F4F5D8F4C8FC80186599F4FAA
:103CC0009B8B8A8B4814590409F457CDD4018C91ED
:103CD000882309F47EC011968C9111978F5F1196FD
:103CE0008C93B3E08B9FC0011124FC01E051FC4F89
:103CF0002491FC01EF50FC4F8491211105C08111EA
:103D000003C0F40110821182AE89BF898C9188238F
:103D100009F45FC0F4018181F3E08F9FC001112499
:103D2000FC01E051FC4FA490FC01EF50FC4F2491AA
:103D3000298F0A2C000CBB08C2010E94DF2C2983AA
:103D40003A834B835C836D837E8389819A81AC0146
:103D5000460F511D95012F5F3F4F24173507CCF5B6
:103D600035E1A30EB11C8A159B059CF5898D86193A
:103D7000E82FF0E08B819C81AC01470F511D9F0122
:103D80002C5F3F4F2417350724F538968E179F0771
:103D900004F5E1E0D7011996EC93AE89BF891C9236
:103DA00028ECEA8DFB8D2083AC8DBD8D1C92EA89B9
:103DB000FB89138210820480F581E02DB2E0B2838A
:103DC00024E12083D60152968C91529781505296CD
:103DD0008C93B3E08B0E911C75CF2081222321F0B0
:103DE0002181921708F4922F3396DBCC933308F499
:103DF000E2CC0E94403522E330E040E050E00E94F7
:103E0000E535672B682B692B09F46FC3D4CCF80117
:103E1000E659FF4F8081882309F4D5CC813091F495
:103E2000108213820480F581E02D82E0828384E198
:103E30008083809164018111C6CC84ED94E00E945E
:103E40008424C1CC81508083BECC8E30B8F48D30B8
:103E500009F0C8CC88E0F801868B8EE0848BC2CC58
:103E60008F3360F08F3309F0BDCC84E0D8015696D3
:103E70008C9356978EE354968C93B4CC8C899D8901
:103E80000E943823AFCCF8018389882339F0815010
:103E9000838B811133C088E2828B30C08289882372
:103EA00069F18150828B811129C08489863221F089
:103EB0008F3321F080E003C081E001C082E0D801AF
:103EC0005796ED91FC91589720910A0130910B0182
:103ED00040910C012D873E874F87DE01A80FB11D51
:103EE0001D969C919083818381E0838380916401FE
:103EF000811104C08EED94E00E948424F801818930
:103F0000882311F0815043C08489863271F020F4F7
:103F10008D3049F0F8F466CC8F33E0F08F3309F040
:103F200061CC84E015C088E013C00E94403522E0D7
:103F300030E040E050E00E94E535672B682B692BAC
:103F400011F484E001C088E0D80156968C9302C039
:103F5000F801868B8C899D890E943823D80154965C
:103F60008C91863229F08F3319F08D3009F03ACCDC
:103F70000E94403522E830E040E050E00E94E53504
:103F8000DC01CB018A5B9F4FAF4FBF4FF801818BA4
:103F900029CCD10114968C911497882319F0815063
:103FA00014968C93B6E02B0E311C1CCCF801E05912
:103FB000FF4F8081833010F48F5F01C080E08083E9
:103FC00021CCF801EF58FF4F8081823010F48F5FD1
:103FD00001C080E0808322CC883210F48F5F6AC0F9
:103FE000D70112961C9277CBA90143705527452B18
:103FF00009F463C005CD75FE02C082FD35C0BB204B
:10400000E9F0F701838183FD16C018C073FE30C04C
:1040100087FF2EC081E0D7011A968C93C7010E94BA
:104020001A2DB12C4BCBF701838182FF76C2C701D9
:104030000E94362D72C2C7010E94362DB72C40CB8C
:10404000D70113968C9181FD2DC03CCBF701838164
:1040500080FD2CC039CBB3FE3ECBD70113968C919B
:1040600084FF39CB81E026C0C7010E941A2DC7CF3B
:1040700083FF23CBD7018D919C91119784399105B2
:1040800069F481E01B968C936AED70E0C7010E9491
:10409000892C8AEA95E00E9484240FCBC7010E94F4
:1040A0001A2D0BCBC7010E94362D0CCBC7010E94E5
:1040B0001A2D0ACBF70182830ECB808191818E3E2F
:1040C000910509F04EC081E0D70119968C93F40157
:1040D000108288ECF801E458FF4F808335961082F7
:1040E0007797138210820480F581E02D82E082832D
:1040F00084E18083D60152968C91529781505296DA
:104100008C93E9CAF6018389813009F45EC144E0E9
:10411000F701808191815801F4E6AF0EB11CD50101
:1041200011962C911197BC01605A71096732710583
:10413000E0F08B3A910509F4CDC008F05FC0833AF6
:10414000910509F4B1C008F04AC08839910509F415
:1041500088C08F39910509F499C08739910509F410
:1041600072C0C7010E941A2DB6CAF801EC58FF4F61
:1041700030813111DECF51963C91E1E0E30FEC93B9
:1041800011965C911197513089F048F05230C1F48A
:1041900053E0E59FF0011124EC52FF4F0DC053E0B6
:1041A000E59FF0011124E35CFE4F06C053E0E59F5C
:1041B000F0011124E75EFE4FE491E93009F43C93ED
:1041C0001296A815B905C1F6D80155963C91559798
:1041D0003F3008F0AECF3F5F55963C93AACF853A6B
:1041E000910509F472C008F490C0883A910509F06D
:1041F000B8CFC7010E941A2D85E083C0893D910583
:1042000009F4C8C088F4873B910509F46AC0873C6B
:10421000910509F481C08E3A910509F0A2CFC7013A
:104220000E941A2D89E06DC08333B1E09B0709F429
:1042300089C08A33E1E09E0709F46EC0873291405D
:1042400009F485C08ECF243008F48BCF421708F4D0
:1042500088CF81E0D50115968C93C7010E941A2D55
:1042600080CF233010F0421740F468EC70E0C701B3
:104270000E94892C8AEA95E041C0C7010E941A2D4C
:1042800084E0F501818381E0858325CAC7010E940E
:104290001A2DD50111961C9281E0F801838F84E6D6
:1042A000818B128A138A17CAC7010E941A2D81E0D6
:1042B000D50111968C93F801EC58FF4F808188232B
:1042C00009F409CA8150808306CAC7010E941A2DC9
:1042D00082E004C0C7010E941A2D88E0F5018183A5
:1042E000FAC9F801EC58FF4F808181113ACF60EF95
:1042F00070E0C7010E94892C8AEF94E00E94842418
:10430000EAC9D50111968C93E6C9F6018089918995
:104310004496918B808B25CF88ECF801E458FF4FB1
:1043200080837297138210820480F581E02D82E0F1
:10433000828384E18083F801EF57FF4F1082D4011C
:104340001C92C9C9F801EF58FF4F12820ACFF6013B
:1043500080899189C296918B808BC7010E941A2D0A
:10436000F801E158FF4F8081893010F48F5F80831E
:10437000F801E058FF4F6081603508F0ACC96F5F0D
:10438000608370E088EE93E00E946836D6011B9649
:104390006C93A1C981E0F7018187D4011C9288EC5C
:1043A000F801E458FF4F8083359610827797138287
:1043B00010820480F581E02D82E0828384E1808395
:1043C000F60182898150828B86C943E0A1CED50156
:1043D00012969C919230C1F5D5012C9111968C9139
:1043E0001197222379F021502C938350853008F0C7
:1043F0007AC914968C91823009F475C9C5010E945E
:10440000462371C98830C9F018F4833088F46BC929
:10441000893009F068C9F50194838AE080831282AB
:1044200062C981818830A1F140F1893009F05BC90E
:1044300088E0F501818384E118C089E0D5011196F7
:104440008C93119784E107C0933039F4D5018C9196
:10445000882369F081508C9346C9913009F043C993
:10446000F50180818823E9F2815080833CC9C50130
:104470000E9446238AE0F501F8CF833008F433C95F
:1044800082E0F50184838AE0808383E082832BC904
:1044900085E0D4CF80E0F801938991113FC9B1E064
:1044A000BA8BF8019289992309F438C91A8A36C956
:1044B000F6E0AF0EB11CF7CAD50111968C9183308E
:1044C00008F068CBEFEFD5011196EC93D60150962A
:1044D0008D919C915197019651969C938E935097F4
:1044E0008CEE94E00E94842455CBF70180818823D0
:1044F00039F0D5018C91882311F08FEF01C081E054
:1045000090E0FC01EE0FFF1FE80FF91FE00FF11F15
:10451000EE5AFF4F81E080834EC9D70113968C91EC
:1045200085FFCEC8F801E659FF4F83818111C8C8C5
:1045300081E083839CE89083F801EC59FF4F15825A
:10454000828384E1808380EA95E00E948424B8C855
:1045500082E0A1CF2701F7016480C5C86D960FB630
:10456000F894DEBF0FBECDBFDF91CF911F910F91A9
:10457000FF90EF90DF90CF90BF90AF909F908F9083
:104580007F906F905F904F903F902F900895809113
:104590006B02E0916902F0916A02882349F0CF0131
:1045A000029690936A02809369028591949108958E
:1045B000CF01029690936A02809369028081918173
:1045C0000895089508950895089508950895089503
:1045D0000C941A370C941A370C941A370C941A3717
:1045E0000C941A370C941A37FC018181813099F0B0
:1045F00050F08230C9F4E08183E0E89FF00111249B
:10460000ED52FF4F0FC0E08183E0E89FF0011124DD
:10461000E45CFE4F07C0E08183E0E89FF0011124D5
:10462000E85EFE4F8491089580E00895FC01818149
:10463000813099F050F08230C9F4E08183E0E89F46
:10464000F0011124EE52FF4F0FC0E08183E0E89F9C
:10465000F0011124E55CFE4F07C0E08183E0E89F94
:10466000F0011124E95EFE4F8491089580E00895E1
:10467000FC018581843019F0883021F00895838110
:10468000815002C083818F5F83830895FC01838101
:10469000843019F0883061F017C08481882321F0BC
:1046A000853090F481500DC081E0848388E00BC098
:1046B0008481843028F0843039F493E0948303C0FB
:1046C0008F5F848301C0838381818350853018F498
:1046D00084818D5F81830895E1E7F0E080818D7FA3
:1046E0008083109291004698479810926401089533
:1046F000CF92DF92EF92FF920F931F93CF93DF93AE
:104700000E94C722811520E8920751F4DF91CF91D2
:104710001F910F91FF90EF90DF90CF900C946C233E
:1047200021E020936401813020E8920751F48091C8
:1047300067029091680290936A02809369020E94D6
:10474000C72297FD05C020916602222309F440C0CC
:104750002091650221113CC021E020936C02EC0104
:10476000DF77209769F481E080936D0246983FE9F6
:10477000C32E3FE0D32EE12CF12CCAEFD0E014C0C1
:104780008E0120E030E060E472E48FE090E0A90167
:1047900098010E94E53569017A0181E0C81AD108C3
:1047A000E108F10810926D02E0917B06F0917C0621
:1047B0000995811103C081E080936D0280916C02A4
:1047C000882309F43FC080916D0281113BC003C072
:1047D00010926C02C4CF469935C0479A0E94C722F6
:1047E000009771F09C01DE010E943936DC01CB019B
:1047F00029E0B595A795979587952A95D1F703C098
:104800008FEF9FEFDC01109290002AE0209391003F
:10481000D0929900C092980080936E0290936F029C
:10482000A0937002B09371028091710082608093B6
:104830007100DF91CF911F910F91FF90EF90DF906A
:10484000CF9008954798CACF1F920F920FB60F923C
:1048500011242F933F934F935F936F937F938F9385
:104860009F93AF93BF93EF93FF9380916E029091CC
:104870006F02A0917002B0917102892B8A2B8B2B51
:1048800081F180916D0281110BC098B180E489277C
:1048900088B980916C02882319F088B1805888B952
:1048A00080916E0290916F02A0917002B09171029E
:1048B000181619061A061B06B4F480916E02909120
:1048C0006F02A0917002B09171020197A109B10924
:1048D00080936E0290936F02A0937002B093710266
:1048E00002C00E947823FF91EF91BF91AF919F91F9
:1048F0008F917F916F915F914F913F912F910F9089
:104900000FBE0F901F9018959C01E1E7F0E0908199
:104910009D7F908381E080936B0230936A022093A5
:10492000690230936802209367020C9478232F92D7
:104930003F924F925F926F927F928F929F92AF922F
:10494000BF92CF92DF92EF92FF920F931F93CF937C
:10495000DF9300D000D0CDB7DEB75C014B016C0116
:1049600028E5C20ED11CD6011496FC90FB014780AD
:10497000508440E00E94452B1501F2E52F0E311CBA
:1049800035012CE1620E711C2614370439F1D30174
:1049900013968C9113978823E9F06C91B3E06B9F89
:1049A000B0011124FB01E45AFE4F8491FB01E35A4C
:1049B000FE4F64916F19062E000C770BE12CF3016A
:1049C00002812AE837E14CE957E1082E000C990BE7
:1049D0000E94B330F6E06F0E711CD6CFF501E5589A
:1049E000FF4F8081811108C0C20168E270E00E941F
:1049F0005436853108F48BC0D6018D919C9125E009
:104A0000289FB001299F700D1124FB01E050F84E42
:104A10002491F601928191112DC0211135C036816A
:104A20008581381305C021E080858430D9F539C0EF
:104A300083177CF487818F5F878328E0208780310C
:104A400009F41782F601278126952695220F2D5FFE
:104A50001BC038173CF587818F5F878324E0208750
:104A6000803109F41782F601278126952695220FB9
:104A70002E5F0AC026818581281313C0808584306B
:104A800009F44DC12BE00EC0233118F4203150F051
:104A90000EC0253190F42351A0E0B0E048E256E189
:104AA00010C020E0A8E4B5E148EA56E10AC0205170
:104AB000A0E0B0E042E556E104C0A0E0B0E040E094
:104AC00050E0F60186818583FB01E350F84E849126
:104AD000F6018683FB01E250F84E6491E92FF0E085
:104AE000EC52F84E3491F6019481691B631B062E3B
:104AF000000C770B082E000C990B109719F40E94EC
:104B0000333005C0E22E022F9D010E94B330D50143
:104B100054963C9154975B969C915B9755968C91DB
:104B2000992331F0E82FF0E0E655F34FE49101C00E
:104B3000E0E0EF19ED5F8D3030F08F3008F18F300D
:104B400011F418E022C0363249F020F43D3031F043
:104B500080F41BC03F3368F03F33B9F4D50152965F
:104B60008C91882379F06AE00E94483616E0181B81
:104B70000CC0D50156968C91883031F412E005C0F6
:104B800017E003C010E001C011E06E2FEE0F770BAD
:104B9000212F4AE253E1832F90E00E943330F40149
:104BA0008389813059F52C143D0441F1D1018C9158
:104BB000882301F111960C91B3E00B9F8001112421
:104BC000F801E051FC4F8491F801EF50FC4F6491E3
:104BD000F801EE50FC4F04916F19062E000C770B74
:104BE000E02E20E232E144EA52E1082E000C990B5B
:104BF0000E94B330E3E02E0E311CD5CF40E4B40167
:104C0000C5010E94452BD40154968C9181111EC080
:104C1000F501EF57FF4F8081882321F1E12C00E05F
:104C20002EE630E146E451E164E170E08BE190E092
:104C30000E94B330F4012289215046E350E167E13C
:104C400070E08FE490E00E9433301DC0E12C00E062
:104C500022EE3DE043EC5EE064E170E089E190E04B
:104C60000E94B330D50112968C91882361F0E12C1B
:104C700000E02AEB3CE04DE45DE064E170E087E2B7
:104C800090E00E94B330E12C00E020ED3FE042E0F4
:104C900050E160E070E086E690E00E94B330198257
:104CA0001A821B821C82F40180899189FE0131964F
:104CB0006E0125E0C20ED11C2AE030E0B9010E944D
:104CC00054368193CB01EC15FD05C1F709E610E0E0
:104CD000D6012E916D0146EA5FE063E070E0C80105
:104CE0000E9433300B5F1F4F0D37110589F70F906E
:104CF0000F900F900F90DF91CF911F910F91FF9028
:104D0000EF90DF90CF90BF90AF909F908F907F906B
:104D10006F905F904F903F902F900C94C32A2AE0A1
:104D2000C1CE5F926F927F928F929F92AF92BF920D
:104D3000CF92DF92EF92FF920F931F93CF93DF9367
:104D4000EC01615F7F4F7C013AE6E30EF11CD70175
:104D500012967C936E9311977A8F698F8C599F4F1F
:104D600015969C938E9314970C970E94A42CFE0189
:104D7000EF58FF4F81E082833F9683E480838E016A
:104D800001581F4F85E0F801808333978DE78083BA
:104D9000D70113961C9213971C921496ED91FC91D7
:104DA000159782E0828384E18083FE01EF57FF4FF5
:104DB00010827E01BBE7EB0EF11CF7011082CE01E1
:104DC0000E94C22CCE018E5A9F4FFE017C968E17F8
:104DD0009F0759F4712C8DE7882E912CA12CB12CB2
:104DE00096E0592E6624639424C0108213821482A4
:104DF0003696EDCF791641F1848D681708F5861B3C
:104E00008F3010F50E944035A50194010E94E535D0
:104E1000645CF8012081FE0190E09213EBCF5C9C72
:104E2000F0015D9CF00D1124EC0FFD1F648F678E67
:104E30007394D8018C91781650F4C72CD12CE2CF02
:104E4000362F381B832FDCCF9F5F3696E6CFD701F6
:104E50001C921A8284EF9FE290937C0680937B06DB
:104E6000DF91CF911F910F91FF90EF90DF90CF9046
:104E7000BF90AF909F908F907F906F905F900895BC
:104E80002F923F924F925F926F927F928F929F925A
:104E9000AF92BF92CF92DF92EF92FF920F931F9348
:104EA000CF93DF93CDB7DEB728970FB6F894DEBF68
:104EB0000FBECDBF5C018B01FC01838D65018111AB
:104EC00004C0FCE1CF0ED11C03C02EE2C20ED11CE7
:104ED000F80147805084EAE08E2E912CF3E0EF2E0B
:104EE000F12C20E04DE95CE0B401C7010E943330B1
:104EF000FAE0EF0EF11C2FEF821A920A31E7E31667
:104F0000F10479F766E3862E912C7FE0E72EF12CF1
:104F100020E04DE95CE0B401C7010E9433308AE033
:104F2000E80EF11C91E0891A9108EDE7EE16F10404
:104F300079F7A5014C5E5F4FF5016189C8010E94B8
:104F4000E52AA5014B5E5F4FF5016289C8010E9409
:104F5000E52AA5014A5E5F4FF5016389C8010E94F9
:104F6000E52AF8018781908565E070E00E9454365B
:104F7000892BC9F4F50181898D3810F48F5F01C048
:104F800080E0F501818B82898D3810F48F5F01C03C
:104F900080E0F501828B83898D3810F48F5F01C02A
:104FA00080E0F501838BE12C00E02BEC39E043E35A
:104FB0005BE062E170E08DE190E00E94B3302FEBA6
:104FC00037E044EC58E063E070E086E190E00E9456
:104FD000B330760108E110E03E01F7E06F0E711C7E
:104FE0009E012F5F3F4F1901C701029698878F835B
:104FF00054E2852E912CEF81F8852191F887EF837B
:105000002F3311F0205401C020E049E257E0B801ED
:10501000C4010E944330F6E08F0E911C26E38216F5
:10502000910449F778866F8241E4842E912CF10136
:1050300026E011922A95E9F7F70180819181F1012B
:105040006AE070E00E9454368193CB016E167F06B1
:10505000B9F7EF81F8852291F887EF83255E49E261
:1050600057E0B801C4010E944330F5E08F0E911C57
:105070002FE582169104D9F6075F1F4F36E0E30E45
:10508000F11C0333110509F0AFCFF50107890F3F7C
:1050900009F46BC0C20168E270E00E9454368531A9
:1050A00008F463C0C601F6E00F9F800D911D112426
:1050B0009C012E5F3F4F290139E0039F800111249D
:1050C000480187E1880E911CF501608CF6E06F9E27
:1050D00030011124730123E2E20EF11C39E2630E68
:1050E000711C015E1F4F6E147F04F1F0640197FE86
:1050F00002C0C12CD12CC8010134110514F080E488
:1051000090E0C816D90664F480E8E816F10424F4A7
:10511000B601C7010E94D32A9FEFC91AD90AEBCF63
:10512000EFEFEE1AFE0ADFCFF501808DF201E80FF6
:10513000F11D20812F3311F0205401C020E0F50132
:105140006789F9E06F9FB0011124685E7F4F36E0F8
:10515000839FC00111243BEFC32EE12C00E010E03F
:1051600049E257E084960E94C12DF50187898F3F5F
:1051700079F4828D81110CC0E12C00E023EA36E045
:1051800045EE56E065E370E080E390E00E94B330C6
:10519000E12CF501038D25E036E049E356E06BE1B3
:1051A00070E082E090E00E94B33028960FB6F89449
:1051B000DEBF0FBECDBFDF91CF911F910F91FF904A
:1051C000EF90DF90CF90BF90AF909F908F907F90A7
:1051D0006F905F904F903F902F900C94C32ACF9286
:1051E000DF92EF92FF921F93CF93DF93EC01DB01ED
:1051F00019961C9119978B8DFE01811102C07C9626
:1052000001C0BE962F892F3F09F47FC017968D915C
:105210009C9118976CE070E00E9454367C01892BB9
:1052200009F088C036E0239FE00DF11D112432966D
:1052300017FF19C0888DDF01A80FB11D8C918F5FFA
:105240008C93888DDF01A80FB11D8C918B3514F0E4
:1052500081E48C93888DDF01A80FB11D8C9180347F
:1052600011F481E48C9314FF10C0888DDF01A80F26
:10527000B11D8C9181508C93888DDF01A80FB11DD9
:105280008C91813414F48AE58C9315FF05C0888DC8
:10529000882311F08150888F16FF05C0888D8230D9
:1052A00010F48F5F888F13FF45C080818F3309F41E
:1052B00041C081818F3309F43DC082818F33D1F1A8
:1052C0006F01F60161916F012F898B8D882319F091
:1052D00089ED91E002C087EC91E0F6E02F9F800D10
:1052E000911D112497012E5F3F4F820F931F0E9443
:1052F000C5353FEFE31AF30A43E0E416F10409F77A
:105300008FEF8F8B84E68A8F15C01A969C911A971F
:10531000909591239C7041F08A8D811105C062E0C7
:10532000CD0146960E942E2B15FD1B8E16FF02C046
:1053300081E08B8F1076898D1036E1F58F5F898F34
:10534000853108F445C08D3310F18D3309F040C02C
:10535000198E83E884BD8FEF87BD81EF8093800035
:105360001092880010928A000E94C13142E150E000
:1053700067EC71E0CE014C960E94973542E150E017
:1053800069ED71E0CE018E960E94973521C020E430
:1053900030E0F901E81BF109CF01880F93E894BDD3
:1053A0009FEF97BD91EF90938000109288008093BB
:1053B0008A000EC0882361F083E884BD8FEF87BD2B
:1053C00081EF809380001092880010928A00198EDD
:1053D0008A8D882311F081508A8FDF91CF911F91A0
:1053E000FF90EF90DF90CF9008952F923F924F92D1
:1053F0005F926F927F928F929F92AF92BF92CF9265
:10540000DF92EF92FF920F931F93CF93DF9300D021
:1054100000D000D0CDB7DEB78C013B018EE0FB01A0
:105420008387F801108E118E84E6828FFB018389B9
:10543000F801838FFB01408851884114510409F41D
:105440004FC0882329F029EDA22EBB24B39404C0B9
:1054500097ECA92EBB24B3946501312CC6010E94A0
:10546000AF354816590640F43394F6E0CF0ED11C00
:1054700083E03812F3CF34C045019CE0890E911CC3
:1054800082E0282EFE0131967F013214B0F42A9476
:10549000B501F6E02F9E600D711D112446E050E02D
:1054A000C7010E94973546E050E0B401C7010E9451
:1054B000B53586E0881A9108E8CF86E0F7011192A9
:1054C0008A95E9F78FE38B838C838D835A82498297
:1054D00046E050E0B601C7010E94B535832D01C0FA
:1054E0008FEFF801878BF3011286118642E150E0BD
:1054F00067EC71E0C8014C960E94973542E150E09C
:1055000069ED71E0C8018E960E94973526960FB618
:10551000F894DEBF0FBECDBFDF91CF911F910F91E9
:10552000FF90EF90DF90CF90BF90AF909F908F90C3
:105530007F906F905F904F903F902F900895FC0167
:105540008181813099F050F08230C9F4E08183E0AC
:10555000E89FF0011124EC52FF4F0FC0E08183E07F
:10556000E89FF0011124E35CFE4F07C0E08183E077
:10557000E89FF0011124E75EFE4F8491089580E0DA
:1055800008950E94A337E6E7F2E081E0A0E0B8E0EA
:1055900000800EBC8111012C1197A0FDFDCF01925E
:1055A000B9F70DB40895E2E2F1E390E1969FD001DE
:1055B000A0781124A80F6770E60FF11D9491AA58E6
:1055C000BD4F8C91982B9C930895EF920F931F934E
:1055D000CF93DF93EA0143E0649F90011124F90126
:1055E000E858F04D1491F901E758F04D4491F90154
:1055F000E658F04D2491FC018781908565E070E0CC
:105600000E945436892B99F4213049F0223079F4E4
:105610008881823010F48F5F08C080E006C08881E6
:10562000882311F0815001C082E0888315C02430A6
:1056300099F400E0642F440F770BE12C2EE23FE257
:1056400040E45FE2812F90E00E94B330DF91CF9180
:105650001F910F91EF9008950881ECCF1F93CF9386
:10566000DF93EC01162F83E884BD8FEF87BD81EFB8
:10567000809380001092880010928A000E946C2310
:105680001883DF91CF911F9108952F923F924F92EF
:105690005F926F927F928F929F92AF92BF92CF92C2
:1056A000DF92EF92FF920F931F93CF93DF93CDB7CB
:1056B000DEB72A970FB6F894DEBF0FBECDBF5B01F1
:1056C000342EFC01E85AFF4F248027E4C22E2EE23C
:1056D000D22E4C0121E7820E911C7896FA83E98341
:1056E0009C012C583F4F3C832B833C97FE83ED83DA
:1056F0002A50310938872F833C0139E7630E711C2A
:105700002C01E7E74E0E511C9C012B583F4F3A8766
:105710002987F601F4903196E49031968491249192
:1057200030E0220F232F221F330B332031F0F0E41F
:105730003F120EC02115310559F0F50103890130E2
:1057400049F1232B39F104C0F4018281811173C026
:10575000F3E0CF0ED11C2BE23FE22C153D05C9F63C
:1057600080E02A960FB6F894DEBF0FBECDBFDF9162
:10577000CF911F910F91FF90EF90DF90CF90BF904E
:10578000AF909F908F907F906F905F904F903F90E1
:105790002F900895E218E82FEF718E2F90E083315B
:1057A0009105B0F6FC01EA5AFF4F0C947C368985CE
:1057B0009A850E941623082F89859A850E94F422D3
:1057C000182F89859A8514C0C2010E94F422182FCF
:1057D000C2010E949F2A00E049E55CE25AC0C30171
:1057E0000E941623082FC3010E94F422182FC30120
:1057F0000E949F2AF1CFEF81F885838110E000E0BD
:1058000048E05CE246C0ED81FE81818110E000E06D
:105810004AEE50E23EC0EB81FC81808110E000E066
:1058200044E350E236C0E981FA81808110E000E073
:105830004AEE5FE12EC09181892F880F890F923047
:1058400010F4908101C090E0890F10E000E04CEE70
:105850005EE11FC000E024E43EE148ED5EE14FC0A0
:105860002EE23EE14AEA5EE14AC0F50182898111F9
:105870002FC06ECFF5018289823050F569CFF501D6
:105880008289833028F564CF4AE35EE210E000E0CD
:1058900080E0612F110F770B6E0D711DE7FC7A957B
:1058A000002E000C110B282FC8018F0D911DF7FC45
:1058B0009A950E9433304CCF00E02CE63EE142EF57
:1058C0005BE21DC010E000E080E04DE15EE2E1CF70
:1058D00010E000E080E041EA5EE1DBCF10E000E0B4
:1058E00080E04CE25EE2D5CF00E020E83EE146E316
:1058F0005CE205C000E026E53EE14CED5BE26E2D8A
:10590000EE0C770BE12C8F2DFF0C990B0E94B3301E
:105910001FCFDC0111967C936E9385E0869F9001EA
:10592000879F300D1124F901EF5FF74EE491139634
:10593000EC931397F901E150F84EE4911496EC932F
:10594000149712961C920895CF93DF93EC0160E0B8
:1059500070E00E94892C1A8219861A861B8688811B
:10596000998125E0289FF001299FF00D1124E35033
:10597000F84EE491EE838FEF8D8388E08887DF9186
:10598000CF910895FC01DC01AA58BF4F1C921197DA
:105990001C92139681E08C9311971C92139682E0CF
:1059A0008C9311971C92118A128A138A8DE0848B32
:1059B000138E158AEC58FF4F84E080830895CF93AF
:1059C000DF9300D000D000D0CDB7DEB7DC018D91E1
:1059D0009C91119725E0289FA001299F500D11242B
:1059E000FA01E350F84E2491FA01E250F84E449146
:1059F0001296EC911297F0E0EC52F84EE491149666
:105A00008C91481B4E1B30E03A832983042E000CF6
:105A1000550B5C834B833A815C8167E07BE080E0DF
:105A200090E026960FB6F894DEBF0FBECDBFDF9193
:105A3000CF910895DC018D919C911197019611965B
:105A40009C938E9345E0489F9001499F300D11240F
:105A5000F901EF5FF74EE4911396EC931397F90178
:105A6000E150F84EE4911496EC930895DC018D9189
:105A70009C911197019711969C938E9345E0489FB6
:105A80009001499F300D1124F901EF5FF74EE49129
:105A90001396EC931397F901E150F84EE4911496A4
:105AA000EC9308953FB7F89480917706909178062B
:105AB000A0917906B0917A0626B5A89B05C02F3F24
:105AC00019F00196A11DB11D3FBFBA2FA92F982F24
:105AD0008827820F911DA11DB11DBC01CD0142E09F
