:100000000C941D140C9445140C9445140C94451434
:100010000C9445140C9445140C9445140C944514FC
:100020000C9445140C9445140C949E240C941025A7
:100030000C9445140C9445140C9445140C944514DC
:100040000C9445140C9445140C9445140C944514CC
:100050000C9445140C9445140C9445140C94D72B13
:100060000C9445140C9445140C9445140C944514AC
:100070000C9445140C9445140C9445140C9445149C
:100080000C9456220C9445140C9445140C9445146D
:100090000C9445140C9445140C9445140C9445147C
:1000A0000C9445140C9445140C9445145D2987292F
:1000B0007B298D29F928062911291D2975299329BC
:1000C00025292D29352948294E293D2958295329E3
:1000D000C628000001000001000001000001FF032C
:1000E00004FF0304FE0506FE0506FF0708FF0708D8
:1000F000070D06070D060B0E040B0E040D10010E66
:100100001001121203131203151405151405161607
:10011000071718070A000900000200000200000289
:10012000000002000302000602000902000C0200A7
:100130000F0200120200140200000900000000007B
:100140000000000000000001030301030301050596
:1001500001050501070701070701000945120445CC
:100160001404451604451804451A04451C04451E8C
:10017000044520044522044524044526044528045A
:10018000452A04452C04452E0445300445320445D7
:1001900034044334014134013F34013D35013935E4
:1001A000013735013535013336013136012F36013E
:1001B0002D36012B36A92C13042C15042C17042CD6
:1001C00019042C1B042C1D042C1F042C21042C238B
:1001D000042C25042C27042C29042C2B042C2D045E
:1001E0002C2F042C31042C33042C35012C370129FD
:1001F00037012737012537012337011F38011D3803
:10020000011B38011938011738011539A9131304D6
:10021000131504131704131904131B04131D0413DB
:100220001F04132104132304132504132704132983
:1002300004132B04132D04132F041331041333045C
:100240001335041337041339011139010F39010D26
:1002500039010B3A01093A01073A01053A01033A1B
:1002600001013B01FF3D01FF3F01FF4101FF430150
:10027000FF4501FF4701FF4901FF4B01FF4D01FF12
:100280004F01FF5101FF5301015302035302055374
:10029000020753020954020B54020D54020F540278
:1002A0001154021355021555021755021955021B18
:1002B00055021D56021F560221560223560225568C
:1002C000022757022957022B57022D57022F570298
:1002D0003158023358023558023758023958023B18
:1002E00059023D59023F5902415902435902455AA8
:1002F00002475A02495A024B5A024D5A024F5B02B8
:10030000515B02535B02555B02575B02595C025B17
:100310005C025D5C025F5C02615C02635D02645EC4
:1003200002655F02656102656302656502656702D9
:10033000656902656B02656D02656F026571026534
:1003400073026373016173015F73015D74015B7418
:1003500001597401577401557401537501517501A8
:100360004F75014D75014B75014976014776014581
:1003700076014376014176013F77013D77013B7776
:100380000139770137770135780133780131780108
:100390002F78012D78012B79012979012779012501
:1003A0007901237901217A011F7A011D7A011B7AD3
:1003B00001197A01177B01157B01137B01117B0168
:1003C0000F7B010D7C010B7C01097C01077C010581
:1003D0007C01037D01017E01018001018201018414
:1003E00001018601018801018A01018C01000004DC
:1003F0007F4A027D4A027B4A02794A02774A0275A5
:100400004A02734A02714A026F4A026D49026B49FD
:100410000269490267490265490063490061490070
:100420005F49005D49005B49005949005748005544
:1004300048025348025148024F48024D48024B4877
:1004400002494802474802454801434701414701E4
:100450003F47013D47013B470139470137470135D8
:1004600047023347023147022F46022D46022B46F0
:10047000022946022746022546002346002146005F
:100480001F46001D46001B45001945001745001575
:1004900045021345021145020F45020D45020B4569
:1004A00002094502074402054401034401014401D5
:1004B000FF4401FD4401FB4401F94401F74401F507
:1004C0004401F34302F14302EF4302ED4302EB43E5
:1004D00002000002FCFEFFFFFFFFFFFFFFFFFFFF28
:1004E000FFFFFFFFFFFFFFFFFFFFFFFEFEFC070F09
:1004F0001F1F1F1F1F1F1F1F1F1F1F1F1F1F1F1F0C
:100500001F1F1F1F1F1F1F0F1A0D00FC02FAFAAA40
:10051000AA02F2FA2AF202B2BAEA6A021AFAE21A53
:1005200002FC00000007080A0A0A0A080A0A090A67
:10053000080A0A0A0908080A0A080807000000FC55
:1005400002FAFA22FA02F2FA2AF202FAFA2AD2029B
:10055000FAFA8AF202FC00000007080A0A090A08EF
:100560000A0A090A080A0A090A080A0A0A0A0807F6
:100570000000FCFCFCFCFCFCFCFCFCFCFCFCFCFCB3
:10058000FCFCFCFFFFFFFFFFFFFFFFFFFFFFFFFF84
:10059000FEFCF8010101010101010101010101015C
:1005A000010101010101010103070F0F0F0F0F0FDF
:1005B0000F070301210C0000782810007828500054
:1005C00078580010482000104820000078FC8ED693
:1005D000DAD68EFC78000000000000000000000069
:1005E0000000000000000000000000000001020503
:1005F00005050505020100000408022905023E095F
:10060000093E3F25251A1E2121123F21211E3F258B
:1006100025213F0505011E21293A3F04043F213FC2
:1006200021001021211F3F040A313F2020203F02DA
:10063000023F3F02043F1E21211E3F0909061E21E1
:10064000112E3F09093622252519013F01011F20DE
:10065000201F0F10201F3F10103F3B04043B0304DA
:100660003807312D23211E29251E223F2000322943
:1006700029261221251A0C0A3F08172525191E259F
:100680002518013905031A25251A0629291E0007F0
:100690003D00073D00073D00073D0B08878F9DB7D4
:1006A000E7C7A5D7AF978D0000000000000000004D
:1006B0000306090C0F121400073D00073D00073D1B
:1006C00000073D040406090F060A0F0F08090D0F65
:1006D0000A090B0F0F03020F0F070D0D0D0F0A0E66
:1006E0000E010D0F030E0B0B0F07050F0FFCFEFF86
:1006F000FFFFFFFFFFFFFFFFFFFFFFFFFFFFFFFF0A
:10070000FFFFFFFFFEFC00010303030303030303DA
:100710000303030303030303030303030301001998
:100720000A00FC02020202020202020202020202A9
:100730000202020202020202FC00000001010101A9
:100740000101010101010101010101010101010199
:1007500001000000073D00073D00073D40E8FCFCAC
:10076000FCFCFCDCBBFFFDFFFBB870F0F0F0F070B0
:100770002000000000000000000101010101010350
:100780000303030303010000002070F0F0F0F07099
:10079000BBFFFDFFFBB8DCFCFCFCFCFCE840000000
:1007A0000103030303030301010101010100000030
:1007B0000000000090F8F8F8F8F8F8F8FBFFFFFFE9
:1007C000FBF8F8F8F8F8F8F8F890000101010101D9
:1007D000010101010101010101010101010101000A
:1007E000160A004048586858488890B3D5B390100E
:1007F0002060A06020200000000000000000000039
:1008000000000000000101010101010000000000E2
:10081000202060A060201093B5D3B090884858681D
:1008200058484000000000010101010101000000E2
:1008300000000000000000000000009090B0D0B068
:10084000909090B3D5B3909090B0D0B0909090002D
:100850000000000000000000000000000000000098
:100860000000000000001414000000C03804C27929
:100870006551516579C20438C000000038C40213C4
:10088000E4E9A2D735E5E535D7A2E9E41302C43897
:10089000000C050A08090D0A010101010A0D0908E9
:1008A0000A050C0000000000C03844DAE5F9C53341
:1008B0008A7488708000000000000043249B0706B3
:1008C0009733793810100080010608F000060D0FEC
:1008D00007000809060D0F070008060908000E01A9
:1008E000000000807088748A33C5F9E5DA4438C0A6
:1008F00000000000F00806018000101038793397DE
:1009000006079B2443000000010E000809060800AA
:10091000070F0D06090800070F0D0600C030080874
:100920007CF4C21D2B416B412B9EC47C080830C057
:100930000738C012C4E8E2F7F56565F5F7E2E8C4E8
:1009400012C03807000C050A08090D0B010101014E
:100950000B0D09080A050C00000000C0380402D97C
:10096000A511B115A1C20438C0000000788482032B
:10097000CFCFECF1E26466E4F2E9CCC7038284787D
:10098000000C050A08090D0B010101010B0D0908F6
:100990000A050C00000000C03804C2796551516599
:1009A00079C20438C000000070888403C4D982383A
:1009B0005482D682543881C403848870000C050A9E
:1009C00008090D0B020000020A0D09080A050C00B7
:1009D000000000C03804C2796551516579C20438FD
:1009E000C000000038C40213E4E9229745256525BC
:1009F000478229E41302C438000C050A08090803D9
:100A000005080D08050308080A050C000000000091
:100A1000C020109010C8A42272CAAA4A02E408F0AA
:100A200000186488473079FEFC7132254A2C09870A
:100A3000710804030000000000020504080A050113
:100A40000101010000000000E8182090C8C8C4247B
:100A5000844830A02020404040800000C38142BD37
:100A6000DB5ABD66007EC37E81FF665A4224817ECA
:100A7000070804090B0B0B0C090A0C0504040202FD
:100A8000020100000ADFFFFFFFFF6F0406070707F0
:100A900006006FFFFFFFFFDF0A00060707070604D7
:100AA000FFFFFFFFFFFFE600020707070600E6FF64
:100AB000FFFFFFFFFF000607070702001FFFFFFF02
:100AC000FFFF660002070707060066FFFFFFFFFF44
:100AD0001F000607070702001FFFFFFFFFFF260496
:100AE00006070707060026FFFFFFFFFF1F00060798
:100AF000070706041FFFFFFFFFFF66000607070743
:100B0000020066FFFFFFFFFF1F0002070707060046
:100B1000FFFFFFFFFFFFE604060707070702E6FFE8
:100B2000FFFFFFFFFF02070707070604E2FFFFFFC3
:100B3000FFFF3A000607070702003AFFFFFFFFFF2B
:100B4000E20002070707060056FEFEFFFFFFDE0079
:100B500000050F1F0F1DDEFFFFFFFEFE561D0F1FBE
:100B60000F0500000A0D00004094BCB6FAD68C4078
:100B70000000000000050905080000FE4094BCB616
:100B8000FAD68C40100700000005090508000E0D7C
:100B9000000018ACF46C78A8000000000000000809
:100BA000060B07010100000000000000000000002B
:100BB00080C0C0A070E04000000000000A0A0703E7
:100BC0000503050001000000008000800080808097
:100BD000008040C080000000040200030709070FE6
:100BE000050E0300070B000ADEFB9D6B06000402E6
:100BF00004060000066B9DFBDE0A000000060402EE
:100C000004004A1EDBFDEB26400000020406000043
:100C10004026EBFDDB1E4A000006040200000A1E0F
:100C2000DBFDEB6600000002000600000066EBFD45
:100C3000DB1E0A000006000200000A1EDBFDAB26D8
:100C400000000402000600000026ABFDDB1E0A00C7
:100C50000006000204000A1EDBFDEB660000000631
:100C6000000200000066EBFDDB1E0A000002000629
:100C700000004A1EDBFDEB264000040200020200D9
:100C80004026EBFDDB1E4A00020200020400402267
:100C9000EBFBEB2210000006000200001022EBFB31
:100CA000EB22400000020006000054BCB6FAD60C4D
:100CB00000000005090508000CD6FAB6BC5400086F
:100CC000050905000000387CFEFFFFFFFE7C3800B0
:100CD0000000010101000000090900385482D68299
:100CE00054380000000000000000000000384CC232
:100CF0009286643800000000000000000000003808
:100D0000648692C24C380000000000000000000021
:100D1000D5F08D14A1C881CFD9F1AF2000080B0008
:100D20000202020100090400000102020000052481
:100D30000010010524010101042402060524060017
:100D4000010705810310004009040100020A0000A8
:100D5000000705020240000007058302400000046E
:100D600003090412010002EF020140412336800012
:100D7000010102030141726475696E6F204C4C439E
:100D80000041726475696E6F204C656F6E617264AC
:100D90006F000002040608090A0A0B0B0C0C0C0D6C
:100DA0000D0D0D0D0D0D0D0D0D0D0D0D0D0D0D0C74
:100DB0000C0C0B0B0A090806040200FFFFFFFFFFE3
:100DC000FFFFFFFFFFFFFFFFFFFFFFFFFFFFFFFF33
:100DD000FF000000000000000000F0F8F0F0F0F06C
:100DE000F0F8F014020303000303030003030300FD
:100DF00003030300030303000307070007070700BB
:100E000007070700070707000707070007FFFFFF9F
:100E1000FCFCFCFCFCFFFFFFFFFFFFFFFFFFFFFFF1
:100E2000FFFFFF070707010101010107070707058A
:100E3000000A1E1B1D0B0616087A7A7A007C5444A1
:100E40000078147800485424000C700C007A7A7AE8
:100E50007A7A007C107C00781478007C1468007C1E
:100E60004438007A7A0910000000000000000000F9
:100E7000F008D0D010101008F00C14001080000002
:100E80002080000040080000028840408208804026
:100E9000880200010206040C0C0C0C04060201007E
:100EA00040000000401000002080100004814040FD
:100EB00088028040820800010206040C0C0C0C041D
:100EC0000602010010800000004000000020000029
:100ED0000490404091048040910400010206040CFB
:100EE0000C0C0C040602010910000048B0CCB04202
:100EF0000000F008DFDB151B1F08F0000080E8622F
:100F0000C0D00000F008DFD41B141F08F0000080E0
:100F1000E872C0D00000F008DFD41B141F08F000F6
:100F20000002B058A4F00000F008DFDF151E1F0813
:100F3000F0091B0000805C7B5C00000006091020AB
:100F40002020100800000000000000000000000049
:100F5000000000000000000000805C7B5C000000DE
:100F600006C91020202010080000FF00000000002B
:100F700000000401000000000000000000805C7B15
:100F80005C00000006C910A0202010080000FF002F
:100F9000FF00000000000401040100000000000048
:100FA00000805C7B5C00000006C910A020A0100837
:100FB0000000FF00FF00FF00000004010401040125
:100FC0000000000000805C7B5C00000006C910A0EF
:100FD00020A010C80000FF00FF00FF00FF00040178
:100FE0000401040104010028380000000000000092
:100FF0000000000000000000000000000000804031
:1010000018B4BC180008D0B0204080800000000058
:101010000000000000000000000000000000006070
:1010200090904A0408010000000003070C3973E89F
:1010300098141415D3D6140C1800000000000000FA
:1010400000000000000000000000000000000000A0
:10105000000000000000000103071C38F3CD940AD3
:101060000A00000000000000000000000000000076
:101070000000000000000000000000000000000070
:10108000000000000001030F1E000000000000002F
:101090000000000000000000000000000000000050
:1010A0000000000000000000000000000000000040
:1010B0000000000000000000000000000000000030
:1010C0000000000000000000000000000000000020
:1010D0000000000000000000000000000000000010
:1010E0000000000000000000000000000000000000
:1010F00000000000000000000000000000000000F0
:1011000000000000000000000000000000000000DF
:1011100000000000000000009834BC180008D0B0A7
:10112000204080800000000000000000000000005F
:10113000000000000000000000000080846810260D
:10114000010003070C3973E898141415D3D6140C56
:101150001800000000000000000000000000000077
:101160000000030404020000000000000000000171
:1011700003071C38F3CD940A0A00000000000000A9
:10118000000000000000000000000000000000005F
:101190000000000000000000000000000001030F3C
:1011A0001E00000000000000000000000000000021
:1011B000000000000000000000000000000000002F
:1011C000000000000000000000000000000000001F
:1011D000000000000000000000000000000000000F
:1011E00000000000000000000000000000000000FF
:1011F00000000000000000000000000000000000EF
:1012000000000000000000000000000000000000DE
:1012100000000000000000000000000000000000CE
:1012200000000000000000000000000000000000BE
:1012300018B4BC180008D0B0204080800000000026
:10124000000000000000000000000000000000009E
:10125000000000000000000040DE43070C3973E886
:1012600098141415D3D6140C1800000000000000C8
:10127000000000000000000000000000000000006E
:101280000C1310080000000103071C38F3CD940A6A
:101290000A00000000000000000000000000000044
:1012A000000000000000000000000000000000003E
:1012B000000000000001030F1E00000000000000FD
:1012C000000000000000000000000000000000001E
:1012D000000000000000000000000000000000000E
:1012E00000000000000000000000000000000000FE
:1012F00000000000000000000000000000000000EE
:1013000000000000000000000000000000000000DD
:1013100000000000000000000000000000000000CD
:1013200000000000000000000000000000000000BD
:1013300000000000000000000000000000000000AD
:10134000000000000000000000000000000000009D
:10135000000000000000000000000000000000008D
:1013600000008040200C1A1ECCC0828A36E48444DF
:10137000A84818D090102020204040408080800055
:101380000000000030484825020400000000000072
:10139000000101030307070F0C1C1838337E78F493
:1013A000CAC582810E7CE00101000000000000003F
:1013B000000000000000000000000000000000002D
:1013C0000000000000000000000101030307070FF8
:1013D0000C00000000000000000000000000000001
:1013E00000000000000000000000000000000000FD
:1013F00000000000000000000000000000000000ED
:1014000000000000000000000000000000000000DC
:1014100000000000000000000000000000000000CC
:1014200000000000000000000000000000000000BC
:1014300000000000000000000000000000000000AC
:10144000000000000000000000000000000000009C
:10145000000000000000000000000000000000008C
:10146000000000000000000000000000000000007C
:1014700000000000000000000000000000CC1A1E68
:10148000CCC0828A36E48444A84818D0901020202A
:10149000204040408080800000000000000000806C
:1014A0004042340813200000000101030307070F26
:1014B0000C1C1838337E78F4CAC582810E7CE0019A
:1014C0000100000000000001020201000000000015
:1014D000000000000000000000000000000000000C
:1014E000000101030307070F0C00000000000000CB
:1014F00000000000000000000000000000000000EC
:1015000000000000000000000000000000000000DB
:1015100000000000000000000000000000000000CB
:1015200000000000000000000000000000000000BB
:1015300000000000000000000000000000000000AB
:10154000000000000000000000000000000000009B
:10155000000000000000000000000000000000008B
:10156000000000000000000000000000000000007B
:10157000000000000000000000000000000000006B
:10158000000000000000000000000000000000005B
:1015900000000000000CDA1ECCC0828A36E48444CD
:1015A000A84818D090102020204040408080800023
:1015B00000000000000000000000000000887B0820
:1015C000000101030307070F0C1C1838337E78F461
:1015D000CAC582810E7CE00101000000000000000D
:1015E00000000000000102020100000000000000F5
:1015F0000000000000000000000101030307070FC6
:101600000C000000000000000000000000000000CE
:1016100000000000000000000000000000000000CA
:1016200000000000000000000000000000000000BA
:1016300000000000000000000000000000000000AA
:10164000000000000000000000000000000000009A
:10165000000000000000000000000000000000008A
:10166000000000000000000000000000000000007A
:10167000000000000000000000000000000000006A
:10168000000000000000000000000000000000005A
:10169000000000000000000000000000000000004A
:1016A000000000000000000000000000000C1ADE36
:1016B0000CC0828A36E48444A84818D090102020B8
:1016C00020404040808080000000000000000000BA
:1016D0000000000000000020139869058107070F33
:1016E0000C1C1838337E78F4CAC582810E7CE00168
:1016F00001000000000000000000000000000000E9
:1017000000010202010000000000000000000000D3
:10171000000101030307070F0C0000000000000098
:1017200000000000000000000000000000000000B9
:1017300000000000000000000000000000000000A9
:101740000000000000000000000000000000000099
:101750000000000000000000000000000000000089
:101760000000000000000000000000000000000079
:101770000000000000000000000000000000000069
:101780000000000000000000000000000000000059
:101790000000000000000000000000000000000049
:1017A0000000000000000000000000000000000039
:1017B0000000000000000000000000000000000029
:1017C00000000000000C1A1E4CC0028A36A404441B
:1017D000A84818D0901020202040404080808000F1
:1017E00000000000000000000000000000000000F9
:1017F00000080402056893876C0C1838337E78F46F
:10180000CAC582810E7CE0010100000000000000DA
:1018100000000000000000000000000000000000C8
:101820000000000000000000000101030307070F93
:101830000C0000000000000000000000000000009C
:101840000000000000000000000000000000000098
:101850000000000000000000000000000000000088
:101860000000000000000000000000000000000078
:101870000000000000000000000000000000000068
:101880000000000000000000000000000000000058
:101890000000000000000000000000000000000048
:1018A0000000000000000000000000000000000038
:1018B0000000000000000000000000000000000028
:1018C0000000000000000000000000000000000018
:1018D0000000000000000000000000000000000008
:1018E00000000000000000000000000000000000F8
:1018F00000000000000000000000000000000000E8
:101900008040C08020A0A0202020A020D0D0901017
:10191000101010109050906868C8880808080808CF
:101920000800000000000000017B0301080C0D0FFF
:101930000E0D0E1D1818191B1E1C1A1D1A19181031
:1019400010303133363C38343A00000000000000DB
:10195000314F4120000000000000000000000000A6
:101960000000000000000000000000000000000077
:101970000000000000000000000000000000000067
:101980000000000000000000000000000000000057
:101990000000000000000000000000000000000047
:1019A0000000000000000000000000000000000037
:1019B0000000000000000000000000000000000027
:1019C0000000000000000000000000000000000017
:1019D0000000000000000000000000000000000007
:1019E00000000000000000000000000000000000F7
:1019F00000000000000000000000000000000000E7
:101A000000000000000000000000000000000000D6
:101A100000000000000000000000000000000000C6
:101A200000000000000000000000000000000000B6
:101A30008080C0C0606030301800000000000000EE
:101A400000000000000000008080C0C060603030F6
:101A5000B8188C6CE6C68383E119E4168C8C985810
:101A60007400000000000000000000000018B43CFA
:101A700019012022261C1816090E09040404030368
:101A80000301010100000000000000000000000050
:101A90000000000000887B0800000000000000003B
:101AA0000000000000000000000000000000000036
:101AB0000000000000000000000000000001020221
:101AC0000100000000000000000000000000000015
:101AD00000000000000000000014020100000001EE
:101AE00000000001000000010000000100000014DF
:101AF00003020000000200000002000000020000DB
:101B000000020000000B0BF83878E8D0A000A0100D
:101B10000C0C0704040405070707000000F83878D8
:101B2000E0C8A44383000000070404040507070776
:101B30000000000B1300FE48484848484848FE0093
:101B400000FF92929292929292FF00000300000096
:101B50000000000003001910010107050507030339
:101B60000303030303030303030303070505070438
:101B70000400000000000000000000000000000061
:101B80000000000000000000000004040705050735
:101B9000030303030303030303030303030705050D
:101BA000070101000000000000000000000000002C
:101BB0000000000000000000000000000101070517
:101BC00005070303030303030303030303030307DB
:101BD00005050701010000000000000000000000F2
:101BE00000000000000000000000000000000101F3
:101BF0000F0B0A0E060606040C0C0C081818181811
:101C000070505070404000000000000000000000D4
:101C100000000000000000000000000000000000C4
:101C20000040407050507018181818080C0C0C0424
:101C30000606060E0A0B0F0101000000000000005E
:101C40000000000000000000000000000000000094
:101C5000000001070B0A0E06040C0C0818181030BF
:101C60003020E06040C000000000000000000000E4
:101C70000000000000000000000000000101010160
:101C8000010000000000000000C04060E020303093
:101C9000101818080C0C04060E0A0B0701000000AF
:101CA000010101010100000000000000000000002F
:101CB00000000000000019362C183060C0800000C1
:101CC0000000000000000000000000000000000014
:101CD0000000000000000103066CD8B06080000026
:101CE00000000000000000000000000000000000F4
:101CF00000000000000000000080C06030182C369A
:101D000019000000000000000000008060B0D86CE6
:101D1000060301000000000000000D08252D3931E8
:101D20002931252D39312931210C08627A7A6262F4
:101D30007A7A62627A7A620B08878F9DB7E7C7A5C5
:101D4000D7AF978D00190100050F0C180424180552
:101D50003C18060943001342001D41002740003192
:101D60003F003B3E00453D00092F03152F01212F69
:101D7000012D2F01392F01452F01174B01234B0155
:101D80005750015F50016349016F49017B49016A66
:101D9000500E573F01633F016F3F017B3F01FB6CDA
:101DA00001166C01226C012E6C01326C014F6C012A
:101DB000005C000A5D00145E001E5F0028600032B7
:101DC00061003C62004663005064005A6500717017
:101DD000027D70020A85001484001E8300288200A0
:101DE0003281003C8000467F00507E005A7D0064B6
:101DF0007C00094A035B6A03FC2F010024070044AE
:101E0000891444882845883C468850478864488817
:101E1000784988580A0A55000B007A0C007A4D79E7
:101E200085527285516B8550000000387CFEFFFFA3
:101E3000FFFE7C38000000010101000000090900DC
:101E4000385482D6825438000000000000000000A0
:101E50000000384CC2928664380000000000000088
:101E60000000000038648692C24C38000000000078
:101E7000000000000003F70403F80403F90403FA68
:101E80000403FB0403FC0403FD0403FE0403FF043A
:101E90000300040301020501020701020901020B0C
:101EA00001020D02020F02021102021302021502C8
:101EB000021703021903021B03021D03021F030280
:101EC0002104022304022504022704022904022B10
:101ED00005022D05022F05023105023305023506E4
:101EE000023706023906023B06023D06023F0702A0
:101EF0004107024307024507024707024908024B10
:101F000008024D08024F0802510802530902550900
:101F1000025709025909025B09025D0A025F0A02BF
:101F2000610A02630A02650A02670B02690B026B0F
:101F30000B026D0B026F0B02710C02730D04730F19
:101F400004731104731304731504731704731904D1
:101F5000731B04731D04731F047321047323047122
:101F600023016F23016D23016B2401692401672480
:101F7000016524016324016125015F25015D2501BF
:101F80005B2501592501572601552601532601518C
:101F900026014F26014D27014B27014927014727DD
:101FA000014527014328014128013F28013D28011F
:101FB0003B2801392901372901352901332901310C
:101FC00029012F2A012D2A012B2A01292A01272A3A
:101FD00001252B01232B01212B011F2B011D2B017F
:101FE0001B2C01192C01172C01152C01132C01118C
:101FF0002D010F2D010D2D010B2D01092D01072E96
:1020000001052F01053101053301053504053704AC
:10201000053904053B04053D04053F040541040B57
:10202000794A01180D794A001C0F794A000C117881
:1020300049000C137849000C157849000C177849B1
:10204000000C197849000C1B7748000C1D774800DC
:102050000C1F7748000C217748000C237748000CB0
:10206000257647000C277647000C297647000C2B75
:102070007647000C2D7647000C2F7546000C317505
:1020800046000C337546000C357546000C37754616
:10209000000C397445000C3B7445000C3D74450040
:1020A0000C3F7445001C417445001C437343001CE5
:1020B000457343001C477343000C497343000C4BAA
:1020C0007343000C4D7242000C4F7242000C51726F
:1020D00042000C537242000C557242000C57714181
:1020E000000C597141000C5B7141000D5D714100A4
:1020F000055D6F3F0C035D6D3D0C035D6B3B0D0398
:102100005D69390D035D67370C035D65350C035D53
:1021100063330D035D61310D035D5F2F0C035D5D66
:102120002D0C035D5B2B0D035D592900465B59297E
:10213000004E595828004C575828004C5558280034
:102140004C535828004C515828004C4F5727004CEE
:102150004D5727005C4B5727005C495727005C47C9
:102160005727005C455626005C435626005C4156C6
:1021700026005C3F5626005C3D5626005C3B5525FC
:10218000005C395525005C375525005C3555250028
:102190005C335525005C315424005C2F5424005CD2
:1021A0002D5424004C2B5424004C295424004C273B
:1021B0005323004C255323004C235323004C21531D
:1021C00023004C1F5323004C1D5222004C1B522253
:1021D000004C195222004C175222004C155222007A
:1021E0004C135121004C115121004C0F5121004C36
:1021F0000D5121004D0B512100490B4F1F0C030BBA
:102200004D1D0C030B4B1B0D030B49190D030B4705
:10221000170C030B45150C030B43130D030B411156
:102220000D030B3F0F0C030B3D0D0C030B3B0B0D74
:10223000030B39090D030B37070C030B35050C0392
:102240000B33030D030B31010D030B2F000C030B9C
:102250002D000C030B2B000D030B29000D030B2786
:10226000000C030B2400002A0D2400000E0F240094
:10227000000C112400000C132400000C1524000095
:102280000C172400000C192400000C1B2400000C67
:102290001D2400000C1F2400000C212400000C232E
:1022A0002400000C252400000C272400000C292405
:1022B00000000C2B2400000C2D2400000C2F240007
:1022C000000C312400000C332400000C35240000E5
:1022D0000C372400000C392400000C3B2400000CB7
:1022E0003D2400000C3F2400000C412400000C435E
:1022F0002400000C452400000C472400000C492455
:1023000000008C4B2400008C4D21000B044F1F005B
:102310000B0C511E000B0C531D000B0C551D000F18
:1023200000551D000F00551D000F00551D000F002A
:10233000551D000F00551D000F00551D000F005FBB
:1023400015000F005F15000F005B150013005B15F3
:102350000013005F170014005F17001400641900D9
:10236000140064190014006419001400581D0114AD
:1023700000581D021400581D031400542A041400B0
:10238000542A051400542A06140058320714005821
:102390003208140058320914005934090000593425
:1023A0000901005B340903005D340905005F34094D
:1023B0000700613409090063340903006534090525
:1023C00000673409070069340909006B3409030008
:1023D0006D340905006F3409070071340909007371
:1023E000340903007534090500773409070079348E
:1023F0000909007B340903007D340905007F340995
:1024000007008134090700551E000B00571F010B00
:10241000005B21030B005D23050B005F26080B000A
:1024200061290B0B00632C0E0B006530120B00674B
:102430003315100069331511006933151200693323
:10244000151200693315120069331512006933152E
:102450001200693315120069331512006933151221
:10246000004D24000B004F24000B005124000B00F2
:102470005325000B005525000B005725010B005B71
:1024800026030B005D26050B005F27080B00612863
:102490000B0B0063290E0B00652B120B00672E152A
:1024A00010006933151100693315120069331512D4
:1024B00000693315120069331512006933151200D3
:1024C000693315120069331512006933151200C7FC
:1024D00034090100633409010063340900006334E6
:1024E00009000061330902005F310904005D2E0913
:1024F00006005B2C090800592A0902005728090424
:10250000005526090600532409080051220902003B
:102510004F210904004D220906004B2409080049F7
:102520002409020047240904004524090600432425
:1025300009080041240902003F240904003D240940
:1025400006003B2409080039240902003724090445
:10255000003524090600332409080031240902004B
:102560002F240904002D240906002B240908002922
:102570002409020027240904002524090600232435
:1025800009080021240902001F240904001D240950
:1025900006001B220908001920090200171E080462
:1025A00000151C070600131A0608001118050A007A
:1025B0000F16040A000F14030A000F13020A000F7B
:1025C00011010A000D0F000A000B0E000200090E97
:1025D000000400070E000600050E000800030E00B0
:1025E0000200030E000C00030E000C00030E000D91
:1025F00000030E000D00030E000C00030E000C0083
:10260000030E000D00030E000D00030E000C00036E
:102610000E000C00030E000D00030E000D00030E53
:10262000000C00030E000200010E000400FF0E006B
:102630000600FD0E000800FB0E000200F90E00046B
:1026400000F70E000600F50E0008007924000004D3
:1026500000005401DC03B40000004A011704B40078
:1026600000004A017003B40000004A017003B40086
:1026700000009F00DC03B40000009F00DC03B401F5
:1026800000004A001704B40000004A017003B400BF
:1026900000009F00BA02540100001200BA02AA0012
:1026A000000012009302AA0000005D004B026203CA
:1026B0000000EE0200005401DC03B40000004A01F7
:1026C0001704B40000004A017003B40000004A017E
:1026D0007003B40000009F00DC03B40000009F0002
:1026E000DC03B40100004A001704B40000004A01F2
:1026F0007003B40000009F00BA02540100001200F1
:10270000BA02AA00000012009302AA0000005D00B5
:102710004B0262030000EE0200800601FA00B801DD
:10272000FA008801FA00B801FA000601FA00B801BF
:102730007D0088017701B801FA003701FA000B0229
:10274000FA00D201FA000B02FA003701FA000B027C
:102750007D00D20177010B02FA005D01FA00BA0296
:10276000FA006E02FA00BA02FA009F01FA00BA02F9
:102770007D006E027701BA02FA000B027D000B02A7
:102780007D000B027D000B027D00D201FA000B02DE
:10279000FA000000FA000B027D000B027D000B0224
:1027A0007D000B027D0000801A27502601010101E7
:1027B0000101387CFEFFFFFFFE7C380000000101B4
:1027C00001000000090900385482D6825438000004
:1027D000000000000000000000384CC292866438FF
:1027E000000000000000000000000038648692C273
:1027F0004C38000000000000000000000101010151
:102800000204081020408021080F0F080800060964
:102810000B06000E03030E000F090F06000F0F003A
:102820000F02030F000E0F090D0000073D00073DCA
:1028300000073D00073D3832A82F11241FBECFEFFF
:10284000DAE0DEBFCDBF11E0A0E0B1E0E2EBFBE6F5
:1028500002C005900D92A03AB107D9F727E0A0EA8F
:10286000B1E001C01D92A531B207E1F714E1CCE15E
:10287000D4E104C02197FE010E94A034CB31D107DE
:10288000C9F70E94AC2F0C94CC350C9400002F9209
:102890003F924F925F926F927F928F929F92AF92F0
:1028A000BF92CF92DF92EF92FF920F931F93CF933D
:1028B000DF93CDB7DEB7E3970FB6F894DEBF0FBE58
:1028C000CDBF8C016B01DB0119964C9019971A96BC
:1028D000BC91B9ABFC018281811182C07801FDE419
:1028E000EF0EF11CD70119968C91811179C054C15A
:1028F0008AE991E00E944E2A8CE991E00E944E2ADA
:10290000F801E95BFF4F4F01BB2041F05801FAE1AC
:10291000AF0EB11CA814B90409F0E1C1F60187811A
:10292000908566E070E00E947834892B41F458016C
:10293000FAE1AF0EB11CA814B90409F0EFC1F60119
:102940008389813009F4EBC2D60153968C91813092
:10295000A9F47801BAE4EB0EF11CF7019081D401DF
:102960008C91890FF40190E0E215F30509F04BC357
:10297000882309F454C3813009F44EC3D601179655
:102980008D919C91189783709927892B09F455C3D1
:10299000F801818D882309F47FC38489863208F485
:1029A00061C3873208F068C3F8017A968E169F06D5
:1029B00009F0EFC3D60117968D919C91189766E0A8
:1029C00070E00E947834892B09F4EAC3F60187810C
:1029D00090856CE070E00E947834892B09F4EBC399
:1029E000D60152968C915297811107C081E054967E
:1029F0008C93F801E359FF4F10825801BEE6AB0EED
:102A0000B11CF501F080F3E6FF1548F022E0F21664
:102A100008F04AC041E0F41609F44AC05FC054E629
:102A2000F51242C081E0F801ED58FF4F8083F601B6
:102A300082898823A1F160E070E0C801835B9F4F29
:102A40000E94A229F8017A96C801895B9F4F8E17D0
:102A50009F0741F020812B3A18F0108212821382D6
:102A60003596F5CFF801EA59FF4F8081811104C0F6
:102A7000C8010E94DB2913C0D80151961C925197BE
:102A800052961C92529753961C9253978DE05496EF
:102A90008C93549759961C92599755961C92F50110
:102AA0008081815080831AC0FA94D501FC9216C0AF
:102AB000F6018289882349F0C801835B9F4F0E94F9
:102AC000BD29F801E359FF4FF082D5011C92F801AE
:102AD000ED58FF4F108281E03F9781837801BFE678
:102AE000EB0EF11CF7018081882311F08150808367
:102AF000F801E359FF4F8081D60154962C91811142
:102B000025C0211123C089A980954822842D8C706D
:102B100009F4D0C581E0808336961082F5011082D9
:102B2000C801835B9F4F0E94BD29F801E15AFF4F06
:102B3000118210820280F381E02D82E0828384E1A1
:102B4000808343FEB7C5D7018C93B4C5F601828557
:102B50008095918589232223B9F083FFABC583E853
:102B600084BD8FEF87BD81EF809380001092880035
:102B700010928A000E94382185E0D60156968C93E7
:102B8000569757961C9296C582FF94C5F80192817C
:102B900081E0892782838EC5A80143595F4F5CA7D6
:102BA0004BA7DA018C91882359F1F60127813085F2
:102BB00020FD77C5F7018281811108C3D7011A96DC
:102BC0008C911A9781110CC31B969C91911108C38B
:102BD000D70113968C91B42DB074BB2E86FD0CC317
:102BE000B11015C3B42CB5FC1EC3B4FC29C3B7FC8B
:102BF0002DC3F801E159FF4F8081882309F42BC3CD
:102C00001701F7015480D60117968C9180FD13C0EF
:102C10005801B9E5AB0EB11CF501858181110BC0DE
:102C20009EC4F5018181883009F4EEC408F4E2C441
:102C3000893009F4B9C4F8017196FEA7EDA7CF0158
:102C40000E94602A8F3F81F0D80151968C91519754
:102C50008D3350F053968C915397811105C0529645
:102C60008C91882309F4D2C4B12CA12CF801EF581F
:102C7000FF4FFBABEAAB3AE0632E712C812C912C19
:102C8000AAA9BBA98C91A81608F032CEF801B5E02C
:102C9000BA9DE00DF11D1124228D30E040E050E09E
:102CA00019A2FE01B196F8ABEFA7CA01B901A401C0
:102CB00093010E943B34605DAFA5B8A96E93B8AB99
:102CC000AFA7211531054105510579F7CD010E94C6
:102CD0004E2A88E991E00E944E2AA394D1CFD501D3
:102CE00012968C9112978111A5C413968C91811123
:102CF000A1C40E9464332CE130E040E050E00E9427
:102D00000934DC01CB010296A11DB11DF5018383BD
:102D1000F801B08EA78A128A838B00CED501129655
:102D20008C91882309F4F7C0EBA5FCA5808188234A
:102D300009F44DC0D70112968C91882309F447C03D
:102D4000D5012C91B3E02B9F90011124F901E45A95
:102D5000FE4F4491F901E35AFE4F2491D701ED91C2
:102D6000FC91B5E0BE9FB001BF9F700D1124FB0127
:102D7000E15EFF4D3491F7013683FB01E05EFF4DCC
:102D80009491E82FF0E0EE56F24F8491042E000C5F
:102D9000550BE32FF0E04E175F07C9F4F7013481BC
:102DA000E92FE31BE81B0E2E000CFF0B2519E21B7D
:102DB000F10927FDF395399754F4D60150968D917A
:102DC0009C915197019651969C938E935097C10177
:102DD0000E94132A29833A834B835C836D837E830D
:102DE000F5018081F3E08F9FC00111249C01245ADA
:102DF0003E4FF9014491835A9E4FFC014491ABA58B
:102E0000BCA54C914423C1F1F9016490FC01F491FB
:102E1000FFA7062C000C7708C1010E94132A2AA3E1
:102E20003BA34CA35DA36EA37FA38AA19BA1AC018E
:102E3000460F511D93012F5F3F4F24173507E4F4D0
:102E400028E0620E711C86159705B4F48FA58519CC
:102E5000082E000C990B2CA13DA1A901470F511D73
:102E6000BA01AC014F5F5F4F461757072CF4089625
:102E7000281739070CF40BC4D5019C91B3E09B9F34
:102E8000F0011124E25AFE4F84918695869586952D
:102E90009F5F980FF5019083F3E09F9FC00111247D
:102EA000FC01E45AFE4F2491FC01E35AFE4F849149
:102EB000211106C0811104C0D5011C9212961C92EA
:102EC000D501EC91B3E0EB9FF0011124E25AFE4FE3
:102ED000E491E770D5011496EC931497E13059F022
:102EE000E230C9F411968C9111978F5F833089F489
:102EF000F501118210C0D50111968C9111978111A5
:102F000003C0E3E01196EC93D50111968C911197D3
:102F1000815011968C93B5E0AB0EB11C0CCD87811E
:102F200090856AE070E00E947834892B09F00CCD1E
:102F300074012E143F0409F407CDD7018C91882326
:102F400009F45DC011968C9111978F5F11968C9347
:102F5000B3E08B9FC0011124FC01E051FC4F249190
:102F6000FC01EF50FC4F8491211105C0811103C079
:102F7000F70110821182ABA5BCA58C91882309F4BE
:102F80003EC0F7018181F3E08F9FC0011124FC0155
:102F9000E051FC4FA490FC01EF50FC4F74900A2CC0
:102FA000000CBB08C1010E94132A29833A834B837A
:102FB0005C836D837E8389819A81AC01460F511DAC
:102FC00095012F5F3F4F24173507CCF425E1A20E62
:102FD000B11C8A159B059CF47518E72DF0E08B81D8
:102FE0009C81AC01470F511D9F012C5F3F4F24175F
:102FF00035072CF438968E179F070CF44DC343E029
:10300000E40EF11C96CF2081222321F0218192171A
:1030100008F4922F3396A8CC933308F4AFCC0E94D7
:10302000643322E330E040E050E00E940934672B33
:10303000682B692B09F402C3A1CCF801E15AFF4FB8
:103040008081882309F4A4CC813049F41082118254
:103050000280F381E02D82E0828384E101C081500F
:10306000808396CC8E3098F48D3009F09DCC88E02A
:10307000868B8EE0848B98CC8F3348F08F3309F0A9
:1030800093CC84E0F801868B8EE3848B8DCC8DA568
:103090009EA50E94042188CC8389882339F0815021
:1030A000838B81112BC088E2828B28C0F801828932
:1030B000882321F18150828B811120C0848986323E
:1030C00021F08F3321F080E003C081E001C082E075
:1030D000D8015796ED91FC915897209116013091A7
:1030E00017014091180128A739A74AA7DE01A80FA8
:1030F000B11D98968C91808381E08283F80181894B
:10310000882311F0815043C08489863271F020F405
:103110008D3049F0F8F448CC8F33E0F08F3309F06C
:1031200043CC84E015C088E013C00E94643322E0E1
:1031300030E040E050E00E940934672B682B692B97
:1031400011F484E001C088E0D80156968C9302C047
:10315000F801868B8DA59EA50E940421D801549666
:103160008C91863229F08F3319F08D3009F01CCC08
:103170000E94643322E830E040E050E00E940934CD
:10318000DC01CB018A5B9F4FAF4FBF4FF801818BB2
:103190000BCC8381882311F081508383359606CC34
:1031A000F801ED59FF4F80818F5F843011F08083EB
:1031B0000DCC10820BCCF801EC59FF4F80818F5F52
:1031C000833011F080830CCC10820ACC883220F43A
:1031D0008F5FF701828314CDD70112961C9210CD18
:1031E000F7019385992309F46FC0A901437055270E
:1031F000452B09F45EC068C045FE02C082FD37C0A1
:10320000BB20E1F0F701838183FD15C017C043FEA9
:1032100032C087FF30C081E0F7018287C7010E947A
:10322000702AB12CE0CCF701838182FF1FC2C70155
:103230000E948C2A1BC2C7010E948C2AB42CD5CCB8
:10324000D70113968C9181FD2CC0D1CCF7018381DD
:1032500080FD2BC0CECCB3FED3CCD70113968C917E
:1032600084FFCECC81E0D70112968C93C9CCC701E4
:103270000E94702AC5CF83FFB5CCD7018D919C9158
:1032800011978439910549F481E01B968C936AED7E
:1032900070E0C7010E94A229A5CCC7010E94702A34
:1032A000A1CCC7010E948C2AA2CCC7010E94702A1F
:1032B000A0CCF701808191818E3E9105D9F5B601B0
:1032C000C8010E94F8299CCC882309F4EFC123701F
:1032D0003327232B09F0EAC1D60153968C91813014
:1032E00009F43BC144E0D7018D919C915801B9E5A7
:1032F000AB0EB11CF5012181BC01605A7109673226
:103300007105E0F08B3A910509F4CAC008F061C07C
:10331000833A910509F4AEC008F04CC08839910594
:1033200009F48AC08F39910509F496C0873991054F
:1033300009F474C0C7010E94702A62CC3D963081A6
:103340003111E0CFD801A959BF4F3C91E1E0E30F23
:10335000EC9311965C911197513089F048F05230FE
:10336000C1F473E0E79FF0011124EC52FF4F0DC050
:1033700053E0E59FF0011124E35CFE4F06C063E0DB
:10338000E69FF0011124E75EFE4FE491E93009F475
:103390003C931296EBA5FCA5EA17FB07B1F6D80102
:1033A00055963C9155973F3008F0ACCF3F5F55960E
:1033B0003C93A8CF853A910509F46DC008F487C005
:1033C000883A910509F0B6CFC7010E94702A85E0BE
:1033D0007AC0893D910509F472CF88F4873B910545
:1033E00009F465C0873C910509F478C08E3A9105CF
:1033F00009F0A0CFC7010E94702A89E064C083331E
:10340000B1E09B0709F481C08A33E1E09E0709F42B
:1034100065C08732914009F47DC08CCF243008F418
:1034200089CF421708F486CF81E0D50115968C9399
:10343000C7010E94702A7ECF233010F0421718F483
:1034400068EC70E03CC0C7010E94702A84E0F5017E
:10345000818381E08583D4CBC7010E94702AD50186
:1034600011961C9281E0F801818F84E6818B128A8B
:10347000138AC6CBC7010E94702A81E0D50111963C
:103480008C93F801EA59FF4F8081882309F4B8CB67
:1034900081508083B5CBC7010E94702A82E004C0AE
:1034A000C7010E94702A88E0F5018183A9CBF80149
:1034B000EA59FF4F808181113DCF60EF70E0C70175
:1034C0000E94A2299DCBD50111968C9399CBF60130
:1034D000808991894496918B808B2CCF88ECF80160
:1034E000E259FF4F80833F97118210820280F3815F
:1034F000E02D82E0828384E18083F801ED58FF4F64
:103500001082ABA5BCA51C927BCBF801EC59FF4FF8
:10351000118210CFF60180899189C296918B808BA0
:10352000C7010E94702AF801EF58FF4F808189304F
:1035300010F48F5F8083F801EE58FF4F6081603593
:1035400008F05ECB6F5F608370E088EE93E00E94CE
:103550008C34D6011B966C9353CB43E0C4CEF5015B
:103560009281923069F5F50120818181222371F0E9
:10357000215020838350853008F05DCB84818230D8
:1035800009F459CBC5010E94122155CB883099F01E
:1035900018F4833048F44FCB893009F04CCB948336
:1035A0008AE08083128247CB88E0D50111968C9304
:1035B000119784E117C089E0F501818384E107C098
:1035C000933039F4F5018081882371F08150808334
:1035D00032CB913009F02FCBD5018C91882309F49F
:1035E00020CB81508C9327CBC5010E9412218AE009
:1035F000D501F8CF833008F41ECB82E084838AE0C3
:10360000808383E0828317CB85E0D6CFF8017A965A
:10361000C801895B9F4FBB24B394E817F90709F4ED
:1036200024CB2281222321F020812E3408F4B12CD6
:103630003596F3CFF5E0AF0EB11C6CC9D4018C9177
:10364000882339F0F7018081882311F08FEF01C0C2
:1036500081E090E0FC01EE0FFF1FE80FF91FE00F83
:10366000F11FE95BFF4F81E0808388C9F701838107
:1036700085FFBBCA81E0F801E15AFF4F81839CE8D6
:10368000908336971582828384E18083AECAB60127
:10369000C8010E94F829F0CBB601C8010E94F829A0
:1036A000AECC1701D70114965C90C5CA1701F7017B
:1036B0005480AECAE3960FB6F894DEBF0FBECDBFFE
:1036C000DF91CF911F910F91FF90EF90DF90CF90FE
:1036D000BF90AF909F908F907F906F905F904F9032
:1036E0003F902F9008958091A001E091A301F09167
:1036F000A401882351F0CF0102969093A4018093F6
:10370000A301E4918E2F90E00895CF01029690934B
:10371000A4018093A30180819181089508952F923F
:103720003F924F925F926F927F928F929F92AF9251
:10373000BF92CF92DF92EF92FF920F931F93CF939E
:10374000DF9300D000D0CDB7DEB75C014B016C0138
:103750002DE4C20ED11CD6011496FC90FB012780EB
:10376000308440E00E9467282501FAE14F0E511C89
:10377000350127E4620E711C4614570439F1D20159
:1037800012968C9112978823E9F06C91B3E06B9FAD
:10379000B0011124FB01E45AFE4F8491FB01E35A6E
:1037A000FE4F64916F19062E000C770BE12CF2018D
:1037B000018126EC3CE048ED5CE0082E000C990B02
:1037C0000E94742EF5E04F0E511CD6CFF501E3593F
:1037D000FF4F8081811108C0C10168E270E00E9442
:1037E0007834853108F48BC0D6018D919C9125E009
:1037F000289FB001299F700D1124FB01EE5DFF4D44
:103800002491F601928191112DC0211135C036818C
:103810008581381305C021E080858430D9F539C011
:1038200083177CF487818F5F878328E0208780312E
:1038300009F41782F601278126952695220F2D5F20
:103840001BC038173CF587818F5F878324E0208772
:10385000803109F41782F601278126952695220FDB
:103860002E5F0AC026818581281313C0808584308D
:1038700009F44DC12BE00EC0233118F4203150F073
:103880000EC0253190F42351A0E0B0E044E65BE0A7
:1038900010C020E0A4E8BAE044EE5BE00AC020518A
:1038A000A0E0B0E04EE85BE004C0A0E0B0E040E0A3
:1038B00050E0F60186818583FB01E15EFF4D849136
:1038C000F6018683FB01E05EFF4D6491E92FF0E095
:1038D000EE56F24F3491F6019481691B631B062E5C
:1038E000000C770B082E000C990B109719F40E940E
:1038F000542E05C0E22E022F9D010E94742ED50188
:1039000054963C91549759969C91599755968C9101
:10391000992331F0E82FF0E0E955F94FE49101C027
:10392000E0E0EF19ED5F8D3030F08F3008F18F302F
:1039300011F418E022C0363249F020F43D3031F065
:1039400080F41BC03F3368F03F33B9F4D501529681
:103950008C91882379F06AE00E946C3416E0181B81
:103960000CC0D50156968C91883031F412E005C018
:1039700017E003C010E001C011E06E2FEE0F770BCF
:10398000212F46E658E0832F90E00E94542EF40148
:103990008389813059F56C147D0441F1D3018C91F8
:1039A000882301F111960C91B3E00B9F8001112443
:1039B000F801E051FC4F8491F801EF50FC4F649105
:1039C000F801EE50FC4F04916F19062E000C770B96
:1039D000E02E2CE537E040EE57E0082E000C990B66
:1039E0000E94742EE3E06E0E711CD5CF40E4B4014A
:1039F000C5010E946728D40154968C9181111EC084
:103A0000F501ED58FF4F8081882321F1E12C00E082
:103A100026E537E049E557E064E170E08BE190E0AE
:103A20000E94742EF4012289215043E557E067E19A
:103A300070E08FE490E00E94542E1DC0E12C00E065
:103A40002DEB36E040EC56E064E170E089E190E077
:103A50000E94742ED50112968C91882361F0E12C7E
:103A600000E027EB36E04AEB56E064E170E087E2E5
:103A700090E00E94742EE12C00E02DEE36E04FE144
:103A800057E060E070E086E690E00E94742E1982B4
:103A90001A821B821C82F40180899189FE01319671
:103AA0006E0125E0C20ED11C2AE030E0B9010E946F
:103AB00078348193CB01EC15FD05C1F709E610E0E0
:103AC000D6012E916D0143EC56E063E070E0C80131
:103AD0000E94542E0B5F1F4F0D37110589F70F9071
:103AE0000F900F900F90DF91CF911F910F91FF904A
:103AF000EF90DF90CF90BF90AF909F908F907F908E
:103B00006F905F904F903F902F900C940E282AE07A
:103B1000C1CE4F925F926F927F929F92AF92BF926F
:103B2000CF92DF92EF92FF920F931F93CF93DF9389
:103B3000EC018C01015A1F4F875A9F4FD8011396F1
:103B40009C938E9312970C970E94BD29FE01EE580C
:103B5000FF4F83E480837E01B1E7EB0EF11C86E02A
:103B6000F701808333978DE78083D80111961C92EB
:103B700011971C921296ED91FC91139782E082832B
:103B800084E18083FE01ED58FF4F10826E01BDE697
:103B9000CB0ED11CF6011082CE010E94DB29FE0162
:103BA0007A96CE01895B9F4FE817F90751F410E030
:103BB0008DE7482E512C612C712C95E0992E01E057
:103BC00024C01082128213823596EECF191741F16C
:103BD000828D681708F5861B8F3010F50E946433BC
:103BE000A30192010E940934645CF7012081FE0167
:103BF00090E09213EBCF9A9CF0019B9CF00D112466
:103C0000EC0FFD1F628F048F1F5FD7018C91181777
:103C100050F4A12EB12CE2CF362F381B832FDCCFEE
:103C20009F5F3596E6CFD6011C921A828BEF9AE2FF
:103C300090930B0780930A07DF91CF911F910F910B
:103C4000FF90EF90DF90CF90BF90AF909F907F90CC
:103C50006F905F904F9008952F923F924F925F9296
:103C60006F927F928F929F92AF92BF92CF92DF928C
:103C7000EF92FF920F931F93CF93DF93CDB7DEB7F1
:103C800028970FB6F894DEBF0FBECDBF5C018B0145
:103C9000FC01838D6501811104C0FCE1CF0ED11CB4
:103CA00003C02EE2C20ED11CF80147805084AAE066
:103CB0008A2E912CB3E0EB2EF12C20E04AE956E05D
:103CC000B401C7010E94542EFAE0EF0EF11C2FEF51
:103CD000821A920A31E7E316F10479F7E6E38E2EB1
:103CE000912CFFE0EF2EF12C20E04AE956E0B401E0
:103CF000C7010E94542E4AE0E40EF11C51E0851ADF
:103D000091088DE7E816F10479F7A5014C5E5F4F45
:103D1000F5016189C8010E941E28A5014B5E5F4F15
:103D2000F5016289C8010E941E28A5014A5E5F4F05
:103D3000F5016389C8010E941E28F80187819085DA
:103D400065E070E00E947834892BD9F4F50181890F
:103D50008F5F8E3811F0818B02C0F501118AF50159
:103D600082898F5F8E3811F0828B02C0F501128A32
:103D7000F50183898F5F8E3811F0838B02C0F501C6
:103D8000138AE12C00E024E936E047E956E062E1DD
:103D900070E08DE190E00E94742E2EE836E041E95B
:103DA00056E063E070E086E190E00E94742E7601B8
:103DB00008E110E03E01F7E06F0E711C9E012F5FDD
:103DC0003F4F1901A7014E5F5F4F58874F8374E241
:103DD000872E912CEF81F8852191F887EF832F337F
:103DE00011F0205401C020E048EF55E0B801C401B3
:103DF0000E94642EF6E08F0E911C26E38216910439
:103E000049F778866F8261E4862E912CF10126E0D5
:103E100011922A95E9F7F70180819181F1016AE019
:103E200070E00E9478348193CB016E167F06B9F75B
:103E3000EF81F8852291F887EF83255E48EF55E002
:103E4000B801C4010E94642EF5E08F0E911C2FE58D
:103E500082169104D9F6075F1F4F36E0E30EF11C7E
:103E60000333110509F0AECFF50127892F3F09F47F
:103E700077C0C20168E270E00E947834853108F4AE
:103E80006FC0C601F6E02F9F800D911D1124AC017B
:103E90004E5F5F4F4A0159E0259FC00111248C01FC
:103EA000095E1F4FF501C08CF6E0CF9E6001112422
:103EB00096012D5D3F4F49E2C40ED11C4F9640E163
:103EC000742E5FEFE52E57E2F52EC216D30639F1B8
:103ED000A80117FF02C040E050E0BC018134910509
:103EE00014F060E470E046175707B4F42038310549
:103EF00084F4BA01F701769ED001A0781124A20FB4
:103F00006770E60FF11D6490A554BE4F6C91662A50
:103F10006C924F5F5F4FE1CF2F5F3F4FD6CFF501E0
:103F2000808DF401E80FF11D20812F3311F0205412
:103F300001C020E0F5016789F9E06F9FB00111240D
:103F4000685E7F4F36E0839FC00111243BEFC32E94
:103F5000E12C00E010E048EF55E084960E94212C0F
:103F6000F50187898F3F79F4828D81110CC0E12C96
:103F700000E022E735E044EB55E065E370E080E3E4
:103F800090E00E94742EE12CF501038D24ED34E0C5
:103F900048E055E06BE170E082E090E00E94742E12
:103FA00028960FB6F894DEBF0FBECDBFDF91CF913C
:103FB0001F910F91FF90EF90DF90CF90BF90AF9047
:103FC0009F908F907F906F905F904F903F902F9039
:103FD0000C940E282F923F924F925F926F927F9295
:103FE0008F929F92AF92BF92CF92DF92EF92FF9209
:103FF0000F931F93CF93DF9300D000D000D0CDB7A5
:10400000DEB78C013B018EE0FB018387F801108E47
:10401000118E84E6828FFB018389F801838FFB0177
:10402000408851884114510409F44FC0882329F075
:1040300029EDA22EBB24B39404C097ECA92EBB2477
:10404000B3946501312CC6010E94D333481659063A
:1040500040F43394F6E0CF0ED11C83E03812F3CF56
:1040600034C045019CE0890E911C82E0282EFE019F
:1040700031967F013214B0F42A94B501F6E02F9EF8
:10408000600D711D112446E050E0C7010E94BB3352
:1040900046E050E0B401C7010E94D93386E0881A97
:1040A0009108E8CF86E0F70111928A95E9F78FE34E
:1040B0008B838C838D835A82498246E050E0B6011F
:1040C000C7010E94D933832D01C08FEFF801878B80
:1040D000F3011286118642E150E067EC71E0C801FD
:1040E0004C960E94BB3342E150E069ED71E0C8019B
:1040F0008E960E94BB3326960FB6F894DEBF0FBE95
:10410000CDBFDF91CF911F910F91FF90EF90DF9086
:10411000CF90BF90AF909F908F907F906F905F9067
:104120004F903F902F9008950C943E350C943E355F
:104130000C943E350C943E350C943E35FC01818147
:10414000813099F050F08230C9F4E08183E0E89F3B
:10415000F0011124EC52FF4F0FC0E08183E0E89F93
:10416000F0011124E35CFE4F07C0E08183E0E89F8B
:10417000F0011124E75EFE4F8491089580E00895D8
:10418000FC018181813099F050F08230C9F4E081E6
:1041900083E0E89FF0011124ED52FF4F0FC0E08152
:1041A00083E0E89FF0011124E45CFE4F07C0E0814A
:1041B00083E0E89FF0011124E85EFE4F84910895AA
:1041C00080E00895FC018181813099F050F08230C7
:1041D000C9F4E08183E0E89FF0011124EE52FF4F23
:1041E0000FC0E08183E0E89FF0011124E55CFE4F01
:1041F00007C0E08183E0E89FF0011124E95EFE4FF3
:104200008491089580E00895FC018581843019F03F
:10421000883021F008958381815002C083818F5FAF
:1042200083830895FC018381843019F0883061F024
:1042300017C08481882321F0853090F481500DC00F
:1042400081E0848388E00BC08481843028F084304E
:1042500039F493E0948303C08F5F848301C0838328
:1042600081818350853018F484818D5F8183089526
:10427000E1E7F0E080818D7F808310929100469885
:1042800047981092A5010895CF92DF92EF92FF9286
:104290001F93CF93DF93EC017B01DB0119961C91F7
:1042A0008B8DFE01811102C07C9601C0BE962F89C4
:1042B000D7012F3F09F480C017968D919C911897D4
:1042C0006CE070E00E9478347C01892B09F093C087
:1042D000B6E02B9FE00DF11D1124329617FF19C097
:1042E000888DDF01A80FB11D8C918F5F8C93888D15
:1042F000DF01A80FB11D8C918B3514F081E48C93F4
:10430000888DDF01A80FB11D8C91803411F481E4F8
:104310008C9314FF10C0888DDF01A80FB11D8C9104
:1043200081508C93888DDF01A80FB11D8C91813451
:1043300014F48AE58C9315FF05C0888D882311F04D
:104340008150888F16FF05C0888D823010F48F5FF2
:10435000888F13FF50C080818F3309F44CC0818156
:104360008F3309F448C082818F3309F444C06F0150
:10437000F60161916F012F898B8D882319F089EDEA
:1043800091E002C087EC91E0F6E02F9F800D911D37
:10439000112497012E5F3F4F820F931F0E94E93334
:1043A0003FEFE31AF30A43E0E416F10409F78FEF55
:1043B0008F8B84E68A8F1FC01A968C9180958123FB
:1043C0008C7099F08A8D811110C083E884BD27BD5F
:1043D00081EF809380001092880010928A000E94E2
:1043E000382182E0F701868B178A15FD1B8E16FF98
:1043F00002C081E08B8F1076898D1036E1F58F5FDA
:10440000898F853108F445C08D3310F18D3309F063
:1044100040C0198E83E884BD8FEF87BD81EF809304
:1044200080001092880010928A000E94D02E42E1F3
:1044300050E067EC71E0CE014C960E94BB3342E144
:1044400050E069ED71E0CE018E960E94BB3321C031
:1044500020E430E0A901481B5109CA01880F93E804
:1044600094BD9FEF97BD91EF9093800010928800CC
:1044700080938A000EC0882361F083E884BD8FEFAB
:1044800087BD81EF809380001092880010928A008F
:10449000198E8A8D882311F081508A8FDF91CF91F8
:1044A0001F91FF90EF90DF90CF9008951F920F9291
:1044B0000FB60F921124CF92DF92EF92FF920F93DB
:1044C0001F932F933F934F935F936F937F938F939C
:1044D0009F93AF93BF93CF93DF93EF93FF9380911D
:1044E000A8019091A901A091AA01B091AB01892BDB
:1044F0008A2B8B2B89F18091A70181110BC098B178
:1045000080E4892788B98091A601882319F088B1B1
:10451000805888B98091A8019091A901A091AA0121
:10452000B091AB01181619061A061B060CF0A4C0B0
:104530008091A8019091A901A091AA01B091AB012D
:104540000197A109B1098093A8019093A901A093B3
:10455000AA01B093AB0190C00E94731B811520E8A3
:10456000920719F40E94382187C021E02093A50109
:10457000813020E8920731F41092A4011092A30137
:104580000E94731B97FD05C02091A201222309F40C
:104590003FC02091A10121113BC021E02093A60141
:1045A000EC01DF77209769F481E08093A7014698BA
:1045B0003FE9C32E3FE0D32EE12CF12CCAEFD0E02F
:1045C00014C08E0120E030E060E472E48FE090E0FF
:1045D000A90198010E94093469017A0181E0C81A91
:1045E000D108E108F1081092A701E0910A07F091C3
:1045F0000B070995811103C081E08093A701809189
:10460000A6018823B9F18091A701811133C003C0AD
:104610001092A601C5CF46992DC0479A0E94731BE0
:10462000009771F09C01DE010E945D34DC01CB013A
:1046300029E0B595A795979587952A95D1F703C059
:104640008FEF9FEFDC01109290002AE02093910001
:10465000D0929900C09298008093A8019093A901EC
:10466000A093AA01B093AB01809171008260809306
:10467000710002C04798D2CFFF91EF91DF91CF91A7
:10468000BF91AF919F918F917F916F915F914F916A
:104690003F912F911F910F91FF90EF90DF90CF905E
:1046A0000F900FBE0F901F901895089508950895CC
:1046B000089508950C943E3508950E94C7354091A1
:1046C000B5015091B6012091B3013091B401421768
:1046D0005307B4F49091E8009570E1F39091E800ED
:1046E00092FD19C08093F1008091B5019091B601BF
:1046F00001968F739927892B19F48EEF8093E80028
:104700008091B5019091B60101969093B601809386
:10471000B50181E0089580E00895DF92EF92FF9265
:104720000F931F93CF93DF93D82E8A017B01E40E62
:10473000F51EEB01CE15DF0571F0D7FE03C0FE01BB
:10474000849101C088810E945F2321968111F2CF5C
:104750008FEF9FEF01C0C801DF91CF911F910F91A3
:10476000FF90EF90DF900895615030F02091F100BC
:10477000FC0120830196F8CF289884E68093B90144
:104780000895CF92DF92EF92FF920F931F93CF93F2
:10479000DF936C017A018B01C0E0D0E0CE15DF051C
:1047A00081F0D8016D918D01D601ED91FC910190C0
:1047B000F081E02DC6010995892B11F02196EECFED
:1047C0007E01C701DF91CF911F910F91FF90EF9074
:1047D000DF90CF900895CF93DF931F92CDB7DEB7D0
:1047E0006983DC01ED91FC910280F381E02D41E0D1
:1047F00050E0BE016F5F7F4F09950F90DF91CF9121
:10480000089583E08093E9008091F200882319F0F5
:104810008AE38093E8000895FC018485958597FDDF
:104820000BC09FB7F89482E08093E9008091F2007A
:104830009FBF90E0019608959FB7F89482E080931F
:10484000E9008091F2009FBF90E008950F931F93BD
:10485000CF93DF931F92CDB7DEB782E0898342E426
:1048600050E06DE17DE080E80E948D230E94E72A00
:10487000DC0112960D911C9113970115110589F019
:10488000D801ED91FC910280F381E02DBE016F5FB4
:104890007F4FC801099597FD04C0F8010085118577
:1048A000ECCF89810F90DF91CF911F910F910895E7
:1048B0000E94D62A90E008950F931F93CF93DF9321
:1048C0001F92CDB7DEB78C01FC018485958597FFDB
:1048D0000EC0CE0101960E94A82A019719F4898181
:1048E00090E002C08FEF9FEFF80195878487F80171
:1048F000848595850F90DF91CF911F910F91089539
:10490000CF93DF931F92CDB7DEB7FC0184859585E9
:1049100097FD05C02FEF3FEF358724870BC0CE01F1
:1049200001960E94A82A019719F4898190E002C09B
:104930008FEF9FEF0F90DF91CF9108951F920F920D
:104940000FB60F9211248F939F938091E100909165
:10495000E100937F9093E10083FF0FC01092E90084
:1049600091E09093EB001092EC0092E39093ED00B5
:104970001092BA0198E09093F00082FF20C093E07B
:104980009093E9009091F200992319F09AE39093A3
:10499000E8009091B801992339F09091B8019150B5
:1049A0009093B801992389F19091B901992339F035
:1049B0009091B90191509093B901992341F184FFED
:1049C00010C08091E2008E7E81608093E200809131
:1049D000E1008F7E8093E1008091AC018E7E80614A
:1049E00011C080FF16C08091E2008E7E80618093AE
:1049F000E2008091E1008E7E8093E1008091AC0125
:104A00008E7E81608093AC0104C05D9ACDCF289AE0
:104A1000D6CF9F918F910F900FBE0F901F9018953A
:104A20001F920F920FB60F921124CF92DF92EF9246
:104A3000FF920F931F932F933F934F935F936F9327
:104A40007F938F939F93AF93BF93EF93FF93CF93F6
:104A5000DF93CDB7DEB76C97DEBFCDBF1092E90014
:104A60008091E80083FFFBC168E0CE0145960E947B
:104A7000B42382EF8093E8008D8987FF05C0909171
:104A8000E80090FFFCCF03C09EEF9093E800982FC2
:104A9000907609F0C6C09E894F89588D2F89F88C71
:104AA00091110CC0803829F48091AD018093F10000
:104AB00002C01092F1001092F10045C1913051F402
:104AC000811141C14130510509F03DC18091AD01D5
:104AD0008D7F0BC0933061F4811135C14130510598
:104AE00009F031C18091AD0182608093AD012BC18D
:104AF000953049F48091E80080FFFCCF822F8068D8
:104B00008093E30020C1963009F05EC00B8D1C8DB0
:104B100022E01092E9001092B6011092B501F21253
:104B200032C01092B4011092B3010E94262499E081
:104B3000BE016F5F7F4FDB01E92F1D92EA95E9F718
:104B40009983FA8291E09E8390EA98879AEF9987F9
:104B50002091B5013091B601275F3F4F3C832B83F5
:104B60008D831092E9001092B6011092B501109356
:104B7000B4010093B30149E050E080E00E948D232E
:104B80000E942624E0C01093B4010093B3010E9458
:104B9000E72ADC0112960D911C911397011511055E
:104BA00009F4BBC0D801ED91FC910480F581E02DA2
:104BB000BE016B5E7F4FC8010995009709F0C7C021
:104BC000F80100851185EACF973009F445C1983086
:104BD00021F481E08093F100B6C0993009F0B3C0B0
:104BE000837009F039C1EAE1F1E081E031E096E358
:104BF0002081211109C08EE78093EA001092EA001B
:104C00008F898093BA019FC08093E9003093EB00B5
:104C100021912093EC009093ED008F5F873041F756
:104C2000EACF8B8D9C8D1092E9001092B601109204
:104C3000B5019093B4018093B301898D811153C064
:104C40008E899D89913A49F4813209F005C147E086
:104C500050E064E071E080E0BBC0913209F0FCC03C
:104C6000833269F48F89988DA0E0B0E080930001D1
:104C700090930101A0930201B093030164C08032BC
:104C800069F48091E80082FFFCCF67E084E091E066
:104C90000E94B4238BEF8093E80055C0823209F064
:104CA00052C08F8980930B01EEEFFFE785919491BD
:104CB0008B3F9C4D19F0E0E0F8E002C0EEEFFAE027
:104CC0008091040190910501A0910601B091070126
:104CD000803B9440A105B10509F09EC080910B0175
:104CE00080FF79C099C00E94E72AFC0102811381EC
:104CF0000115110509F4B0C0D801ED91FC910190A6
:104D0000F081E02DBE016B5E7F4FC80109958111D6
:104D10001AC0F80100851185EBCFF1E0FF1609F408
:104D20004EC0F3E0FF1298C08F89882309F44AC06F
:104D3000823089F440E860E181E89DE00E9403321E
:104D4000882309F489C08EEF8093E80088C0181684
:104D50001906CCF381C0813029F440E86BE085E787
:104D60009DE0ECCF833009F077C00E94E72ADC0198
:104D70001296ED90FC9013978E010F5F1F4F680104
:104D8000E114F10479F0D701ED91FC910680F781EF
:104D9000E02DB801C7010995080F111DF701E08446
:104DA000F184EECFD8011C92F60101900020E9F7C2
:104DB0003197BF016C197D0940E0C601BFCF63E6A2
:104DC0007DE002C06FE57DE0FB01449150E080E8AA
:104DD0000E948D23B8CFEE3F2AE0F20751F0808188
:104DE00091818737A7E79A0721F09093FF0A809374
:104DF000FE0A87E797E79183808380916000809324
:104E0000B7019BE088E10FB6F894A8958093600005
:104E10000FBE9093600097CF80819181873797472D
:104E200009F091CFA895809160008861809360001F
:104E30008091B70180936000EE3FBAE0FB0739F044
:104E40008091FE0A9091FF0A918380837CCF10921B
:104E5000FF0A1092FE0A77CF81E28093EB006C96F6
:104E60000FB6F894DEBF0FBECDBFDF91CF91FF919B
:104E7000EF91BF91AF919F918F917F916F915F91D2
:104E80004F913F912F911F910F91FF90EF90DF90E5
:104E9000CF900F900FBE0F901F9018958F929F92FA
:104EA000AF92BF92CF92DF92EF92FF926B017C01A3
:104EB0000E94B22B4B015C01C114D104E104F10446
:104EC000F1F00E94B22BDC01CB0188199909AA09E3
:104ED000BB09883E9340A105B10570F321E0C21AD9
:104EE000D108E108F10888EE880E83E0981EA11C25
:104EF000B11CC114D104E104F10419F7DDCFFF9016
:104F0000EF90DF90CF90BF90AF909F908F900895DB
:104F10008F929F92AF92BF92CF92DF92EF92FF92C9
:104F20000F931F93CF93DF936C017B018A018091D4
:104F30000B01882309F45CC08091BA01882309F42D
:104F400057C08091AC0180FF05C08091E000826075
:104F50008093E000E801B12C8AEFA82E93E0892E1F
:104F60002AE3922E209711F4BB20D9F10E94D62A71
:104F700081110AC0AA94AA20D9F161E070E080E012
:104F800090E00E944E27EECF282F30E0C217D307C3
:104F90000CF48C2F9FB7F8948092E9002091E800E0
:104FA00025FF1DC0282F30E0C21BD30BF701815015
:104FB00020F041914093F100FACFE20EF31EBB20A6
:104FC00019F09092E8000AC08091E80085FD07C0C2
:104FD0009092E800BB24B394209709F0B12C9FBFB6
:104FE000C1CF5D9884E68093B8011016110644F095
:104FF00081E090E0F6019383828380E090E001C03D
:10500000C801DF91CF911F910F91FF90EF90DF903A
:10501000CF90BF90AF909F908F900895EBEBF1E011
:1050200081E0A0E0B8E000800EBC8111012C119756
:10503000A0FDFDCF0192B9F70DB40895EF920F9343
:105040001F93CF93DF93EA0143E0649F9001112403
:10505000F901EB58F14E1491F901EA58F14E4491DF
:10506000F901E958F14E2491FC018781908565E0B2
:1050700070E00E947834892B91F4213041F0223085
:1050800071F488818F5F8330F9F418821EC08881A3
:10509000811102C083E088838881815015C024304B
:1050A000A1F400E0642F440F770BE12C2BE23EE1EA
:1050B0004DE35EE1812F90E00E94742EDF91CF914D
:1050C0001F910F91EF90089588830881EBCF2F9265
:1050D0003F924F925F926F927F928F929F92AF9288
:1050E000BF92CF92DF92EF92FF920F931F93CF93D5
:1050F000DF93CDB7DEB72A970FB6F894DEBF0FBEA9
:10510000CDBF5B01342EFC01E35BFF4F248024E420
:10511000C22E2DE1D22E2C0124E6420E511C769691
:10512000FA83E9839C012A593F4F3C832B833A97AA
:10513000FE83ED832750310938872F834C013BE6EE
:10514000830E911C3C01E9E66E0E711C9C012959ED
:105150003F4F3A872987F601F4903196E4903196D3
:105160008491249130E0220F232F221F330B332010
:1051700031F0F0E43F120EC02115310559F0F50170
:105180000389013049F1232B39F104C0F5018289EB
:105190008111B7C0F3E0CF0ED11C28E23EE12C15FF
:1051A0003D05C9F680E02A960FB6F894DEBF0FBE23
:1051B000CDBFDF91CF911F910F91FF90EF90DF90C6
:1051C000CF90BF90AF909F908F907F906F905F90A7
:1051D0004F903F902F900895E218E82FEF718E2F97
:1051E00090E083319105B0F6FC01EA5AFF4F0C9430
:1051F000A03489859A850E94E220082F89859A85A6
:105200000E94C020182F89859A8514C0C3010E946E
:10521000C020182FC3010E949E2000E046E55BE1FC
:1052200051C0C4010E94E220082FC4010E94C02086
:10523000182FC4010E949E20F1CFEF81F885818153
:1052400010E000E045E05BE13DC0ED81FE81818141
:1052500010E000E047EE5FE035C0EB81FC8180812B
:1052600010E000E041E35FE02DC0E981FA81808138
:1052700010E000E047EE5EE025C0F2018181882366
:1052800009F488CF808110E000E049E75EE01AC0B1
:1052900000E021ED3DE045E65EE04AC02BEB3DE05D
:1052A00047E35EE045C0F5018289823050F572CF58
:1052B000F5018289833028F56DCF00E047E35DE199
:1052C00010E080E0612F110F770B6E0D711DE7FC70
:1052D0007A95002E000C110B282FC8018F0D911DFF
:1052E000F7FC9A950E94542E55CF00E029EF3DE03F
:1052F0004FEE5AE11DC010E000E080E04AE15DE1C0
:10530000E1CF10E000E080E04EE25EE0DBCF10E0B5
:1053100000E080E049E25DE1D5CF00E02DE03EE035
:1053200043E35BE105C000E023EE3DE049ED5AE1D7
:105330006E2DEE0C770BE12C8F2DFF0C990B0E943C
:10534000742E28CFDC0111967C936E9385E0869FA6
:105350009001879F300D1124F901ED5DFF4DE4911F
:105360001396EC931397F901EF5DFF4DE4911496BA
:10537000EC93149712961C920895CF93DF93EC014F
:1053800060E070E00E94A2291A8219861A861B86A4
:105390008881998125E0289FF001299FF00D112433
:1053A000E15EFF4DE491EE838FEF8D8388E0888787
:1053B000DF91CF910895FC01DC01A859BF4F1C92E9
:1053C00011971C92139681E08C9311971C9213965F
:1053D00082E08C9311971C92118A128A138A8DE0B5
:1053E000848B118E158AEA59FF4F84E080830895DB
:1053F000FC01E35BFF4F21E02187B09610823196DC
:1054000028EC2083359610827497118210820280D6
:10541000F381E02D82E0828384E18083FB01828935
:105420008150828B0895CF93DF9300D000D000D0BD
:10543000CDB7DEB7DC018D919C91119725E0289FB7
:10544000A001299F500D1124FA01E15EFF4D249126
:10545000FA01E05EFF4D44911296EC911297F0E054
:10546000EE56F24FE49114968C91481B4E1B30E09F
:105470003A832983042E000C550B5C834B833A81BD
:105480005C8167E07BE080E090E026960FB6F894C0
:10549000DEBF0FBECDBFDF91CF910895009769F0B9
:1054A000FC0101900020E9F73197AF01481B590B2F
:1054B000BC018BEB95E00C94882780E090E0089588
:1054C000FC018381863231F08F3331F08D3031F041
:1054D0008FEF089581E0089582E0089580E00895B7
:1054E000DC018D919C911197019611969C938E935E
:1054F00045E0489F9001499F300D1124F901ED5D71
:10550000FF4DE4911396EC931397F901EF5DFF4D76
:10551000E4911496EC930895DC018D919C91119780
:10552000019711969C938E9345E0489F9001499F67
:10553000300D1124F901ED5DFF4DE4911396EC93CC
:105540001397F901EF5DFF4DE4911496EC930895E4
:105550002091BA01211103C08FEF9FEF08955FB72B
:10556000F89422E02093E9002091F20030E0121636
:10557000130614F421E030E0422FFC0184E6415090
:1055800038F028988093B9019091F1009193F7CF6A
:105590002115310521F08091F200882319F05FBFB9
:1055A000C90108958BE68093E800F9CF2FB7F894EE
:1055B00083E08093E9009091E800892F807295FF45
:1055C00004C09091F20080E4891B2FBF0895809160
:1055D000F40681110DC082E08093F00684E0809390
:1055E000F1061092F3061092F20681E08093F40621
:1055F00080EF96E008958091AE0108950895089592
:1056000080E090E00895FF920F931F93CF93DF9374
:10561000FC01DB0119968C9119971A96FC901A9748
:10562000F094F82284FF14C08189803118F48F5FD0
:10563000818B0FC0F89487E780930008809301085E
:10564000A89588E18093600088E080936000FFCF98
:10565000118A82898F3190F017968C91179780FD6F
:105660000DC08389863250F48F5F838B17968D919E
:105670009C91189783709927892BC9F18D01EF01AF
:105680008F2D8C70C1F0F3FA882780F991E089277B
:1056900053968C9383E884BD8FEF87BD81EF809311
:1056A00080001092880010928A000E94382184E0C5
:1056B000F801868B178AF7FC03C08F2D807789F05D
:1056C00083E884BD8FEF87BD81EF809380001092C7
:1056D000880010928A000E94382185E0F801868BAC
:1056E000178A8A89823890F48F5F8A8B0FC08589E8
:1056F0008F5F858B833009F4158A8489811102C0FC
:1057000083E0848B84898150848BB8CFDF91CF91E3
:105710001F910F91FF900895CF93DF93EC01FB0150
:1057200083E0828B118A108A148A8BEF9AE290931D
:105730000B0780930A070E94643322E030E040E0C8
:1057400050E00E940934FB01EE0FFF1FE855F84DB1
:105750008591949184E08B8B1C8A1D8A1A8ADF9133
:10576000CF9108953FB7F89480910D0790910E075F
:10577000A0910F07B091100726B5A89B05C02F3F39
:1057800019F00196A11DB11D3FBFBA2FA92F982F67
:105790008827820F911DA11DB11DBC01CD0142E0E2
:1057A000660F771F881F991F4A95D1F708951F929A
:1057B0000F920FB60F9211242F933F938F939F93C5
:1057C000AF93BF938091AF019091B001A091B101CF
:1057D000B091B20130910C0723E0230F2D3720F454
:1057E0000196A11DB11D05C026E8230F0296A11D3B
:1057F000B11D20930C078093AF019093B001A0934B
:10580000B101B093B20180910D0790910E07A09164
:105810000F07B09110070196A11DB11D80930D07D0
:1058200090930E07A0930F07B0931007BF91AF910D
:105830009F918F913F912F910F900FBE0F901F90CE
:1058400018954F925F927F928F929F92AF92BF92E4
:10585000CF92DF92EF92FF920F931F93CF93DF933C
:1058600000D000D0CDB7DEB7DC01480141155105AD
:1058700009F406C2FA01F490319684914E5F5F4FAD
:10588000AF2CB12C211102C0EE2061F101E010E03B
:10589000982F977011F400E010E0982F9695969548
:1058A0009695090F111D0A9DF0010B9DF00D1A9D93
:1058B000F00D112413E0712EC71003C0EE0FFF1F6F
:1058C0000AC08114910439F0EE9E8001EF9E100D04
:1058D0001124800E911E2E9F80012F9F100D1124E8
:1058E000400F511F1FEFC11208C08114910419F01D
:1058F000CC24C39402C022E0C22EFD01EA0DFB1DA0
:105900001E161F060CF0BCC1A038B1050CF0B8C1C2
:105910009B01280F311D121613060CF0B1C1603423
:1059200071050CF0ADC14115510509F4A9C1362F1F
:1059300037708B0177FF02C0095F1F4F93E0159509
:1059400007959A95E1F7202F77FF04C0332311F0D4
:105950002FEF200FB7FF05C0002711270A1B1B0BD5
:1059600002C000E010E0E038F1051CF090E89A1B5E
:1059700001C09F2D901B622F022E000C770B2F3F32
:105980001CF4E62EE09401C0E12CF1E0E82FE77072
:1059900009F4F0E0869586958695F80F6F0F711DD6
:1059A0006930710514F0F8E0F21BFE192E0D60E865
:1059B0002603A00DB11D1124A00FB11FFE9C000DE8
:1059C000111D1124400F511F61E070E07B01032E77
:1059D00002C0EE0CFF1C0A94E2F773E0C71609F44C
:1059E00007C17C15C8F081E0C81609F4B9C0E2E02F
:1059F000CE1246C18FEF8E9D80018F9D100D112418
:105A0000009510951C830B839C80BD0165547E4FCF
:105A10002B018F2E820E2DC06AEF762EC71409F44B
:105A20003BC01BEFC1122CC1BD0165547E4F4B0121
:105A3000DF2ED20E83C084918E9D60018F9DD00C8D
:105A40001124DA82C98227FD05C0DB018C918023F5
:105A5000C82ACC92311113C031966F5F7F4F8E2FC1
:105A6000841B891740F32F5F4A0D5B1DB0E84B0E76
:105A7000511C281509F404C1B201FA01F0CF2730F6
:105A80005CF76B01B0E8CB0ED11CD6018C9189215B
:105A90007A8087298C93E0CFBD0165547E4F4B01FE
:105AA000DF2ED20E2D1509F4EBC0B401FA018E2FB2
:105AB000841B8917F0F484918E9D80018F9D100DB9
:105AC00011241A83098327FD04C0DB018C91082B64
:105AD0000C93332351F0273044F48B0100581F4FAF
